{
  "contractName": "Bonding",
  "abi": [
    {
      "anonymous": false,
      "inputs": [
        {
          "indexed": true,
          "internalType": "address",
          "name": "account",
          "type": "address"
        },
        {
          "indexed": false,
          "internalType": "uint256",
          "name": "start",
          "type": "uint256"
        },
        {
          "indexed": false,
          "internalType": "uint256",
          "name": "value",
          "type": "uint256"
        },
        {
          "indexed": false,
          "internalType": "uint256",
          "name": "valueUnderlying",
          "type": "uint256"
        }
      ],
      "name": "Bond",
      "type": "event"
    },
    {
      "anonymous": false,
      "inputs": [
        {
          "indexed": true,
          "internalType": "address",
          "name": "account",
          "type": "address"
        },
        {
          "indexed": false,
          "internalType": "uint256",
          "name": "value",
          "type": "uint256"
        }
      ],
      "name": "Deposit",
      "type": "event"
    },
    {
      "anonymous": false,
      "inputs": [
        {
          "indexed": true,
          "internalType": "address",
          "name": "from",
          "type": "address"
        },
        {
          "indexed": true,
          "internalType": "address",
          "name": "to",
          "type": "address"
        },
        {
          "indexed": false,
          "internalType": "uint256",
          "name": "value",
          "type": "uint256"
        }
      ],
      "name": "Transfer",
      "type": "event"
    },
    {
      "anonymous": false,
      "inputs": [
        {
          "indexed": true,
          "internalType": "address",
          "name": "account",
          "type": "address"
        },
        {
          "indexed": false,
          "internalType": "uint256",
          "name": "start",
          "type": "uint256"
        },
        {
          "indexed": false,
          "internalType": "uint256",
          "name": "value",
          "type": "uint256"
        },
        {
          "indexed": false,
          "internalType": "uint256",
          "name": "valueUnderlying",
          "type": "uint256"
        }
      ],
      "name": "Unbond",
      "type": "event"
    },
    {
      "anonymous": false,
      "inputs": [
        {
          "indexed": true,
          "internalType": "address",
          "name": "account",
          "type": "address"
        },
        {
          "indexed": false,
          "internalType": "uint256",
          "name": "value",
          "type": "uint256"
        }
      ],
      "name": "Withdraw",
      "type": "event"
    },
    {
      "constant": true,
      "inputs": [
        {
          "internalType": "address",
          "name": "owner",
          "type": "address"
        },
        {
          "internalType": "address",
          "name": "spender",
          "type": "address"
        }
      ],
      "name": "allowance",
      "outputs": [
        {
          "internalType": "uint256",
          "name": "",
          "type": "uint256"
        }
      ],
      "payable": false,
      "stateMutability": "view",
      "type": "function"
    },
    {
      "constant": true,
      "inputs": [
        {
          "internalType": "address",
          "name": "owner",
          "type": "address"
        },
        {
          "internalType": "address",
          "name": "spender",
          "type": "address"
        }
      ],
      "name": "allowanceCoupons",
      "outputs": [
        {
          "internalType": "uint256",
          "name": "",
          "type": "uint256"
        }
      ],
      "payable": false,
      "stateMutability": "view",
      "type": "function"
    },
    {
      "constant": false,
      "inputs": [
        {
          "internalType": "address",
          "name": "spender",
          "type": "address"
        },
        {
          "internalType": "uint256",
          "name": "amount",
          "type": "uint256"
        }
      ],
      "name": "approve",
      "outputs": [
        {
          "internalType": "bool",
          "name": "",
          "type": "bool"
        }
      ],
      "payable": false,
      "stateMutability": "nonpayable",
      "type": "function"
    },
    {
      "constant": true,
      "inputs": [
        {
          "internalType": "address",
          "name": "candidate",
          "type": "address"
        }
      ],
      "name": "approveFor",
      "outputs": [
        {
          "internalType": "uint256",
          "name": "",
          "type": "uint256"
        }
      ],
      "payable": false,
      "stateMutability": "view",
      "type": "function"
    },
    {
      "constant": true,
      "inputs": [
        {
          "internalType": "address",
          "name": "account",
          "type": "address"
        }
      ],
      "name": "balanceOf",
      "outputs": [
        {
          "internalType": "uint256",
          "name": "",
          "type": "uint256"
        }
      ],
      "payable": false,
      "stateMutability": "view",
      "type": "function"
    },
    {
      "constant": true,
      "inputs": [
        {
          "internalType": "address",
          "name": "account",
          "type": "address"
        }
      ],
      "name": "balanceOfBonded",
      "outputs": [
        {
          "internalType": "uint256",
          "name": "",
          "type": "uint256"
        }
      ],
      "payable": false,
      "stateMutability": "view",
      "type": "function"
    },
    {
      "constant": true,
      "inputs": [
        {
          "internalType": "address",
          "name": "account",
          "type": "address"
        },
        {
          "internalType": "uint256",
          "name": "epoch",
          "type": "uint256"
        }
      ],
      "name": "balanceOfCoupons",
      "outputs": [
        {
          "internalType": "uint256",
          "name": "",
          "type": "uint256"
        }
      ],
      "payable": false,
      "stateMutability": "view",
      "type": "function"
    },
    {
      "constant": true,
      "inputs": [
        {
          "internalType": "address",
          "name": "account",
          "type": "address"
        }
      ],
      "name": "balanceOfStaged",
      "outputs": [
        {
          "internalType": "uint256",
          "name": "",
          "type": "uint256"
        }
      ],
      "payable": false,
      "stateMutability": "view",
      "type": "function"
    },
    {
      "constant": true,
      "inputs": [
        {
          "internalType": "uint256",
          "name": "epoch",
          "type": "uint256"
        }
      ],
      "name": "bootstrappingAt",
      "outputs": [
        {
          "internalType": "bool",
          "name": "",
          "type": "bool"
        }
      ],
      "payable": false,
      "stateMutability": "view",
      "type": "function"
    },
    {
      "constant": true,
      "inputs": [
        {
          "internalType": "uint256",
          "name": "epoch",
          "type": "uint256"
        }
      ],
      "name": "couponsExpiration",
      "outputs": [
        {
          "internalType": "uint256",
          "name": "",
          "type": "uint256"
        }
      ],
      "payable": false,
      "stateMutability": "view",
      "type": "function"
    },
    {
      "constant": true,
      "inputs": [],
      "name": "decimals",
      "outputs": [
        {
          "internalType": "uint8",
          "name": "",
          "type": "uint8"
        }
      ],
      "payable": false,
      "stateMutability": "view",
      "type": "function"
    },
    {
      "constant": true,
      "inputs": [],
      "name": "epoch",
      "outputs": [
        {
          "internalType": "uint256",
          "name": "",
          "type": "uint256"
        }
      ],
      "payable": false,
      "stateMutability": "view",
      "type": "function"
    },
    {
      "constant": true,
      "inputs": [],
      "name": "epochTime",
      "outputs": [
        {
          "internalType": "uint256",
          "name": "",
          "type": "uint256"
        }
      ],
      "payable": false,
      "stateMutability": "view",
      "type": "function"
    },
    {
      "constant": true,
      "inputs": [],
      "name": "ethic",
      "outputs": [
        {
          "internalType": "contract IEthic",
          "name": "",
          "type": "address"
        }
      ],
      "payable": false,
      "stateMutability": "view",
      "type": "function"
    },
    {
      "constant": true,
      "inputs": [
        {
          "internalType": "uint256",
          "name": "epoch",
          "type": "uint256"
        }
      ],
      "name": "expiringCoupons",
      "outputs": [
        {
          "internalType": "uint256",
          "name": "",
          "type": "uint256"
        }
      ],
      "payable": false,
      "stateMutability": "view",
      "type": "function"
    },
    {
      "constant": true,
      "inputs": [
        {
          "internalType": "uint256",
          "name": "epoch",
          "type": "uint256"
        },
        {
          "internalType": "uint256",
          "name": "i",
          "type": "uint256"
        }
      ],
      "name": "expiringCouponsAtIndex",
      "outputs": [
        {
          "internalType": "uint256",
          "name": "",
          "type": "uint256"
        }
      ],
      "payable": false,
      "stateMutability": "view",
      "type": "function"
    },
    {
      "constant": true,
      "inputs": [
        {
          "internalType": "address",
          "name": "account",
          "type": "address"
        }
      ],
      "name": "fluidUntil",
      "outputs": [
        {
          "internalType": "uint256",
          "name": "",
          "type": "uint256"
        }
      ],
      "payable": false,
      "stateMutability": "view",
      "type": "function"
    },
    {
      "constant": true,
      "inputs": [],
      "name": "implementation",
      "outputs": [
        {
          "internalType": "address",
          "name": "impl",
          "type": "address"
        }
      ],
      "payable": false,
      "stateMutability": "view",
      "type": "function"
    },
    {
      "constant": true,
      "inputs": [
        {
          "internalType": "address",
          "name": "candidate",
          "type": "address"
        }
      ],
      "name": "isInitialized",
      "outputs": [
        {
          "internalType": "bool",
          "name": "",
          "type": "bool"
        }
      ],
      "payable": false,
      "stateMutability": "view",
      "type": "function"
    },
    {
      "constant": true,
      "inputs": [
        {
          "internalType": "address",
          "name": "candidate",
          "type": "address"
        }
      ],
      "name": "isNominated",
      "outputs": [
        {
          "internalType": "bool",
          "name": "",
          "type": "bool"
        }
      ],
      "payable": false,
      "stateMutability": "view",
      "type": "function"
    },
    {
      "constant": true,
      "inputs": [
        {
          "internalType": "address",
          "name": "account",
          "type": "address"
        }
      ],
      "name": "lockedUntil",
      "outputs": [
        {
          "internalType": "uint256",
          "name": "",
          "type": "uint256"
        }
      ],
      "payable": false,
      "stateMutability": "view",
      "type": "function"
    },
    {
      "constant": true,
      "inputs": [],
      "name": "name",
      "outputs": [
        {
          "internalType": "string",
          "name": "",
          "type": "string"
        }
      ],
      "payable": false,
      "stateMutability": "view",
      "type": "function"
    },
    {
      "constant": true,
      "inputs": [],
      "name": "oracle",
      "outputs": [
        {
          "internalType": "contract IOracle",
          "name": "",
          "type": "address"
        }
      ],
      "payable": false,
      "stateMutability": "view",
      "type": "function"
    },
    {
      "constant": true,
      "inputs": [
        {
          "internalType": "uint256",
          "name": "epoch",
          "type": "uint256"
        }
      ],
      "name": "outstandingCoupons",
      "outputs": [
        {
          "internalType": "uint256",
          "name": "",
          "type": "uint256"
        }
      ],
      "payable": false,
      "stateMutability": "view",
      "type": "function"
    },
    {
      "constant": true,
      "inputs": [
        {
          "internalType": "address",
          "name": "candidate",
          "type": "address"
        }
      ],
      "name": "periodFor",
      "outputs": [
        {
          "internalType": "uint256",
          "name": "",
          "type": "uint256"
        }
      ],
      "payable": false,
      "stateMutability": "view",
      "type": "function"
    },
    {
      "constant": true,
      "inputs": [],
      "name": "pool",
      "outputs": [
        {
          "internalType": "address",
          "name": "",
          "type": "address"
        }
      ],
      "payable": false,
      "stateMutability": "view",
      "type": "function"
    },
    {
      "constant": true,
      "inputs": [
        {
          "internalType": "address",
          "name": "account",
          "type": "address"
        },
        {
          "internalType": "address",
          "name": "candidate",
          "type": "address"
        }
      ],
      "name": "recordedVote",
      "outputs": [
        {
          "internalType": "enum Candidate.Vote",
          "name": "",
          "type": "uint8"
        }
      ],
      "payable": false,
      "stateMutability": "view",
      "type": "function"
    },
    {
      "constant": true,
      "inputs": [
        {
          "internalType": "address",
          "name": "candidate",
          "type": "address"
        }
      ],
      "name": "rejectFor",
      "outputs": [
        {
          "internalType": "uint256",
          "name": "",
          "type": "uint256"
        }
      ],
      "payable": false,
      "stateMutability": "view",
      "type": "function"
    },
    {
      "constant": true,
      "inputs": [
        {
          "internalType": "address",
          "name": "candidate",
          "type": "address"
        }
      ],
      "name": "startFor",
      "outputs": [
        {
          "internalType": "uint256",
          "name": "",
          "type": "uint256"
        }
      ],
      "payable": false,
      "stateMutability": "view",
      "type": "function"
    },
    {
      "constant": true,
      "inputs": [
        {
          "internalType": "address",
          "name": "account",
          "type": "address"
        }
      ],
      "name": "statusOf",
      "outputs": [
        {
          "internalType": "enum Account.Status",
          "name": "",
          "type": "uint8"
        }
      ],
      "payable": false,
      "stateMutability": "view",
      "type": "function"
    },
    {
      "constant": true,
      "inputs": [],
      "name": "symbol",
      "outputs": [
        {
          "internalType": "string",
          "name": "",
          "type": "string"
        }
      ],
      "payable": false,
      "stateMutability": "view",
      "type": "function"
    },
    {
      "constant": true,
      "inputs": [],
      "name": "totalBonded",
      "outputs": [
        {
          "internalType": "uint256",
          "name": "",
          "type": "uint256"
        }
      ],
      "payable": false,
      "stateMutability": "view",
      "type": "function"
    },
    {
      "constant": true,
      "inputs": [
        {
          "internalType": "uint256",
          "name": "epoch",
          "type": "uint256"
        }
      ],
      "name": "totalBondedAt",
      "outputs": [
        {
          "internalType": "uint256",
          "name": "",
          "type": "uint256"
        }
      ],
      "payable": false,
      "stateMutability": "view",
      "type": "function"
    },
    {
      "constant": true,
      "inputs": [],
      "name": "totalCoupons",
      "outputs": [
        {
          "internalType": "uint256",
          "name": "",
          "type": "uint256"
        }
      ],
      "payable": false,
      "stateMutability": "view",
      "type": "function"
    },
    {
      "constant": true,
      "inputs": [],
      "name": "totalDebt",
      "outputs": [
        {
          "internalType": "uint256",
          "name": "",
          "type": "uint256"
        }
      ],
      "payable": false,
      "stateMutability": "view",
      "type": "function"
    },
    {
      "constant": true,
      "inputs": [],
      "name": "totalNet",
      "outputs": [
        {
          "internalType": "uint256",
          "name": "",
          "type": "uint256"
        }
      ],
      "payable": false,
      "stateMutability": "view",
      "type": "function"
    },
    {
      "constant": true,
      "inputs": [],
      "name": "totalRedeemable",
      "outputs": [
        {
          "internalType": "uint256",
          "name": "",
          "type": "uint256"
        }
      ],
      "payable": false,
      "stateMutability": "view",
      "type": "function"
    },
    {
      "constant": true,
      "inputs": [],
      "name": "totalStaged",
      "outputs": [
        {
          "internalType": "uint256",
          "name": "",
          "type": "uint256"
        }
      ],
      "payable": false,
      "stateMutability": "view",
      "type": "function"
    },
    {
      "constant": true,
      "inputs": [],
      "name": "totalSupply",
      "outputs": [
        {
          "internalType": "uint256",
          "name": "",
          "type": "uint256"
        }
      ],
      "payable": false,
      "stateMutability": "view",
      "type": "function"
    },
    {
      "constant": false,
      "inputs": [
        {
          "internalType": "address",
          "name": "recipient",
          "type": "address"
        },
        {
          "internalType": "uint256",
          "name": "amount",
          "type": "uint256"
        }
      ],
      "name": "transfer",
      "outputs": [
        {
          "internalType": "bool",
          "name": "",
          "type": "bool"
        }
      ],
      "payable": false,
      "stateMutability": "nonpayable",
      "type": "function"
    },
    {
      "constant": false,
      "inputs": [
        {
          "internalType": "address",
          "name": "sender",
          "type": "address"
        },
        {
          "internalType": "address",
          "name": "recipient",
          "type": "address"
        },
        {
          "internalType": "uint256",
          "name": "amount",
          "type": "uint256"
        }
      ],
      "name": "transferFrom",
      "outputs": [
        {
          "internalType": "bool",
          "name": "",
          "type": "bool"
        }
      ],
      "payable": false,
      "stateMutability": "nonpayable",
      "type": "function"
    },
    {
      "constant": true,
      "inputs": [
        {
          "internalType": "address",
          "name": "candidate",
          "type": "address"
        }
      ],
      "name": "votesFor",
      "outputs": [
        {
          "internalType": "uint256",
          "name": "",
          "type": "uint256"
        }
      ],
      "payable": false,
      "stateMutability": "view",
      "type": "function"
    },
    {
      "constant": false,
      "inputs": [
        {
          "internalType": "uint256",
          "name": "value",
          "type": "uint256"
        }
      ],
      "name": "deposit",
      "outputs": [],
      "payable": false,
      "stateMutability": "nonpayable",
      "type": "function"
    },
    {
      "constant": false,
      "inputs": [
        {
          "internalType": "uint256",
          "name": "value",
          "type": "uint256"
        }
      ],
      "name": "withdraw",
      "outputs": [],
      "payable": false,
      "stateMutability": "nonpayable",
      "type": "function"
    },
    {
      "constant": false,
      "inputs": [
        {
          "internalType": "uint256",
          "name": "value",
          "type": "uint256"
        }
      ],
      "name": "bond",
      "outputs": [],
      "payable": false,
      "stateMutability": "nonpayable",
      "type": "function"
    },
    {
      "constant": false,
      "inputs": [
        {
          "internalType": "uint256",
          "name": "value",
          "type": "uint256"
        }
      ],
      "name": "unbond",
      "outputs": [],
      "payable": false,
      "stateMutability": "nonpayable",
      "type": "function"
    },
    {
      "constant": false,
      "inputs": [
        {
          "internalType": "uint256",
          "name": "value",
          "type": "uint256"
        }
      ],
      "name": "unbondUnderlying",
      "outputs": [],
      "payable": false,
      "stateMutability": "nonpayable",
      "type": "function"
    }
  ],
  "bytecode": "0x608060405234801561001057600080fd5b506119d3806100206000396000f3fe608060405234801561001057600080fd5b50600436106102955760003560e01c80637dc0d1d011610167578063a9059cbb116100ce578063d60b347f11610087578063d60b347f14610553578063dd62ed3e14610566578063df9a2b1c14610574578063f1b7cf4914610587578063fc7b9c181461059a578063ffbe3b73146105a257610295565b8063a9059cbb146102b8578063b6b55f251461050a578063bc7513e21461051d578063c0ec4ac514610530578063c9aff70c14610538578063cf0237791461054b57610295565b80639940686e116101205780639940686e146104ae5780639a649edc146104c15780639bc289f1146104c95780639f6e1b26146104dc578063a50cd8e7146104ef578063a6c409f11461050257610295565b80637dc0d1d014610450578063825ad6071461046557806386cf9f1414610478578063900cf0cf1461048b57806395d89b411461049357806397a5d5b51461049b57610295565b8063353a420c1161020b57806351bf21d8116101c457806351bf21d8146103e95780635c60da1b146103fc57806364668022146104045780636a39e3281461041757806370a082311461042a57806375d5024b1461043d57610295565b8063353a420c146103805780633a3e6c81146103935780633fbba9a6146103a657806344d96e95146103c65780634c736099146103ce5780635053e461146103e157610295565b806318160ddd1161025d57806318160ddd146103205780631edbcf6c1461032857806323b872dd1461033057806327de9e32146103435780632e1a7d4d14610358578063313ce5671461036b57610295565b806306fdde031461029a578063095ea7b3146102b857806310e95b6c146102d857806315e14bf6146102f857806316f0115b1461030b575b600080fd5b6102a26105b5565b6040516102af919061180f565b60405180910390f35b6102cb6102c6366004611560565b6105e0565b6040516102af91906117e5565b6102eb6102e63660046115ae565b6105e9565b6040516102af9190611840565b6102eb6103063660046114b3565b610601565b61031361061f565b6040516102af9190611794565b6102eb61062e565b6102eb610634565b6102cb61033e366004611513565b61063a565b6103566103513660046115ae565b610644565b005b6103566103663660046115ae565b610796565b6103736108ce565b6040516102af9190611869565b6102eb61038e3660046114b3565b6108d3565b6102cb6103a13660046114b3565b6108f1565b6103b96103b43660046114d9565b61090e565b6040516102af9190611801565b6102eb610941565b6102eb6103dc3660046115ea565b610947565b6102eb610977565b6102eb6103f73660046114b3565b61099a565b6103136109b8565b6102eb6104123660046114b3565b6109dd565b6102eb6104253660046115ae565b6109fb565b6102eb6104383660046114b3565b610a10565b6102cb61044b3660046115ae565b610a2e565b610458610a41565b6040516102af91906117f3565b6102eb6104733660046114b3565b610a50565b6102eb6104863660046114b3565b610a90565b6102eb610aab565b6102a2610ab1565b6103b96104a93660046114b3565b610ad0565b6103566104bc3660046115ae565b610b35565b6102eb610c06565b6102eb6104d73660046114b3565b610c0c565b6102eb6104ea3660046114d9565b610c2a565b6102eb6104fd3660046114b3565b610c59565b6102eb610c70565b6103566105183660046115ae565b610d06565b6102eb61052b366004611560565b610dde565b610458610e22565b6102eb6105463660046115ae565b610e31565b6102eb610e46565b6102cb6105613660046114b3565b610e4c565b6102eb6102c63660046114d9565b6103566105823660046115ae565b610e6d565b6102eb6105953660046114b3565b610f2e565b6102eb610f49565b6102eb6105b03660046115ae565b610f4f565b6040805180820190915260118152704574686963204d6f6e6579205374616b6560781b602082015290565b60005b92915050565b6000818152600d60205260409020600201545b919050565b6001600160a01b03166000908152600e602052604090206001015490565b600b546001600160a01b031690565b60035490565b60065490565b60005b9392505050565b3361068b60025b61065483610ad0565b600281111561065f57fe5b1415692832b936b4b9b9b4b7b760b11b72139bdd08199c9bde995b881bdc88199b1d5a59606a1b610f61565b61069c33610697610fc4565b610fc9565b60006106cf6106aa33610a10565b6106c36106b633610a50565b869063ffffffff610ff816565b9063ffffffff61103216565b90506106db3382611074565b6106fd8160405180606001604052806022815260200161196f602291396110d0565b61073d33846040518060400160405280601d81526020017f426f6e64696e673a20696e73756666696369656e742062616c616e63650000008152506110eb565b337f93530ac0ee8c50e696e13c5ac62355d0c0ba4bd943620d5bda1eb08b64ae7512610778600161076c610aab565b9063ffffffff61119616565b85846040516107899392919061184e565b60405180910390a2505050565b336107de60015b6107a683610ad0565b60028111156107b157fe5b1415692832b936b4b9b9b4b7b760b11b73139bdd08199c9bde995b881bdc881b1bd8dad95960621b610f61565b6107e6610e22565b6001600160a01b031663a9059cbb33846040518363ffffffff1660e01b81526004016108139291906117ca565b602060405180830381600087803b15801561082d57600080fd5b505af1158015610841573d6000803e3d6000fd5b505050506040513d601f19601f820116820180604052506108659190810190611590565b50610889338360405180606001604052806024815260200161194b602491396111bb565b336001600160a01b03167f884edad9ce6fa2440d8a54cc123490eb96d2768479d49ff9c7366125a9424364836040516108c29190611840565b60405180910390a25050565b601290565b6001600160a01b03166000908152600e602052604090206003015490565b6001600160a01b03166000908152600e6020526040902054151590565b6001600160a01b038082166000908152600e60209081526040808320938616835260049093019052205460ff1692915050565b60045490565b6000828152600d6020526040812060030180548390811061096457fe5b9060005260206000200154905092915050565b6000610981611466565b61098961121a565b905061099481611249565b91505090565b6001600160a01b03166000908152600c602052604090206004015490565b7f360894a13ba1a3210667c828492db98dca3e2076cc3735a920a3ca505d382bbc5490565b6001600160a01b03166000908152600e602052604090206002015490565b6000908152600d602052604090206003015490565b6001600160a01b03166000908152600c602052604090206001015490565b6000610a3861126b565b90911115919050565b600a546001600160a01b031690565b600080610a5b61062e565b905080610a6c5760009150506105fc565b61063d816106c3610a7c86610a10565b610a84610941565b9063ffffffff610ff816565b6001600160a01b03166000908152600c602052604090205490565b60025490565b604080518082019091526005815264455448435360d81b602082015290565b6000610ada610aab565b6001600160a01b0383166000908152600c60205260409020600501541115610b04575060026105fc565b6001600160a01b0382166000908152600c6020526040902060040154610b28610aab565b10156105e05760016105e3565b33610b40600261064b565b610b4c33610697611270565b6000610b56610941565b15610b7657610b71610b66610941565b6106c36106b661062e565b610b8e565b610b8e610b81611275565b849063ffffffff610ff816565b9050610b9a338261127c565b610ba383611324565b610bc6338460405180606001604052806024815260200161194b602491396111bb565b337f44002fdef5a0c2d2e4e05572e9780b95aef97e0e93ffd7cc076b09fa78ff2b46610bf5600161076c610aab565b83866040516107899392919061184e565b60085490565b6001600160a01b03166000908152600c602052604090206005015490565b6001600160a01b039182166000908152600c602090815260408083209390941682526003909201909152205490565b60006105e3610c67836108d3565b61076c846109dd565b6000610d01610c7d610f49565b610c85610e22565b6001600160a01b03166318160ddd6040518163ffffffff1660e01b815260040160206040518083038186803b158015610cbd57600080fd5b505afa158015610cd1573d6000803e3d6000fd5b505050506040513d601f19601f82011682018060405250610cf591908101906115cc565b9063ffffffff61133d16565b905090565b33610d11600161079d565b610d19610e22565b6001600160a01b03166323b872dd3330856040518463ffffffff1660e01b8152600401610d48939291906117a2565b602060405180830381600087803b158015610d6257600080fd5b505af1158015610d76573d6000803e3d6000fd5b505050506040513d601f19601f82011682018060405250610d9a9190810190611590565b50610da53383611074565b336001600160a01b03167fe1fffcc4923d04b559f4d29a8bfc6cda04eb5b0d3c460751c2402c5c5cc9109c836040516108c29190611840565b6000610de982610e31565b610df5575060006105e3565b506001600160a01b03919091166000908152600c6020908152604080832093835260029093019052205490565b6009546001600160a01b031690565b6000908152600d602052604090206001015490565b60055490565b6001600160a01b03166000908152600e602052604090206005015460ff1690565b33610e78600261064b565b610e8433610697610fc4565b6000610e91610b66610941565b9050610e9d3384611074565b610ebf8360405180606001604052806022815260200161196f602291396110d0565b610eff33826040518060400160405280601d81526020017f426f6e64696e673a20696e73756666696369656e742062616c616e63650000008152506110eb565b337f93530ac0ee8c50e696e13c5ac62355d0c0ba4bd943620d5bda1eb08b64ae7512610bf5600161076c610aab565b6001600160a01b03166000908152600e602052604090205490565b60075490565b6000908152600d602052604090205490565b82610fbf57610f6f8261137f565b6101d160f51b610f7e8361137f565b604051602001610f9093929190611763565b60408051601f198184030181529082905262461bcd60e51b8252610fb69160040161180f565b60405180910390fd5b505050565b60a890565b610fd58161076c610aab565b6001600160a01b039092166000908152600c602052604090206004019190915550565b600082611007575060006105e3565b8282028284828161101457fe5b041461063d5760405162461bcd60e51b8152600401610fb690611830565b600061063d83836040518060400160405280601a81526020017f536166654d6174683a206469766973696f6e206279207a65726f0000000000008152506113ff565b6001600160a01b0382166000908152600c602052604090205461109d908263ffffffff61119616565b6001600160a01b0383166000908152600c60205260409020556005546110c9908263ffffffff61119616565b6005555050565b6004546110e490838363ffffffff61143616565b6004555050565b6001600160a01b0383166000908152600c602052604090206001015461111890838363ffffffff61143616565b6001600160a01b0384166000908152600c602052604090206001015560035461114890838363ffffffff61143616565b6003556040516000906001600160a01b038516907fddf252ad1be2c89b69c2b068fc378daa952ba7f163c4a11628f55a4df523b3ef90611189908690611840565b60405180910390a3505050565b60008282018381101561063d5760405162461bcd60e51b8152600401610fb690611820565b6001600160a01b0383166000908152600c60205260409020546111e590838363ffffffff61143616565b6001600160a01b0384166000908152600c602052604090205560055461121290838363ffffffff61143616565b600555505050565b611222611466565b6040518060600160405280606a8152602001635ffb1dce8152602001610e10815250905090565b60006105e3826000015161076c84604001516106c38660200151610cf5611462565b605a90565b606090565b620f424090565b6001600160a01b0382166000908152600c60205260409020600101546112a8908263ffffffff61119616565b6001600160a01b0383166000908152600c60205260409020600101556003546112d7908263ffffffff61119616565b6003556040516001600160a01b038316906000907fddf252ad1be2c89b69c2b068fc378daa952ba7f163c4a11628f55a4df523b3ef90611318908590611840565b60405180910390a35050565b600454611337908263ffffffff61119616565b60045550565b600061063d83836040518060400160405280601e81526020017f536166654d6174683a207375627472616374696f6e206f766572666c6f770000815250611436565b60608082604051602001611393919061174e565b60408051601f19818403018152919052905060205b80156113e8578151600019909101908290829081106113c357fe5b01602001516001600160f81b031916156113e357600101815290506105fc565b6113a8565b505060408051600081526020810190915292915050565b600081836114205760405162461bcd60e51b8152600401610fb6919061180f565b50600083858161142c57fe5b0495945050505050565b6000818484111561145a5760405162461bcd60e51b8152600401610fb6919061180f565b505050900390565b4290565b60405180606001604052806000815260200160008152602001600081525090565b80356105e381611924565b80516105e381611938565b80356105e381611941565b80516105e381611941565b6000602082840312156114c557600080fd5b60006114d18484611487565b949350505050565b600080604083850312156114ec57600080fd5b60006114f88585611487565b925050602061150985828601611487565b9150509250929050565b60008060006060848603121561152857600080fd5b60006115348686611487565b935050602061154586828701611487565b92505060406115568682870161149d565b9150509250925092565b6000806040838503121561157357600080fd5b600061157f8585611487565b92505060206115098582860161149d565b6000602082840312156115a257600080fd5b60006114d18484611492565b6000602082840312156115c057600080fd5b60006114d1848461149d565b6000602082840312156115de57600080fd5b60006114d184846114a8565b600080604083850312156115fd57600080fd5b600061157f858561149d565b611612816118c0565b82525050565b61161281611884565b6116128161188f565b61161261163682611894565b6118a1565b611612611636826118a1565b600061165282611877565b61165c81856105fc565b935061166c8185602086016118dd565b9290920192915050565b611612816118c7565b611612816118d2565b600061169382611877565b61169d818561187b565b93506116ad8185602086016118dd565b6116b68161190d565b9093019392505050565b60006116cd601b8361187b565b7f536166654d6174683a206164646974696f6e206f766572666c6f770000000000815260200192915050565b600061170660218361187b565b7f536166654d6174683a206d756c7469706c69636174696f6e206f766572666c6f8152607760f81b602082015260400192915050565b611612816118a1565b611612816118ba565b600061175a828461163b565b50602001919050565b600061176f8286611647565b915061177b828561162a565b60028201915061178b8284611647565b95945050505050565b602081016105e38284611618565b606081016117b08286611609565b6117bd6020830185611618565b6114d1604083018461173c565b604081016117d88285611609565b61063d602083018461173c565b602081016105e38284611621565b602081016105e38284611676565b602081016105e3828461167f565b6020808252810161063d8184611688565b602080825281016105e3816116c0565b602080825281016105e3816116f9565b602081016105e3828461173c565b6060810161185c828661173c565b6117bd602083018561173c565b602081016105e38284611745565b5190565b90815260200190565b60006105e3826118ae565b151590565b6001600160f01b03191690565b90565b806105fc81611917565b6001600160a01b031690565b60ff1690565b60006105e3825b60006105e382611884565b60006105e3826118a4565b60005b838110156118f85781810151838201526020016118e0565b83811115611907576000848401525b50505050565b601f01601f191690565b6003811061192157fe5b50565b61192d81611884565b811461192157600080fd5b61192d8161188f565b61192d816118a156fe426f6e64696e673a20696e73756666696369656e74207374616765642062616c616e6365426f6e64696e673a20696e73756666696369656e7420746f74616c20626f6e646564a365627a7a7231582071293734437eb07c3fd979cca41745e1599d51f2c8432ca5791d51875e99c6636c6578706572696d656e74616cf564736f6c63430005110040",
  "source": "/*\n    Copyright 2021 Ethic Money Devs <devs@ethic.money> and Copyright 2020 Empty Set Squad <emptysetsquad@protonmail.com>\n\n    Licensed under the Apache License, Version 2.0 (the \"License\");\n    you may not use this file except in compliance with the License.\n    You may obtain a copy of the License at\n\n    http://www.apache.org/licenses/LICENSE-2.0\n\n    Unless required by applicable law or agreed to in writing, software\n    distributed under the License is distributed on an \"AS IS\" BASIS,\n    WITHOUT WARRANTIES OR CONDITIONS OF ANY KIND, either express or implied.\n    See the License for the specific language governing permissions and\n    limitations under the License.\n*/\n\npragma solidity ^0.5.17;\npragma experimental ABIEncoderV2;\n\nimport \"@openzeppelin/contracts/math/SafeMath.sol\";\nimport \"./Setters.sol\";\nimport \"./Permission.sol\";\nimport \"../external/Require.sol\";\nimport \"../Constants.sol\";\n\ncontract Bonding is Setters, Permission {\n    using SafeMath for uint256;\n\n    bytes32 private constant FILE = \"Bonding\";\n\n    event Deposit(address indexed account, uint256 value);\n    event Withdraw(address indexed account, uint256 value);\n    event Bond(address indexed account, uint256 start, uint256 value, uint256 valueUnderlying);\n    event Unbond(address indexed account, uint256 start, uint256 value, uint256 valueUnderlying);\n\n    function step() internal {\n        Require.that(\n            epochTime() > epoch(),\n            FILE,\n            \"Still current epoch\"\n        );\n\n        snapshotTotalBonded();\n        incrementEpoch();\n    }\n\n    function deposit(uint256 value) external onlyFrozenOrLocked(msg.sender) {\n        ethic().transferFrom(msg.sender, address(this), value);\n        incrementBalanceOfStaged(msg.sender, value);\n\n        emit Deposit(msg.sender, value);\n    }\n\n    function withdraw(uint256 value) external onlyFrozenOrLocked(msg.sender) {\n        ethic().transfer(msg.sender, value);\n        decrementBalanceOfStaged(msg.sender, value, \"Bonding: insufficient staged balance\");\n\n        emit Withdraw(msg.sender, value);\n    }\n\n    function bond(uint256 value) external onlyFrozenOrFluid(msg.sender) {\n        unfreeze(msg.sender, Constants.getDAOEntranceLockupEpochs()); // Use individual DAO entrance lockups per address\n\n        uint256 balance = totalBonded() == 0 ?\n            value.mul(Constants.getInitialStakeMultiple()) :\n            value.mul(totalSupply()).div(totalBonded());\n        incrementBalanceOf(msg.sender, balance);\n        incrementTotalBonded(value);\n        decrementBalanceOfStaged(msg.sender, value, \"Bonding: insufficient staged balance\");\n\n        emit Bond(msg.sender, epoch().add(1), balance, value);\n    }\n\n    function unbond(uint256 value) external onlyFrozenOrFluid(msg.sender) {\n        unfreeze(msg.sender, Constants.getDAOExitLockupEpochs()); // Use individual DAO exit lockups per address\n\n        uint256 staged = value.mul(balanceOfBonded(msg.sender)).div(balanceOf(msg.sender));\n        incrementBalanceOfStaged(msg.sender, staged);\n        decrementTotalBonded(staged, \"Bonding: insufficient total bonded\");\n        decrementBalanceOf(msg.sender, value, \"Bonding: insufficient balance\");\n\n        emit Unbond(msg.sender, epoch().add(1), value, staged);\n    }\n\n    function unbondUnderlying(uint256 value) external onlyFrozenOrFluid(msg.sender) {\n        unfreeze(msg.sender, Constants.getDAOExitLockupEpochs()); // Use individual DAO exit lockups per address\n\n        uint256 balance = value.mul(totalSupply()).div(totalBonded());\n        incrementBalanceOfStaged(msg.sender, value);\n        decrementTotalBonded(value, \"Bonding: insufficient total bonded\");\n        decrementBalanceOf(msg.sender, balance, \"Bonding: insufficient balance\");\n\n        emit Unbond(msg.sender, epoch().add(1), balance, value);\n    }\n}\n",
  "sourcePath": "/home/ville/projects/ethic/protocol/contracts/dao/Bonding.sol",
  "compiler": {
    "name": "solc",
    "version": "0.5.17+commit.d19bba13.Emscripten.clang"
  },
  "schemaVersion": "3.3.2",
  "updatedAt": "2021-02-04T10:39:17.320Z",
  "devdoc": {
    "methods": {}
  },
  "userdoc": {
    "methods": {
      "balanceOfStaged(address)": {
        "notice": "Account"
      },
      "epoch()": {
        "notice": "Epoch"
      },
      "ethic()": {
        "notice": "Global"
      },
      "name()": {
        "notice": "ERC20 Interface"
      },
      "recordedVote(address,address)": {
        "notice": "Governance"
      },
      "transfer(address,uint256)": {
        "notice": "ERC20 Interface"
      }
    }
  }
}