{
  "contractName": "Comptroller",
  "abi": [
    {
      "anonymous": false,
      "inputs": [
        {
          "indexed": true,
          "internalType": "address",
          "name": "from",
          "type": "address"
        },
        {
          "indexed": true,
          "internalType": "address",
          "name": "to",
          "type": "address"
        },
        {
          "indexed": false,
          "internalType": "uint256",
          "name": "value",
          "type": "uint256"
        }
      ],
      "name": "Transfer",
      "type": "event"
    },
    {
      "constant": true,
      "inputs": [
        {
          "internalType": "address",
          "name": "owner",
          "type": "address"
        },
        {
          "internalType": "address",
          "name": "spender",
          "type": "address"
        }
      ],
      "name": "allowance",
      "outputs": [
        {
          "internalType": "uint256",
          "name": "",
          "type": "uint256"
        }
      ],
      "payable": false,
      "stateMutability": "view",
      "type": "function"
    },
    {
      "constant": true,
      "inputs": [
        {
          "internalType": "address",
          "name": "owner",
          "type": "address"
        },
        {
          "internalType": "address",
          "name": "spender",
          "type": "address"
        }
      ],
      "name": "allowanceCoupons",
      "outputs": [
        {
          "internalType": "uint256",
          "name": "",
          "type": "uint256"
        }
      ],
      "payable": false,
      "stateMutability": "view",
      "type": "function"
    },
    {
      "constant": false,
      "inputs": [
        {
          "internalType": "address",
          "name": "spender",
          "type": "address"
        },
        {
          "internalType": "uint256",
          "name": "amount",
          "type": "uint256"
        }
      ],
      "name": "approve",
      "outputs": [
        {
          "internalType": "bool",
          "name": "",
          "type": "bool"
        }
      ],
      "payable": false,
      "stateMutability": "nonpayable",
      "type": "function"
    },
    {
      "constant": true,
      "inputs": [
        {
          "internalType": "address",
          "name": "candidate",
          "type": "address"
        }
      ],
      "name": "approveFor",
      "outputs": [
        {
          "internalType": "uint256",
          "name": "",
          "type": "uint256"
        }
      ],
      "payable": false,
      "stateMutability": "view",
      "type": "function"
    },
    {
      "constant": true,
      "inputs": [
        {
          "internalType": "address",
          "name": "account",
          "type": "address"
        }
      ],
      "name": "balanceOf",
      "outputs": [
        {
          "internalType": "uint256",
          "name": "",
          "type": "uint256"
        }
      ],
      "payable": false,
      "stateMutability": "view",
      "type": "function"
    },
    {
      "constant": true,
      "inputs": [
        {
          "internalType": "address",
          "name": "account",
          "type": "address"
        }
      ],
      "name": "balanceOfBonded",
      "outputs": [
        {
          "internalType": "uint256",
          "name": "",
          "type": "uint256"
        }
      ],
      "payable": false,
      "stateMutability": "view",
      "type": "function"
    },
    {
      "constant": true,
      "inputs": [
        {
          "internalType": "address",
          "name": "account",
          "type": "address"
        },
        {
          "internalType": "uint256",
          "name": "epoch",
          "type": "uint256"
        }
      ],
      "name": "balanceOfCoupons",
      "outputs": [
        {
          "internalType": "uint256",
          "name": "",
          "type": "uint256"
        }
      ],
      "payable": false,
      "stateMutability": "view",
      "type": "function"
    },
    {
      "constant": true,
      "inputs": [
        {
          "internalType": "address",
          "name": "account",
          "type": "address"
        }
      ],
      "name": "balanceOfStaged",
      "outputs": [
        {
          "internalType": "uint256",
          "name": "",
          "type": "uint256"
        }
      ],
      "payable": false,
      "stateMutability": "view",
      "type": "function"
    },
    {
      "constant": true,
      "inputs": [
        {
          "internalType": "uint256",
          "name": "epoch",
          "type": "uint256"
        }
      ],
      "name": "bootstrappingAt",
      "outputs": [
        {
          "internalType": "bool",
          "name": "",
          "type": "bool"
        }
      ],
      "payable": false,
      "stateMutability": "view",
      "type": "function"
    },
    {
      "constant": true,
      "inputs": [
        {
          "internalType": "uint256",
          "name": "epoch",
          "type": "uint256"
        }
      ],
      "name": "couponsExpiration",
      "outputs": [
        {
          "internalType": "uint256",
          "name": "",
          "type": "uint256"
        }
      ],
      "payable": false,
      "stateMutability": "view",
      "type": "function"
    },
    {
      "constant": true,
      "inputs": [],
      "name": "decimals",
      "outputs": [
        {
          "internalType": "uint8",
          "name": "",
          "type": "uint8"
        }
      ],
      "payable": false,
      "stateMutability": "view",
      "type": "function"
    },
    {
      "constant": true,
      "inputs": [],
      "name": "epoch",
      "outputs": [
        {
          "internalType": "uint256",
          "name": "",
          "type": "uint256"
        }
      ],
      "payable": false,
      "stateMutability": "view",
      "type": "function"
    },
    {
      "constant": true,
      "inputs": [],
      "name": "epochTime",
      "outputs": [
        {
          "internalType": "uint256",
          "name": "",
          "type": "uint256"
        }
      ],
      "payable": false,
      "stateMutability": "view",
      "type": "function"
    },
    {
      "constant": true,
      "inputs": [],
      "name": "ethic",
      "outputs": [
        {
          "internalType": "contract IEthic",
          "name": "",
          "type": "address"
        }
      ],
      "payable": false,
      "stateMutability": "view",
      "type": "function"
    },
    {
      "constant": true,
      "inputs": [
        {
          "internalType": "uint256",
          "name": "epoch",
          "type": "uint256"
        }
      ],
      "name": "expiringCoupons",
      "outputs": [
        {
          "internalType": "uint256",
          "name": "",
          "type": "uint256"
        }
      ],
      "payable": false,
      "stateMutability": "view",
      "type": "function"
    },
    {
      "constant": true,
      "inputs": [
        {
          "internalType": "uint256",
          "name": "epoch",
          "type": "uint256"
        },
        {
          "internalType": "uint256",
          "name": "i",
          "type": "uint256"
        }
      ],
      "name": "expiringCouponsAtIndex",
      "outputs": [
        {
          "internalType": "uint256",
          "name": "",
          "type": "uint256"
        }
      ],
      "payable": false,
      "stateMutability": "view",
      "type": "function"
    },
    {
      "constant": true,
      "inputs": [
        {
          "internalType": "address",
          "name": "account",
          "type": "address"
        }
      ],
      "name": "fluidUntil",
      "outputs": [
        {
          "internalType": "uint256",
          "name": "",
          "type": "uint256"
        }
      ],
      "payable": false,
      "stateMutability": "view",
      "type": "function"
    },
    {
      "constant": true,
      "inputs": [],
      "name": "implementation",
      "outputs": [
        {
          "internalType": "address",
          "name": "impl",
          "type": "address"
        }
      ],
      "payable": false,
      "stateMutability": "view",
      "type": "function"
    },
    {
      "constant": true,
      "inputs": [
        {
          "internalType": "address",
          "name": "candidate",
          "type": "address"
        }
      ],
      "name": "isInitialized",
      "outputs": [
        {
          "internalType": "bool",
          "name": "",
          "type": "bool"
        }
      ],
      "payable": false,
      "stateMutability": "view",
      "type": "function"
    },
    {
      "constant": true,
      "inputs": [
        {
          "internalType": "address",
          "name": "candidate",
          "type": "address"
        }
      ],
      "name": "isNominated",
      "outputs": [
        {
          "internalType": "bool",
          "name": "",
          "type": "bool"
        }
      ],
      "payable": false,
      "stateMutability": "view",
      "type": "function"
    },
    {
      "constant": true,
      "inputs": [
        {
          "internalType": "address",
          "name": "account",
          "type": "address"
        }
      ],
      "name": "lockedUntil",
      "outputs": [
        {
          "internalType": "uint256",
          "name": "",
          "type": "uint256"
        }
      ],
      "payable": false,
      "stateMutability": "view",
      "type": "function"
    },
    {
      "constant": true,
      "inputs": [],
      "name": "name",
      "outputs": [
        {
          "internalType": "string",
          "name": "",
          "type": "string"
        }
      ],
      "payable": false,
      "stateMutability": "view",
      "type": "function"
    },
    {
      "constant": true,
      "inputs": [],
      "name": "oracle",
      "outputs": [
        {
          "internalType": "contract IOracle",
          "name": "",
          "type": "address"
        }
      ],
      "payable": false,
      "stateMutability": "view",
      "type": "function"
    },
    {
      "constant": true,
      "inputs": [
        {
          "internalType": "uint256",
          "name": "epoch",
          "type": "uint256"
        }
      ],
      "name": "outstandingCoupons",
      "outputs": [
        {
          "internalType": "uint256",
          "name": "",
          "type": "uint256"
        }
      ],
      "payable": false,
      "stateMutability": "view",
      "type": "function"
    },
    {
      "constant": true,
      "inputs": [
        {
          "internalType": "address",
          "name": "candidate",
          "type": "address"
        }
      ],
      "name": "periodFor",
      "outputs": [
        {
          "internalType": "uint256",
          "name": "",
          "type": "uint256"
        }
      ],
      "payable": false,
      "stateMutability": "view",
      "type": "function"
    },
    {
      "constant": true,
      "inputs": [],
      "name": "pool",
      "outputs": [
        {
          "internalType": "address",
          "name": "",
          "type": "address"
        }
      ],
      "payable": false,
      "stateMutability": "view",
      "type": "function"
    },
    {
      "constant": true,
      "inputs": [
        {
          "internalType": "address",
          "name": "account",
          "type": "address"
        },
        {
          "internalType": "address",
          "name": "candidate",
          "type": "address"
        }
      ],
      "name": "recordedVote",
      "outputs": [
        {
          "internalType": "enum Candidate.Vote",
          "name": "",
          "type": "uint8"
        }
      ],
      "payable": false,
      "stateMutability": "view",
      "type": "function"
    },
    {
      "constant": true,
      "inputs": [
        {
          "internalType": "address",
          "name": "candidate",
          "type": "address"
        }
      ],
      "name": "rejectFor",
      "outputs": [
        {
          "internalType": "uint256",
          "name": "",
          "type": "uint256"
        }
      ],
      "payable": false,
      "stateMutability": "view",
      "type": "function"
    },
    {
      "constant": true,
      "inputs": [
        {
          "internalType": "address",
          "name": "candidate",
          "type": "address"
        }
      ],
      "name": "startFor",
      "outputs": [
        {
          "internalType": "uint256",
          "name": "",
          "type": "uint256"
        }
      ],
      "payable": false,
      "stateMutability": "view",
      "type": "function"
    },
    {
      "constant": true,
      "inputs": [
        {
          "internalType": "address",
          "name": "account",
          "type": "address"
        }
      ],
      "name": "statusOf",
      "outputs": [
        {
          "internalType": "enum Account.Status",
          "name": "",
          "type": "uint8"
        }
      ],
      "payable": false,
      "stateMutability": "view",
      "type": "function"
    },
    {
      "constant": true,
      "inputs": [],
      "name": "symbol",
      "outputs": [
        {
          "internalType": "string",
          "name": "",
          "type": "string"
        }
      ],
      "payable": false,
      "stateMutability": "view",
      "type": "function"
    },
    {
      "constant": true,
      "inputs": [],
      "name": "totalBonded",
      "outputs": [
        {
          "internalType": "uint256",
          "name": "",
          "type": "uint256"
        }
      ],
      "payable": false,
      "stateMutability": "view",
      "type": "function"
    },
    {
      "constant": true,
      "inputs": [
        {
          "internalType": "uint256",
          "name": "epoch",
          "type": "uint256"
        }
      ],
      "name": "totalBondedAt",
      "outputs": [
        {
          "internalType": "uint256",
          "name": "",
          "type": "uint256"
        }
      ],
      "payable": false,
      "stateMutability": "view",
      "type": "function"
    },
    {
      "constant": true,
      "inputs": [],
      "name": "totalCoupons",
      "outputs": [
        {
          "internalType": "uint256",
          "name": "",
          "type": "uint256"
        }
      ],
      "payable": false,
      "stateMutability": "view",
      "type": "function"
    },
    {
      "constant": true,
      "inputs": [],
      "name": "totalDebt",
      "outputs": [
        {
          "internalType": "uint256",
          "name": "",
          "type": "uint256"
        }
      ],
      "payable": false,
      "stateMutability": "view",
      "type": "function"
    },
    {
      "constant": true,
      "inputs": [],
      "name": "totalNet",
      "outputs": [
        {
          "internalType": "uint256",
          "name": "",
          "type": "uint256"
        }
      ],
      "payable": false,
      "stateMutability": "view",
      "type": "function"
    },
    {
      "constant": true,
      "inputs": [],
      "name": "totalRedeemable",
      "outputs": [
        {
          "internalType": "uint256",
          "name": "",
          "type": "uint256"
        }
      ],
      "payable": false,
      "stateMutability": "view",
      "type": "function"
    },
    {
      "constant": true,
      "inputs": [],
      "name": "totalStaged",
      "outputs": [
        {
          "internalType": "uint256",
          "name": "",
          "type": "uint256"
        }
      ],
      "payable": false,
      "stateMutability": "view",
      "type": "function"
    },
    {
      "constant": true,
      "inputs": [],
      "name": "totalSupply",
      "outputs": [
        {
          "internalType": "uint256",
          "name": "",
          "type": "uint256"
        }
      ],
      "payable": false,
      "stateMutability": "view",
      "type": "function"
    },
    {
      "constant": false,
      "inputs": [
        {
          "internalType": "address",
          "name": "recipient",
          "type": "address"
        },
        {
          "internalType": "uint256",
          "name": "amount",
          "type": "uint256"
        }
      ],
      "name": "transfer",
      "outputs": [
        {
          "internalType": "bool",
          "name": "",
          "type": "bool"
        }
      ],
      "payable": false,
      "stateMutability": "nonpayable",
      "type": "function"
    },
    {
      "constant": false,
      "inputs": [
        {
          "internalType": "address",
          "name": "sender",
          "type": "address"
        },
        {
          "internalType": "address",
          "name": "recipient",
          "type": "address"
        },
        {
          "internalType": "uint256",
          "name": "amount",
          "type": "uint256"
        }
      ],
      "name": "transferFrom",
      "outputs": [
        {
          "internalType": "bool",
          "name": "",
          "type": "bool"
        }
      ],
      "payable": false,
      "stateMutability": "nonpayable",
      "type": "function"
    },
    {
      "constant": true,
      "inputs": [
        {
          "internalType": "address",
          "name": "candidate",
          "type": "address"
        }
      ],
      "name": "votesFor",
      "outputs": [
        {
          "internalType": "uint256",
          "name": "",
          "type": "uint256"
        }
      ],
      "payable": false,
      "stateMutability": "view",
      "type": "function"
    }
  ],
  "bytecode": "0x608060405234801561001057600080fd5b50610f84806100206000396000f3fe608060405234801561001057600080fd5b506004361061025e5760003560e01c80637dc0d1d011610146578063a6c409f1116100c3578063cf02377911610087578063cf023779146104c6578063d60b347f146104ce578063dd62ed3e146104e1578063f1b7cf49146104ef578063fc7b9c1814610502578063ffbe3b731461050a5761025e565b8063a6c409f114610490578063a9059cbb14610281578063bc7513e214610498578063c0ec4ac5146104ab578063c9aff70c146104b35761025e565b806397a5d5b51161010a57806397a5d5b51461043c5780639a649edc1461044f5780639bc289f1146104575780639f6e1b261461046a578063a50cd8e71461047d5761025e565b80637dc0d1d0146103f1578063825ad6071461040657806386cf9f1414610419578063900cf0cf1461042c57806395d89b41146104345761025e565b80633a3e6c81116101df57806351bf21d8116101a357806351bf21d81461038a5780635c60da1b1461039d57806364668022146103a55780636a39e328146103b857806370a08231146103cb57806375d5024b146103de5761025e565b80633a3e6c81146103345780633fbba9a61461034757806344d96e95146103675780634c7360991461036f5780635053e461146103825761025e565b806318160ddd1161022657806318160ddd146102e95780631edbcf6c146102f157806323b872dd146102f9578063313ce5671461030c578063353a420c146103215761025e565b806306fdde0314610263578063095ea7b31461028157806310e95b6c146102a157806315e14bf6146102c157806316f0115b146102d4575b600080fd5b61026b61051d565b6040516102789190610e3e565b60405180910390f35b61029461028f366004610c8b565b610548565b6040516102789190610e14565b6102b46102af366004610cbb565b610551565b6040516102789190610e6f565b6102b46102cf366004610bde565b610569565b6102dc610587565b6040516102789190610e06565b6102b4610596565b6102b461059c565b610294610307366004610c3e565b6105a2565b6103146105ab565b6040516102789190610e7d565b6102b461032f366004610bde565b6105b0565b610294610342366004610bde565b6105ce565b61035a610355366004610c04565b6105eb565b6040516102789190610e30565b6102b461061e565b6102b461037d366004610cf7565b610624565b6102b4610654565b6102b4610398366004610bde565b610677565b6102dc610695565b6102b46103b3366004610bde565b6106ba565b6102b46103c6366004610cbb565b6106d8565b6102b46103d9366004610bde565b6106ed565b6102946103ec366004610cbb565b61070b565b6103f961071e565b6040516102789190610e22565b6102b4610414366004610bde565b61072d565b6102b4610427366004610bde565b610780565b6102b461079b565b61026b6107a1565b61035a61044a366004610bde565b6107c0565b6102b4610825565b6102b4610465366004610bde565b61082b565b6102b4610478366004610c04565b610849565b6102b461048b366004610bde565b610878565b6102b461089b565b6102b46104a6366004610c8b565b610931565b6103f9610975565b6102b46104c1366004610cbb565b610984565b6102b4610999565b6102946104dc366004610bde565b61099f565b6102b461028f366004610c04565b6102b46104fd366004610bde565b6109c0565b6102b46109db565b6102b4610518366004610cbb565b6109e1565b6040805180820190915260118152704574686963204d6f6e6579205374616b6560781b602082015290565b60005b92915050565b6000818152600d60205260409020600201545b919050565b6001600160a01b03166000908152600e602052604090206001015490565b600b546001600160a01b031690565b60035490565b60065490565b60009392505050565b601290565b6001600160a01b03166000908152600e602052604090206003015490565b6001600160a01b03166000908152600e6020526040902054151590565b6001600160a01b038082166000908152600e60209081526040808320938616835260049093019052205460ff1692915050565b60045490565b6000828152600d6020526040812060030180548390811061064157fe5b9060005260206000200154905092915050565b600061065e610b9c565b6106666109f3565b905061067181610a22565b91505090565b6001600160a01b03166000908152600c602052604090206004015490565b7f360894a13ba1a3210667c828492db98dca3e2076cc3735a920a3ca505d382bbc5490565b6001600160a01b03166000908152600e602052604090206002015490565b6000908152600d602052604090206003015490565b6001600160a01b03166000908152600c602052604090206001015490565b6000610715610a44565b90911115919050565b600a546001600160a01b031690565b600080610738610596565b905080610749576000915050610564565b6107798161076d610759866106ed565b61076161061e565b9063ffffffff610a4916565b9063ffffffff610a8c16565b9392505050565b6001600160a01b03166000908152600c602052604090205490565b60025490565b604080518082019091526005815264455448435360d81b602082015290565b60006107ca61079b565b6001600160a01b0383166000908152600c602052604090206005015411156107f457506002610564565b6001600160a01b0382166000908152600c602052604090206004015461081861079b565b101561054857600161054b565b60085490565b6001600160a01b03166000908152600c602052604090206005015490565b6001600160a01b039182166000908152600c602090815260408083209390941682526003909201909152205490565b600061054b610886836105b0565b61088f846106ba565b9063ffffffff610ace16565b600061092c6108a86109db565b6108b0610975565b6001600160a01b03166318160ddd6040518163ffffffff1660e01b815260040160206040518083038186803b1580156108e857600080fd5b505afa1580156108fc573d6000803e3d6000fd5b505050506040513d601f19601f820116820180604052506109209190810190610cd9565b9063ffffffff610af316565b905090565b600061093c82610984565b6109485750600061054b565b506001600160a01b03919091166000908152600c6020908152604080832093835260029093019052205490565b6009546001600160a01b031690565b6000908152600d602052604090206001015490565b60055490565b6001600160a01b03166000908152600e602052604090206005015460ff1690565b6001600160a01b03166000908152600e602052604090205490565b60075490565b6000908152600d602052604090205490565b6109fb610b9c565b6040518060600160405280606a8152602001635ffb1dce8152602001610e10815250905090565b600061054b826000015161088f846040015161076d8660200151610920610b35565b605a90565b600082610a585750600061054b565b82820282848281610a6557fe5b04146107795760405162461bcd60e51b8152600401610a8390610e5f565b60405180910390fd5b600061077983836040518060400160405280601a81526020017f536166654d6174683a206469766973696f6e206279207a65726f000000000000815250610b39565b6000828201838110156107795760405162461bcd60e51b8152600401610a8390610e4f565b600061077983836040518060400160405280601e81526020017f536166654d6174683a207375627472616374696f6e206f766572666c6f770000815250610b70565b4290565b60008183610b5a5760405162461bcd60e51b8152600401610a839190610e3e565b506000838581610b6657fe5b0495945050505050565b60008184841115610b945760405162461bcd60e51b8152600401610a839190610e3e565b505050900390565b60405180606001604052806000815260200160008152602001600081525090565b803561054b81610f24565b803561054b81610f38565b805161054b81610f38565b600060208284031215610bf057600080fd5b6000610bfc8484610bbd565b949350505050565b60008060408385031215610c1757600080fd5b6000610c238585610bbd565b9250506020610c3485828601610bbd565b9150509250929050565b600080600060608486031215610c5357600080fd5b6000610c5f8686610bbd565b9350506020610c7086828701610bbd565b9250506040610c8186828701610bc8565b9150509250925092565b60008060408385031215610c9e57600080fd5b6000610caa8585610bbd565b9250506020610c3485828601610bc8565b600060208284031215610ccd57600080fd5b6000610bfc8484610bc8565b600060208284031215610ceb57600080fd5b6000610bfc8484610bd3565b60008060408385031215610d0a57600080fd5b6000610caa8585610bc8565b610d1f81610e98565b82525050565b610d1f81610ea3565b610d1f81610ec7565b610d1f81610ed2565b6000610d4b82610e8b565b610d558185610e8f565b9350610d65818560208601610edd565b610d6e81610f0d565b9093019392505050565b6000610d85601b83610e8f565b7f536166654d6174683a206164646974696f6e206f766572666c6f770000000000815260200192915050565b6000610dbe602183610e8f565b7f536166654d6174683a206d756c7469706c69636174696f6e206f766572666c6f8152607760f81b602082015260400192915050565b610d1f81610ebe565b610d1f81610ec1565b6020810161054b8284610d16565b6020810161054b8284610d25565b6020810161054b8284610d2e565b6020810161054b8284610d37565b602080825281016107798184610d40565b6020808252810161054b81610d78565b6020808252810161054b81610db1565b6020810161054b8284610df4565b6020810161054b8284610dfd565b5190565b90815260200190565b600061054b82610eb2565b151590565b8061056481610f17565b6001600160a01b031690565b90565b60ff1690565b600061054b82610e98565b600061054b82610ea8565b60005b83811015610ef8578181015183820152602001610ee0565b83811115610f07576000848401525b50505050565b601f01601f191690565b60038110610f2157fe5b50565b610f2d81610e98565b8114610f2157600080fd5b610f2d81610ebe56fea365627a7a723158201b3ff505d890bf17a80f75422542ea8163fdd8064142cd4771f3276d2c116b7b6c6578706572696d656e74616cf564736f6c63430005110040",
  "source": "/*\n    Copyright 2021 Ethic Money Devs <devs@ethic.money> and Copyright 2020 Empty Set Squad <emptysetsquad@protonmail.com>\n\n    Licensed under the Apache License, Version 2.0 (the \"License\");\n    you may not use this file except in compliance with the License.\n    You may obtain a copy of the License at\n\n    http://www.apache.org/licenses/LICENSE-2.0\n\n    Unless required by applicable law or agreed to in writing, software\n    distributed under the License is distributed on an \"AS IS\" BASIS,\n    WITHOUT WARRANTIES OR CONDITIONS OF ANY KIND, either express or implied.\n    See the License for the specific language governing permissions and\n    limitations under the License.\n*/\n\npragma solidity ^0.5.17;\npragma experimental ABIEncoderV2;\n\nimport \"@openzeppelin/contracts/math/SafeMath.sol\";\nimport \"./Setters.sol\";\nimport \"../external/Require.sol\";\n\ncontract Comptroller is Setters {\n    using SafeMath for uint256;\n\n    bytes32 private constant FILE = \"Comptroller\";\n\n    function mintToAccount(address account, uint256 amount) internal {\n        ethic().mint(account, amount);\n        if (!bootstrappingAt(epoch())) {\n            increaseDebt(amount);\n        }\n\n        balanceCheck();\n    }\n\n    function burnFromAccount(address account, uint256 amount) internal {\n        ethic().transferFrom(account, address(this), amount);\n        ethic().burn(amount);\n        decrementTotalDebt(amount, \"Comptroller: not enough outstanding debt\");\n\n        balanceCheck();\n    }\n\n    function redeemToAccount(address account, uint256 amount) internal {\n        ethic().transfer(account, amount);\n        decrementTotalRedeemable(amount, \"Comptroller: not enough redeemable balance\");\n\n        balanceCheck();\n    }\n\n    function burnRedeemable(uint256 amount) internal {\n        ethic().burn(amount);\n        decrementTotalRedeemable(amount, \"Comptroller: not enough redeemable balance\");\n\n        balanceCheck();\n    }\n\n    function increaseDebt(uint256 amount) internal returns (uint256) {\n        incrementTotalDebt(amount);\n        uint256 lessDebt = resetDebt(Constants.getDebtRatioCap());\n\n        balanceCheck();\n\n        return lessDebt > amount ? 0 : amount.sub(lessDebt);\n    }\n\n    function decreaseDebt(uint256 amount) internal {\n        decrementTotalDebt(amount, \"Comptroller: not enough debt\");\n\n        balanceCheck();\n    }\n\n    function increaseSupply(uint256 newSupply) internal returns (uint256, uint256) {\n        // 0-a. Pay out to Pool\n        uint256 poolReward = newSupply.mul(Constants.getOraclePoolRatio()).div(100);\n        mintToPool(poolReward);\n\n        // 0-b. Pay out to Treasury\n        uint256 treasuryReward = newSupply.mul(Constants.getTreasuryRatio()).div(10000);\n        mintToTreasury(treasuryReward);\n\n        uint256 rewards = poolReward.add(treasuryReward);\n        newSupply = newSupply > rewards ? newSupply.sub(rewards) : 0;\n\n        // 1. True up redeemable pool\n        uint256 newRedeemable = 0;\n        uint256 totalRedeemable = totalRedeemable();\n        uint256 totalCoupons = totalCoupons();\n        if (totalRedeemable < totalCoupons) {\n            newRedeemable = totalCoupons.sub(totalRedeemable);\n            newRedeemable = newRedeemable > newSupply ? newSupply : newRedeemable;\n            mintToRedeemable(newRedeemable);\n            newSupply = newSupply.sub(newRedeemable);\n        }\n\n        // 2. Payout to DAO\n        if (totalBonded() == 0) {\n            newSupply = 0;\n        }\n        if (newSupply > 0) {\n            mintToDAO(newSupply);\n        }\n\n        balanceCheck();\n\n        return (newRedeemable, newSupply.add(rewards));\n    }\n\n    function resetDebt(Decimal.D256 memory targetDebtRatio) internal returns (uint256) {\n        uint256 targetDebt = targetDebtRatio.mul(ethic().totalSupply()).asUint256();\n        uint256 currentDebt = totalDebt();\n\n        if (currentDebt > targetDebt) {\n            uint256 lessDebt = currentDebt.sub(targetDebt);\n            decreaseDebt(lessDebt);\n\n            return lessDebt;\n        }\n\n        return 0;\n    }\n\n    function balanceCheck() private {\n        Require.that(\n            ethic().balanceOf(address(this)) >= totalBonded().add(totalStaged()).add(totalRedeemable()),\n            FILE,\n            \"Inconsistent balances\"\n        );\n    }\n\n    function mintToDAO(uint256 amount) private {\n        if (amount > 0) {\n            ethic().mint(address(this), amount);\n            incrementTotalBonded(amount);\n        }\n    }\n\n    function mintToPool(uint256 amount) private {\n        if (amount > 0) {\n            ethic().mint(pool(), amount);\n        }\n    }\n\n    function mintToTreasury(uint256 amount) private {\n        if (amount > 0) {\n            ethic().mint(Constants.getTreasuryAddress(), amount);\n        }\n    }\n\n    function mintToRedeemable(uint256 amount) private {\n        ethic().mint(address(this), amount);\n        incrementTotalRedeemable(amount);\n\n        balanceCheck();\n    }\n}\n",
  "sourcePath": "/home/ville/projects/ethic/protocol/contracts/dao/Comptroller.sol",
  "compiler": {
    "name": "solc",
    "version": "0.5.17+commit.d19bba13.Emscripten.clang"
  },
  "schemaVersion": "3.3.2",
  "updatedAt": "2021-02-04T10:39:17.329Z",
  "devdoc": {
    "methods": {}
  },
  "userdoc": {
    "methods": {
      "balanceOfStaged(address)": {
        "notice": "Account"
      },
      "epoch()": {
        "notice": "Epoch"
      },
      "ethic()": {
        "notice": "Global"
      },
      "name()": {
        "notice": "ERC20 Interface"
      },
      "recordedVote(address,address)": {
        "notice": "Governance"
      },
      "transfer(address,uint256)": {
        "notice": "ERC20 Interface"
      }
    }
  }
}