{
  "contractName": "Deployer2",
  "abi": [
    {
      "anonymous": false,
      "inputs": [
        {
          "indexed": true,
          "internalType": "address",
          "name": "from",
          "type": "address"
        },
        {
          "indexed": true,
          "internalType": "address",
          "name": "to",
          "type": "address"
        },
        {
          "indexed": false,
          "internalType": "uint256",
          "name": "value",
          "type": "uint256"
        }
      ],
      "name": "Transfer",
      "type": "event"
    },
    {
      "anonymous": false,
      "inputs": [
        {
          "indexed": true,
          "internalType": "address",
          "name": "implementation",
          "type": "address"
        }
      ],
      "name": "Upgraded",
      "type": "event"
    },
    {
      "constant": true,
      "inputs": [
        {
          "internalType": "address",
          "name": "owner",
          "type": "address"
        },
        {
          "internalType": "address",
          "name": "spender",
          "type": "address"
        }
      ],
      "name": "allowance",
      "outputs": [
        {
          "internalType": "uint256",
          "name": "",
          "type": "uint256"
        }
      ],
      "payable": false,
      "stateMutability": "view",
      "type": "function"
    },
    {
      "constant": true,
      "inputs": [
        {
          "internalType": "address",
          "name": "owner",
          "type": "address"
        },
        {
          "internalType": "address",
          "name": "spender",
          "type": "address"
        }
      ],
      "name": "allowanceCoupons",
      "outputs": [
        {
          "internalType": "uint256",
          "name": "",
          "type": "uint256"
        }
      ],
      "payable": false,
      "stateMutability": "view",
      "type": "function"
    },
    {
      "constant": false,
      "inputs": [
        {
          "internalType": "address",
          "name": "spender",
          "type": "address"
        },
        {
          "internalType": "uint256",
          "name": "amount",
          "type": "uint256"
        }
      ],
      "name": "approve",
      "outputs": [
        {
          "internalType": "bool",
          "name": "",
          "type": "bool"
        }
      ],
      "payable": false,
      "stateMutability": "nonpayable",
      "type": "function"
    },
    {
      "constant": true,
      "inputs": [
        {
          "internalType": "address",
          "name": "candidate",
          "type": "address"
        }
      ],
      "name": "approveFor",
      "outputs": [
        {
          "internalType": "uint256",
          "name": "",
          "type": "uint256"
        }
      ],
      "payable": false,
      "stateMutability": "view",
      "type": "function"
    },
    {
      "constant": true,
      "inputs": [
        {
          "internalType": "address",
          "name": "account",
          "type": "address"
        }
      ],
      "name": "balanceOf",
      "outputs": [
        {
          "internalType": "uint256",
          "name": "",
          "type": "uint256"
        }
      ],
      "payable": false,
      "stateMutability": "view",
      "type": "function"
    },
    {
      "constant": true,
      "inputs": [
        {
          "internalType": "address",
          "name": "account",
          "type": "address"
        }
      ],
      "name": "balanceOfBonded",
      "outputs": [
        {
          "internalType": "uint256",
          "name": "",
          "type": "uint256"
        }
      ],
      "payable": false,
      "stateMutability": "view",
      "type": "function"
    },
    {
      "constant": true,
      "inputs": [
        {
          "internalType": "address",
          "name": "account",
          "type": "address"
        },
        {
          "internalType": "uint256",
          "name": "epoch",
          "type": "uint256"
        }
      ],
      "name": "balanceOfCoupons",
      "outputs": [
        {
          "internalType": "uint256",
          "name": "",
          "type": "uint256"
        }
      ],
      "payable": false,
      "stateMutability": "view",
      "type": "function"
    },
    {
      "constant": true,
      "inputs": [
        {
          "internalType": "address",
          "name": "account",
          "type": "address"
        }
      ],
      "name": "balanceOfStaged",
      "outputs": [
        {
          "internalType": "uint256",
          "name": "",
          "type": "uint256"
        }
      ],
      "payable": false,
      "stateMutability": "view",
      "type": "function"
    },
    {
      "constant": true,
      "inputs": [
        {
          "internalType": "uint256",
          "name": "epoch",
          "type": "uint256"
        }
      ],
      "name": "bootstrappingAt",
      "outputs": [
        {
          "internalType": "bool",
          "name": "",
          "type": "bool"
        }
      ],
      "payable": false,
      "stateMutability": "view",
      "type": "function"
    },
    {
      "constant": true,
      "inputs": [
        {
          "internalType": "uint256",
          "name": "epoch",
          "type": "uint256"
        }
      ],
      "name": "couponsExpiration",
      "outputs": [
        {
          "internalType": "uint256",
          "name": "",
          "type": "uint256"
        }
      ],
      "payable": false,
      "stateMutability": "view",
      "type": "function"
    },
    {
      "constant": true,
      "inputs": [],
      "name": "decimals",
      "outputs": [
        {
          "internalType": "uint8",
          "name": "",
          "type": "uint8"
        }
      ],
      "payable": false,
      "stateMutability": "view",
      "type": "function"
    },
    {
      "constant": true,
      "inputs": [],
      "name": "epoch",
      "outputs": [
        {
          "internalType": "uint256",
          "name": "",
          "type": "uint256"
        }
      ],
      "payable": false,
      "stateMutability": "view",
      "type": "function"
    },
    {
      "constant": true,
      "inputs": [],
      "name": "epochTime",
      "outputs": [
        {
          "internalType": "uint256",
          "name": "",
          "type": "uint256"
        }
      ],
      "payable": false,
      "stateMutability": "view",
      "type": "function"
    },
    {
      "constant": true,
      "inputs": [],
      "name": "ethic",
      "outputs": [
        {
          "internalType": "contract IEthic",
          "name": "",
          "type": "address"
        }
      ],
      "payable": false,
      "stateMutability": "view",
      "type": "function"
    },
    {
      "constant": true,
      "inputs": [
        {
          "internalType": "uint256",
          "name": "epoch",
          "type": "uint256"
        }
      ],
      "name": "expiringCoupons",
      "outputs": [
        {
          "internalType": "uint256",
          "name": "",
          "type": "uint256"
        }
      ],
      "payable": false,
      "stateMutability": "view",
      "type": "function"
    },
    {
      "constant": true,
      "inputs": [
        {
          "internalType": "uint256",
          "name": "epoch",
          "type": "uint256"
        },
        {
          "internalType": "uint256",
          "name": "i",
          "type": "uint256"
        }
      ],
      "name": "expiringCouponsAtIndex",
      "outputs": [
        {
          "internalType": "uint256",
          "name": "",
          "type": "uint256"
        }
      ],
      "payable": false,
      "stateMutability": "view",
      "type": "function"
    },
    {
      "constant": true,
      "inputs": [
        {
          "internalType": "address",
          "name": "account",
          "type": "address"
        }
      ],
      "name": "fluidUntil",
      "outputs": [
        {
          "internalType": "uint256",
          "name": "",
          "type": "uint256"
        }
      ],
      "payable": false,
      "stateMutability": "view",
      "type": "function"
    },
    {
      "constant": true,
      "inputs": [],
      "name": "implementation",
      "outputs": [
        {
          "internalType": "address",
          "name": "impl",
          "type": "address"
        }
      ],
      "payable": false,
      "stateMutability": "view",
      "type": "function"
    },
    {
      "constant": true,
      "inputs": [
        {
          "internalType": "address",
          "name": "candidate",
          "type": "address"
        }
      ],
      "name": "isInitialized",
      "outputs": [
        {
          "internalType": "bool",
          "name": "",
          "type": "bool"
        }
      ],
      "payable": false,
      "stateMutability": "view",
      "type": "function"
    },
    {
      "constant": true,
      "inputs": [
        {
          "internalType": "address",
          "name": "candidate",
          "type": "address"
        }
      ],
      "name": "isNominated",
      "outputs": [
        {
          "internalType": "bool",
          "name": "",
          "type": "bool"
        }
      ],
      "payable": false,
      "stateMutability": "view",
      "type": "function"
    },
    {
      "constant": true,
      "inputs": [
        {
          "internalType": "address",
          "name": "account",
          "type": "address"
        }
      ],
      "name": "lockedUntil",
      "outputs": [
        {
          "internalType": "uint256",
          "name": "",
          "type": "uint256"
        }
      ],
      "payable": false,
      "stateMutability": "view",
      "type": "function"
    },
    {
      "constant": true,
      "inputs": [],
      "name": "name",
      "outputs": [
        {
          "internalType": "string",
          "name": "",
          "type": "string"
        }
      ],
      "payable": false,
      "stateMutability": "view",
      "type": "function"
    },
    {
      "constant": true,
      "inputs": [],
      "name": "oracle",
      "outputs": [
        {
          "internalType": "contract IOracle",
          "name": "",
          "type": "address"
        }
      ],
      "payable": false,
      "stateMutability": "view",
      "type": "function"
    },
    {
      "constant": true,
      "inputs": [
        {
          "internalType": "uint256",
          "name": "epoch",
          "type": "uint256"
        }
      ],
      "name": "outstandingCoupons",
      "outputs": [
        {
          "internalType": "uint256",
          "name": "",
          "type": "uint256"
        }
      ],
      "payable": false,
      "stateMutability": "view",
      "type": "function"
    },
    {
      "constant": true,
      "inputs": [
        {
          "internalType": "address",
          "name": "candidate",
          "type": "address"
        }
      ],
      "name": "periodFor",
      "outputs": [
        {
          "internalType": "uint256",
          "name": "",
          "type": "uint256"
        }
      ],
      "payable": false,
      "stateMutability": "view",
      "type": "function"
    },
    {
      "constant": true,
      "inputs": [],
      "name": "pool",
      "outputs": [
        {
          "internalType": "address",
          "name": "",
          "type": "address"
        }
      ],
      "payable": false,
      "stateMutability": "view",
      "type": "function"
    },
    {
      "constant": true,
      "inputs": [
        {
          "internalType": "address",
          "name": "account",
          "type": "address"
        },
        {
          "internalType": "address",
          "name": "candidate",
          "type": "address"
        }
      ],
      "name": "recordedVote",
      "outputs": [
        {
          "internalType": "enum Candidate.Vote",
          "name": "",
          "type": "uint8"
        }
      ],
      "payable": false,
      "stateMutability": "view",
      "type": "function"
    },
    {
      "constant": true,
      "inputs": [
        {
          "internalType": "address",
          "name": "candidate",
          "type": "address"
        }
      ],
      "name": "rejectFor",
      "outputs": [
        {
          "internalType": "uint256",
          "name": "",
          "type": "uint256"
        }
      ],
      "payable": false,
      "stateMutability": "view",
      "type": "function"
    },
    {
      "constant": true,
      "inputs": [
        {
          "internalType": "address",
          "name": "candidate",
          "type": "address"
        }
      ],
      "name": "startFor",
      "outputs": [
        {
          "internalType": "uint256",
          "name": "",
          "type": "uint256"
        }
      ],
      "payable": false,
      "stateMutability": "view",
      "type": "function"
    },
    {
      "constant": true,
      "inputs": [
        {
          "internalType": "address",
          "name": "account",
          "type": "address"
        }
      ],
      "name": "statusOf",
      "outputs": [
        {
          "internalType": "enum Account.Status",
          "name": "",
          "type": "uint8"
        }
      ],
      "payable": false,
      "stateMutability": "view",
      "type": "function"
    },
    {
      "constant": true,
      "inputs": [],
      "name": "symbol",
      "outputs": [
        {
          "internalType": "string",
          "name": "",
          "type": "string"
        }
      ],
      "payable": false,
      "stateMutability": "view",
      "type": "function"
    },
    {
      "constant": true,
      "inputs": [],
      "name": "totalBonded",
      "outputs": [
        {
          "internalType": "uint256",
          "name": "",
          "type": "uint256"
        }
      ],
      "payable": false,
      "stateMutability": "view",
      "type": "function"
    },
    {
      "constant": true,
      "inputs": [
        {
          "internalType": "uint256",
          "name": "epoch",
          "type": "uint256"
        }
      ],
      "name": "totalBondedAt",
      "outputs": [
        {
          "internalType": "uint256",
          "name": "",
          "type": "uint256"
        }
      ],
      "payable": false,
      "stateMutability": "view",
      "type": "function"
    },
    {
      "constant": true,
      "inputs": [],
      "name": "totalCoupons",
      "outputs": [
        {
          "internalType": "uint256",
          "name": "",
          "type": "uint256"
        }
      ],
      "payable": false,
      "stateMutability": "view",
      "type": "function"
    },
    {
      "constant": true,
      "inputs": [],
      "name": "totalDebt",
      "outputs": [
        {
          "internalType": "uint256",
          "name": "",
          "type": "uint256"
        }
      ],
      "payable": false,
      "stateMutability": "view",
      "type": "function"
    },
    {
      "constant": true,
      "inputs": [],
      "name": "totalNet",
      "outputs": [
        {
          "internalType": "uint256",
          "name": "",
          "type": "uint256"
        }
      ],
      "payable": false,
      "stateMutability": "view",
      "type": "function"
    },
    {
      "constant": true,
      "inputs": [],
      "name": "totalRedeemable",
      "outputs": [
        {
          "internalType": "uint256",
          "name": "",
          "type": "uint256"
        }
      ],
      "payable": false,
      "stateMutability": "view",
      "type": "function"
    },
    {
      "constant": true,
      "inputs": [],
      "name": "totalStaged",
      "outputs": [
        {
          "internalType": "uint256",
          "name": "",
          "type": "uint256"
        }
      ],
      "payable": false,
      "stateMutability": "view",
      "type": "function"
    },
    {
      "constant": true,
      "inputs": [],
      "name": "totalSupply",
      "outputs": [
        {
          "internalType": "uint256",
          "name": "",
          "type": "uint256"
        }
      ],
      "payable": false,
      "stateMutability": "view",
      "type": "function"
    },
    {
      "constant": false,
      "inputs": [
        {
          "internalType": "address",
          "name": "recipient",
          "type": "address"
        },
        {
          "internalType": "uint256",
          "name": "amount",
          "type": "uint256"
        }
      ],
      "name": "transfer",
      "outputs": [
        {
          "internalType": "bool",
          "name": "",
          "type": "bool"
        }
      ],
      "payable": false,
      "stateMutability": "nonpayable",
      "type": "function"
    },
    {
      "constant": false,
      "inputs": [
        {
          "internalType": "address",
          "name": "sender",
          "type": "address"
        },
        {
          "internalType": "address",
          "name": "recipient",
          "type": "address"
        },
        {
          "internalType": "uint256",
          "name": "amount",
          "type": "uint256"
        }
      ],
      "name": "transferFrom",
      "outputs": [
        {
          "internalType": "bool",
          "name": "",
          "type": "bool"
        }
      ],
      "payable": false,
      "stateMutability": "nonpayable",
      "type": "function"
    },
    {
      "constant": true,
      "inputs": [
        {
          "internalType": "address",
          "name": "candidate",
          "type": "address"
        }
      ],
      "name": "votesFor",
      "outputs": [
        {
          "internalType": "uint256",
          "name": "",
          "type": "uint256"
        }
      ],
      "payable": false,
      "stateMutability": "view",
      "type": "function"
    },
    {
      "constant": false,
      "inputs": [],
      "name": "initialize",
      "outputs": [],
      "payable": false,
      "stateMutability": "nonpayable",
      "type": "function"
    },
    {
      "constant": false,
      "inputs": [
        {
          "internalType": "address",
          "name": "implementation",
          "type": "address"
        }
      ],
      "name": "implement",
      "outputs": [],
      "payable": false,
      "stateMutability": "nonpayable",
      "type": "function"
    }
  ],
  "bytecode": "0x608060405234801561001057600080fd5b506126c1806100206000396000f3fe60806040523480156200001157600080fd5b5060043610620002b05760003560e01c80637dc0d1d01162000171578063a6c409f111620000d5578063cf0237791162000093578063cf02377914620005b9578063d60b347f14620005c3578063dd62ed3e14620005da578063f1b7cf4914620005eb578063fc7b9c181462000602578063ffbe3b73146200060c57620002b0565b8063a6c409f11462000577578063a9059cbb14620002d7578063bc7513e21462000581578063c0ec4ac51462000598578063c9aff70c14620005a257620002b0565b806395d89b41116200012f57806395d89b41146200050757806397a5d5b514620005115780639a649edc14620005285780639bc289f114620005325780639f6e1b261462000549578063a50cd8e7146200056057620002b0565b80637dc0d1d014620004ac5780638129fc1c14620004c5578063825ad60714620004cf57806386cf9f1414620004e6578063900cf0cf14620004fd57620002b0565b80633fbba9a6116200021957806351bf21d811620001d757806351bf21d8146200042f5780635c60da1b14620004465780636466802214620004505780636a39e328146200046757806370a08231146200047e57806375d5024b146200049557620002b0565b80633fbba9a614620003c557806344d96e9514620003eb5780634a96026114620003f55780634c736099146200040e5780635053e461146200042557620002b0565b806318160ddd116200027357806318160ddd14620003535780631edbcf6c146200035d57806323b872dd1462000367578063313ce567146200037e578063353a420c14620003975780633a3e6c8114620003ae57620002b0565b806306fdde0314620002b5578063095ea7b314620002d757806310e95b6c14620002fd57806315e14bf6146200032357806316f0115b146200033a575b600080fd5b620002bf62000623565b604051620002ce919062001473565b60405180910390f35b620002ee620002e83660046200117c565b6200064e565b604051620002ce919062001443565b620003146200030e366004620011b1565b62000657565b604051620002ce9190620014bc565b6200031462000334366004620010c0565b6200066f565b620003446200068d565b604051620002ce919062001433565b620003146200069c565b62000314620006a2565b620002ee6200037836600462001128565b620006a8565b62000388620006b1565b604051620002ce9190620014cc565b62000314620003a8366004620010c0565b620006b6565b620002ee620003bf366004620010c0565b620006d4565b620003dc620003d6366004620010e9565b620006f1565b604051620002ce919062001463565b6200031462000724565b6200040c62000406366004620010c0565b6200072a565b005b620003146200041f366004620011f3565b62000738565b6200031462000769565b6200031462000440366004620010c0565b62000792565b62000344620007b0565b6200031462000461366004620010c0565b620007d5565b6200031462000478366004620011b1565b620007f3565b620003146200048f366004620010c0565b62000808565b620002ee620004a6366004620011b1565b62000826565b620004b66200083b565b604051620002ce919062001453565b6200040c6200084a565b62000314620004e0366004620010c0565b6200095e565b62000314620004f7366004620010c0565b620009bd565b62000314620009d8565b620002bf620009de565b620003dc62000522366004620010c0565b620009fd565b6200031462000a6a565b6200031462000543366004620010c0565b62000a70565b620003146200055a366004620010e9565b62000a8e565b6200031462000571366004620010c0565b62000abd565b6200031462000ae6565b62000314620005923660046200117c565b62000b86565b620004b662000bce565b62000314620005b3366004620011b1565b62000bdd565b6200031462000bf2565b620002ee620005d4366004620010c0565b62000bf8565b62000314620002e8366004620010e9565b62000314620005fc366004620010c0565b62000c19565b6200031462000c34565b620003146200061d366004620011b1565b62000c3a565b6040805180820190915260118152704574686963204d6f6e6579205374616b6560781b602082015290565b60005b92915050565b6000818152600d60205260409020600201545b919050565b6001600160a01b03166000908152600e602052604090206001015490565b600b546001600160a01b031690565b60035490565b60065490565b60009392505050565b601290565b6001600160a01b03166000908152600e602052604090206003015490565b6001600160a01b03166000908152600e6020526040902054151590565b6001600160a01b038082166000908152600e60209081526040808320938616835260049093019052205460ff1692915050565b60045490565b620007358162000c4c565b50565b6000828152600d602052604081206003018054839081106200075657fe5b9060005260206000200154905092915050565b6000620007756200106a565b6200077f62000d4a565b90506200078c8162000d7b565b91505090565b6001600160a01b03166000908152600c602052604090206004015490565b7f360894a13ba1a3210667c828492db98dca3e2076cc3735a920a3ca505d382bbc5490565b6001600160a01b03166000908152600e602052604090206002015490565b6000908152600d602052604090206003015490565b6001600160a01b03166000908152600c602052604090206001015490565b60006200083262000da2565b90911115919050565b600a546001600160a01b031690565b620008886200085c620005d4620007b0565b15692832b936b4b9b9b4b7b760b11b72105b1c9958591e481a5b9a5d1a585b1a5e9959606a1b62000da7565b6200089c62000896620007b0565b62000e0a565b620008a662000bce565b604051620008b4906200108b565b620008c0919062001433565b604051809103906000f080158015620008dd573d6000803e3d6000fd5b50600a80546001600160a01b0319166001600160a01b0392909216919091179055620009086200083b565b6001600160a01b031663ba0bba406040518163ffffffff1660e01b8152600401600060405180830381600087803b1580156200094357600080fd5b505af115801562000958573d6000803e3d6000fd5b50505050565b6000806200096b6200069c565b9050806200097e5760009150506200066a565b620009b681620009a9620009928662000808565b6200099c62000724565b9063ffffffff62000e3116565b9063ffffffff62000e7116565b9392505050565b6001600160a01b03166000908152600c602052604090205490565b60025490565b604080518082019091526005815264455448435360d81b602082015290565b600062000a09620009d8565b6001600160a01b0383166000908152600c6020526040902060050154111562000a35575060026200066a565b6001600160a01b0382166000908152600c602052604090206004015462000a5b620009d8565b10156200064e57600162000651565b60085490565b6001600160a01b03166000908152600c602052604090206005015490565b6001600160a01b039182166000908152600c602090815260408083209390941682526003909201909152205490565b60006200065162000ace83620006b6565b62000ad984620007d5565b9063ffffffff62000eb516565b600062000b8162000af662000c34565b62000b0062000bce565b6001600160a01b03166318160ddd6040518163ffffffff1660e01b815260040160206040518083038186803b15801562000b3957600080fd5b505afa15801562000b4e573d6000803e3d6000fd5b505050506040513d601f19601f8201168201806040525062000b749190810190620011d2565b9063ffffffff62000edd16565b905090565b600062000b938262000bdd565b62000ba15750600062000651565b506001600160a01b03919091166000908152600c6020908152604080832093835260029093019052205490565b6009546001600160a01b031690565b6000908152600d602052604090206001015490565b60055490565b6001600160a01b03166000908152600e602052604090206005015460ff1690565b6001600160a01b03166000908152600e602052604090205490565b60075490565b6000908152600d602052604090205490565b62000c578162000f21565b60408051600481526024810182526020810180516001600160e01b031663204a7f0760e21b17905290516000916060916001600160a01b0385169162000c9d91620013ee565b600060405180830381855af49150503d806000811462000cda576040519150601f19603f3d011682016040523d82523d6000602084013e62000cdf565b606091505b509150915081819062000d105760405162461bcd60e51b815260040162000d07919062001473565b60405180910390fd5b506040516001600160a01b038416907fbc7cd75a20ee27fd9adebab32041f755214dbc6bffa90cc0225b39da2e5c2d3b90600090a2505050565b62000d546200106a565b6040518060600160405280606a8152602001635ffb1dce8152602001610e10815250905090565b600062000651826000015162000ad98460400151620009a9866020015162000b7462000f6f565b605a90565b8262000e055762000db88262000f73565b6101d160f51b62000dc98362000f73565b60405160200162000ddd93929190620013fc565b60408051601f198184030181529082905262461bcd60e51b825262000d079160040162001473565b505050565b6001600160a01b03166000908152600e60205260409020600501805460ff19166001179055565b60008262000e425750600062000651565b8282028284828162000e5057fe5b0414620009b65760405162461bcd60e51b815260040162000d079062001498565b6000620009b683836040518060400160405280601a81526020017f536166654d6174683a206469766973696f6e206279207a65726f00000000000081525062000ffa565b600082820183811015620009b65760405162461bcd60e51b815260040162000d079062001486565b6000620009b683836040518060400160405280601e81526020017f536166654d6174683a207375627472616374696f6e206f766572666c6f77000081525062001035565b62000f2c8162001064565b62000f4b5760405162461bcd60e51b815260040162000d0790620014aa565b7f360894a13ba1a3210667c828492db98dca3e2076cc3735a920a3ca505d382bbc55565b4290565b6060808260405160200162000f899190620013d7565b60408051601f19818403018152919052905060205b801562000fe35781516000199091019082908290811062000fbb57fe5b01602001516001600160f81b0319161562000fdd57600101815290506200066a565b62000f9e565b505060408051600081526020810190915292915050565b600081836200101e5760405162461bcd60e51b815260040162000d07919062001473565b5060008385816200102b57fe5b0495945050505050565b600081848411156200105c5760405162461bcd60e51b815260040162000d07919062001473565b505050900390565b3b151590565b60405180606001604052806000815260200160008152602001600081525090565b6110d580620015aa83390190565b8035620006518162001587565b803562000651816200159e565b805162000651816200159e565b600060208284031215620010d357600080fd5b6000620010e1848462001099565b949350505050565b60008060408385031215620010fd57600080fd5b60006200110b858562001099565b92505060206200111e8582860162001099565b9150509250929050565b6000806000606084860312156200113e57600080fd5b60006200114c868662001099565b93505060206200115f8682870162001099565b92505060406200117286828701620010a6565b9150509250925092565b600080604083850312156200119057600080fd5b60006200119e858562001099565b92505060206200111e85828601620010a6565b600060208284031215620011c457600080fd5b6000620010e18484620010a6565b600060208284031215620011e557600080fd5b6000620010e18484620010b3565b600080604083850312156200120757600080fd5b60006200119e8585620010a6565b6200122081620014e9565b82525050565b6200122081620014f6565b620012206200124082620014fb565b62001508565b62001220620012408262001508565b60006200126282620014dc565b6200126e81856200066a565b93506200128081856020860162001543565b9290920192915050565b620012208162001529565b620012208162001536565b6000620012ad82620014dc565b620012b98185620014e0565b9350620012cb81856020860162001543565b620012d68162001572565b9093019392505050565b6000620012ef601b83620014e0565b7f536166654d6174683a206164646974696f6e206f766572666c6f770000000000815260200192915050565b60006200132a602183620014e0565b7f536166654d6174683a206d756c7469706c69636174696f6e206f766572666c6f8152607760f81b602082015260400192915050565b60006200136f603b83620014e0565b7f43616e6e6f742073657420612070726f787920696d706c656d656e746174696f81527f6e20746f2061206e6f6e2d636f6e747261637420616464726573730000000000602082015260400192915050565b620012208162001508565b620012208162001523565b6000620013e5828462001246565b50602001919050565b6000620009b6828462001255565b60006200140a828662001255565b915062001418828562001231565b6002820191506200142a828462001255565b95945050505050565b6020810162000651828462001215565b6020810162000651828462001226565b602081016200065182846200128a565b6020810162000651828462001295565b60208082528101620009b68184620012a0565b602080825281016200065181620012e0565b6020808252810162000651816200131b565b60208082528101620006518162001360565b60208101620006518284620013c1565b60208101620006518284620013cc565b5190565b90815260200190565b6000620006518262001517565b151590565b6001600160f01b03191690565b90565b806200066a816200157c565b6001600160a01b031690565b60ff1690565b60006200065182620014e9565b600062000651826200150b565b60005b838110156200156057818101518382015260200162001546565b83811115620009585750506000910152565b601f01601f191690565b600381106200073557fe5b6200159281620014e9565b81146200073557600080fd5b62001592816200150856fe608060405234801561001057600080fd5b506040516110d53803806110d583398101604081905261002f91610073565b60008054336001600160a01b031991821617909155600180549091166001600160a01b03929092169190911790556100c1565b805161006d816100aa565b92915050565b60006020828403121561008557600080fd5b60006100918484610062565b949350505050565b60006001600160a01b03821661006d565b6100b381610099565b81146100be57600080fd5b50565b611005806100d06000396000f3fe608060405234801561001057600080fd5b506004361061004c5760003560e01c8063a8aa1b3114610051578063ba0bba401461006f578063cd3293de14610079578063d4a3e9d71461008e575b600080fd5b6100596100a4565b6040516100669190610e89565b60405180910390f35b6100776100b3565b005b610081610307565b6040516100669190610efe565b61009661030d565b604051610066929190610ee3565b6002546001600160a01b031690565b6000546100df906001600160a01b03163314654f7261636c6560d01b664e6f742064616f60c81b610380565b600154735c69bee701ef814a2b6a3edd4b1652cb9cc5aa6f9063c9c65396906001600160a01b031661010f6103e3565b6040518363ffffffff1660e01b815260040161012c929190610e97565b602060405180830381600087803b15801561014657600080fd5b505af115801561015a573d6000803e3d6000fd5b505050506040513d601f19601f8201168201806040525061017e9190810190610c7a565b600280546001600160a01b0319166001600160a01b03928316179081905560408051630dfe168160e01b8152905160009384931691630dfe1681916004808301926020929190829003018186803b1580156101d857600080fd5b505afa1580156101ec573d6000803e3d6000fd5b505050506040513d601f19601f820116820180604052506102109190810190610c7a565b600260009054906101000a90046001600160a01b03166001600160a01b031663d21220a76040518163ffffffff1660e01b815260040160206040518083038186803b15801561025e57600080fd5b505afa158015610272573d6000803e3d6000fd5b505050506040513d601f19601f820116820180604052506102969190810190610c7a565b60015491935091506001600160a01b038084169116146102b75760016102ba565b60005b60ff1660038190556103039015806102df57506001546001600160a01b038381169116145b654f7261636c6560d01b7038a2225d1a1a58c81b9bdd08199bdd5b99607a1b610380565b5050565b60065490565b610315610c29565b60008054610342906001600160a01b03163314654f7261636c6560d01b664e6f742064616f60c81b610380565b600154600160a01b900460ff16156103655761035c6103f2565b9150915061037c565b61036d61045c565b610375610666565b6000915091505b9091565b826103de5761038e82610688565b6101d160f51b61039d83610688565b6040516020016103af93929190610e58565b60408051601f198184030181529082905262461bcd60e51b82526103d591600401610eb2565b60405180910390fd5b505050565b60006103ed61070a565b905090565b6103fa610c29565b6000610404610c29565b61040c610722565b905060006104186107d8565b905060006001610426610894565b831015610431575060005b610439610894565b6006541015610446575060005b8115610450575060005b92945091925050509091565b6002546003546001600160a01b0390911690600090156104ec57816001600160a01b0316635a3d54936040518163ffffffff1660e01b815260040160206040518083038186803b1580156104af57600080fd5b505afa1580156104c3573d6000803e3d6000fd5b505050506040513d601f19601f820116820180604052506104e79190810190610ced565b61055d565b816001600160a01b0316635909c0d56040518163ffffffff1660e01b815260040160206040518083038186803b15801561052557600080fd5b505afa158015610539573d6000803e3d6000fd5b505050506040513d601f19601f8201168201806040525061055d9190810190610ced565b90506000806000846001600160a01b0316630902f1ac6040518163ffffffff1660e01b815260040160606040518083038186803b15801561059d57600080fd5b505afa1580156105b1573d6000803e3d6000fd5b505050506040513d601f19601f820116820180604052506105d59190810190610ca0565b925092509250826001600160701b03166000141580156105fd57506001600160701b03821615155b801561060e575063ffffffff811615155b1561065f5760048490556005805463ffffffff831663ffffffff199091161790556001805460ff60a01b1916600160a01b179055600354156106505782610652565b815b6001600160701b03166006555b5050505050565b61066e610c29565b506040805160208101909152670de0b6b3a7640000815290565b6060808260405160200161069c9190610e43565b60408051601f19818403018152919052905060205b80156106f1578151600019909101908290829081106106cc57fe5b01602001516001600160f81b031916156106ec5760010181529050610705565b6106b1565b505060408051600081526020810190915290505b919050565b734f96fe3b7a6cf9725f59d353f723c1bdb64ca6aa90565b61072a610c29565b60025460009081908190610746906001600160a01b031661089d565b600554600354939650919450925063ffffffff168203906000901561076b578361076d565b845b9050610777610c29565b6107988363ffffffff1660045484038161078d57fe5b04600160701b610a72565b6005805463ffffffff191663ffffffff8781169190911790915560048490559091506107cd90829064e8d4a5100090610aa316565b965050505050505090565b6000806006549050600080600260009054906101000a90046001600160a01b03166001600160a01b0316630902f1ac6040518163ffffffff1660e01b815260040160606040518083038186803b15801561083157600080fd5b505afa158015610845573d6000803e3d6000fd5b505050506040513d601f19601f820116820180604052506108699190810190610ca0565b509150915060035460001461087e5781610880565b805b6001600160701b0316600655509091505090565b6402540be40090565b60008060006108aa610aca565b9050836001600160a01b0316635909c0d56040518163ffffffff1660e01b815260040160206040518083038186803b1580156108e557600080fd5b505afa1580156108f9573d6000803e3d6000fd5b505050506040513d601f19601f8201168201806040525061091d9190810190610ced565b9250836001600160a01b0316635a3d54936040518163ffffffff1660e01b815260040160206040518083038186803b15801561095857600080fd5b505afa15801561096c573d6000803e3d6000fd5b505050506040513d601f19601f820116820180604052506109909190810190610ced565b91506000806000866001600160a01b0316630902f1ac6040518163ffffffff1660e01b815260040160606040518083038186803b1580156109d057600080fd5b505afa1580156109e4573d6000803e3d6000fd5b505050506040513d601f19601f82011682018060405250610a089190810190610ca0565b9250925092508363ffffffff168163ffffffff1614610a685780840363ffffffff8116610a358486610ad4565b516001600160e01b031602969096019563ffffffff8116610a568585610ad4565b516001600160e01b0316029590950194505b5050509193909250565b610a7a610c29565b6040518060200160405280610a9885670de0b6b3a764000086610b4f565b905290505b92915050565b610aab610c29565b604080516020810190915283518190610a98908563ffffffff610b7b16565b63ffffffff421690565b610adc610c3c565b6000826001600160701b031611610b055760405162461bcd60e51b81526004016103d590610ed3565b6040805160208101909152806001600160701b0384166dffffffffffffffffffffffffffff60701b607087901b1681610b3a57fe5b046001600160e01b0316815250905092915050565b6000610b7182610b65868663ffffffff610b7b16565b9063ffffffff610bb516565b90505b9392505050565b600082610b8a57506000610a9d565b82820282848281610b9757fe5b0414610b745760405162461bcd60e51b81526004016103d590610ec3565b6000610b7483836040518060400160405280601a81526020017f536166654d6174683a206469766973696f6e206279207a65726f00000000000081525060008183610c135760405162461bcd60e51b81526004016103d59190610eb2565b506000838581610c1f57fe5b0495945050505050565b6040518060200160405280600081525090565b60408051602081019091526000815290565b8051610a9d81610f90565b8051610a9d81610fa7565b8051610a9d81610fb0565b8051610a9d81610fb9565b600060208284031215610c8c57600080fd5b6000610c988484610c4e565b949350505050565b600080600060608486031215610cb557600080fd5b6000610cc18686610c59565b9350506020610cd286828701610c59565b9250506040610ce386828701610c6f565b9150509250925092565b600060208284031215610cff57600080fd5b6000610c988484610c64565b610d1481610f19565b82525050565b610d1481610f24565b610d14610d2f82610f29565b610f36565b610d14610d2f82610f36565b6000610d4b82610f0c565b610d558185610705565b9350610d65818560208601610f5a565b9290920192915050565b6000610d7a82610f0c565b610d848185610f10565b9350610d94818560208601610f5a565b610d9d81610f86565b9093019392505050565b6000610db4602183610f10565b7f536166654d6174683a206d756c7469706c69636174696f6e206f766572666c6f8152607760f81b602082015260400192915050565b6000610df7601783610f10565b7f4669786564506f696e743a204449565f42595f5a45524f000000000000000000815260200192915050565b80516020830190610e348482610e3a565b50505050565b610d1481610f36565b6000610e4f8284610d34565b50602001919050565b6000610e648286610d40565b9150610e708285610d23565b600282019150610e808284610d40565b95945050505050565b60208101610a9d8284610d0b565b60408101610ea58285610d0b565b610b746020830184610d0b565b60208082528101610b748184610d6f565b60208082528101610a9d81610da7565b60208082528101610a9d81610dea565b60408101610ef18285610e23565b610b746020830184610d1a565b60208101610a9d8284610e3a565b5190565b90815260200190565b6000610a9d82610f45565b151590565b6001600160f01b03191690565b90565b6001600160701b031690565b6001600160a01b031690565b63ffffffff1690565b60005b83811015610f75578181015183820152602001610f5d565b83811115610e345750506000910152565b601f01601f191690565b610f9981610f19565b8114610fa457600080fd5b50565b610f9981610f39565b610f9981610f36565b610f9981610f5156fea365627a7a723158208c28439858e78a2552e35da50cf85ccf1c33b8589e25e9b0632cd953928b68c66c6578706572696d656e74616cf564736f6c63430005110040a365627a7a7231582036ebaa11e5f9e33b20f6060d1a1d6c5aca8d259aa3748eeb02e45b916a7048946c6578706572696d656e74616cf564736f6c63430005110040",
  "source": "/*\n    Copyright 2021 Ethic Money Devs <devs@ethic.money> and Copyright 2020 Empty Set Squad <emptysetsquad@protonmail.com>\n    \n    Licensed under the Apache License, Version 2.0 (the \"License\");\n    you may not use this file except in compliance with the License.\n    You may obtain a copy of the License at\n    \n    http://www.apache.org/licenses/LICENSE-2.0\n    \n    Unless required by applicable law or agreed to in writing, software\n    distributed under the License is distributed on an \"AS IS\" BASIS,\n    WITHOUT WARRANTIES OR CONDITIONS OF ANY KIND, either express or implied.\n    See the License for the specific language governing permissions and\n    limitations under the License.\n*/\n\npragma solidity ^0.5.17;\npragma experimental ABIEncoderV2;\n\nimport \"../external/Decimal.sol\";\nimport \"../token/Ethic.sol\";\nimport \"../oracle/Oracle.sol\";\nimport \"../oracle/Pool.sol\";\nimport \"./Upgradeable.sol\";\nimport \"./Permission.sol\";\n\n\ncontract Deployer1 is State, Permission, Upgradeable {\n    function initialize() initializer public {\n        _state.provider.ethic = new Ethic();\n    }\n\n    function implement(address implementation) external {\n        upgradeTo(implementation);\n    }\n}\n\ncontract Deployer2 is State, Permission, Upgradeable {\n    function initialize() initializer public {\n        _state.provider.oracle = new Oracle(address(ethic()));\n        oracle().setup(); \n    }\n\n    function implement(address implementation) external {\n        upgradeTo(implementation);\n    }\n}\n\ncontract Deployer3 is State, Permission, Upgradeable {\n    function initialize() initializer public {\n        _state.provider.pool = address(new Pool(address(ethic()), address(oracle().pair())));\n    }\n\n    function implement(address implementation) external {\n        upgradeTo(implementation);\n    }\n}\n",
  "sourcePath": "/home/ville/projects/ethic/protocol/contracts/dao/Deployer.sol",
  "compiler": {
    "name": "solc",
    "version": "0.5.17+commit.d19bba13.Emscripten.clang"
  },
  "schemaVersion": "3.3.2",
  "updatedAt": "2021-02-04T15:32:55.032Z",
  "networkType": "ethereum",
  "devdoc": {
    "methods": {}
  },
  "userdoc": {
    "methods": {
      "balanceOfStaged(address)": {
        "notice": "Account"
      },
      "epoch()": {
        "notice": "Epoch"
      },
      "ethic()": {
        "notice": "Global"
      },
      "name()": {
        "notice": "ERC20 Interface"
      },
      "recordedVote(address,address)": {
        "notice": "Governance"
      },
      "transfer(address,uint256)": {
        "notice": "ERC20 Interface"
      }
    }
  }
}