{
  "contractName": "Implementation",
  "abi": [
    {
      "anonymous": false,
      "inputs": [
        {
          "indexed": true,
          "internalType": "uint256",
          "name": "epoch",
          "type": "uint256"
        },
        {
          "indexed": false,
          "internalType": "uint256",
          "name": "block",
          "type": "uint256"
        },
        {
          "indexed": false,
          "internalType": "uint256",
          "name": "timestamp",
          "type": "uint256"
        }
      ],
      "name": "Advance",
      "type": "event"
    },
    {
      "anonymous": false,
      "inputs": [
        {
          "indexed": true,
          "internalType": "address",
          "name": "account",
          "type": "address"
        },
        {
          "indexed": false,
          "internalType": "uint256",
          "name": "start",
          "type": "uint256"
        },
        {
          "indexed": false,
          "internalType": "uint256",
          "name": "value",
          "type": "uint256"
        },
        {
          "indexed": false,
          "internalType": "uint256",
          "name": "valueUnderlying",
          "type": "uint256"
        }
      ],
      "name": "Bond",
      "type": "event"
    },
    {
      "anonymous": false,
      "inputs": [
        {
          "indexed": true,
          "internalType": "address",
          "name": "account",
          "type": "address"
        },
        {
          "indexed": true,
          "internalType": "address",
          "name": "candidate",
          "type": "address"
        }
      ],
      "name": "Commit",
      "type": "event"
    },
    {
      "anonymous": false,
      "inputs": [
        {
          "indexed": true,
          "internalType": "address",
          "name": "owner",
          "type": "address"
        },
        {
          "indexed": true,
          "internalType": "address",
          "name": "spender",
          "type": "address"
        },
        {
          "indexed": false,
          "internalType": "uint256",
          "name": "value",
          "type": "uint256"
        }
      ],
      "name": "CouponApproval",
      "type": "event"
    },
    {
      "anonymous": false,
      "inputs": [
        {
          "indexed": true,
          "internalType": "address",
          "name": "account",
          "type": "address"
        },
        {
          "indexed": true,
          "internalType": "uint256",
          "name": "epoch",
          "type": "uint256"
        },
        {
          "indexed": false,
          "internalType": "uint256",
          "name": "couponAmount",
          "type": "uint256"
        }
      ],
      "name": "CouponBurn",
      "type": "event"
    },
    {
      "anonymous": false,
      "inputs": [
        {
          "indexed": true,
          "internalType": "uint256",
          "name": "epoch",
          "type": "uint256"
        },
        {
          "indexed": false,
          "internalType": "uint256",
          "name": "couponsExpired",
          "type": "uint256"
        },
        {
          "indexed": false,
          "internalType": "uint256",
          "name": "lessRedeemable",
          "type": "uint256"
        },
        {
          "indexed": false,
          "internalType": "uint256",
          "name": "lessDebt",
          "type": "uint256"
        },
        {
          "indexed": false,
          "internalType": "uint256",
          "name": "newBonded",
          "type": "uint256"
        }
      ],
      "name": "CouponExpiration",
      "type": "event"
    },
    {
      "anonymous": false,
      "inputs": [
        {
          "indexed": true,
          "internalType": "address",
          "name": "account",
          "type": "address"
        },
        {
          "indexed": true,
          "internalType": "uint256",
          "name": "epoch",
          "type": "uint256"
        },
        {
          "indexed": false,
          "internalType": "uint256",
          "name": "dollarAmount",
          "type": "uint256"
        },
        {
          "indexed": false,
          "internalType": "uint256",
          "name": "couponAmount",
          "type": "uint256"
        }
      ],
      "name": "CouponPurchase",
      "type": "event"
    },
    {
      "anonymous": false,
      "inputs": [
        {
          "indexed": true,
          "internalType": "address",
          "name": "account",
          "type": "address"
        },
        {
          "indexed": true,
          "internalType": "uint256",
          "name": "epoch",
          "type": "uint256"
        },
        {
          "indexed": false,
          "internalType": "uint256",
          "name": "couponAmount",
          "type": "uint256"
        }
      ],
      "name": "CouponRedemption",
      "type": "event"
    },
    {
      "anonymous": false,
      "inputs": [
        {
          "indexed": true,
          "internalType": "address",
          "name": "from",
          "type": "address"
        },
        {
          "indexed": true,
          "internalType": "address",
          "name": "to",
          "type": "address"
        },
        {
          "indexed": true,
          "internalType": "uint256",
          "name": "epoch",
          "type": "uint256"
        },
        {
          "indexed": false,
          "internalType": "uint256",
          "name": "value",
          "type": "uint256"
        }
      ],
      "name": "CouponTransfer",
      "type": "event"
    },
    {
      "anonymous": false,
      "inputs": [
        {
          "indexed": true,
          "internalType": "address",
          "name": "account",
          "type": "address"
        },
        {
          "indexed": false,
          "internalType": "uint256",
          "name": "value",
          "type": "uint256"
        }
      ],
      "name": "Deposit",
      "type": "event"
    },
    {
      "anonymous": false,
      "inputs": [
        {
          "indexed": true,
          "internalType": "address",
          "name": "account",
          "type": "address"
        },
        {
          "indexed": false,
          "internalType": "uint256",
          "name": "amount",
          "type": "uint256"
        }
      ],
      "name": "Incentivization",
      "type": "event"
    },
    {
      "anonymous": false,
      "inputs": [
        {
          "indexed": true,
          "internalType": "address",
          "name": "candidate",
          "type": "address"
        },
        {
          "indexed": true,
          "internalType": "address",
          "name": "account",
          "type": "address"
        },
        {
          "indexed": true,
          "internalType": "uint256",
          "name": "start",
          "type": "uint256"
        },
        {
          "indexed": false,
          "internalType": "uint256",
          "name": "period",
          "type": "uint256"
        }
      ],
      "name": "Proposal",
      "type": "event"
    },
    {
      "anonymous": false,
      "inputs": [
        {
          "indexed": true,
          "internalType": "uint256",
          "name": "epoch",
          "type": "uint256"
        },
        {
          "indexed": false,
          "internalType": "uint256",
          "name": "price",
          "type": "uint256"
        },
        {
          "indexed": false,
          "internalType": "uint256",
          "name": "newDebt",
          "type": "uint256"
        }
      ],
      "name": "SupplyDecrease",
      "type": "event"
    },
    {
      "anonymous": false,
      "inputs": [
        {
          "indexed": true,
          "internalType": "uint256",
          "name": "epoch",
          "type": "uint256"
        },
        {
          "indexed": false,
          "internalType": "uint256",
          "name": "price",
          "type": "uint256"
        },
        {
          "indexed": false,
          "internalType": "uint256",
          "name": "newRedeemable",
          "type": "uint256"
        },
        {
          "indexed": false,
          "internalType": "uint256",
          "name": "lessDebt",
          "type": "uint256"
        },
        {
          "indexed": false,
          "internalType": "uint256",
          "name": "newBonded",
          "type": "uint256"
        }
      ],
      "name": "SupplyIncrease",
      "type": "event"
    },
    {
      "anonymous": false,
      "inputs": [
        {
          "indexed": true,
          "internalType": "uint256",
          "name": "epoch",
          "type": "uint256"
        }
      ],
      "name": "SupplyNeutral",
      "type": "event"
    },
    {
      "anonymous": false,
      "inputs": [
        {
          "indexed": true,
          "internalType": "address",
          "name": "from",
          "type": "address"
        },
        {
          "indexed": true,
          "internalType": "address",
          "name": "to",
          "type": "address"
        },
        {
          "indexed": false,
          "internalType": "uint256",
          "name": "value",
          "type": "uint256"
        }
      ],
      "name": "Transfer",
      "type": "event"
    },
    {
      "anonymous": false,
      "inputs": [
        {
          "indexed": true,
          "internalType": "address",
          "name": "account",
          "type": "address"
        },
        {
          "indexed": false,
          "internalType": "uint256",
          "name": "start",
          "type": "uint256"
        },
        {
          "indexed": false,
          "internalType": "uint256",
          "name": "value",
          "type": "uint256"
        },
        {
          "indexed": false,
          "internalType": "uint256",
          "name": "valueUnderlying",
          "type": "uint256"
        }
      ],
      "name": "Unbond",
      "type": "event"
    },
    {
      "anonymous": false,
      "inputs": [
        {
          "indexed": true,
          "internalType": "address",
          "name": "implementation",
          "type": "address"
        }
      ],
      "name": "Upgraded",
      "type": "event"
    },
    {
      "anonymous": false,
      "inputs": [
        {
          "indexed": true,
          "internalType": "address",
          "name": "account",
          "type": "address"
        },
        {
          "indexed": true,
          "internalType": "address",
          "name": "candidate",
          "type": "address"
        },
        {
          "indexed": false,
          "internalType": "enum Candidate.Vote",
          "name": "vote",
          "type": "uint8"
        },
        {
          "indexed": false,
          "internalType": "uint256",
          "name": "bonded",
          "type": "uint256"
        }
      ],
      "name": "Vote",
      "type": "event"
    },
    {
      "anonymous": false,
      "inputs": [
        {
          "indexed": true,
          "internalType": "address",
          "name": "account",
          "type": "address"
        },
        {
          "indexed": false,
          "internalType": "uint256",
          "name": "value",
          "type": "uint256"
        }
      ],
      "name": "Withdraw",
      "type": "event"
    },
    {
      "constant": true,
      "inputs": [
        {
          "internalType": "address",
          "name": "owner",
          "type": "address"
        },
        {
          "internalType": "address",
          "name": "spender",
          "type": "address"
        }
      ],
      "name": "allowance",
      "outputs": [
        {
          "internalType": "uint256",
          "name": "",
          "type": "uint256"
        }
      ],
      "payable": false,
      "stateMutability": "view",
      "type": "function"
    },
    {
      "constant": true,
      "inputs": [
        {
          "internalType": "address",
          "name": "owner",
          "type": "address"
        },
        {
          "internalType": "address",
          "name": "spender",
          "type": "address"
        }
      ],
      "name": "allowanceCoupons",
      "outputs": [
        {
          "internalType": "uint256",
          "name": "",
          "type": "uint256"
        }
      ],
      "payable": false,
      "stateMutability": "view",
      "type": "function"
    },
    {
      "constant": false,
      "inputs": [
        {
          "internalType": "address",
          "name": "spender",
          "type": "address"
        },
        {
          "internalType": "uint256",
          "name": "amount",
          "type": "uint256"
        }
      ],
      "name": "approve",
      "outputs": [
        {
          "internalType": "bool",
          "name": "",
          "type": "bool"
        }
      ],
      "payable": false,
      "stateMutability": "nonpayable",
      "type": "function"
    },
    {
      "constant": false,
      "inputs": [
        {
          "internalType": "address",
          "name": "spender",
          "type": "address"
        },
        {
          "internalType": "uint256",
          "name": "amount",
          "type": "uint256"
        }
      ],
      "name": "approveCoupons",
      "outputs": [],
      "payable": false,
      "stateMutability": "nonpayable",
      "type": "function"
    },
    {
      "constant": true,
      "inputs": [
        {
          "internalType": "address",
          "name": "candidate",
          "type": "address"
        }
      ],
      "name": "approveFor",
      "outputs": [
        {
          "internalType": "uint256",
          "name": "",
          "type": "uint256"
        }
      ],
      "payable": false,
      "stateMutability": "view",
      "type": "function"
    },
    {
      "constant": true,
      "inputs": [
        {
          "internalType": "address",
          "name": "account",
          "type": "address"
        }
      ],
      "name": "balanceOf",
      "outputs": [
        {
          "internalType": "uint256",
          "name": "",
          "type": "uint256"
        }
      ],
      "payable": false,
      "stateMutability": "view",
      "type": "function"
    },
    {
      "constant": true,
      "inputs": [
        {
          "internalType": "address",
          "name": "account",
          "type": "address"
        }
      ],
      "name": "balanceOfBonded",
      "outputs": [
        {
          "internalType": "uint256",
          "name": "",
          "type": "uint256"
        }
      ],
      "payable": false,
      "stateMutability": "view",
      "type": "function"
    },
    {
      "constant": true,
      "inputs": [
        {
          "internalType": "address",
          "name": "account",
          "type": "address"
        },
        {
          "internalType": "uint256",
          "name": "epoch",
          "type": "uint256"
        }
      ],
      "name": "balanceOfCoupons",
      "outputs": [
        {
          "internalType": "uint256",
          "name": "",
          "type": "uint256"
        }
      ],
      "payable": false,
      "stateMutability": "view",
      "type": "function"
    },
    {
      "constant": true,
      "inputs": [
        {
          "internalType": "address",
          "name": "account",
          "type": "address"
        }
      ],
      "name": "balanceOfStaged",
      "outputs": [
        {
          "internalType": "uint256",
          "name": "",
          "type": "uint256"
        }
      ],
      "payable": false,
      "stateMutability": "view",
      "type": "function"
    },
    {
      "constant": false,
      "inputs": [
        {
          "internalType": "uint256",
          "name": "value",
          "type": "uint256"
        }
      ],
      "name": "bond",
      "outputs": [],
      "payable": false,
      "stateMutability": "nonpayable",
      "type": "function"
    },
    {
      "constant": true,
      "inputs": [
        {
          "internalType": "uint256",
          "name": "epoch",
          "type": "uint256"
        }
      ],
      "name": "bootstrappingAt",
      "outputs": [
        {
          "internalType": "bool",
          "name": "",
          "type": "bool"
        }
      ],
      "payable": false,
      "stateMutability": "view",
      "type": "function"
    },
    {
      "constant": false,
      "inputs": [
        {
          "internalType": "address",
          "name": "candidate",
          "type": "address"
        }
      ],
      "name": "commit",
      "outputs": [],
      "payable": false,
      "stateMutability": "nonpayable",
      "type": "function"
    },
    {
      "constant": true,
      "inputs": [
        {
          "internalType": "uint256",
          "name": "amount",
          "type": "uint256"
        }
      ],
      "name": "couponPremium",
      "outputs": [
        {
          "internalType": "uint256",
          "name": "",
          "type": "uint256"
        }
      ],
      "payable": false,
      "stateMutability": "view",
      "type": "function"
    },
    {
      "constant": true,
      "inputs": [
        {
          "internalType": "uint256",
          "name": "couponEpoch",
          "type": "uint256"
        },
        {
          "internalType": "uint256",
          "name": "couponAmount",
          "type": "uint256"
        }
      ],
      "name": "couponRedemptionPenalty",
      "outputs": [
        {
          "internalType": "uint256",
          "name": "",
          "type": "uint256"
        }
      ],
      "payable": false,
      "stateMutability": "view",
      "type": "function"
    },
    {
      "constant": true,
      "inputs": [
        {
          "internalType": "uint256",
          "name": "epoch",
          "type": "uint256"
        }
      ],
      "name": "couponsExpiration",
      "outputs": [
        {
          "internalType": "uint256",
          "name": "",
          "type": "uint256"
        }
      ],
      "payable": false,
      "stateMutability": "view",
      "type": "function"
    },
    {
      "constant": true,
      "inputs": [],
      "name": "decimals",
      "outputs": [
        {
          "internalType": "uint8",
          "name": "",
          "type": "uint8"
        }
      ],
      "payable": false,
      "stateMutability": "view",
      "type": "function"
    },
    {
      "constant": false,
      "inputs": [
        {
          "internalType": "uint256",
          "name": "value",
          "type": "uint256"
        }
      ],
      "name": "deposit",
      "outputs": [],
      "payable": false,
      "stateMutability": "nonpayable",
      "type": "function"
    },
    {
      "constant": false,
      "inputs": [
        {
          "internalType": "address",
          "name": "candidate",
          "type": "address"
        }
      ],
      "name": "emergencyCommit",
      "outputs": [],
      "payable": false,
      "stateMutability": "nonpayable",
      "type": "function"
    },
    {
      "constant": true,
      "inputs": [],
      "name": "epoch",
      "outputs": [
        {
          "internalType": "uint256",
          "name": "",
          "type": "uint256"
        }
      ],
      "payable": false,
      "stateMutability": "view",
      "type": "function"
    },
    {
      "constant": true,
      "inputs": [],
      "name": "epochTime",
      "outputs": [
        {
          "internalType": "uint256",
          "name": "",
          "type": "uint256"
        }
      ],
      "payable": false,
      "stateMutability": "view",
      "type": "function"
    },
    {
      "constant": true,
      "inputs": [],
      "name": "ethic",
      "outputs": [
        {
          "internalType": "contract IEthic",
          "name": "",
          "type": "address"
        }
      ],
      "payable": false,
      "stateMutability": "view",
      "type": "function"
    },
    {
      "constant": true,
      "inputs": [
        {
          "internalType": "uint256",
          "name": "epoch",
          "type": "uint256"
        }
      ],
      "name": "expiringCoupons",
      "outputs": [
        {
          "internalType": "uint256",
          "name": "",
          "type": "uint256"
        }
      ],
      "payable": false,
      "stateMutability": "view",
      "type": "function"
    },
    {
      "constant": true,
      "inputs": [
        {
          "internalType": "uint256",
          "name": "epoch",
          "type": "uint256"
        },
        {
          "internalType": "uint256",
          "name": "i",
          "type": "uint256"
        }
      ],
      "name": "expiringCouponsAtIndex",
      "outputs": [
        {
          "internalType": "uint256",
          "name": "",
          "type": "uint256"
        }
      ],
      "payable": false,
      "stateMutability": "view",
      "type": "function"
    },
    {
      "constant": true,
      "inputs": [
        {
          "internalType": "address",
          "name": "account",
          "type": "address"
        }
      ],
      "name": "fluidUntil",
      "outputs": [
        {
          "internalType": "uint256",
          "name": "",
          "type": "uint256"
        }
      ],
      "payable": false,
      "stateMutability": "view",
      "type": "function"
    },
    {
      "constant": true,
      "inputs": [],
      "name": "implementation",
      "outputs": [
        {
          "internalType": "address",
          "name": "impl",
          "type": "address"
        }
      ],
      "payable": false,
      "stateMutability": "view",
      "type": "function"
    },
    {
      "constant": true,
      "inputs": [
        {
          "internalType": "address",
          "name": "candidate",
          "type": "address"
        }
      ],
      "name": "isInitialized",
      "outputs": [
        {
          "internalType": "bool",
          "name": "",
          "type": "bool"
        }
      ],
      "payable": false,
      "stateMutability": "view",
      "type": "function"
    },
    {
      "constant": true,
      "inputs": [
        {
          "internalType": "address",
          "name": "candidate",
          "type": "address"
        }
      ],
      "name": "isNominated",
      "outputs": [
        {
          "internalType": "bool",
          "name": "",
          "type": "bool"
        }
      ],
      "payable": false,
      "stateMutability": "view",
      "type": "function"
    },
    {
      "constant": true,
      "inputs": [
        {
          "internalType": "address",
          "name": "account",
          "type": "address"
        }
      ],
      "name": "lockedUntil",
      "outputs": [
        {
          "internalType": "uint256",
          "name": "",
          "type": "uint256"
        }
      ],
      "payable": false,
      "stateMutability": "view",
      "type": "function"
    },
    {
      "constant": true,
      "inputs": [],
      "name": "name",
      "outputs": [
        {
          "internalType": "string",
          "name": "",
          "type": "string"
        }
      ],
      "payable": false,
      "stateMutability": "view",
      "type": "function"
    },
    {
      "constant": true,
      "inputs": [],
      "name": "oracle",
      "outputs": [
        {
          "internalType": "contract IOracle",
          "name": "",
          "type": "address"
        }
      ],
      "payable": false,
      "stateMutability": "view",
      "type": "function"
    },
    {
      "constant": true,
      "inputs": [
        {
          "internalType": "uint256",
          "name": "epoch",
          "type": "uint256"
        }
      ],
      "name": "outstandingCoupons",
      "outputs": [
        {
          "internalType": "uint256",
          "name": "",
          "type": "uint256"
        }
      ],
      "payable": false,
      "stateMutability": "view",
      "type": "function"
    },
    {
      "constant": true,
      "inputs": [
        {
          "internalType": "address",
          "name": "candidate",
          "type": "address"
        }
      ],
      "name": "periodFor",
      "outputs": [
        {
          "internalType": "uint256",
          "name": "",
          "type": "uint256"
        }
      ],
      "payable": false,
      "stateMutability": "view",
      "type": "function"
    },
    {
      "constant": true,
      "inputs": [],
      "name": "pool",
      "outputs": [
        {
          "internalType": "address",
          "name": "",
          "type": "address"
        }
      ],
      "payable": false,
      "stateMutability": "view",
      "type": "function"
    },
    {
      "constant": false,
      "inputs": [
        {
          "internalType": "uint256",
          "name": "ethicAmount",
          "type": "uint256"
        }
      ],
      "name": "purchaseCoupons",
      "outputs": [
        {
          "internalType": "uint256",
          "name": "",
          "type": "uint256"
        }
      ],
      "payable": false,
      "stateMutability": "nonpayable",
      "type": "function"
    },
    {
      "constant": true,
      "inputs": [
        {
          "internalType": "address",
          "name": "account",
          "type": "address"
        },
        {
          "internalType": "address",
          "name": "candidate",
          "type": "address"
        }
      ],
      "name": "recordedVote",
      "outputs": [
        {
          "internalType": "enum Candidate.Vote",
          "name": "",
          "type": "uint8"
        }
      ],
      "payable": false,
      "stateMutability": "view",
      "type": "function"
    },
    {
      "constant": false,
      "inputs": [
        {
          "internalType": "uint256",
          "name": "couponEpoch",
          "type": "uint256"
        },
        {
          "internalType": "uint256",
          "name": "couponAmount",
          "type": "uint256"
        }
      ],
      "name": "redeemCoupons",
      "outputs": [],
      "payable": false,
      "stateMutability": "nonpayable",
      "type": "function"
    },
    {
      "constant": true,
      "inputs": [
        {
          "internalType": "address",
          "name": "candidate",
          "type": "address"
        }
      ],
      "name": "rejectFor",
      "outputs": [
        {
          "internalType": "uint256",
          "name": "",
          "type": "uint256"
        }
      ],
      "payable": false,
      "stateMutability": "view",
      "type": "function"
    },
    {
      "constant": true,
      "inputs": [
        {
          "internalType": "address",
          "name": "candidate",
          "type": "address"
        }
      ],
      "name": "startFor",
      "outputs": [
        {
          "internalType": "uint256",
          "name": "",
          "type": "uint256"
        }
      ],
      "payable": false,
      "stateMutability": "view",
      "type": "function"
    },
    {
      "constant": true,
      "inputs": [
        {
          "internalType": "address",
          "name": "account",
          "type": "address"
        }
      ],
      "name": "statusOf",
      "outputs": [
        {
          "internalType": "enum Account.Status",
          "name": "",
          "type": "uint8"
        }
      ],
      "payable": false,
      "stateMutability": "view",
      "type": "function"
    },
    {
      "constant": true,
      "inputs": [],
      "name": "symbol",
      "outputs": [
        {
          "internalType": "string",
          "name": "",
          "type": "string"
        }
      ],
      "payable": false,
      "stateMutability": "view",
      "type": "function"
    },
    {
      "constant": true,
      "inputs": [],
      "name": "totalBonded",
      "outputs": [
        {
          "internalType": "uint256",
          "name": "",
          "type": "uint256"
        }
      ],
      "payable": false,
      "stateMutability": "view",
      "type": "function"
    },
    {
      "constant": true,
      "inputs": [
        {
          "internalType": "uint256",
          "name": "epoch",
          "type": "uint256"
        }
      ],
      "name": "totalBondedAt",
      "outputs": [
        {
          "internalType": "uint256",
          "name": "",
          "type": "uint256"
        }
      ],
      "payable": false,
      "stateMutability": "view",
      "type": "function"
    },
    {
      "constant": true,
      "inputs": [],
      "name": "totalCoupons",
      "outputs": [
        {
          "internalType": "uint256",
          "name": "",
          "type": "uint256"
        }
      ],
      "payable": false,
      "stateMutability": "view",
      "type": "function"
    },
    {
      "constant": true,
      "inputs": [],
      "name": "totalDebt",
      "outputs": [
        {
          "internalType": "uint256",
          "name": "",
          "type": "uint256"
        }
      ],
      "payable": false,
      "stateMutability": "view",
      "type": "function"
    },
    {
      "constant": true,
      "inputs": [],
      "name": "totalNet",
      "outputs": [
        {
          "internalType": "uint256",
          "name": "",
          "type": "uint256"
        }
      ],
      "payable": false,
      "stateMutability": "view",
      "type": "function"
    },
    {
      "constant": true,
      "inputs": [],
      "name": "totalRedeemable",
      "outputs": [
        {
          "internalType": "uint256",
          "name": "",
          "type": "uint256"
        }
      ],
      "payable": false,
      "stateMutability": "view",
      "type": "function"
    },
    {
      "constant": true,
      "inputs": [],
      "name": "totalStaged",
      "outputs": [
        {
          "internalType": "uint256",
          "name": "",
          "type": "uint256"
        }
      ],
      "payable": false,
      "stateMutability": "view",
      "type": "function"
    },
    {
      "constant": true,
      "inputs": [],
      "name": "totalSupply",
      "outputs": [
        {
          "internalType": "uint256",
          "name": "",
          "type": "uint256"
        }
      ],
      "payable": false,
      "stateMutability": "view",
      "type": "function"
    },
    {
      "constant": false,
      "inputs": [
        {
          "internalType": "address",
          "name": "recipient",
          "type": "address"
        },
        {
          "internalType": "uint256",
          "name": "amount",
          "type": "uint256"
        }
      ],
      "name": "transfer",
      "outputs": [
        {
          "internalType": "bool",
          "name": "",
          "type": "bool"
        }
      ],
      "payable": false,
      "stateMutability": "nonpayable",
      "type": "function"
    },
    {
      "constant": false,
      "inputs": [
        {
          "internalType": "address",
          "name": "sender",
          "type": "address"
        },
        {
          "internalType": "address",
          "name": "recipient",
          "type": "address"
        },
        {
          "internalType": "uint256",
          "name": "epoch",
          "type": "uint256"
        },
        {
          "internalType": "uint256",
          "name": "amount",
          "type": "uint256"
        }
      ],
      "name": "transferCoupons",
      "outputs": [],
      "payable": false,
      "stateMutability": "nonpayable",
      "type": "function"
    },
    {
      "constant": false,
      "inputs": [
        {
          "internalType": "address",
          "name": "sender",
          "type": "address"
        },
        {
          "internalType": "address",
          "name": "recipient",
          "type": "address"
        },
        {
          "internalType": "uint256",
          "name": "amount",
          "type": "uint256"
        }
      ],
      "name": "transferFrom",
      "outputs": [
        {
          "internalType": "bool",
          "name": "",
          "type": "bool"
        }
      ],
      "payable": false,
      "stateMutability": "nonpayable",
      "type": "function"
    },
    {
      "constant": false,
      "inputs": [
        {
          "internalType": "uint256",
          "name": "value",
          "type": "uint256"
        }
      ],
      "name": "unbond",
      "outputs": [],
      "payable": false,
      "stateMutability": "nonpayable",
      "type": "function"
    },
    {
      "constant": false,
      "inputs": [
        {
          "internalType": "uint256",
          "name": "value",
          "type": "uint256"
        }
      ],
      "name": "unbondUnderlying",
      "outputs": [],
      "payable": false,
      "stateMutability": "nonpayable",
      "type": "function"
    },
    {
      "constant": false,
      "inputs": [
        {
          "internalType": "address",
          "name": "candidate",
          "type": "address"
        },
        {
          "internalType": "enum Candidate.Vote",
          "name": "vote",
          "type": "uint8"
        }
      ],
      "name": "vote",
      "outputs": [],
      "payable": false,
      "stateMutability": "nonpayable",
      "type": "function"
    },
    {
      "constant": true,
      "inputs": [
        {
          "internalType": "address",
          "name": "candidate",
          "type": "address"
        }
      ],
      "name": "votesFor",
      "outputs": [
        {
          "internalType": "uint256",
          "name": "",
          "type": "uint256"
        }
      ],
      "payable": false,
      "stateMutability": "view",
      "type": "function"
    },
    {
      "constant": false,
      "inputs": [
        {
          "internalType": "uint256",
          "name": "value",
          "type": "uint256"
        }
      ],
      "name": "withdraw",
      "outputs": [],
      "payable": false,
      "stateMutability": "nonpayable",
      "type": "function"
    },
    {
      "constant": false,
      "inputs": [],
      "name": "initialize",
      "outputs": [],
      "payable": false,
      "stateMutability": "nonpayable",
      "type": "function"
    },
    {
      "constant": false,
      "inputs": [],
      "name": "advance",
      "outputs": [],
      "payable": false,
      "stateMutability": "nonpayable",
      "type": "function"
    }
  ],
  "bytecode": "0x608060405234801561001057600080fd5b506144c8806100206000396000f3fe608060405234801561001057600080fd5b506004361061038d5760003560e01c8063825ad607116101de578063bc7513e21161010f578063d8f54138116100ad578063ea105ac71161007c578063ea105ac714610732578063f1b7cf491461073a578063fc7b9c181461074d578063ffbe3b73146107555761038d565b8063d8f54138146106eb578063dd62ed3e146106fe578063df9a2b1c1461070c578063e5f55c7e1461071f5761038d565b8063c9aff70c116100e9578063c9aff70c146106aa578063cf023779146106bd578063d60b347f146106c5578063d6a9cf08146106d85761038d565b8063bc7513e21461067c578063bceb514d1461068f578063c0ec4ac5146106a25761038d565b80639bc289f11161017c578063a50cd8e711610156578063a50cd8e71461064e578063a6c409f114610661578063a9059cbb146103c5578063b6b55f25146106695761038d565b80639bc289f1146106155780639f6e1b2614610628578063a1eb31e81461063b5761038d565b806395d89b41116101b857806395d89b41146105df57806397a5d5b5146105e75780639940686e146105fa5780639a649edc1461060d5761038d565b8063825ad607146105b157806386cf9f14146105c4578063900cf0cf146105d75761038d565b8063369e8c1d116102c357806351bf21d81161026157806370a082311161023057806370a082311461056e57806375d5024b146105815780637dc0d1d0146105945780638129fc1c146105a95761038d565b806351bf21d81461052d5780635c60da1b1461054057806364668022146105485780636a39e3281461055b5761038d565b806344d96e951161029d57806344d96e95146104f757806347c05069146104ff5780634c736099146105125780635053e461146105255761038d565b8063369e8c1d146104b15780633a3e6c81146104c45780633fbba9a6146104d75761038d565b80631edbcf6c116103305780632e1a7d4d1161030a5780632e1a7d4d146104635780632f7f889e14610476578063313ce56714610489578063353a420c1461049e5761038d565b80631edbcf6c1461043557806323b872dd1461043d57806327de9e32146104505761038d565b806310e95b6c1161036c57806310e95b6c146103e557806315e14bf61461040557806316f0115b1461041857806318160ddd1461042d5761038d565b80625edd371461039257806306fdde03146103a7578063095ea7b3146103c5575b600080fd5b6103a56103a0366004613c4c565b610768565b005b6103af61088b565b6040516103bc919061417b565b60405180910390f35b6103d86103d3366004613cdd565b6108b7565b6040516103bc9190614143565b6103f86103f3366004613d5b565b6108c0565b6040516103bc91906141fc565b6103f8610413366004613ba7565b6108d8565b6104206108f6565b6040516103bc91906140d6565b6103f8610905565b6103f861090b565b6103d861044b366004613bff565b610911565b6103a561045e366004613d5b565b61091b565b6103a5610471366004613d5b565b610a6d565b6103a5610484366004613cdd565b610ba5565b610491610c25565b6040516103bc9190614290565b6103f86104ac366004613ba7565b610c2a565b6103a56104bf366004613ba7565b610c48565b6103d86104d2366004613ba7565b610dd9565b6104ea6104e5366004613bc5565b610df6565b6040516103bc919061415f565b6103f8610e29565b6103a561050d366004613ba7565b610e2f565b6103f8610520366004613d97565b610f22565b6103f8610f52565b6103f861053b366004613ba7565b610f75565b610420610f93565b6103f8610556366004613ba7565b610fb8565b6103f8610569366004613d5b565b610fd6565b6103f861057c366004613ba7565b610feb565b6103d861058f366004613d5b565b611009565b61059c61101c565b6040516103bc9190614151565b6103a561102b565b6103f86105bf366004613ba7565b611087565b6103f86105d2366004613ba7565b6110c7565b6103f86110e2565b6103af6110e8565b6104ea6105f5366004613ba7565b611107565b6103a5610608366004613d5b565b61116c565b6103f861123d565b6103f8610623366004613ba7565b611243565b6103f8610636366004613bc5565b611261565b6103f8610649366004613d97565b611290565b6103f861065c366004613ba7565b6113b6565b6103f86113cd565b6103a5610677366004613d5b565b611457565b6103f861068a366004613cdd565b61152f565b6103a561069d366004613cad565b611573565b61059c611819565b6103f86106b8366004613d5b565b611828565b6103f861183d565b6103d86106d3366004613ba7565b611843565b6103a56106e6366004613d97565b611864565b6103f86106f9366004613d5b565b611959565b6103f86103d3366004613bc5565b6103a561071a366004613d5b565b6119e4565b6103f861072d366004613d5b565b611aa5565b6103a5611b97565b6103f8610748366004613ba7565b611c11565b6103f8611c2c565b6103f8610763366004613d5b565b611c32565b6001600160a01b0384166107975760405162461bcd60e51b815260040161078e906141dc565b60405180910390fd5b6001600160a01b0383166107bd5760405162461bcd60e51b815260040161078e9061419c565b6107e18483836040518060600160405280602381526020016143a760239139611c44565b6107ec838383611cef565b336001600160a01b03851614801590610810575060001961080d8533611261565b14155b15610839576108398433836040518060600160405280602481526020016143ee60249139611d96565b81836001600160a01b0316856001600160a01b03167f0f1dbb1ccbe57a1590c7baad7b01d581b730c9ebc535dcde4345e6db424063d88460405161087d91906141fc565b60405180910390a450505050565b6040805180820190915260118152704574686963204d6f6e6579205374616b6560781b60208201525b90565b60005b92915050565b6000818152600d60205260409020600201545b919050565b6001600160a01b03166000908152600e602052604090206001015490565b600b546001600160a01b031690565b60035490565b60065490565b60005b9392505050565b3361096260025b61092b83611107565b600281111561093657fe5b1415692832b936b4b9b9b4b7b760b11b72139bdd08199c9bde995b881bdc88199b1d5a59606a1b611e07565b6109733361096e611e5c565b611e61565b60006109a661098133610feb565b61099a61098d33611087565b869063ffffffff611e9016565b9063ffffffff611eca16565b90506109b23382611f0c565b6109d48160405180606001604052806022815260200161441260229139611f68565b610a1433846040518060400160405280601d81526020017f426f6e64696e673a20696e73756666696369656e742062616c616e6365000000815250611f83565b337f93530ac0ee8c50e696e13c5ac62355d0c0ba4bd943620d5bda1eb08b64ae7512610a4f6001610a436110e2565b9063ffffffff61202e16565b8584604051610a609392919061424d565b60405180910390a2505050565b33610ab560015b610a7d83611107565b6002811115610a8857fe5b1415692832b936b4b9b9b4b7b760b11b73139bdd08199c9bde995b881bdc881b1bd8dad95960621b611e07565b610abd611819565b6001600160a01b031663a9059cbb33846040518363ffffffff1660e01b8152600401610aea92919061410c565b602060405180830381600087803b158015610b0457600080fd5b505af1158015610b18573d6000803e3d6000fd5b505050506040513d601f19601f82011682018060405250610b3c9190810190613d0d565b50610b6033836040518060600160405280602481526020016143ca60249139612053565b336001600160a01b03167f884edad9ce6fa2440d8a54cc123490eb96d2768479d49ff9c7366125a942436483604051610b9991906141fc565b60405180910390a25050565b6001600160a01b038216610bcb5760405162461bcd60e51b815260040161078e906141cc565b610bd63383836120b2565b816001600160a01b0316336001600160a01b03167f8ff27e6b95060c1ca851e7c2c28af8b413eb1a8bcb637b0290da9543a709cce383604051610c1991906141fc565b60405180910390a35050565b601290565b6001600160a01b03166000908152600e602052604090206003015490565b610c74610c5482610dd9565b6523b7bb32b93760d11b6c139bdd081b9bdb5a5b985d1959609a1b611e07565b6000610c9c6001610c90610c87856108d8565b610a4386611c11565b9063ffffffff6120e216565b9050610cc781610caa6110e2565b116523b7bb32b93760d11b68139bdd08195b99195960ba1b611e07565b610d0a610ce6610cd5612124565b610a4384600163ffffffff61202e16565b610cee6110e2565b11156523b7bb32b93760d11b66115e1c1a5c995960ca1b611e07565b610d61610d3e610d18612129565b610d32610d24866113b6565b610d2d86611c32565b61214b565b9063ffffffff61217a16565b6523b7bb32b93760d11b6f4d75737420686176652071756f726f6d60801b611e07565b610d96610d6d83610c2a565b610d7684610fb8565b116523b7bb32b93760d11b6b139bdd08185c1c1c9bdd995960a21b611e07565b610d9f82612190565b6040516001600160a01b0383169033907f815ca4497ab9fc80c76f210e6e842a5e198e195aa136034557eee144f790e7bb90600090a35050565b6001600160a01b03166000908152600e6020526040902054151590565b6001600160a01b038082166000908152600e60209081526040808320938616835260049093019052205460ff1692915050565b60045490565b610e3b610c5482610dd9565b610e79610e51610e4961227c565b610a436110e2565b610e59610f52565b116523b7bb32b93760d11b6b115c1bd8da081cde5b98d95960a21b611e07565b610ecb610e9b610e87612281565b610d32610e9385610fb8565b610d2d610905565b6523b7bb32b93760d11b7f4d7573742068617665207375706572206d616a6f726974790000000000000000611e07565b610ee0610ed782610c2a565b610d7683610fb8565b610ee981612190565b6040516001600160a01b0382169033907f815ca4497ab9fc80c76f210e6e842a5e198e195aa136034557eee144f790e7bb90600090a350565b6000828152600d60205260408120600301805483908110610f3f57fe5b9060005260206000200154905092915050565b6000610f5c613b09565b610f646122a3565b9050610f6f816122d2565b91505090565b6001600160a01b03166000908152600c602052604090206004015490565b7f360894a13ba1a3210667c828492db98dca3e2076cc3735a920a3ca505d382bbc5490565b6001600160a01b03166000908152600e602052604090206002015490565b6000908152600d602052604090206003015490565b6001600160a01b03166000908152600c602052604090206001015490565b60006110136122f4565b90911115919050565b600a546001600160a01b031690565b6110646110396106d3610f93565b15692832b936b4b9b9b4b7b760b11b72105b1c9958591e481a5b9a5d1a585b1a5e9959606a1b611e07565b61107461106f610f93565b6122f9565b61108533611080612320565b61232d565b565b600080611092610905565b9050806110a35760009150506108d3565b6109148161099a6110b386610feb565b6110bb610e29565b9063ffffffff611e9016565b6001600160a01b03166000908152600c602052604090205490565b60025490565b604080518082019091526005815264455448435360d81b602082015290565b60006111116110e2565b6001600160a01b0383166000908152600c6020526040902060050154111561113b575060026108d3565b6001600160a01b0382166000908152600c602052604090206004015461115f6110e2565b10156108b75760016108ba565b336111776002610922565b6111833361096e612370565b600061118d610e29565b156111ad576111a861119d610e29565b61099a61098d610905565b6111c5565b6111c56111b8612375565b849063ffffffff611e9016565b90506111d1338261237c565b6111da83612418565b6111fd33846040518060600160405280602481526020016143ca60249139612053565b337f44002fdef5a0c2d2e4e05572e9780b95aef97e0e93ffd7cc076b09fa78ff2b4661122c6001610a436110e2565b8386604051610a609392919061424d565b60085490565b6001600160a01b03166000908152600c602052604090206005015490565b6001600160a01b039182166000908152600c602090815260408083209390941682526003909201909152205490565b60008061129b6122a3565b6040015142816112a757fe5b0690506000846112b56110e2565b0390506000816112c3612431565b036112cc612431565b6112d4612437565b816112db57fe5b04029050808311156112f357600093505050506108ba565b6112fb613b2a565b61134e604051806020016040528085611312612431565b03815250611342604051806020016040528061132c612431565b905261133661243d565b9063ffffffff61245f16565b9063ffffffff61248d16565b9050611358613b2a565b6040805160208082018352878603825282519081019092528482526113889161134290859063ffffffff61245f16565b60408051602081019091528881529091506113a9908263ffffffff61248d16565b5198975050505050505050565b60006108ba6113c483610c2a565b610a4384610fb8565b60006114526113da611c2c565b6113e2611819565b6001600160a01b03166318160ddd6040518163ffffffff1660e01b815260040160206040518083038186803b15801561141a57600080fd5b505afa15801561142e573d6000803e3d6000fd5b505050506040513d601f19601f82011682018060405250610c909190810190613d79565b905090565b336114626001610a74565b61146a611819565b6001600160a01b03166323b872dd3330856040518463ffffffff1660e01b8152600401611499939291906140e4565b602060405180830381600087803b1580156114b357600080fd5b505af11580156114c7573d6000803e3d6000fd5b505050506040513d601f19601f820116820180604052506114eb9190810190613d0d565b506114f63383611f0c565b336001600160a01b03167fe1fffcc4923d04b559f4d29a8bfc6cda04eb5b0d3c460751c2402c5c5cc9109c83604051610b9991906141fc565b600061153a82611828565b611546575060006108ba565b506001600160a01b03919091166000908152600c6020908152604080832093835260029093019052205490565b3361157e6001610a74565b6115af600061158c33610feb565b116523b7bb32b93760d11b6e4d7573742068617665207374616b6560881b611e07565b6115b883610dd9565b61165b576115f86115c8336124bb565b6523b7bb32b93760d11b7f4e6f7420656e6f756768207374616b6520746f2070726f706f73650000000000611e07565b61160983611604612370565b6124ff565b6116116110e2565b336001600160a01b0385167fd15e38a680a427478883cd2d32eb664cb6bb2090b0126a23ebaf3e3784b8c56b611645612370565b60405161165291906141fc565b60405180910390a45b61168b61166a610c87856108d8565b6116726110e2565b106523b7bb32b93760d11b64115b99195960da1b611e07565b600061169633610feb565b905060006116a43386610df6565b90508060028111156116b257fe5b8460028111156116be57fe5b14156116cb575050611814565b60028160028111156116d957fe5b141561171f5761171f85836040518060400160405280601b81526020017f476f7665726e3a20496e73756666696369656e742072656a656374000000000081525061252b565b600181600281111561172d57fe5b14156117735761177385836040518060400160405280601c81526020017f476f7665726e3a20496e73756666696369656e7420617070726f76650000000081525061257c565b600284600281111561178157fe5b14156117915761179185836125cd565b600184600281111561179f57fe5b14156117af576117af858361261c565b6117ba33868661266b565b6117c433866126b5565b846001600160a01b0316336001600160a01b03167fbe50c78cbc15b0864819aadea36c6499da421b33c38e2ef19bebda583c708c78868560405161180992919061416d565b60405180910390a350505b505050565b6009546001600160a01b031690565b6000908152600d602052604090206001015490565b60055490565b6001600160a01b03166000908152600e602052604090206005015460ff1690565b600261187283610c906110e2565b10156118905760405162461bcd60e51b815260040161078e906141ec565b6118b43383836040518060600160405280602381526020016143a760239139611c44565b60006118c08383611290565b90508082036118cf3382612716565b83336001600160a01b03167f1cd1213d4276c260e84170b4a39025dc8398fbf744edee0709261769b456b94b8460405161190991906141fc565b60405180910390a383336001600160a01b03167f46e9903ae8ac9e9f0c9bc321b05965c1c036e7d4783758703f5cdfc4133c51b68360405161194b91906141fc565b60405180910390a350505050565b60006108ba611966611819565b6001600160a01b03166318160ddd6040518163ffffffff1660e01b815260040160206040518083038186803b15801561199e57600080fd5b505afa1580156119b2573d6000803e3d6000fd5b505050506040513d601f19601f820116820180604052506119d69190810190613d79565b6119de611c2c565b846127cc565b336119ef6002610922565b6119fb3361096e611e5c565b6000611a0861119d610e29565b9050611a143384611f0c565b611a368360405180606001604052806022815260200161441260229139611f68565b611a7633826040518060400160405280601d81526020017f426f6e64696e673a20696e73756666696369656e742062616c616e6365000000815250611f83565b337f93530ac0ee8c50e696e13c5ac62355d0c0ba4bd943620d5bda1eb08b64ae751261122c6001610a436110e2565b6000611ade600083116513585c9ad95d60d21b7f4d757374207075726368617365206e6f6e2d7a65726f20616d6f756e74000000611e07565b611b0e82611aea611c2c565b10156513585c9ad95d60d21b6e139bdd08195b9bdd59da081919589d608a1b611e07565b6000611b186110e2565b90506000611b35611b2885611959565b859063ffffffff61202e16565b9050611b4133856127f9565b611b4c338383611cef565b81336001600160a01b03167fbce252db29f761f815dc2e9ea60005af065efba6eb619d2a0b2a113fdeb614148684604051611b8892919061420a565b60405180910390a39392505050565b611ba333611080612320565b611bb6611bae61290a565b611080612320565b611bbe612922565b611bc661296d565b611bce6129f8565b611bd66110e2565b7fc30b728d1c19e5db3678b8ea9e9a063a5655071e1a325c2f7fdbca48baa906004342604051611c0792919061420a565b60405180910390a2565b6001600160a01b03166000908152600e602052604090205490565b60075490565b6000908152600d602052604090205490565b6001600160a01b0384166000908152600c60209081526040808320868452600201909152902054611c7c90838363ffffffff612a5216565b6001600160a01b0385166000908152600c60209081526040808320878452600201825280832093909355600d90522060010154611cc090838363ffffffff612a5216565b6000848152600d6020526040902060010155600854611ce690838363ffffffff612a5216565b60085550505050565b6001600160a01b0383166000908152600c60209081526040808320858452600201909152902054611d26908263ffffffff61202e16565b6001600160a01b0384166000908152600c60209081526040808320868452600201825280832093909355600d90522060010154611d69908263ffffffff61202e16565b6000838152600d6020526040902060010155600854611d8e908263ffffffff61202e16565b600855505050565b6001600160a01b038085166000908152600c602090815260408083209387168352600390930190522054611dd190838363ffffffff612a5216565b6001600160a01b039485166000908152600c60209081526040808320969097168252600390950190945293909220929092555050565b8261181457611e1582612a7e565b6101d160f51b611e2483612a7e565b604051602001611e36939291906140a5565b60408051601f198184030181529082905262461bcd60e51b825261078e9160040161417b565b60a890565b611e6d81610a436110e2565b6001600160a01b039092166000908152600c602052604090206004019190915550565b600082611e9f575060006108ba565b82820282848281611eac57fe5b04146109145760405162461bcd60e51b815260040161078e906141ac565b600061091483836040518060400160405280601a81526020017f536166654d6174683a206469766973696f6e206279207a65726f000000000000815250612afe565b6001600160a01b0382166000908152600c6020526040902054611f35908263ffffffff61202e16565b6001600160a01b0383166000908152600c6020526040902055600554611f61908263ffffffff61202e16565b6005555050565b600454611f7c90838363ffffffff612a5216565b6004555050565b6001600160a01b0383166000908152600c6020526040902060010154611fb090838363ffffffff612a5216565b6001600160a01b0384166000908152600c6020526040902060010155600354611fe090838363ffffffff612a5216565b6003556040516000906001600160a01b038516907fddf252ad1be2c89b69c2b068fc378daa952ba7f163c4a11628f55a4df523b3ef906120219086906141fc565b60405180910390a3505050565b6000828201838110156109145760405162461bcd60e51b815260040161078e9061418c565b6001600160a01b0383166000908152600c602052604090205461207d90838363ffffffff612a5216565b6001600160a01b0384166000908152600c60205260409020556005546120aa90838363ffffffff612a5216565b600555505050565b6001600160a01b039283166000908152600c60209081526040808320949095168252600390930190925291902055565b600061091483836040518060400160405280601e81526020017f536166654d6174683a207375627472616374696f6e206f766572666c6f770000815250612a52565b601790565b612131613b2a565b506040805160208101909152670429d069189e0000815290565b612153613b2a565b604051806020016040528061217185670de0b6b3a764000086612b35565b90529392505050565b60006121868383612b4b565b6002149392505050565b61219981612b7d565b60408051600481526024810182526020810180516001600160e01b031663204a7f0760e21b17905290516000916060916001600160a01b038516916121dd91614099565b600060405180830381855af49150503d8060008114612218576040519150601f19603f3d011682016040523d82523d6000602084013e61221d565b606091505b50915091508181906122425760405162461bcd60e51b815260040161078e919061417b565b506040516001600160a01b038416907fbc7cd75a20ee27fd9adebab32041f755214dbc6bffa90cc0225b39da2e5c2d3b90600090a2505050565b604890565b612289613b2a565b506040805160208101909152670853a0d2313c0000815290565b6122ab613b09565b6040518060600160405280606a8152602001635ffb1dce8152602001610e10815250905090565b60006108ba8260000151610a43846040015161099a8660200151610c90612bc6565b605a90565b6001600160a01b03166000908152600e60205260409020600501805460ff19166001179055565b68022b1c8c1227a0000090565b6123378282612bca565b816001600160a01b03167fbb4f656853bc420ad6e4321622c07eefb4ed40e3f91b35553ce14a6dff4c098182604051610b9991906141fc565b606090565b620f424090565b6001600160a01b0382166000908152600c60205260409020600101546123a8908263ffffffff61202e16565b6001600160a01b0383166000908152600c60205260409020600101556003546123d7908263ffffffff61202e16565b6003556040516001600160a01b038316906000907fddf252ad1be2c89b69c2b068fc378daa952ba7f163c4a11628f55a4df523b3ef90610c199085906141fc565b60045461242b908263ffffffff61202e16565b60045550565b61043890565b610e1090565b612445613b2a565b5060408051602081019091526706f05b59d3b20000815290565b612467613b2a565b60405180602001604052806121718560000151670de0b6b3a76400008660000151612b35565b612495613b2a565b604051806020016040528061217185600001518560000151670de0b6b3a7640000612b35565b60006124c5610e29565b6124d1575060006108d3565b6124d9613b2a565b6124e5610e9384610feb565b90506109146124f2612c73565b829063ffffffff61217a16565b6125076110e2565b6001600160a01b039092166000908152600e60205260409020918255600190910155565b6001600160a01b0383166000908152600e602052604090206003015461255890838363ffffffff612a5216565b6001600160a01b039093166000908152600e60205260409020600301929092555050565b6001600160a01b0383166000908152600e60205260409020600201546125a990838363ffffffff612a5216565b6001600160a01b039093166000908152600e60205260409020600201929092555050565b6001600160a01b0382166000908152600e60205260409020600301546125f9908263ffffffff61202e16565b6001600160a01b039092166000908152600e602052604090206003019190915550565b6001600160a01b0382166000908152600e6020526040902060020154612648908263ffffffff61202e16565b6001600160a01b039092166000908152600e602052604090206002019190915550565b6001600160a01b038083166000908152600e6020908152604080832093871683526004909301905220805482919060ff191660018360028111156126ab57fe5b0217905550505050565b6001600160a01b0382166000908152600c6020526040812060050154906126e76126de846108d8565b610a4385611c11565b905081811115612710576001600160a01b0384166000908152600c602052604090206005018190555b50505050565b61271e611819565b6001600160a01b031663a9059cbb83836040518363ffffffff1660e01b815260040161274b929190614135565b602060405180830381600087803b15801561276557600080fd5b505af1158015612779573d6000803e3d6000fd5b505050506040513d601f19601f8201168201806040525061279d9190810190613d0d565b506127c0816040518060600160405280602a815260200161445c602a9139612c94565b6127c8612caf565b5050565b60006127f16127ec836127e0878787612d82565b9063ffffffff612eef16565b612f16565b949350505050565b612801611819565b6001600160a01b03166323b872dd8330846040518463ffffffff1660e01b815260040161283093929190614127565b602060405180830381600087803b15801561284a57600080fd5b505af115801561285e573d6000803e3d6000fd5b505050506040513d601f19601f820116820180604052506128829190810190613d0d565b5061288b611819565b6001600160a01b03166342966c68826040518263ffffffff1660e01b81526004016128b691906141fc565b600060405180830381600087803b1580156128d057600080fd5b505af11580156128e4573d6000803e3d6000fd5b505050506127c08160405180606001604052806028815260200161443460289139612f33565b7388b6b8518d80ecf62c39d5a3aafaccc4705941a790565b61295d61292d6110e2565b612935610f52565b1166426f6e64696e6760c81b720a6e8d2d8d840c6eae4e4cadce840cae0dec6d606b1b611e07565b612965612f4e565b611085612f75565b612975613b2a565b61297d612f8e565b905061298a6124f2613071565b1561299e5761299881613093565b50611085565b6129b66129a9613071565b829063ffffffff61314f16565b156129c45761299881613163565b6129cc6110e2565b6040517fff7db5a0dc69b02c191ba632db46961b7d0daa1bd30709ddba9b80ad0a15d2c090600090a250565b60005b612a066105696110e2565b811015612a2e57612a26612a21612a1b6110e2565b83610f22565b6131f5565b6001016129fb565b506000612a3c610e49612431565b9050612a4f612a496110e2565b8261328d565b50565b60008184841115612a765760405162461bcd60e51b815260040161078e919061417b565b505050900390565b60608082604051602001612a929190614084565b60408051601f19818403018152919052905060205b8015612ae757815160001990910190829082908110612ac257fe5b01602001516001600160f81b03191615612ae257600101815290506108d3565b612aa7565b505060408051600081526020810190915292915050565b60008183612b1f5760405162461bcd60e51b815260040161078e919061417b565b506000838581612b2b57fe5b0495945050505050565b60006127f18261099a868663ffffffff611e9016565b805182516000911415612b60575060016108ba565b8151835111612b70576000612b73565b60025b60ff169392505050565b612b86816132bf565b612ba25760405162461bcd60e51b815260040161078e906141bc565b7f360894a13ba1a3210667c828492db98dca3e2076cc3735a920a3ca505d382bbc55565b4290565b612bd2611819565b6001600160a01b03166340c10f1983836040518363ffffffff1660e01b8152600401612bff929190614135565b602060405180830381600087803b158015612c1957600080fd5b505af1158015612c2d573d6000803e3d6000fd5b505050506040513d601f19601f82011682018060405250612c519190810190613d0d565b50612c5d61058f6110e2565b6127c057612c6a816132c5565b506127c8612caf565b612c7b613b2a565b50604080516020810190915266470de4df820000815290565b600654612ca890838363ffffffff612a5216565b6006555050565b611085612cd0612cbd61090b565b610a43612cc861183d565b610a43610e29565b612cd8611819565b6001600160a01b03166370a08231306040518263ffffffff1660e01b8152600401612d0391906140d6565b60206040518083038186803b158015612d1b57600080fd5b505afa158015612d2f573d6000803e3d6000fd5b505050506040513d601f19601f82011682018060405250612d539190810190613d79565b10156a21b7b6b83a3937b63632b960a91b74496e636f6e73697374656e742062616c616e63657360581b611e07565b612d8a613b2a565b612d92613b2a565b612d9c848661214b565b9050612da6613b2a565b612dae61330c565b90506000612dc2878663ffffffff6120e216565b90506000612dd6878763ffffffff6120e216565b9050612de0613b2a565b612dea828461214b565b9050612dfc858563ffffffff61217a16565b15612ed857612e11818563ffffffff61217a16565b15612e2b57612e1f8461332e565b95505050505050610914565b612e33613b2a565b612e3d8286613369565b9050612e47613b2a565b612e57868463ffffffff6133bf16565b9050612e61613b2a565b612e6a8761332e565b9050612e74613b2a565b612e84898963ffffffff6133bf16565b9050612ec8612e99848363ffffffff6133e816565b611336612eac858563ffffffff61248d16565b612ebc888863ffffffff61248d16565b9063ffffffff6133e816565b9950505050505050505050610914565b612ee28186613369565b9998505050505050505050565b612ef7613b2a565b604080516020810190915283518190612171908563ffffffff611e9016565b80516000906108ba90670de0b6b3a764000063ffffffff611eca16565b600754612f4790838363ffffffff612a5216565b6007555050565b612f56610905565b600d6000612f626110e2565b8152602081019190915260400160002055565b600254612f8990600163ffffffff61202e16565b600255565b612f96613b2a565b612f9e613b2a565b6000612fa861101c565b6001600160a01b031663d4a3e9d76040518163ffffffff1660e01b81526004016040805180830381600087803b158015612fe157600080fd5b505af1158015612ff5573d6000803e3d6000fd5b505050506040513d601f19601f820116820180604052506130199190810190613d2b565b9150915061302d61058f6001610c906110e2565b156130435761303a613411565b925050506108b4565b806130505761303a613071565b61306a60046127e08464e8d4a5100063ffffffff61343316565b9250505090565b613079613b2a565b506040805160208101909152670de0b6b3a7640000815290565b60006130a56130a061345a565b613475565b90506130af613b2a565b6130d06130ca6130bd613071565b859063ffffffff6133bf16565b8461354a565b905060006130ef6127ec6130e26113cd565b849063ffffffff612eef16565b90506000806130fd836135d5565b915091506131096110e2565b86516040517f32fcaa1e76ed9517f4749d8ec9a77dd5e7329456d740b9bf9665d900eef5e2839161313f9186908a908790614268565b60405180910390a2505050505050565b600061315b8383612b4b565b159392505050565b61316b613b2a565b61318c6131868361317a613071565b9063ffffffff6133bf16565b8361354a565b9050600061319e6127ec6130e26113cd565b905060006131ab826132c5565b90506131b56110e2565b84516040517f5e139d4b8080a4a00dcc151e8217694aeebae893936326aa22096924a9906677916131e791859061420a565b60405180910390a250505050565b600061320082611828565b905060008061320e84613709565b600061321861090b565b9050600061322461123d565b9050808211156132565761323e828263ffffffff6120e216565b93506132498461374c565b613252846135d5565b9350505b857f753df65b37159bf237ae1fca97ba1bd57cf83bc9498f271a514a4d7bafe87bda868660008760405161313f9493929190614218565b6000828152600d6020908152604080832060020184905592825291812060030180546001810182559082529190200155565b3b151590565b60006132d0826137db565b60006132dd6130a061330c565b90506132e7612caf565b828111613303576132fe838263ffffffff6120e216565b610914565b50600092915050565b613314613b2a565b5060408051602081019091526702c68af0bb140000815290565b613336613b2a565b6108ba613341613071565b61317a61336160026133558761317a613071565b9063ffffffff6137f416565b611336613071565b613371613b2a565b613381838363ffffffff61384a16565b156133965761338f8361332e565b90506108ba565b6109146133a1613071565b61317a6133616133b38761317a613071565b6113428761317a613071565b6133c7613b2a565b6040805160208101909152825184518291612171919063ffffffff6120e216565b6133f0613b2a565b6040805160208101909152825184518291612171919063ffffffff61202e16565b613419613b2a565b506040805160208101909152670f43fc2c04ee0000815290565b61343b613b2a565b604080516020810190915283518190612171908563ffffffff611eca16565b613462613b2a565b5060408051602081019091526000815290565b6000806135036127ec613486611819565b6001600160a01b03166318160ddd6040518163ffffffff1660e01b815260040160206040518083038186803b1580156134be57600080fd5b505afa1580156134d2573d6000803e3d6000fd5b505050506040513d601f19601f820116820180604052506134f69190810190613d79565b859063ffffffff612eef16565b9050600061350f611c2c565b90508181111561354057600061352b828463ffffffff6120e216565b905061353681613851565b92506108d3915050565b5060009392505050565b613552613b2a565b61355a613b2a565b613562613890565b9050600061356e61090b565b9050600061357a61123d565b9050613594613587613071565b869063ffffffff61217a16565b801561359f57508082105b156135af576135ac6138b1565b92505b6135bf868463ffffffff61217a16565b6135c957856135cb565b825b9695505050505050565b60008060006135f7606461099a6135ea6138d2565b879063ffffffff611e9016565b9050613602816138d7565b600061362261271061099a61361561396b565b889063ffffffff611e9016565b905061362d81613970565b600061363f838363ffffffff61202e16565b905080861161364f57600061365f565b61365f868263ffffffff6120e216565b955060008061366c61090b565b9050600061367861123d565b9050808210156136c157613692818363ffffffff6120e216565b92508883116136a157826136a3565b885b92506136ae83613994565b6136be898463ffffffff6120e216565b98505b6136c9610e29565b6136d257600098505b88156136e1576136e189613a25565b6136e9612caf565b826136fa8a8663ffffffff61202e16565b97509750505050505050915091565b600061371482611828565b9050806137215750612a4f565b600854613734908263ffffffff6120e216565b600855506000908152600d6020526040812060010155565b613754611819565b6001600160a01b03166342966c68826040518263ffffffff1660e01b815260040161377f91906141fc565b600060405180830381600087803b15801561379957600080fd5b505af11580156137ad573d6000803e3d6000fd5b505050506137d3816040518060600160405280602a815260200161445c602a9139612c94565b612a4f612caf565b6007546137ee908263ffffffff61202e16565b60075550565b6137fc613b2a565b8161380b5761338f6001613abc565b613813613b2a565b5060408051602081019091528351815260015b8381101561384257613838828661248d565b9150600101613826565b509392505050565b5190511490565b6137d3816040518060400160405280601c81526020017f436f6d7074726f6c6c65723a206e6f7420656e6f756768206465627400000000815250612f33565b613898613b2a565b506040805160208101909152660aa87bee538000815290565b6138b9613b2a565b50604080516020810190915266d529ae9e860000815290565b601490565b8015612a4f576138e5611819565b6001600160a01b03166340c10f196138fb6108f6565b836040518363ffffffff1660e01b8152600401613919929190614135565b602060405180830381600087803b15801561393357600080fd5b505af1158015613947573d6000803e3d6000fd5b505050506040513d601f19601f820116820180604052506127c89190810190613d0d565b60fa90565b8015612a4f5761397e611819565b6001600160a01b03166340c10f196138fb61290a565b61399c611819565b6001600160a01b03166340c10f1930836040518363ffffffff1660e01b81526004016139c9929190614135565b602060405180830381600087803b1580156139e357600080fd5b505af11580156139f7573d6000803e3d6000fd5b505050506040513d601f19601f82011682018060405250613a1b9190810190613d0d565b506137d381613af0565b8015612a4f57613a33611819565b6001600160a01b03166340c10f1930836040518363ffffffff1660e01b8152600401613a60929190614135565b602060405180830381600087803b158015613a7a57600080fd5b505af1158015613a8e573d6000803e3d6000fd5b505050506040513d601f19601f82011682018060405250613ab29190810190613d0d565b50612a4f81612418565b613ac4613b2a565b604080516020810190915280613ae884670de0b6b3a764000063ffffffff611e9016565b905292915050565b600654613b03908263ffffffff61202e16565b60065550565b60405180606001604052806000815260200160008152602001600081525090565b6040518060200160405280600081525090565b80356108ba81614373565b80516108ba81614387565b80356108ba81614390565b600060208284031215613b7057600080fd5b613b7a602061429e565b90506000613b888484613b9c565b82525092915050565b80356108ba8161439d565b80516108ba8161439d565b600060208284031215613bb957600080fd5b60006127f18484613b3d565b60008060408385031215613bd857600080fd5b6000613be48585613b3d565b9250506020613bf585828601613b3d565b9150509250929050565b600080600060608486031215613c1457600080fd5b6000613c208686613b3d565b9350506020613c3186828701613b3d565b9250506040613c4286828701613b91565b9150509250925092565b60008060008060808587031215613c6257600080fd5b6000613c6e8787613b3d565b9450506020613c7f87828801613b3d565b9350506040613c9087828801613b91565b9250506060613ca187828801613b91565b91505092959194509250565b60008060408385031215613cc057600080fd5b6000613ccc8585613b3d565b9250506020613bf585828601613b53565b60008060408385031215613cf057600080fd5b6000613cfc8585613b3d565b9250506020613bf585828601613b91565b600060208284031215613d1f57600080fd5b60006127f18484613b48565b60008060408385031215613d3e57600080fd5b6000613d4a8585613b5e565b9250506020613bf585828601613b48565b600060208284031215613d6d57600080fd5b60006127f18484613b91565b600060208284031215613d8b57600080fd5b60006127f18484613b9c565b60008060408385031215613daa57600080fd5b6000613cfc8585613b91565b613dbf8161430b565b82525050565b613dbf816142d2565b613dbf816142dd565b613dbf613de3826142e2565b6108b4565b613dbf613de3826108b4565b6000613dff826142c5565b613e0981856108d3565b9350613e19818560208601614333565b9290920192915050565b613dbf81614312565b613dbf8161431d565b613dbf81614328565b6000613e49826142c5565b613e5381856142c9565b9350613e63818560208601614333565b613e6c8161435f565b9093019392505050565b6000613e83601b836142c9565b7f536166654d6174683a206164646974696f6e206f766572666c6f770000000000815260200192915050565b6000613ebc602b836142c9565b7f4d61726b65743a20436f75706f6e207472616e7366657220746f20746865207a81526a65726f206164647265737360a81b602082015260400192915050565b6000613f096021836142c9565b7f536166654d6174683a206d756c7469706c69636174696f6e206f766572666c6f8152607760f81b602082015260400192915050565b6000613f4c603b836142c9565b7f43616e6e6f742073657420612070726f787920696d706c656d656e746174696f81527f6e20746f2061206e6f6e2d636f6e747261637420616464726573730000000000602082015260400192915050565b6000613fab602a836142c9565b7f4d61726b65743a20436f75706f6e20617070726f766520746f20746865207a65815269726f206164647265737360b01b602082015260400192915050565b6000613ff7602d836142c9565b7f4d61726b65743a20436f75706f6e207472616e736665722066726f6d2074686581526c207a65726f206164647265737360981b602082015260400192915050565b6000614046601b836142c9565b7f4d61726b65743a20546f6f206561726c7920746f2072656465656d0000000000815260200192915050565b613dbf816108b4565b613dbf81614305565b60006140908284613de8565b50602001919050565b60006109148284613df4565b60006140b18286613df4565b91506140bd8285613dd7565b6002820191506140cd8284613df4565b95945050505050565b602081016108ba8284613dc5565b606081016140f28286613db6565b6140ff6020830185613dc5565b6127f16040830184614072565b6040810161411a8285613db6565b6109146020830184614072565b606081016140f28286613dc5565b6040810161411a8285613dc5565b602081016108ba8284613dce565b602081016108ba8284613e23565b602081016108ba8284613e2c565b6040810161411a8285613e2c565b602080825281016109148184613e3e565b602080825281016108ba81613e76565b602080825281016108ba81613eaf565b602080825281016108ba81613efc565b602080825281016108ba81613f3f565b602080825281016108ba81613f9e565b602080825281016108ba81613fea565b602080825281016108ba81614039565b602081016108ba8284614072565b6040810161411a8285614072565b608081016142268287614072565b6142336020830186614072565b6142406040830185613e35565b6140cd6060830184614072565b6060810161425b8286614072565b6140ff6020830185614072565b608081016142768287614072565b6142836020830186614072565b6142406040830185614072565b602081016108ba828461407b565b60405181810167ffffffffffffffff811182821017156142bd57600080fd5b604052919050565b5190565b90815260200190565b60006108ba826142f9565b151590565b6001600160f01b03191690565b806108d381614369565b6001600160a01b031690565b60ff1690565b60006108ba825b60006108ba826142d2565b60006108ba826142ef565b60006108ba826108b4565b60005b8381101561434e578181015183820152602001614336565b838111156127105750506000910152565b601f01601f191690565b60038110612a4f57fe5b61437c816142d2565b8114612a4f57600080fd5b61437c816142dd565b60038110612a4f57600080fd5b61437c816108b456fe4d61726b65743a20496e73756666696369656e7420636f75706f6e2062616c616e6365426f6e64696e673a20696e73756666696369656e74207374616765642062616c616e63654d61726b65743a20496e73756666696369656e7420636f75706f6e20617070726f76616c426f6e64696e673a20696e73756666696369656e7420746f74616c20626f6e646564436f6d7074726f6c6c65723a206e6f7420656e6f756768206f75747374616e64696e672064656274436f6d7074726f6c6c65723a206e6f7420656e6f7567682072656465656d61626c652062616c616e6365a365627a7a723158202874fb6dc347be5775e9b5228783d17570e96dc51811ad7c41b211962eb54ed36c6578706572696d656e74616cf564736f6c63430005110040",
  "source": "/*\n    Copyright 2021 Ethic Money Devs <devs@ethic.money> and Copyright 2020 Empty Set Squad <emptysetsquad@protonmail.com>\n\n    Licensed under the Apache License, Version 2.0 (the \"License\");\n    you may not use this file except in compliance with the License.\n    You may obtain a copy of the License at\n\n    http://www.apache.org/licenses/LICENSE-2.0\n\n    Unless required by applicable law or agreed to in writing, software\n    distributed under the License is distributed on an \"AS IS\" BASIS,\n    WITHOUT WARRANTIES OR CONDITIONS OF ANY KIND, either express or implied.\n    See the License for the specific language governing permissions and\n    limitations under the License.\n*/\n\npragma solidity ^0.5.17;\npragma experimental ABIEncoderV2;\n\nimport \"@openzeppelin/contracts/math/SafeMath.sol\";\nimport \"./Market.sol\";\nimport \"./Regulator.sol\";\nimport \"./Bonding.sol\";\nimport \"./Govern.sol\";\nimport \"../Constants.sol\";\n\ncontract Implementation is State, Bonding, Market, Regulator, Govern {\n    using SafeMath for uint256;\n\n    event Advance(uint256 indexed epoch, uint256 block, uint256 timestamp);\n    event Incentivization(address indexed account, uint256 amount);\n\n    function initialize() initializer public {\n        // Reward committer\n        incentivize(msg.sender, Constants.getAdvanceIncentive());\n        // Dev rewards\n\n    }\n\n    function advance() external {\n        incentivize(msg.sender, Constants.getAdvanceIncentive());\n        incentivize(Constants.getTreasuryAddress(), Constants.getTreasuryIncentive());\n\n        Bonding.step();\n        Regulator.step();\n        Market.step();\n\n        emit Advance(epoch(), block.number, block.timestamp);\n    }\n\n    function incentivize(address account, uint256 amount) private {\n        mintToAccount(account, amount);\n        emit Incentivization(account, amount);\n    }\n}\n",
  "sourcePath": "/home/ville/projects/ethic/protocol/contracts/dao/Implementation.sol",
  "compiler": {
    "name": "solc",
    "version": "0.5.17+commit.d19bba13.Emscripten.clang"
  },
  "schemaVersion": "3.3.2",
  "updatedAt": "2021-02-04T15:32:55.039Z",
  "networkType": "ethereum",
  "devdoc": {
    "methods": {}
  },
  "userdoc": {
    "methods": {
      "balanceOfStaged(address)": {
        "notice": "Account"
      },
      "epoch()": {
        "notice": "Epoch"
      },
      "ethic()": {
        "notice": "Global"
      },
      "name()": {
        "notice": "ERC20 Interface"
      },
      "recordedVote(address,address)": {
        "notice": "Governance"
      },
      "transfer(address,uint256)": {
        "notice": "ERC20 Interface"
      }
    }
  }
}