{
  "contractName": "Liquidity",
  "abi": [
    {
      "constant": true,
      "inputs": [
        {
          "internalType": "address",
          "name": "account",
          "type": "address"
        }
      ],
      "name": "balanceOfBonded",
      "outputs": [
        {
          "internalType": "uint256",
          "name": "",
          "type": "uint256"
        }
      ],
      "payable": false,
      "stateMutability": "view",
      "type": "function"
    },
    {
      "constant": true,
      "inputs": [
        {
          "internalType": "address",
          "name": "account",
          "type": "address"
        }
      ],
      "name": "balanceOfClaimable",
      "outputs": [
        {
          "internalType": "uint256",
          "name": "",
          "type": "uint256"
        }
      ],
      "payable": false,
      "stateMutability": "view",
      "type": "function"
    },
    {
      "constant": true,
      "inputs": [
        {
          "internalType": "address",
          "name": "account",
          "type": "address"
        }
      ],
      "name": "balanceOfPhantom",
      "outputs": [
        {
          "internalType": "uint256",
          "name": "",
          "type": "uint256"
        }
      ],
      "payable": false,
      "stateMutability": "view",
      "type": "function"
    },
    {
      "constant": true,
      "inputs": [
        {
          "internalType": "address",
          "name": "account",
          "type": "address"
        }
      ],
      "name": "balanceOfRewarded",
      "outputs": [
        {
          "internalType": "uint256",
          "name": "",
          "type": "uint256"
        }
      ],
      "payable": false,
      "stateMutability": "view",
      "type": "function"
    },
    {
      "constant": true,
      "inputs": [
        {
          "internalType": "address",
          "name": "account",
          "type": "address"
        }
      ],
      "name": "balanceOfStaged",
      "outputs": [
        {
          "internalType": "uint256",
          "name": "",
          "type": "uint256"
        }
      ],
      "payable": false,
      "stateMutability": "view",
      "type": "function"
    },
    {
      "constant": true,
      "inputs": [],
      "name": "dai",
      "outputs": [
        {
          "internalType": "address",
          "name": "",
          "type": "address"
        }
      ],
      "payable": false,
      "stateMutability": "view",
      "type": "function"
    },
    {
      "constant": true,
      "inputs": [],
      "name": "dao",
      "outputs": [
        {
          "internalType": "contract IDAO",
          "name": "",
          "type": "address"
        }
      ],
      "payable": false,
      "stateMutability": "view",
      "type": "function"
    },
    {
      "constant": true,
      "inputs": [],
      "name": "ethic",
      "outputs": [
        {
          "internalType": "contract IEthic",
          "name": "",
          "type": "address"
        }
      ],
      "payable": false,
      "stateMutability": "view",
      "type": "function"
    },
    {
      "constant": true,
      "inputs": [],
      "name": "paused",
      "outputs": [
        {
          "internalType": "bool",
          "name": "",
          "type": "bool"
        }
      ],
      "payable": false,
      "stateMutability": "view",
      "type": "function"
    },
    {
      "constant": true,
      "inputs": [
        {
          "internalType": "address",
          "name": "account",
          "type": "address"
        }
      ],
      "name": "statusOf",
      "outputs": [
        {
          "internalType": "enum PoolAccount.Status",
          "name": "",
          "type": "uint8"
        }
      ],
      "payable": false,
      "stateMutability": "view",
      "type": "function"
    },
    {
      "constant": true,
      "inputs": [],
      "name": "totalBonded",
      "outputs": [
        {
          "internalType": "uint256",
          "name": "",
          "type": "uint256"
        }
      ],
      "payable": false,
      "stateMutability": "view",
      "type": "function"
    },
    {
      "constant": true,
      "inputs": [],
      "name": "totalClaimable",
      "outputs": [
        {
          "internalType": "uint256",
          "name": "",
          "type": "uint256"
        }
      ],
      "payable": false,
      "stateMutability": "view",
      "type": "function"
    },
    {
      "constant": true,
      "inputs": [],
      "name": "totalPhantom",
      "outputs": [
        {
          "internalType": "uint256",
          "name": "",
          "type": "uint256"
        }
      ],
      "payable": false,
      "stateMutability": "view",
      "type": "function"
    },
    {
      "constant": true,
      "inputs": [],
      "name": "totalRewarded",
      "outputs": [
        {
          "internalType": "uint256",
          "name": "",
          "type": "uint256"
        }
      ],
      "payable": false,
      "stateMutability": "view",
      "type": "function"
    },
    {
      "constant": true,
      "inputs": [],
      "name": "totalStaged",
      "outputs": [
        {
          "internalType": "uint256",
          "name": "",
          "type": "uint256"
        }
      ],
      "payable": false,
      "stateMutability": "view",
      "type": "function"
    },
    {
      "constant": true,
      "inputs": [],
      "name": "univ2",
      "outputs": [
        {
          "internalType": "contract IERC20",
          "name": "",
          "type": "address"
        }
      ],
      "payable": false,
      "stateMutability": "view",
      "type": "function"
    }
  ],
  "bytecode": "0x608060405234801561001057600080fd5b506108f8806100206000396000f3fe608060405234801561001057600080fd5b50600436106101005760003560e01c806386cf9f1411610097578063c0ec4ac511610066578063c0ec4ac5146101e4578063cf023779146101ec578063e0cf7285146101f4578063f4b9fa75146101fc57610100565b806386cf9f141461019657806397a5d5b5146101a9578063aed29d07146101c9578063c0d7a94f146101d157610100565b80634838ed19116100d35780634838ed191461015e5780635c975abb146101665780637298d36e1461017b578063825ad6071461018357610100565b80631667eb171461010557806329f32ed41461012e5780634162169f1461014157806344d96e9514610156575b600080fd5b610118610113366004610663565b610211565b60405161012591906107f7565b60405180910390f35b61011861013c366004610663565b610233565b610149610251565b60405161012591906107aa565b610118610260565b610118610266565b61016e61026c565b604051610125919061079c565b610149610275565b610118610191366004610663565b610284565b6101186101a4366004610663565b6102a2565b6101bc6101b7366004610663565b6102bd565b60405161012591906107b8565b6101186102f7565b6101186101df366004610663565b610398565b610149610440565b61011861044f565b610118610455565b61020461045b565b604051610125919061078e565b6001600160a01b0381166000908152600860205260409020600101545b919050565b6001600160a01b031660009081526008602052604090206003015490565b6004546001600160a01b031690565b60025490565b60015490565b60075460ff1690565b6006546001600160a01b031690565b6001600160a01b031660009081526008602052604090206002015490565b6001600160a01b031660009081526008602052604090205490565b6001600160a01b0381166000908152600860205260408120600401546102e1610465565b10156102ee5760016102f1565b60005b92915050565b6000610393610304610266565b61030c610440565b6001600160a01b03166370a08231306040518263ffffffff1660e01b8152600401610337919061078e565b60206040518083038186803b15801561034f57600080fd5b505afa158015610363573d6000803e3d6000fd5b505050506040513d601f19601f820116820180604052506103879190810190610689565b9063ffffffff6104df16565b905090565b6000806103a3610260565b9050806103b457600091505061022e565b60006103d56103c1610455565b6103c96102f7565b9063ffffffff61052816565b90506000610402836103f66103e988610284565b859063ffffffff61055616565b9063ffffffff61059016565b9050600061040f86610233565b90508082111561043457610429828263ffffffff6104df16565b94505050505061022e565b50600095945050505050565b6005546001600160a01b031690565b60005490565b60035490565b60006103936105d2565b600061046f610251565b6001600160a01b031663900cf0cf6040518163ffffffff1660e01b815260040160206040518083038186803b1580156104a757600080fd5b505afa1580156104bb573d6000803e3d6000fd5b505050506040513d601f19601f820116820180604052506103939190810190610689565b600061052183836040518060400160405280601e81526020017f536166654d6174683a207375627472616374696f6e206f766572666c6f7700008152506105ea565b9392505050565b6000828201838110156105215760405162461bcd60e51b815260040161054d906107d7565b60405180910390fd5b600082610565575060006102f1565b8282028284828161057257fe5b04146105215760405162461bcd60e51b815260040161054d906107e7565b600061052183836040518060400160405280601a81526020017f536166654d6174683a206469766973696f6e206279207a65726f000000000000815250610616565b734f96fe3b7a6cf9725f59d353f723c1bdb64ca6aa90565b6000818484111561060e5760405162461bcd60e51b815260040161054d91906107c6565b505050900390565b600081836106375760405162461bcd60e51b815260040161054d91906107c6565b50600083858161064357fe5b0495945050505050565b80356102f181610898565b80516102f1816108ac565b60006020828403121561067557600080fd5b6000610681848461064d565b949350505050565b60006020828403121561069b57600080fd5b60006106818484610658565b6106b081610812565b82525050565b6106b08161081d565b6106b08161083b565b6106b081610846565b60006106dc82610805565b6106e68185610809565b93506106f6818560208601610851565b6106ff81610881565b9093019392505050565b6000610716601b83610809565b7f536166654d6174683a206164646974696f6e206f766572666c6f770000000000815260200192915050565b600061074f602183610809565b7f536166654d6174683a206d756c7469706c69636174696f6e206f766572666c6f8152607760f81b602082015260400192915050565b6106b081610838565b602081016102f182846106a7565b602081016102f182846106b6565b602081016102f182846106bf565b602081016102f182846106c8565b6020808252810161052181846106d1565b602080825281016102f181610709565b602080825281016102f181610742565b602081016102f18284610785565b5190565b90815260200190565b60006102f18261082c565b151590565b8061022e8161088b565b6001600160a01b031690565b90565b60006102f182610812565b60006102f182610822565b60005b8381101561086c578181015183820152602001610854565b8381111561087b576000848401525b50505050565b601f01601f191690565b6003811061089557fe5b50565b6108a181610812565b811461089557600080fd5b6108a18161083856fea365627a7a723158204f8908b2e96efae5acc48493abd9d82add5a49c359332598619816181c7931836c6578706572696d656e74616cf564736f6c63430005110040",
  "source": "/*\n    Copyright 2021 Ethic Money Devs <devs@ethic.money> and Copyright 2020 Empty Set Squad <emptysetsquad@protonmail.com>\n\n    Licensed under the Apache License, Version 2.0 (the \"License\");\n    you may not use this file except in compliance with the License.\n    You may obtain a copy of the License at\n\n    http://www.apache.org/licenses/LICENSE-2.0\n\n    Unless required by applicable law or agreed to in writing, software\n    distributed under the License is distributed on an \"AS IS\" BASIS,\n    WITHOUT WARRANTIES OR CONDITIONS OF ANY KIND, either express or implied.\n    See the License for the specific language governing permissions and\n    limitations under the License.\n*/\n\npragma solidity ^0.5.17;\npragma experimental ABIEncoderV2;\n\nimport \"@openzeppelin/contracts/token/ERC20/IERC20.sol\";\nimport '@uniswap/v2-core/contracts/interfaces/IUniswapV2Pair.sol';\nimport '../external/UniswapV2Library.sol';\nimport \"../Constants.sol\";\nimport \"./PoolGetters.sol\";\n\ncontract Liquidity is PoolGetters {\n    address private constant UNISWAP_FACTORY = address(0x5C69bEe701ef814a2B6a3EDD4B1652CB9cc5aA6f);\n\n    function addLiquidity(uint256 ethicAmount) internal returns (uint256, uint256) {\n        (address ethic, address dai) = (address(ethic()), dai());\n        (uint reserveA, uint reserveB) = getReserves(ethic, dai);\n\n        uint256 daiAmount = (reserveA == 0 && reserveB == 0) ?\n             ethicAmount :\n             UniswapV2Library.quote(ethicAmount, reserveA, reserveB);\n\n        address pair = address(univ2());\n        IERC20(ethic).transfer(pair, ethicAmount);\n        IERC20(dai).transferFrom(msg.sender, pair, daiAmount);\n        return (daiAmount, IUniswapV2Pair(pair).mint(address(this)));\n    }\n\n    // overridable for testing\n    function getReserves(address tokenA, address tokenB) internal view returns (uint reserveA, uint reserveB) {\n        (address token0,) = UniswapV2Library.sortTokens(tokenA, tokenB);\n        (uint reserve0, uint reserve1,) = IUniswapV2Pair(UniswapV2Library.pairFor(UNISWAP_FACTORY, tokenA, tokenB)).getReserves();\n        (reserveA, reserveB) = tokenA == token0 ? (reserve0, reserve1) : (reserve1, reserve0);\n    }\n}\n",
  "sourcePath": "/home/ville/projects/ethic/protocol/contracts/oracle/Liquidity.sol",
  "compiler": {
    "name": "solc",
    "version": "0.5.17+commit.d19bba13.Emscripten.clang"
  },
  "schemaVersion": "3.3.2",
  "updatedAt": "2021-02-04T14:35:43.998Z",
  "devdoc": {
    "methods": {}
  },
  "userdoc": {
    "methods": {
      "balanceOfStaged(address)": {
        "notice": "Account"
      },
      "dai()": {
        "notice": "Global"
      }
    }
  }
}