{
  "contractName": "Market",
  "abi": [
    {
      "anonymous": false,
      "inputs": [
        {
          "indexed": true,
          "internalType": "address",
          "name": "owner",
          "type": "address"
        },
        {
          "indexed": true,
          "internalType": "address",
          "name": "spender",
          "type": "address"
        },
        {
          "indexed": false,
          "internalType": "uint256",
          "name": "value",
          "type": "uint256"
        }
      ],
      "name": "CouponApproval",
      "type": "event"
    },
    {
      "anonymous": false,
      "inputs": [
        {
          "indexed": true,
          "internalType": "address",
          "name": "account",
          "type": "address"
        },
        {
          "indexed": true,
          "internalType": "uint256",
          "name": "epoch",
          "type": "uint256"
        },
        {
          "indexed": false,
          "internalType": "uint256",
          "name": "couponAmount",
          "type": "uint256"
        }
      ],
      "name": "CouponBurn",
      "type": "event"
    },
    {
      "anonymous": false,
      "inputs": [
        {
          "indexed": true,
          "internalType": "uint256",
          "name": "epoch",
          "type": "uint256"
        },
        {
          "indexed": false,
          "internalType": "uint256",
          "name": "couponsExpired",
          "type": "uint256"
        },
        {
          "indexed": false,
          "internalType": "uint256",
          "name": "lessRedeemable",
          "type": "uint256"
        },
        {
          "indexed": false,
          "internalType": "uint256",
          "name": "lessDebt",
          "type": "uint256"
        },
        {
          "indexed": false,
          "internalType": "uint256",
          "name": "newBonded",
          "type": "uint256"
        }
      ],
      "name": "CouponExpiration",
      "type": "event"
    },
    {
      "anonymous": false,
      "inputs": [
        {
          "indexed": true,
          "internalType": "address",
          "name": "account",
          "type": "address"
        },
        {
          "indexed": true,
          "internalType": "uint256",
          "name": "epoch",
          "type": "uint256"
        },
        {
          "indexed": false,
          "internalType": "uint256",
          "name": "dollarAmount",
          "type": "uint256"
        },
        {
          "indexed": false,
          "internalType": "uint256",
          "name": "couponAmount",
          "type": "uint256"
        }
      ],
      "name": "CouponPurchase",
      "type": "event"
    },
    {
      "anonymous": false,
      "inputs": [
        {
          "indexed": true,
          "internalType": "address",
          "name": "account",
          "type": "address"
        },
        {
          "indexed": true,
          "internalType": "uint256",
          "name": "epoch",
          "type": "uint256"
        },
        {
          "indexed": false,
          "internalType": "uint256",
          "name": "couponAmount",
          "type": "uint256"
        }
      ],
      "name": "CouponRedemption",
      "type": "event"
    },
    {
      "anonymous": false,
      "inputs": [
        {
          "indexed": true,
          "internalType": "address",
          "name": "from",
          "type": "address"
        },
        {
          "indexed": true,
          "internalType": "address",
          "name": "to",
          "type": "address"
        },
        {
          "indexed": true,
          "internalType": "uint256",
          "name": "epoch",
          "type": "uint256"
        },
        {
          "indexed": false,
          "internalType": "uint256",
          "name": "value",
          "type": "uint256"
        }
      ],
      "name": "CouponTransfer",
      "type": "event"
    },
    {
      "anonymous": false,
      "inputs": [
        {
          "indexed": true,
          "internalType": "address",
          "name": "from",
          "type": "address"
        },
        {
          "indexed": true,
          "internalType": "address",
          "name": "to",
          "type": "address"
        },
        {
          "indexed": false,
          "internalType": "uint256",
          "name": "value",
          "type": "uint256"
        }
      ],
      "name": "Transfer",
      "type": "event"
    },
    {
      "constant": true,
      "inputs": [
        {
          "internalType": "address",
          "name": "owner",
          "type": "address"
        },
        {
          "internalType": "address",
          "name": "spender",
          "type": "address"
        }
      ],
      "name": "allowance",
      "outputs": [
        {
          "internalType": "uint256",
          "name": "",
          "type": "uint256"
        }
      ],
      "payable": false,
      "stateMutability": "view",
      "type": "function"
    },
    {
      "constant": true,
      "inputs": [
        {
          "internalType": "address",
          "name": "owner",
          "type": "address"
        },
        {
          "internalType": "address",
          "name": "spender",
          "type": "address"
        }
      ],
      "name": "allowanceCoupons",
      "outputs": [
        {
          "internalType": "uint256",
          "name": "",
          "type": "uint256"
        }
      ],
      "payable": false,
      "stateMutability": "view",
      "type": "function"
    },
    {
      "constant": false,
      "inputs": [
        {
          "internalType": "address",
          "name": "spender",
          "type": "address"
        },
        {
          "internalType": "uint256",
          "name": "amount",
          "type": "uint256"
        }
      ],
      "name": "approve",
      "outputs": [
        {
          "internalType": "bool",
          "name": "",
          "type": "bool"
        }
      ],
      "payable": false,
      "stateMutability": "nonpayable",
      "type": "function"
    },
    {
      "constant": true,
      "inputs": [
        {
          "internalType": "address",
          "name": "candidate",
          "type": "address"
        }
      ],
      "name": "approveFor",
      "outputs": [
        {
          "internalType": "uint256",
          "name": "",
          "type": "uint256"
        }
      ],
      "payable": false,
      "stateMutability": "view",
      "type": "function"
    },
    {
      "constant": true,
      "inputs": [
        {
          "internalType": "address",
          "name": "account",
          "type": "address"
        }
      ],
      "name": "balanceOf",
      "outputs": [
        {
          "internalType": "uint256",
          "name": "",
          "type": "uint256"
        }
      ],
      "payable": false,
      "stateMutability": "view",
      "type": "function"
    },
    {
      "constant": true,
      "inputs": [
        {
          "internalType": "address",
          "name": "account",
          "type": "address"
        }
      ],
      "name": "balanceOfBonded",
      "outputs": [
        {
          "internalType": "uint256",
          "name": "",
          "type": "uint256"
        }
      ],
      "payable": false,
      "stateMutability": "view",
      "type": "function"
    },
    {
      "constant": true,
      "inputs": [
        {
          "internalType": "address",
          "name": "account",
          "type": "address"
        },
        {
          "internalType": "uint256",
          "name": "epoch",
          "type": "uint256"
        }
      ],
      "name": "balanceOfCoupons",
      "outputs": [
        {
          "internalType": "uint256",
          "name": "",
          "type": "uint256"
        }
      ],
      "payable": false,
      "stateMutability": "view",
      "type": "function"
    },
    {
      "constant": true,
      "inputs": [
        {
          "internalType": "address",
          "name": "account",
          "type": "address"
        }
      ],
      "name": "balanceOfStaged",
      "outputs": [
        {
          "internalType": "uint256",
          "name": "",
          "type": "uint256"
        }
      ],
      "payable": false,
      "stateMutability": "view",
      "type": "function"
    },
    {
      "constant": true,
      "inputs": [
        {
          "internalType": "uint256",
          "name": "epoch",
          "type": "uint256"
        }
      ],
      "name": "bootstrappingAt",
      "outputs": [
        {
          "internalType": "bool",
          "name": "",
          "type": "bool"
        }
      ],
      "payable": false,
      "stateMutability": "view",
      "type": "function"
    },
    {
      "constant": true,
      "inputs": [
        {
          "internalType": "uint256",
          "name": "epoch",
          "type": "uint256"
        }
      ],
      "name": "couponsExpiration",
      "outputs": [
        {
          "internalType": "uint256",
          "name": "",
          "type": "uint256"
        }
      ],
      "payable": false,
      "stateMutability": "view",
      "type": "function"
    },
    {
      "constant": true,
      "inputs": [],
      "name": "decimals",
      "outputs": [
        {
          "internalType": "uint8",
          "name": "",
          "type": "uint8"
        }
      ],
      "payable": false,
      "stateMutability": "view",
      "type": "function"
    },
    {
      "constant": true,
      "inputs": [],
      "name": "epoch",
      "outputs": [
        {
          "internalType": "uint256",
          "name": "",
          "type": "uint256"
        }
      ],
      "payable": false,
      "stateMutability": "view",
      "type": "function"
    },
    {
      "constant": true,
      "inputs": [],
      "name": "epochTime",
      "outputs": [
        {
          "internalType": "uint256",
          "name": "",
          "type": "uint256"
        }
      ],
      "payable": false,
      "stateMutability": "view",
      "type": "function"
    },
    {
      "constant": true,
      "inputs": [],
      "name": "ethic",
      "outputs": [
        {
          "internalType": "contract IEthic",
          "name": "",
          "type": "address"
        }
      ],
      "payable": false,
      "stateMutability": "view",
      "type": "function"
    },
    {
      "constant": true,
      "inputs": [
        {
          "internalType": "uint256",
          "name": "epoch",
          "type": "uint256"
        }
      ],
      "name": "expiringCoupons",
      "outputs": [
        {
          "internalType": "uint256",
          "name": "",
          "type": "uint256"
        }
      ],
      "payable": false,
      "stateMutability": "view",
      "type": "function"
    },
    {
      "constant": true,
      "inputs": [
        {
          "internalType": "uint256",
          "name": "epoch",
          "type": "uint256"
        },
        {
          "internalType": "uint256",
          "name": "i",
          "type": "uint256"
        }
      ],
      "name": "expiringCouponsAtIndex",
      "outputs": [
        {
          "internalType": "uint256",
          "name": "",
          "type": "uint256"
        }
      ],
      "payable": false,
      "stateMutability": "view",
      "type": "function"
    },
    {
      "constant": true,
      "inputs": [
        {
          "internalType": "address",
          "name": "account",
          "type": "address"
        }
      ],
      "name": "fluidUntil",
      "outputs": [
        {
          "internalType": "uint256",
          "name": "",
          "type": "uint256"
        }
      ],
      "payable": false,
      "stateMutability": "view",
      "type": "function"
    },
    {
      "constant": true,
      "inputs": [],
      "name": "implementation",
      "outputs": [
        {
          "internalType": "address",
          "name": "impl",
          "type": "address"
        }
      ],
      "payable": false,
      "stateMutability": "view",
      "type": "function"
    },
    {
      "constant": true,
      "inputs": [
        {
          "internalType": "address",
          "name": "candidate",
          "type": "address"
        }
      ],
      "name": "isInitialized",
      "outputs": [
        {
          "internalType": "bool",
          "name": "",
          "type": "bool"
        }
      ],
      "payable": false,
      "stateMutability": "view",
      "type": "function"
    },
    {
      "constant": true,
      "inputs": [
        {
          "internalType": "address",
          "name": "candidate",
          "type": "address"
        }
      ],
      "name": "isNominated",
      "outputs": [
        {
          "internalType": "bool",
          "name": "",
          "type": "bool"
        }
      ],
      "payable": false,
      "stateMutability": "view",
      "type": "function"
    },
    {
      "constant": true,
      "inputs": [
        {
          "internalType": "address",
          "name": "account",
          "type": "address"
        }
      ],
      "name": "lockedUntil",
      "outputs": [
        {
          "internalType": "uint256",
          "name": "",
          "type": "uint256"
        }
      ],
      "payable": false,
      "stateMutability": "view",
      "type": "function"
    },
    {
      "constant": true,
      "inputs": [],
      "name": "name",
      "outputs": [
        {
          "internalType": "string",
          "name": "",
          "type": "string"
        }
      ],
      "payable": false,
      "stateMutability": "view",
      "type": "function"
    },
    {
      "constant": true,
      "inputs": [],
      "name": "oracle",
      "outputs": [
        {
          "internalType": "contract IOracle",
          "name": "",
          "type": "address"
        }
      ],
      "payable": false,
      "stateMutability": "view",
      "type": "function"
    },
    {
      "constant": true,
      "inputs": [
        {
          "internalType": "uint256",
          "name": "epoch",
          "type": "uint256"
        }
      ],
      "name": "outstandingCoupons",
      "outputs": [
        {
          "internalType": "uint256",
          "name": "",
          "type": "uint256"
        }
      ],
      "payable": false,
      "stateMutability": "view",
      "type": "function"
    },
    {
      "constant": true,
      "inputs": [
        {
          "internalType": "address",
          "name": "candidate",
          "type": "address"
        }
      ],
      "name": "periodFor",
      "outputs": [
        {
          "internalType": "uint256",
          "name": "",
          "type": "uint256"
        }
      ],
      "payable": false,
      "stateMutability": "view",
      "type": "function"
    },
    {
      "constant": true,
      "inputs": [],
      "name": "pool",
      "outputs": [
        {
          "internalType": "address",
          "name": "",
          "type": "address"
        }
      ],
      "payable": false,
      "stateMutability": "view",
      "type": "function"
    },
    {
      "constant": true,
      "inputs": [
        {
          "internalType": "address",
          "name": "account",
          "type": "address"
        },
        {
          "internalType": "address",
          "name": "candidate",
          "type": "address"
        }
      ],
      "name": "recordedVote",
      "outputs": [
        {
          "internalType": "enum Candidate.Vote",
          "name": "",
          "type": "uint8"
        }
      ],
      "payable": false,
      "stateMutability": "view",
      "type": "function"
    },
    {
      "constant": true,
      "inputs": [
        {
          "internalType": "address",
          "name": "candidate",
          "type": "address"
        }
      ],
      "name": "rejectFor",
      "outputs": [
        {
          "internalType": "uint256",
          "name": "",
          "type": "uint256"
        }
      ],
      "payable": false,
      "stateMutability": "view",
      "type": "function"
    },
    {
      "constant": true,
      "inputs": [
        {
          "internalType": "address",
          "name": "candidate",
          "type": "address"
        }
      ],
      "name": "startFor",
      "outputs": [
        {
          "internalType": "uint256",
          "name": "",
          "type": "uint256"
        }
      ],
      "payable": false,
      "stateMutability": "view",
      "type": "function"
    },
    {
      "constant": true,
      "inputs": [
        {
          "internalType": "address",
          "name": "account",
          "type": "address"
        }
      ],
      "name": "statusOf",
      "outputs": [
        {
          "internalType": "enum Account.Status",
          "name": "",
          "type": "uint8"
        }
      ],
      "payable": false,
      "stateMutability": "view",
      "type": "function"
    },
    {
      "constant": true,
      "inputs": [],
      "name": "symbol",
      "outputs": [
        {
          "internalType": "string",
          "name": "",
          "type": "string"
        }
      ],
      "payable": false,
      "stateMutability": "view",
      "type": "function"
    },
    {
      "constant": true,
      "inputs": [],
      "name": "totalBonded",
      "outputs": [
        {
          "internalType": "uint256",
          "name": "",
          "type": "uint256"
        }
      ],
      "payable": false,
      "stateMutability": "view",
      "type": "function"
    },
    {
      "constant": true,
      "inputs": [
        {
          "internalType": "uint256",
          "name": "epoch",
          "type": "uint256"
        }
      ],
      "name": "totalBondedAt",
      "outputs": [
        {
          "internalType": "uint256",
          "name": "",
          "type": "uint256"
        }
      ],
      "payable": false,
      "stateMutability": "view",
      "type": "function"
    },
    {
      "constant": true,
      "inputs": [],
      "name": "totalCoupons",
      "outputs": [
        {
          "internalType": "uint256",
          "name": "",
          "type": "uint256"
        }
      ],
      "payable": false,
      "stateMutability": "view",
      "type": "function"
    },
    {
      "constant": true,
      "inputs": [],
      "name": "totalDebt",
      "outputs": [
        {
          "internalType": "uint256",
          "name": "",
          "type": "uint256"
        }
      ],
      "payable": false,
      "stateMutability": "view",
      "type": "function"
    },
    {
      "constant": true,
      "inputs": [],
      "name": "totalNet",
      "outputs": [
        {
          "internalType": "uint256",
          "name": "",
          "type": "uint256"
        }
      ],
      "payable": false,
      "stateMutability": "view",
      "type": "function"
    },
    {
      "constant": true,
      "inputs": [],
      "name": "totalRedeemable",
      "outputs": [
        {
          "internalType": "uint256",
          "name": "",
          "type": "uint256"
        }
      ],
      "payable": false,
      "stateMutability": "view",
      "type": "function"
    },
    {
      "constant": true,
      "inputs": [],
      "name": "totalStaged",
      "outputs": [
        {
          "internalType": "uint256",
          "name": "",
          "type": "uint256"
        }
      ],
      "payable": false,
      "stateMutability": "view",
      "type": "function"
    },
    {
      "constant": true,
      "inputs": [],
      "name": "totalSupply",
      "outputs": [
        {
          "internalType": "uint256",
          "name": "",
          "type": "uint256"
        }
      ],
      "payable": false,
      "stateMutability": "view",
      "type": "function"
    },
    {
      "constant": false,
      "inputs": [
        {
          "internalType": "address",
          "name": "recipient",
          "type": "address"
        },
        {
          "internalType": "uint256",
          "name": "amount",
          "type": "uint256"
        }
      ],
      "name": "transfer",
      "outputs": [
        {
          "internalType": "bool",
          "name": "",
          "type": "bool"
        }
      ],
      "payable": false,
      "stateMutability": "nonpayable",
      "type": "function"
    },
    {
      "constant": false,
      "inputs": [
        {
          "internalType": "address",
          "name": "sender",
          "type": "address"
        },
        {
          "internalType": "address",
          "name": "recipient",
          "type": "address"
        },
        {
          "internalType": "uint256",
          "name": "amount",
          "type": "uint256"
        }
      ],
      "name": "transferFrom",
      "outputs": [
        {
          "internalType": "bool",
          "name": "",
          "type": "bool"
        }
      ],
      "payable": false,
      "stateMutability": "nonpayable",
      "type": "function"
    },
    {
      "constant": true,
      "inputs": [
        {
          "internalType": "address",
          "name": "candidate",
          "type": "address"
        }
      ],
      "name": "votesFor",
      "outputs": [
        {
          "internalType": "uint256",
          "name": "",
          "type": "uint256"
        }
      ],
      "payable": false,
      "stateMutability": "view",
      "type": "function"
    },
    {
      "constant": true,
      "inputs": [
        {
          "internalType": "uint256",
          "name": "amount",
          "type": "uint256"
        }
      ],
      "name": "couponPremium",
      "outputs": [
        {
          "internalType": "uint256",
          "name": "",
          "type": "uint256"
        }
      ],
      "payable": false,
      "stateMutability": "view",
      "type": "function"
    },
    {
      "constant": true,
      "inputs": [
        {
          "internalType": "uint256",
          "name": "couponEpoch",
          "type": "uint256"
        },
        {
          "internalType": "uint256",
          "name": "couponAmount",
          "type": "uint256"
        }
      ],
      "name": "couponRedemptionPenalty",
      "outputs": [
        {
          "internalType": "uint256",
          "name": "",
          "type": "uint256"
        }
      ],
      "payable": false,
      "stateMutability": "view",
      "type": "function"
    },
    {
      "constant": false,
      "inputs": [
        {
          "internalType": "uint256",
          "name": "ethicAmount",
          "type": "uint256"
        }
      ],
      "name": "purchaseCoupons",
      "outputs": [
        {
          "internalType": "uint256",
          "name": "",
          "type": "uint256"
        }
      ],
      "payable": false,
      "stateMutability": "nonpayable",
      "type": "function"
    },
    {
      "constant": false,
      "inputs": [
        {
          "internalType": "uint256",
          "name": "couponEpoch",
          "type": "uint256"
        },
        {
          "internalType": "uint256",
          "name": "couponAmount",
          "type": "uint256"
        }
      ],
      "name": "redeemCoupons",
      "outputs": [],
      "payable": false,
      "stateMutability": "nonpayable",
      "type": "function"
    },
    {
      "constant": false,
      "inputs": [
        {
          "internalType": "address",
          "name": "spender",
          "type": "address"
        },
        {
          "internalType": "uint256",
          "name": "amount",
          "type": "uint256"
        }
      ],
      "name": "approveCoupons",
      "outputs": [],
      "payable": false,
      "stateMutability": "nonpayable",
      "type": "function"
    },
    {
      "constant": false,
      "inputs": [
        {
          "internalType": "address",
          "name": "sender",
          "type": "address"
        },
        {
          "internalType": "address",
          "name": "recipient",
          "type": "address"
        },
        {
          "internalType": "uint256",
          "name": "epoch",
          "type": "uint256"
        },
        {
          "internalType": "uint256",
          "name": "amount",
          "type": "uint256"
        }
      ],
      "name": "transferCoupons",
      "outputs": [],
      "payable": false,
      "stateMutability": "nonpayable",
      "type": "function"
    }
  ],
  "bytecode": "0x608060405234801561001057600080fd5b50612345806100206000396000f3fe608060405234801561001057600080fd5b506004361061029f5760003560e01c8063825ad60711610167578063bc7513e2116100ce578063d8f5413811610087578063d8f5413814610570578063dd62ed3e14610583578063e5f55c7e14610591578063f1b7cf49146105a4578063fc7b9c18146105b7578063ffbe3b73146105bf5761029f565b8063bc7513e214610514578063c0ec4ac514610527578063c9aff70c1461052f578063cf02377914610542578063d60b347f1461054a578063d6a9cf081461055d5761029f565b80639bc289f1116101205780639bc289f1146104c05780639f6e1b26146104d3578063a1eb31e8146104e6578063a50cd8e7146104f9578063a6c409f11461050c578063a9059cbb146102d75761029f565b8063825ad6071461046f57806386cf9f1414610482578063900cf0cf1461049557806395d89b411461049d57806397a5d5b5146104a55780639a649edc146104b85761029f565b80633a3e6c811161020b5780635c60da1b116101c45780635c60da1b14610406578063646680221461040e5780636a39e3281461042157806370a082311461043457806375d5024b146104475780637dc0d1d01461045a5761029f565b80633a3e6c811461039d5780633fbba9a6146103b057806344d96e95146103d05780634c736099146103d85780635053e461146103eb57806351bf21d8146103f35761029f565b806318160ddd1161025d57806318160ddd1461033f5780631edbcf6c1461034757806323b872dd1461034f5780632f7f889e14610362578063313ce56714610375578063353a420c1461038a5761029f565b80625edd37146102a457806306fdde03146102b9578063095ea7b3146102d757806310e95b6c146102f757806315e14bf61461031757806316f0115b1461032a575b600080fd5b6102b76102b2366004611cda565b6105d2565b005b6102c16106f5565b6040516102ce9190612102565b60405180910390f35b6102ea6102e5366004611d3b565b610720565b6040516102ce91906120d8565b61030a610305366004611d89565b610729565b6040516102ce9190612173565b61030a610325366004611c35565b610741565b61033261075f565b6040516102ce9190612087565b61030a61076e565b61030a610774565b6102ea61035d366004611c8d565b61077a565b6102b7610370366004611d3b565b610784565b61037d610804565b6040516102ce919061218f565b61030a610398366004611c35565b610809565b6102ea6103ab366004611c35565b610827565b6103c36103be366004611c53565b610844565b6040516102ce91906120f4565b61030a610877565b61030a6103e6366004611dc5565b61087d565b61030a6108ad565b61030a610401366004611c35565b6108d0565b6103326108ee565b61030a61041c366004611c35565b610913565b61030a61042f366004611d89565b610931565b61030a610442366004611c35565b610946565b6102ea610455366004611d89565b610964565b610462610977565b6040516102ce91906120e6565b61030a61047d366004611c35565b610986565b61030a610490366004611c35565b6109d2565b61030a6109ed565b6102c16109f3565b6103c36104b3366004611c35565b610a12565b61030a610a77565b61030a6104ce366004611c35565b610a7d565b61030a6104e1366004611c53565b610a9b565b61030a6104f4366004611dc5565b610aca565b61030a610507366004611c35565b610bf0565b61030a610c13565b61030a610522366004611d3b565b610ca9565b610462610ced565b61030a61053d366004611d89565b610cfc565b61030a610d11565b6102ea610558366004611c35565b610d17565b6102b761056b366004611dc5565b610d38565b61030a61057e366004611d89565b610e2d565b61030a6102e5366004611c53565b61030a61059f366004611d89565b610eb8565b61030a6105b2366004611c35565b610faa565b61030a610fc5565b61030a6105cd366004611d89565b610fcb565b6001600160a01b0384166106015760405162461bcd60e51b81526004016105f890612153565b60405180910390fd5b6001600160a01b0383166106275760405162461bcd60e51b81526004016105f890612123565b61064b84838360405180606001604052806023815260200161226a60239139610fdd565b610656838383611088565b336001600160a01b0385161480159061067a57506000196106778533610a9b565b14155b156106a3576106a384338360405180606001604052806024815260200161228d6024913961112f565b81836001600160a01b0316856001600160a01b03167f0f1dbb1ccbe57a1590c7baad7b01d581b730c9ebc535dcde4345e6db424063d8846040516106e79190612173565b60405180910390a450505050565b6040805180820190915260118152704574686963204d6f6e6579205374616b6560781b602082015290565b60005b92915050565b6000818152600d60205260409020600201545b919050565b6001600160a01b03166000908152600e602052604090206001015490565b600b546001600160a01b031690565b60035490565b60065490565b60005b9392505050565b6001600160a01b0382166107aa5760405162461bcd60e51b81526004016105f890612143565b6107b53383836111a0565b816001600160a01b0316336001600160a01b03167f8ff27e6b95060c1ca851e7c2c28af8b413eb1a8bcb637b0290da9543a709cce3836040516107f89190612173565b60405180910390a35050565b601290565b6001600160a01b03166000908152600e602052604090206003015490565b6001600160a01b03166000908152600e6020526040902054151590565b6001600160a01b038082166000908152600e60209081526040808320938616835260049093019052205460ff1692915050565b60045490565b6000828152600d6020526040812060030180548390811061089a57fe5b9060005260206000200154905092915050565b60006108b7611bd5565b6108bf6111d0565b90506108ca816111ff565b91505090565b6001600160a01b03166000908152600c602052604090206004015490565b7f360894a13ba1a3210667c828492db98dca3e2076cc3735a920a3ca505d382bbc5490565b6001600160a01b03166000908152600e602052604090206002015490565b6000908152600d602052604090206003015490565b6001600160a01b03166000908152600c602052604090206001015490565b600061096e611221565b90911115919050565b600a546001600160a01b031690565b60008061099161076e565b9050806109a257600091505061073c565b61077d816109c66109b286610946565b6109ba610877565b9063ffffffff61122616565b9063ffffffff61126016565b6001600160a01b03166000908152600c602052604090205490565b60025490565b604080518082019091526005815264455448435360d81b602082015290565b6000610a1c6109ed565b6001600160a01b0383166000908152600c60205260409020600501541115610a465750600261073c565b6001600160a01b0382166000908152600c6020526040902060040154610a6a6109ed565b1015610720576001610723565b60085490565b6001600160a01b03166000908152600c602052604090206005015490565b6001600160a01b039182166000908152600c602090815260408083209390941682526003909201909152205490565b600080610ad56111d0565b604001514281610ae157fe5b069050600084610aef6109ed565b039050600081610afd6112a2565b03610b066112a2565b610b0e6112a8565b81610b1557fe5b0402905080831115610b2d5760009350505050610723565b610b35611bf6565b610b88604051806020016040528085610b4c6112a2565b03815250610b7c6040518060200160405280610b666112a2565b9052610b706112ae565b9063ffffffff6112d016565b9063ffffffff61130716565b9050610b92611bf6565b604080516020808201835287860382528251908101909252848252610bc291610b7c90859063ffffffff6112d016565b6040805160208101909152888152909150610be3908263ffffffff61130716565b5198975050505050505050565b6000610723610bfe83610809565b610c0784610913565b9063ffffffff61133516565b6000610ca4610c20610fc5565b610c28610ced565b6001600160a01b03166318160ddd6040518163ffffffff1660e01b815260040160206040518083038186803b158015610c6057600080fd5b505afa158015610c74573d6000803e3d6000fd5b505050506040513d601f19601f82011682018060405250610c989190810190611da7565b9063ffffffff61135a16565b905090565b6000610cb482610cfc565b610cc057506000610723565b506001600160a01b03919091166000908152600c6020908152604080832093835260029093019052205490565b6009546001600160a01b031690565b6000908152600d602052604090206001015490565b60055490565b6001600160a01b03166000908152600e602052604090206005015460ff1690565b6002610d4683610c986109ed565b1015610d645760405162461bcd60e51b81526004016105f890612163565b610d8833838360405180606001604052806023815260200161226a60239139610fdd565b6000610d948383610aca565b9050808203610da3338261139c565b83336001600160a01b03167f1cd1213d4276c260e84170b4a39025dc8398fbf744edee0709261769b456b94b84604051610ddd9190612173565b60405180910390a383336001600160a01b03167f46e9903ae8ac9e9f0c9bc321b05965c1c036e7d4783758703f5cdfc4133c51b683604051610e1f9190612173565b60405180910390a350505050565b6000610723610e3a610ced565b6001600160a01b03166318160ddd6040518163ffffffff1660e01b815260040160206040518083038186803b158015610e7257600080fd5b505afa158015610e86573d6000803e3d6000fd5b505050506040513d601f19601f82011682018060405250610eaa9190810190611da7565b610eb2610fc5565b84611452565b6000610ef1600083116513585c9ad95d60d21b7f4d757374207075726368617365206e6f6e2d7a65726f20616d6f756e7400000061147f565b610f2182610efd610fc5565b10156513585c9ad95d60d21b6e139bdd08195b9bdd59da081919589d608a1b61147f565b6000610f2b6109ed565b90506000610f48610f3b85610e2d565b859063ffffffff61133516565b9050610f5433856114d9565b610f5f338383611088565b81336001600160a01b03167fbce252db29f761f815dc2e9ea60005af065efba6eb619d2a0b2a113fdeb614148684604051610f9b929190612181565b60405180910390a39392505050565b6001600160a01b03166000908152600e602052604090205490565b60075490565b6000908152600d602052604090205490565b6001600160a01b0384166000908152600c6020908152604080832086845260020190915290205461101590838363ffffffff6115ea16565b6001600160a01b0385166000908152600c60209081526040808320878452600201825280832093909355600d9052206001015461105990838363ffffffff6115ea16565b6000848152600d602052604090206001015560085461107f90838363ffffffff6115ea16565b60085550505050565b6001600160a01b0383166000908152600c602090815260408083208584526002019091529020546110bf908263ffffffff61133516565b6001600160a01b0384166000908152600c60209081526040808320868452600201825280832093909355600d90522060010154611102908263ffffffff61133516565b6000838152600d6020526040902060010155600854611127908263ffffffff61133516565b600855505050565b6001600160a01b038085166000908152600c60209081526040808320938716835260039093019052205461116a90838363ffffffff6115ea16565b6001600160a01b039485166000908152600c60209081526040808320969097168252600390950190945293909220929092555050565b6001600160a01b039283166000908152600c60209081526040808320949095168252600390930190925291902055565b6111d8611bd5565b6040518060600160405280606a8152602001635ffb1dce8152602001610e10815250905090565b60006107238260000151610c0784604001516109c68660200151610c98611616565b605a90565b60008261123557506000610723565b8282028284828161124257fe5b041461077d5760405162461bcd60e51b81526004016105f890612133565b600061077d83836040518060400160405280601a81526020017f536166654d6174683a206469766973696f6e206279207a65726f00000000000081525061161a565b61043890565b610e1090565b6112b6611bf6565b5060408051602081019091526706f05b59d3b20000815290565b6112d8611bf6565b60405180602001604052806112fe8560000151670de0b6b3a76400008660000151611651565b90529392505050565b61130f611bf6565b60405180602001604052806112fe85600001518560000151670de0b6b3a7640000611651565b60008282018381101561077d5760405162461bcd60e51b81526004016105f890612113565b600061077d83836040518060400160405280601e81526020017f536166654d6174683a207375627472616374696f6e206f766572666c6f7700008152506115ea565b6113a4610ced565b6001600160a01b031663a9059cbb83836040518363ffffffff1660e01b81526004016113d19291906120bd565b602060405180830381600087803b1580156113eb57600080fd5b505af11580156113ff573d6000803e3d6000fd5b505050506040513d601f19601f820116820180604052506114239190810190611d6b565b50611446816040518060600160405280602a81526020016122d9602a9139611667565b61144e611682565b5050565b600061147761147283611466878787611757565b9063ffffffff6118c416565b6118eb565b949350505050565b826114d45761148d82611908565b6101d160f51b61149c83611908565b6040516020016114ae93929190612056565b60408051601f198184030181529082905262461bcd60e51b82526105f891600401612102565b505050565b6114e1610ced565b6001600160a01b03166323b872dd8330846040518463ffffffff1660e01b815260040161151093929190612095565b602060405180830381600087803b15801561152a57600080fd5b505af115801561153e573d6000803e3d6000fd5b505050506040513d601f19601f820116820180604052506115629190810190611d6b565b5061156b610ced565b6001600160a01b03166342966c68826040518263ffffffff1660e01b81526004016115969190612173565b600060405180830381600087803b1580156115b057600080fd5b505af11580156115c4573d6000803e3d6000fd5b50505050611446816040518060600160405280602881526020016122b160289139611988565b6000818484111561160e5760405162461bcd60e51b81526004016105f89190612102565b505050900390565b4290565b6000818361163b5760405162461bcd60e51b81526004016105f89190612102565b50600083858161164757fe5b0495945050505050565b6000611477826109c6868663ffffffff61122616565b60065461167b90838363ffffffff6115ea16565b6006555050565b6117556116a3611690610774565b610c0761169b610d11565b610c07610877565b6116ab610ced565b6001600160a01b03166370a08231306040518263ffffffff1660e01b81526004016116d69190612087565b60206040518083038186803b1580156116ee57600080fd5b505afa158015611702573d6000803e3d6000fd5b505050506040513d601f19601f820116820180604052506117269190810190611da7565b10156a21b7b6b83a3937b63632b960a91b74496e636f6e73697374656e742062616c616e63657360581b61147f565b565b61175f611bf6565b611767611bf6565b61177184866119a3565b905061177b611bf6565b6117836119c9565b90506000611797878663ffffffff61135a16565b905060006117ab878763ffffffff61135a16565b90506117b5611bf6565b6117bf82846119a3565b90506117d1858563ffffffff6119eb16565b156118ad576117e6818563ffffffff6119eb16565b15611800576117f484611a01565b9550505050505061077d565b611808611bf6565b6118128286611a48565b905061181c611bf6565b61182c868463ffffffff611a9e16565b9050611836611bf6565b61183f87611a01565b9050611849611bf6565b611859898963ffffffff611a9e16565b905061189d61186e848363ffffffff611ac716565b610b70611881858563ffffffff61130716565b611891888863ffffffff61130716565b9063ffffffff611ac716565b995050505050505050505061077d565b6118b78186611a48565b9998505050505050505050565b6118cc611bf6565b6040805160208101909152835181906112fe908563ffffffff61122616565b805160009061072390670de0b6b3a764000063ffffffff61126016565b6060808260405160200161191c9190612041565b60408051601f19818403018152919052905060205b80156119715781516000199091019082908290811061194c57fe5b01602001516001600160f81b0319161561196c576001018152905061073c565b611931565b505060408051600081526020810190915292915050565b60075461199c90838363ffffffff6115ea16565b6007555050565b6119ab611bf6565b60405180602001604052806112fe85670de0b6b3a764000086611651565b6119d1611bf6565b5060408051602081019091526702c68af0bb140000815290565b60006119f78383611af0565b6002149392505050565b611a09611bf6565b610723611a14611b22565b611a28611a406002611a3487611a28611b22565b9063ffffffff611a9e16565b9063ffffffff611b4416565b610b70611b22565b611a50611bf6565b611a60838363ffffffff611b9a16565b15611a7557611a6e83611a01565b9050610723565b61077d611a80611b22565b611a28611a40611a9287611a28611b22565b610b7c87611a28611b22565b611aa6611bf6565b60408051602081019091528251845182916112fe919063ffffffff61135a16565b611acf611bf6565b60408051602081019091528251845182916112fe919063ffffffff61133516565b805182516000911415611b0557506001610723565b8151835111611b15576000611b18565b60025b60ff169392505050565b611b2a611bf6565b506040805160208101909152670de0b6b3a7640000815290565b611b4c611bf6565b81611b5b57611a6e6001611ba1565b611b63611bf6565b5060408051602081019091528351815260015b83811015611b9257611b888286611307565b9150600101611b76565b509392505050565b5190511490565b611ba9611bf6565b604080516020810190915280611bcd84670de0b6b3a764000063ffffffff61122616565b905292915050565b60405180606001604052806000815260200160008152602001600081525090565b6040518060200160405280600081525090565b803561072381612243565b805161072381612257565b803561072381612260565b805161072381612260565b600060208284031215611c4757600080fd5b60006114778484611c09565b60008060408385031215611c6657600080fd5b6000611c728585611c09565b9250506020611c8385828601611c09565b9150509250929050565b600080600060608486031215611ca257600080fd5b6000611cae8686611c09565b9350506020611cbf86828701611c09565b9250506040611cd086828701611c1f565b9150509250925092565b60008060008060808587031215611cf057600080fd5b6000611cfc8787611c09565b9450506020611d0d87828801611c09565b9350506040611d1e87828801611c1f565b9250506060611d2f87828801611c1f565b91505092959194509250565b60008060408385031215611d4e57600080fd5b6000611d5a8585611c09565b9250506020611c8385828601611c1f565b600060208284031215611d7d57600080fd5b60006114778484611c14565b600060208284031215611d9b57600080fd5b60006114778484611c1f565b600060208284031215611db957600080fd5b60006114778484611c2a565b60008060408385031215611dd857600080fd5b6000611d5a8585611c1f565b611ded816121aa565b82525050565b611ded816121b5565b611ded611e08826121ba565b6121c7565b611ded611e08826121c7565b6000611e248261219d565b611e2e818561073c565b9350611e3e8185602086016121fc565b9290920192915050565b611ded816121e6565b611ded816121f1565b6000611e658261219d565b611e6f81856121a1565b9350611e7f8185602086016121fc565b611e888161222c565b9093019392505050565b6000611e9f601b836121a1565b7f536166654d6174683a206164646974696f6e206f766572666c6f770000000000815260200192915050565b6000611ed8602b836121a1565b7f4d61726b65743a20436f75706f6e207472616e7366657220746f20746865207a81526a65726f206164647265737360a81b602082015260400192915050565b6000611f256021836121a1565b7f536166654d6174683a206d756c7469706c69636174696f6e206f766572666c6f8152607760f81b602082015260400192915050565b6000611f68602a836121a1565b7f4d61726b65743a20436f75706f6e20617070726f766520746f20746865207a65815269726f206164647265737360b01b602082015260400192915050565b6000611fb4602d836121a1565b7f4d61726b65743a20436f75706f6e207472616e736665722066726f6d2074686581526c207a65726f206164647265737360981b602082015260400192915050565b6000612003601b836121a1565b7f4d61726b65743a20546f6f206561726c7920746f2072656465656d0000000000815260200192915050565b611ded816121c7565b611ded816121e0565b600061204d8284611e0d565b50602001919050565b60006120628286611e19565b915061206e8285611dfc565b60028201915061207e8284611e19565b95945050505050565b602081016107238284611de4565b606081016120a38286611de4565b6120b06020830185611de4565b611477604083018461202f565b604081016120cb8285611de4565b61077d602083018461202f565b602081016107238284611df3565b602081016107238284611e48565b602081016107238284611e51565b6020808252810161077d8184611e5a565b6020808252810161072381611e92565b6020808252810161072381611ecb565b6020808252810161072381611f18565b6020808252810161072381611f5b565b6020808252810161072381611fa7565b6020808252810161072381611ff6565b60208101610723828461202f565b604081016120cb828561202f565b602081016107238284612038565b5190565b90815260200190565b6000610723826121d4565b151590565b6001600160f01b03191690565b90565b8061073c81612236565b6001600160a01b031690565b60ff1690565b6000610723826121aa565b6000610723826121ca565b60005b838110156122175781810151838201526020016121ff565b83811115612226576000848401525b50505050565b601f01601f191690565b6003811061224057fe5b50565b61224c816121aa565b811461224057600080fd5b61224c816121b5565b61224c816121c756fe4d61726b65743a20496e73756666696369656e7420636f75706f6e2062616c616e63654d61726b65743a20496e73756666696369656e7420636f75706f6e20617070726f76616c436f6d7074726f6c6c65723a206e6f7420656e6f756768206f75747374616e64696e672064656274436f6d7074726f6c6c65723a206e6f7420656e6f7567682072656465656d61626c652062616c616e6365a365627a7a7231582063127474137e7375609f511b6e6eb60823741ad7198582856ff0f7c8e85158b36c6578706572696d656e74616cf564736f6c63430005110040",
  "source": "/*\n    Copyright 2021 Ethic Money Devs <devs@ethic.money> and Copyright 2020 Empty Set Squad <emptysetsquad@protonmail.com>\n\n    Licensed under the Apache License, Version 2.0 (the \"License\");\n    you may not use this file except in compliance with the License.\n    You may obtain a copy of the License at\n\n    http://www.apache.org/licenses/LICENSE-2.0\n\n    Unless required by applicable law or agreed to in writing, software\n    distributed under the License is distributed on an \"AS IS\" BASIS,\n    WITHOUT WARRANTIES OR CONDITIONS OF ANY KIND, either express or implied.\n    See the License for the specific language governing permissions and\n    limitations under the License.\n*/\n\npragma solidity ^0.5.17;\npragma experimental ABIEncoderV2;\n\nimport \"@openzeppelin/contracts/math/SafeMath.sol\";\nimport \"./Curve.sol\";\nimport \"./Comptroller.sol\";\nimport \"../Constants.sol\";\n\ncontract Market is Comptroller, Curve {\n    using SafeMath for uint256;\n\n    bytes32 private constant FILE = \"Market\";\n\n    event CouponExpiration(uint256 indexed epoch, uint256 couponsExpired, uint256 lessRedeemable, uint256 lessDebt, uint256 newBonded);\n    event CouponPurchase(address indexed account, uint256 indexed epoch, uint256 dollarAmount, uint256 couponAmount);\n    event CouponRedemption(address indexed account, uint256 indexed epoch, uint256 couponAmount);\n    event CouponBurn(address indexed account, uint256 indexed epoch, uint256 couponAmount);\n    event CouponTransfer(address indexed from, address indexed to, uint256 indexed epoch, uint256 value);\n    event CouponApproval(address indexed owner, address indexed spender, uint256 value);\n\n    function step() internal {\n        // Expire prior coupons\n        for (uint256 i = 0; i < expiringCoupons(epoch()); i++) {\n            expireCouponsForEpoch(expiringCouponsAtIndex(epoch(), i));\n        }\n\n        // Record expiry for current epoch's coupons\n        uint256 expirationEpoch = epoch().add(Constants.getCouponExpiration());\n        initializeCouponsExpiration(epoch(), expirationEpoch);\n    }\n\n    function expireCouponsForEpoch(uint256 epoch) private {\n        uint256 couponsForEpoch = outstandingCoupons(epoch);\n        (uint256 lessRedeemable, uint256 newBonded) = (0, 0);\n\n        eliminateOutstandingCoupons(epoch);\n\n        uint256 totalRedeemable = totalRedeemable();\n        uint256 totalCoupons = totalCoupons();\n        if (totalRedeemable > totalCoupons) {\n            lessRedeemable = totalRedeemable.sub(totalCoupons);\n            burnRedeemable(lessRedeemable);\n            (, newBonded) = increaseSupply(lessRedeemable);\n        }\n\n        emit CouponExpiration(epoch, couponsForEpoch, lessRedeemable, 0, newBonded);\n    }\n\n    function couponPremium(uint256 amount) public view returns (uint256) {\n        return calculateCouponPremium(ethic().totalSupply(), totalDebt(), amount);\n    }\n\n    function couponRedemptionPenalty(uint256 couponEpoch, uint256 couponAmount) public view returns (uint256) {\n        uint timeIntoEpoch = block.timestamp % Constants.getEpochStrategy().period;\n        uint couponAge = epoch() - couponEpoch;\n\n        uint couponEpochDecay = Constants.getCouponRedemptionPenaltyDecay() /  Constants.getCouponExpiration() * (Constants.getCouponExpiration() - couponAge);\n\n        if(timeIntoEpoch > couponEpochDecay) {\n            return 0;\n        }\n\n        Decimal.D256 memory couponEpochInitialPenalty = Constants.getInitialCouponRedemptionPenalty().div(Decimal.D256({value: Constants.getCouponExpiration() })).mul(Decimal.D256({value: Constants.getCouponExpiration() - couponAge}));\n\n        Decimal.D256 memory couponEpochDecayedPenalty = couponEpochInitialPenalty.div(Decimal.D256({value: couponEpochDecay})).mul(Decimal.D256({value: couponEpochDecay - timeIntoEpoch}));\n\n        return Decimal.D256({value: couponAmount}).mul(couponEpochDecayedPenalty).value;\n    }\n\nfunction purchaseCoupons(uint256 ethicAmount) external returns (uint256) {\n        Require.that(\n            ethicAmount > 0,\n            FILE,\n            \"Must purchase non-zero amount\"\n        );\n\n        Require.that(\n            totalDebt() >= ethicAmount,\n            FILE,\n            \"Not enough debt\"\n        );\n\n        uint256 epoch = epoch();\n        uint256 couponAmount = ethicAmount.add(couponPremium(ethicAmount));\n        burnFromAccount(msg.sender, ethicAmount);\n        incrementBalanceOfCoupons(msg.sender, epoch, couponAmount);\n\n        emit CouponPurchase(msg.sender, epoch, ethicAmount, couponAmount);\n\n        return couponAmount;\n    }\n\n    function redeemCoupons(uint256 couponEpoch, uint256 couponAmount) external {\n        require(epoch().sub(couponEpoch) >= 2, \"Market: Too early to redeem\");\n        decrementBalanceOfCoupons(msg.sender, couponEpoch, couponAmount, \"Market: Insufficient coupon balance\");\n        uint burnAmount = couponRedemptionPenalty(couponEpoch, couponAmount);\n        uint256 redeemAmount = couponAmount - burnAmount;\n\n        redeemToAccount(msg.sender, redeemAmount);\n        \n        emit CouponBurn(msg.sender, couponEpoch, burnAmount);\n        emit CouponRedemption(msg.sender, couponEpoch, redeemAmount);\n    }\n\n    function approveCoupons(address spender, uint256 amount) external {\n        require(spender != address(0), \"Market: Coupon approve to the zero address\");\n\n        updateAllowanceCoupons(msg.sender, spender, amount);\n\n        emit CouponApproval(msg.sender, spender, amount);\n    }\n\n    function transferCoupons(address sender, address recipient, uint256 epoch, uint256 amount) external {\n        require(sender != address(0), \"Market: Coupon transfer from the zero address\");\n        require(recipient != address(0), \"Market: Coupon transfer to the zero address\");\n\n        decrementBalanceOfCoupons(sender, epoch, amount, \"Market: Insufficient coupon balance\");\n        incrementBalanceOfCoupons(recipient, epoch, amount);\n\n        if (msg.sender != sender && allowanceCoupons(sender, msg.sender) != uint256(-1)) {\n            decrementAllowanceCoupons(sender, msg.sender, amount, \"Market: Insufficient coupon approval\");\n        }\n\n        emit CouponTransfer(sender, recipient, epoch, amount);\n    }\n}\n",
  "sourcePath": "/home/ville/projects/ethic/protocol/contracts/dao/Market.sol",
  "compiler": {
    "name": "solc",
    "version": "0.5.17+commit.d19bba13.Emscripten.clang"
  },
  "schemaVersion": "3.3.2",
  "updatedAt": "2021-02-04T10:39:17.378Z",
  "devdoc": {
    "methods": {}
  },
  "userdoc": {
    "methods": {
      "balanceOfStaged(address)": {
        "notice": "Account"
      },
      "epoch()": {
        "notice": "Epoch"
      },
      "ethic()": {
        "notice": "Global"
      },
      "name()": {
        "notice": "ERC20 Interface"
      },
      "recordedVote(address,address)": {
        "notice": "Governance"
      },
      "transfer(address,uint256)": {
        "notice": "ERC20 Interface"
      }
    }
  }
}