{
  "contractName": "MockRegulator",
  "abi": [
    {
      "inputs": [
        {
          "internalType": "address",
          "name": "oracle",
          "type": "address"
        },
        {
          "internalType": "address",
          "name": "pool",
          "type": "address"
        }
      ],
      "payable": false,
      "stateMutability": "nonpayable",
      "type": "constructor"
    },
    {
      "anonymous": false,
      "inputs": [
        {
          "indexed": true,
          "internalType": "uint256",
          "name": "epoch",
          "type": "uint256"
        },
        {
          "indexed": false,
          "internalType": "uint256",
          "name": "price",
          "type": "uint256"
        },
        {
          "indexed": false,
          "internalType": "uint256",
          "name": "newDebt",
          "type": "uint256"
        }
      ],
      "name": "SupplyDecrease",
      "type": "event"
    },
    {
      "anonymous": false,
      "inputs": [
        {
          "indexed": true,
          "internalType": "uint256",
          "name": "epoch",
          "type": "uint256"
        },
        {
          "indexed": false,
          "internalType": "uint256",
          "name": "price",
          "type": "uint256"
        },
        {
          "indexed": false,
          "internalType": "uint256",
          "name": "newRedeemable",
          "type": "uint256"
        },
        {
          "indexed": false,
          "internalType": "uint256",
          "name": "lessDebt",
          "type": "uint256"
        },
        {
          "indexed": false,
          "internalType": "uint256",
          "name": "newBonded",
          "type": "uint256"
        }
      ],
      "name": "SupplyIncrease",
      "type": "event"
    },
    {
      "anonymous": false,
      "inputs": [
        {
          "indexed": true,
          "internalType": "uint256",
          "name": "epoch",
          "type": "uint256"
        }
      ],
      "name": "SupplyNeutral",
      "type": "event"
    },
    {
      "anonymous": false,
      "inputs": [
        {
          "indexed": true,
          "internalType": "address",
          "name": "from",
          "type": "address"
        },
        {
          "indexed": true,
          "internalType": "address",
          "name": "to",
          "type": "address"
        },
        {
          "indexed": false,
          "internalType": "uint256",
          "name": "value",
          "type": "uint256"
        }
      ],
      "name": "Transfer",
      "type": "event"
    },
    {
      "constant": true,
      "inputs": [
        {
          "internalType": "address",
          "name": "owner",
          "type": "address"
        },
        {
          "internalType": "address",
          "name": "spender",
          "type": "address"
        }
      ],
      "name": "allowance",
      "outputs": [
        {
          "internalType": "uint256",
          "name": "",
          "type": "uint256"
        }
      ],
      "payable": false,
      "stateMutability": "view",
      "type": "function"
    },
    {
      "constant": true,
      "inputs": [
        {
          "internalType": "address",
          "name": "owner",
          "type": "address"
        },
        {
          "internalType": "address",
          "name": "spender",
          "type": "address"
        }
      ],
      "name": "allowanceCoupons",
      "outputs": [
        {
          "internalType": "uint256",
          "name": "",
          "type": "uint256"
        }
      ],
      "payable": false,
      "stateMutability": "view",
      "type": "function"
    },
    {
      "constant": false,
      "inputs": [
        {
          "internalType": "address",
          "name": "spender",
          "type": "address"
        },
        {
          "internalType": "uint256",
          "name": "amount",
          "type": "uint256"
        }
      ],
      "name": "approve",
      "outputs": [
        {
          "internalType": "bool",
          "name": "",
          "type": "bool"
        }
      ],
      "payable": false,
      "stateMutability": "nonpayable",
      "type": "function"
    },
    {
      "constant": true,
      "inputs": [
        {
          "internalType": "address",
          "name": "candidate",
          "type": "address"
        }
      ],
      "name": "approveFor",
      "outputs": [
        {
          "internalType": "uint256",
          "name": "",
          "type": "uint256"
        }
      ],
      "payable": false,
      "stateMutability": "view",
      "type": "function"
    },
    {
      "constant": true,
      "inputs": [
        {
          "internalType": "address",
          "name": "account",
          "type": "address"
        }
      ],
      "name": "balanceOf",
      "outputs": [
        {
          "internalType": "uint256",
          "name": "",
          "type": "uint256"
        }
      ],
      "payable": false,
      "stateMutability": "view",
      "type": "function"
    },
    {
      "constant": true,
      "inputs": [
        {
          "internalType": "address",
          "name": "account",
          "type": "address"
        }
      ],
      "name": "balanceOfBonded",
      "outputs": [
        {
          "internalType": "uint256",
          "name": "",
          "type": "uint256"
        }
      ],
      "payable": false,
      "stateMutability": "view",
      "type": "function"
    },
    {
      "constant": true,
      "inputs": [
        {
          "internalType": "address",
          "name": "account",
          "type": "address"
        },
        {
          "internalType": "uint256",
          "name": "epoch",
          "type": "uint256"
        }
      ],
      "name": "balanceOfCoupons",
      "outputs": [
        {
          "internalType": "uint256",
          "name": "",
          "type": "uint256"
        }
      ],
      "payable": false,
      "stateMutability": "view",
      "type": "function"
    },
    {
      "constant": true,
      "inputs": [
        {
          "internalType": "address",
          "name": "account",
          "type": "address"
        }
      ],
      "name": "balanceOfStaged",
      "outputs": [
        {
          "internalType": "uint256",
          "name": "",
          "type": "uint256"
        }
      ],
      "payable": false,
      "stateMutability": "view",
      "type": "function"
    },
    {
      "constant": false,
      "inputs": [
        {
          "internalType": "address",
          "name": "account",
          "type": "address"
        },
        {
          "internalType": "uint256",
          "name": "amount",
          "type": "uint256"
        }
      ],
      "name": "burnFromAccountE",
      "outputs": [],
      "payable": false,
      "stateMutability": "nonpayable",
      "type": "function"
    },
    {
      "constant": false,
      "inputs": [
        {
          "internalType": "uint256",
          "name": "amount",
          "type": "uint256"
        }
      ],
      "name": "burnRedeemableE",
      "outputs": [],
      "payable": false,
      "stateMutability": "nonpayable",
      "type": "function"
    },
    {
      "constant": true,
      "inputs": [
        {
          "internalType": "uint256",
          "name": "epoch",
          "type": "uint256"
        }
      ],
      "name": "couponsExpiration",
      "outputs": [
        {
          "internalType": "uint256",
          "name": "",
          "type": "uint256"
        }
      ],
      "payable": false,
      "stateMutability": "view",
      "type": "function"
    },
    {
      "constant": false,
      "inputs": [
        {
          "internalType": "address",
          "name": "candidate",
          "type": "address"
        },
        {
          "internalType": "uint256",
          "name": "period",
          "type": "uint256"
        }
      ],
      "name": "createCandidateE",
      "outputs": [],
      "payable": false,
      "stateMutability": "nonpayable",
      "type": "function"
    },
    {
      "constant": true,
      "inputs": [],
      "name": "decimals",
      "outputs": [
        {
          "internalType": "uint8",
          "name": "",
          "type": "uint8"
        }
      ],
      "payable": false,
      "stateMutability": "view",
      "type": "function"
    },
    {
      "constant": false,
      "inputs": [
        {
          "internalType": "uint256",
          "name": "amount",
          "type": "uint256"
        }
      ],
      "name": "decreaseDebtE",
      "outputs": [],
      "payable": false,
      "stateMutability": "nonpayable",
      "type": "function"
    },
    {
      "constant": false,
      "inputs": [
        {
          "internalType": "address",
          "name": "owner",
          "type": "address"
        },
        {
          "internalType": "address",
          "name": "spender",
          "type": "address"
        },
        {
          "internalType": "uint256",
          "name": "amount",
          "type": "uint256"
        },
        {
          "internalType": "string",
          "name": "reason",
          "type": "string"
        }
      ],
      "name": "decrementAllowanceCouponsE",
      "outputs": [],
      "payable": false,
      "stateMutability": "nonpayable",
      "type": "function"
    },
    {
      "constant": false,
      "inputs": [
        {
          "internalType": "address",
          "name": "candidate",
          "type": "address"
        },
        {
          "internalType": "uint256",
          "name": "amount",
          "type": "uint256"
        },
        {
          "internalType": "string",
          "name": "reason",
          "type": "string"
        }
      ],
      "name": "decrementApproveForE",
      "outputs": [],
      "payable": false,
      "stateMutability": "nonpayable",
      "type": "function"
    },
    {
      "constant": false,
      "inputs": [
        {
          "internalType": "address",
          "name": "account",
          "type": "address"
        },
        {
          "internalType": "uint256",
          "name": "epoch",
          "type": "uint256"
        },
        {
          "internalType": "uint256",
          "name": "amount",
          "type": "uint256"
        },
        {
          "internalType": "string",
          "name": "reason",
          "type": "string"
        }
      ],
      "name": "decrementBalanceOfCouponsE",
      "outputs": [],
      "payable": false,
      "stateMutability": "nonpayable",
      "type": "function"
    },
    {
      "constant": false,
      "inputs": [
        {
          "internalType": "address",
          "name": "account",
          "type": "address"
        },
        {
          "internalType": "uint256",
          "name": "amount",
          "type": "uint256"
        },
        {
          "internalType": "string",
          "name": "reason",
          "type": "string"
        }
      ],
      "name": "decrementBalanceOfE",
      "outputs": [],
      "payable": false,
      "stateMutability": "nonpayable",
      "type": "function"
    },
    {
      "constant": false,
      "inputs": [
        {
          "internalType": "address",
          "name": "account",
          "type": "address"
        },
        {
          "internalType": "uint256",
          "name": "amount",
          "type": "uint256"
        },
        {
          "internalType": "string",
          "name": "reason",
          "type": "string"
        }
      ],
      "name": "decrementBalanceOfStagedE",
      "outputs": [],
      "payable": false,
      "stateMutability": "nonpayable",
      "type": "function"
    },
    {
      "constant": false,
      "inputs": [
        {
          "internalType": "address",
          "name": "candidate",
          "type": "address"
        },
        {
          "internalType": "uint256",
          "name": "amount",
          "type": "uint256"
        },
        {
          "internalType": "string",
          "name": "reason",
          "type": "string"
        }
      ],
      "name": "decrementRejectForE",
      "outputs": [],
      "payable": false,
      "stateMutability": "nonpayable",
      "type": "function"
    },
    {
      "constant": false,
      "inputs": [
        {
          "internalType": "uint256",
          "name": "amount",
          "type": "uint256"
        },
        {
          "internalType": "string",
          "name": "reason",
          "type": "string"
        }
      ],
      "name": "decrementTotalBondedE",
      "outputs": [],
      "payable": false,
      "stateMutability": "nonpayable",
      "type": "function"
    },
    {
      "constant": false,
      "inputs": [
        {
          "internalType": "uint256",
          "name": "amount",
          "type": "uint256"
        },
        {
          "internalType": "string",
          "name": "reason",
          "type": "string"
        }
      ],
      "name": "decrementTotalDebtE",
      "outputs": [],
      "payable": false,
      "stateMutability": "nonpayable",
      "type": "function"
    },
    {
      "constant": false,
      "inputs": [
        {
          "internalType": "uint256",
          "name": "amount",
          "type": "uint256"
        },
        {
          "internalType": "string",
          "name": "reason",
          "type": "string"
        }
      ],
      "name": "decrementTotalRedeemableE",
      "outputs": [],
      "payable": false,
      "stateMutability": "nonpayable",
      "type": "function"
    },
    {
      "constant": false,
      "inputs": [
        {
          "internalType": "uint256",
          "name": "epoch",
          "type": "uint256"
        }
      ],
      "name": "eliminateOutstandingCouponsE",
      "outputs": [],
      "payable": false,
      "stateMutability": "nonpayable",
      "type": "function"
    },
    {
      "constant": true,
      "inputs": [],
      "name": "epoch",
      "outputs": [
        {
          "internalType": "uint256",
          "name": "",
          "type": "uint256"
        }
      ],
      "payable": false,
      "stateMutability": "view",
      "type": "function"
    },
    {
      "constant": true,
      "inputs": [],
      "name": "epochTime",
      "outputs": [
        {
          "internalType": "uint256",
          "name": "",
          "type": "uint256"
        }
      ],
      "payable": false,
      "stateMutability": "view",
      "type": "function"
    },
    {
      "constant": true,
      "inputs": [],
      "name": "ethic",
      "outputs": [
        {
          "internalType": "contract IEthic",
          "name": "",
          "type": "address"
        }
      ],
      "payable": false,
      "stateMutability": "view",
      "type": "function"
    },
    {
      "constant": true,
      "inputs": [
        {
          "internalType": "uint256",
          "name": "epoch",
          "type": "uint256"
        }
      ],
      "name": "expiringCoupons",
      "outputs": [
        {
          "internalType": "uint256",
          "name": "",
          "type": "uint256"
        }
      ],
      "payable": false,
      "stateMutability": "view",
      "type": "function"
    },
    {
      "constant": true,
      "inputs": [
        {
          "internalType": "uint256",
          "name": "epoch",
          "type": "uint256"
        },
        {
          "internalType": "uint256",
          "name": "i",
          "type": "uint256"
        }
      ],
      "name": "expiringCouponsAtIndex",
      "outputs": [
        {
          "internalType": "uint256",
          "name": "",
          "type": "uint256"
        }
      ],
      "payable": false,
      "stateMutability": "view",
      "type": "function"
    },
    {
      "constant": true,
      "inputs": [
        {
          "internalType": "address",
          "name": "account",
          "type": "address"
        }
      ],
      "name": "fluidUntil",
      "outputs": [
        {
          "internalType": "uint256",
          "name": "",
          "type": "uint256"
        }
      ],
      "payable": false,
      "stateMutability": "view",
      "type": "function"
    },
    {
      "constant": true,
      "inputs": [],
      "name": "implementation",
      "outputs": [
        {
          "internalType": "address",
          "name": "impl",
          "type": "address"
        }
      ],
      "payable": false,
      "stateMutability": "view",
      "type": "function"
    },
    {
      "constant": false,
      "inputs": [
        {
          "internalType": "uint256",
          "name": "amount",
          "type": "uint256"
        }
      ],
      "name": "increaseDebtE",
      "outputs": [],
      "payable": false,
      "stateMutability": "nonpayable",
      "type": "function"
    },
    {
      "constant": false,
      "inputs": [
        {
          "internalType": "address",
          "name": "candidate",
          "type": "address"
        },
        {
          "internalType": "uint256",
          "name": "amount",
          "type": "uint256"
        }
      ],
      "name": "incrementApproveForE",
      "outputs": [],
      "payable": false,
      "stateMutability": "nonpayable",
      "type": "function"
    },
    {
      "constant": false,
      "inputs": [
        {
          "internalType": "address",
          "name": "account",
          "type": "address"
        },
        {
          "internalType": "uint256",
          "name": "epoch",
          "type": "uint256"
        },
        {
          "internalType": "uint256",
          "name": "amount",
          "type": "uint256"
        }
      ],
      "name": "incrementBalanceOfCouponsE",
      "outputs": [],
      "payable": false,
      "stateMutability": "nonpayable",
      "type": "function"
    },
    {
      "constant": false,
      "inputs": [
        {
          "internalType": "address",
          "name": "account",
          "type": "address"
        },
        {
          "internalType": "uint256",
          "name": "amount",
          "type": "uint256"
        }
      ],
      "name": "incrementBalanceOfE",
      "outputs": [],
      "payable": false,
      "stateMutability": "nonpayable",
      "type": "function"
    },
    {
      "constant": false,
      "inputs": [
        {
          "internalType": "address",
          "name": "account",
          "type": "address"
        },
        {
          "internalType": "uint256",
          "name": "amount",
          "type": "uint256"
        }
      ],
      "name": "incrementBalanceOfStagedE",
      "outputs": [],
      "payable": false,
      "stateMutability": "nonpayable",
      "type": "function"
    },
    {
      "constant": false,
      "inputs": [],
      "name": "incrementEpochE",
      "outputs": [],
      "payable": false,
      "stateMutability": "nonpayable",
      "type": "function"
    },
    {
      "constant": false,
      "inputs": [
        {
          "internalType": "address",
          "name": "candidate",
          "type": "address"
        },
        {
          "internalType": "uint256",
          "name": "amount",
          "type": "uint256"
        }
      ],
      "name": "incrementRejectForE",
      "outputs": [],
      "payable": false,
      "stateMutability": "nonpayable",
      "type": "function"
    },
    {
      "constant": false,
      "inputs": [
        {
          "internalType": "uint256",
          "name": "amount",
          "type": "uint256"
        }
      ],
      "name": "incrementTotalBondedE",
      "outputs": [],
      "payable": false,
      "stateMutability": "nonpayable",
      "type": "function"
    },
    {
      "constant": false,
      "inputs": [
        {
          "internalType": "uint256",
          "name": "amount",
          "type": "uint256"
        }
      ],
      "name": "incrementTotalDebtE",
      "outputs": [],
      "payable": false,
      "stateMutability": "nonpayable",
      "type": "function"
    },
    {
      "constant": false,
      "inputs": [
        {
          "internalType": "uint256",
          "name": "amount",
          "type": "uint256"
        }
      ],
      "name": "incrementTotalRedeemableE",
      "outputs": [],
      "payable": false,
      "stateMutability": "nonpayable",
      "type": "function"
    },
    {
      "constant": false,
      "inputs": [
        {
          "internalType": "uint256",
          "name": "epoch",
          "type": "uint256"
        },
        {
          "internalType": "uint256",
          "name": "expiration",
          "type": "uint256"
        }
      ],
      "name": "initializeCouponsExpirationE",
      "outputs": [],
      "payable": false,
      "stateMutability": "nonpayable",
      "type": "function"
    },
    {
      "constant": false,
      "inputs": [
        {
          "internalType": "address",
          "name": "candidate",
          "type": "address"
        }
      ],
      "name": "initializedE",
      "outputs": [],
      "payable": false,
      "stateMutability": "nonpayable",
      "type": "function"
    },
    {
      "constant": true,
      "inputs": [
        {
          "internalType": "address",
          "name": "candidate",
          "type": "address"
        }
      ],
      "name": "isInitialized",
      "outputs": [
        {
          "internalType": "bool",
          "name": "",
          "type": "bool"
        }
      ],
      "payable": false,
      "stateMutability": "view",
      "type": "function"
    },
    {
      "constant": true,
      "inputs": [
        {
          "internalType": "address",
          "name": "candidate",
          "type": "address"
        }
      ],
      "name": "isNominated",
      "outputs": [
        {
          "internalType": "bool",
          "name": "",
          "type": "bool"
        }
      ],
      "payable": false,
      "stateMutability": "view",
      "type": "function"
    },
    {
      "constant": true,
      "inputs": [
        {
          "internalType": "address",
          "name": "account",
          "type": "address"
        }
      ],
      "name": "lockedUntil",
      "outputs": [
        {
          "internalType": "uint256",
          "name": "",
          "type": "uint256"
        }
      ],
      "payable": false,
      "stateMutability": "view",
      "type": "function"
    },
    {
      "constant": false,
      "inputs": [
        {
          "internalType": "address",
          "name": "account",
          "type": "address"
        },
        {
          "internalType": "uint256",
          "name": "amount",
          "type": "uint256"
        }
      ],
      "name": "mintToAccountE",
      "outputs": [],
      "payable": false,
      "stateMutability": "nonpayable",
      "type": "function"
    },
    {
      "constant": false,
      "inputs": [
        {
          "internalType": "address",
          "name": "account",
          "type": "address"
        },
        {
          "internalType": "uint256",
          "name": "amount",
          "type": "uint256"
        }
      ],
      "name": "mintToE",
      "outputs": [],
      "payable": false,
      "stateMutability": "nonpayable",
      "type": "function"
    },
    {
      "constant": true,
      "inputs": [],
      "name": "name",
      "outputs": [
        {
          "internalType": "string",
          "name": "",
          "type": "string"
        }
      ],
      "payable": false,
      "stateMutability": "view",
      "type": "function"
    },
    {
      "constant": true,
      "inputs": [],
      "name": "oracle",
      "outputs": [
        {
          "internalType": "contract IOracle",
          "name": "",
          "type": "address"
        }
      ],
      "payable": false,
      "stateMutability": "view",
      "type": "function"
    },
    {
      "constant": true,
      "inputs": [
        {
          "internalType": "uint256",
          "name": "epoch",
          "type": "uint256"
        }
      ],
      "name": "outstandingCoupons",
      "outputs": [
        {
          "internalType": "uint256",
          "name": "",
          "type": "uint256"
        }
      ],
      "payable": false,
      "stateMutability": "view",
      "type": "function"
    },
    {
      "constant": true,
      "inputs": [
        {
          "internalType": "address",
          "name": "candidate",
          "type": "address"
        }
      ],
      "name": "periodFor",
      "outputs": [
        {
          "internalType": "uint256",
          "name": "",
          "type": "uint256"
        }
      ],
      "payable": false,
      "stateMutability": "view",
      "type": "function"
    },
    {
      "constant": false,
      "inputs": [
        {
          "internalType": "address",
          "name": "account",
          "type": "address"
        },
        {
          "internalType": "address",
          "name": "candidate",
          "type": "address"
        }
      ],
      "name": "placeLockE",
      "outputs": [],
      "payable": false,
      "stateMutability": "nonpayable",
      "type": "function"
    },
    {
      "constant": true,
      "inputs": [],
      "name": "pool",
      "outputs": [
        {
          "internalType": "address",
          "name": "",
          "type": "address"
        }
      ],
      "payable": false,
      "stateMutability": "view",
      "type": "function"
    },
    {
      "constant": false,
      "inputs": [
        {
          "internalType": "address",
          "name": "account",
          "type": "address"
        },
        {
          "internalType": "address",
          "name": "candidate",
          "type": "address"
        },
        {
          "internalType": "enum Candidate.Vote",
          "name": "vote",
          "type": "uint8"
        }
      ],
      "name": "recordVoteE",
      "outputs": [],
      "payable": false,
      "stateMutability": "nonpayable",
      "type": "function"
    },
    {
      "constant": true,
      "inputs": [
        {
          "internalType": "address",
          "name": "account",
          "type": "address"
        },
        {
          "internalType": "address",
          "name": "candidate",
          "type": "address"
        }
      ],
      "name": "recordedVote",
      "outputs": [
        {
          "internalType": "enum Candidate.Vote",
          "name": "",
          "type": "uint8"
        }
      ],
      "payable": false,
      "stateMutability": "view",
      "type": "function"
    },
    {
      "constant": false,
      "inputs": [
        {
          "internalType": "address",
          "name": "account",
          "type": "address"
        },
        {
          "internalType": "uint256",
          "name": "amount",
          "type": "uint256"
        }
      ],
      "name": "redeemToAccountE",
      "outputs": [],
      "payable": false,
      "stateMutability": "nonpayable",
      "type": "function"
    },
    {
      "constant": true,
      "inputs": [
        {
          "internalType": "address",
          "name": "candidate",
          "type": "address"
        }
      ],
      "name": "rejectFor",
      "outputs": [
        {
          "internalType": "uint256",
          "name": "",
          "type": "uint256"
        }
      ],
      "payable": false,
      "stateMutability": "view",
      "type": "function"
    },
    {
      "constant": false,
      "inputs": [
        {
          "internalType": "uint256",
          "name": "percent",
          "type": "uint256"
        }
      ],
      "name": "resetDebtE",
      "outputs": [],
      "payable": false,
      "stateMutability": "nonpayable",
      "type": "function"
    },
    {
      "constant": false,
      "inputs": [
        {
          "internalType": "uint256",
          "name": "timestamp",
          "type": "uint256"
        }
      ],
      "name": "setBlockTimestamp",
      "outputs": [],
      "payable": false,
      "stateMutability": "nonpayable",
      "type": "function"
    },
    {
      "constant": false,
      "inputs": [
        {
          "internalType": "uint256",
          "name": "start",
          "type": "uint256"
        },
        {
          "internalType": "uint256",
          "name": "period",
          "type": "uint256"
        }
      ],
      "name": "setEpochParamsE",
      "outputs": [],
      "payable": false,
      "stateMutability": "nonpayable",
      "type": "function"
    },
    {
      "constant": false,
      "inputs": [],
      "name": "snapshotTotalBondedE",
      "outputs": [],
      "payable": false,
      "stateMutability": "nonpayable",
      "type": "function"
    },
    {
      "constant": true,
      "inputs": [
        {
          "internalType": "address",
          "name": "candidate",
          "type": "address"
        }
      ],
      "name": "startFor",
      "outputs": [
        {
          "internalType": "uint256",
          "name": "",
          "type": "uint256"
        }
      ],
      "payable": false,
      "stateMutability": "view",
      "type": "function"
    },
    {
      "constant": true,
      "inputs": [
        {
          "internalType": "address",
          "name": "account",
          "type": "address"
        }
      ],
      "name": "statusOf",
      "outputs": [
        {
          "internalType": "enum Account.Status",
          "name": "",
          "type": "uint8"
        }
      ],
      "payable": false,
      "stateMutability": "view",
      "type": "function"
    },
    {
      "constant": true,
      "inputs": [],
      "name": "symbol",
      "outputs": [
        {
          "internalType": "string",
          "name": "",
          "type": "string"
        }
      ],
      "payable": false,
      "stateMutability": "view",
      "type": "function"
    },
    {
      "constant": true,
      "inputs": [],
      "name": "totalBonded",
      "outputs": [
        {
          "internalType": "uint256",
          "name": "",
          "type": "uint256"
        }
      ],
      "payable": false,
      "stateMutability": "view",
      "type": "function"
    },
    {
      "constant": true,
      "inputs": [
        {
          "internalType": "uint256",
          "name": "epoch",
          "type": "uint256"
        }
      ],
      "name": "totalBondedAt",
      "outputs": [
        {
          "internalType": "uint256",
          "name": "",
          "type": "uint256"
        }
      ],
      "payable": false,
      "stateMutability": "view",
      "type": "function"
    },
    {
      "constant": true,
      "inputs": [],
      "name": "totalCoupons",
      "outputs": [
        {
          "internalType": "uint256",
          "name": "",
          "type": "uint256"
        }
      ],
      "payable": false,
      "stateMutability": "view",
      "type": "function"
    },
    {
      "constant": true,
      "inputs": [],
      "name": "totalDebt",
      "outputs": [
        {
          "internalType": "uint256",
          "name": "",
          "type": "uint256"
        }
      ],
      "payable": false,
      "stateMutability": "view",
      "type": "function"
    },
    {
      "constant": true,
      "inputs": [],
      "name": "totalNet",
      "outputs": [
        {
          "internalType": "uint256",
          "name": "",
          "type": "uint256"
        }
      ],
      "payable": false,
      "stateMutability": "view",
      "type": "function"
    },
    {
      "constant": true,
      "inputs": [],
      "name": "totalRedeemable",
      "outputs": [
        {
          "internalType": "uint256",
          "name": "",
          "type": "uint256"
        }
      ],
      "payable": false,
      "stateMutability": "view",
      "type": "function"
    },
    {
      "constant": true,
      "inputs": [],
      "name": "totalStaged",
      "outputs": [
        {
          "internalType": "uint256",
          "name": "",
          "type": "uint256"
        }
      ],
      "payable": false,
      "stateMutability": "view",
      "type": "function"
    },
    {
      "constant": true,
      "inputs": [],
      "name": "totalSupply",
      "outputs": [
        {
          "internalType": "uint256",
          "name": "",
          "type": "uint256"
        }
      ],
      "payable": false,
      "stateMutability": "view",
      "type": "function"
    },
    {
      "constant": false,
      "inputs": [
        {
          "internalType": "address",
          "name": "recipient",
          "type": "address"
        },
        {
          "internalType": "uint256",
          "name": "amount",
          "type": "uint256"
        }
      ],
      "name": "transfer",
      "outputs": [
        {
          "internalType": "bool",
          "name": "",
          "type": "bool"
        }
      ],
      "payable": false,
      "stateMutability": "nonpayable",
      "type": "function"
    },
    {
      "constant": false,
      "inputs": [
        {
          "internalType": "address",
          "name": "sender",
          "type": "address"
        },
        {
          "internalType": "address",
          "name": "recipient",
          "type": "address"
        },
        {
          "internalType": "uint256",
          "name": "amount",
          "type": "uint256"
        }
      ],
      "name": "transferFrom",
      "outputs": [
        {
          "internalType": "bool",
          "name": "",
          "type": "bool"
        }
      ],
      "payable": false,
      "stateMutability": "nonpayable",
      "type": "function"
    },
    {
      "constant": false,
      "inputs": [
        {
          "internalType": "address",
          "name": "account",
          "type": "address"
        }
      ],
      "name": "unfreezeE",
      "outputs": [],
      "payable": false,
      "stateMutability": "nonpayable",
      "type": "function"
    },
    {
      "constant": false,
      "inputs": [
        {
          "internalType": "address",
          "name": "owner",
          "type": "address"
        },
        {
          "internalType": "address",
          "name": "spender",
          "type": "address"
        },
        {
          "internalType": "uint256",
          "name": "amount",
          "type": "uint256"
        }
      ],
      "name": "updateAllowanceCouponsE",
      "outputs": [],
      "payable": false,
      "stateMutability": "nonpayable",
      "type": "function"
    },
    {
      "constant": true,
      "inputs": [
        {
          "internalType": "address",
          "name": "candidate",
          "type": "address"
        }
      ],
      "name": "votesFor",
      "outputs": [
        {
          "internalType": "uint256",
          "name": "",
          "type": "uint256"
        }
      ],
      "payable": false,
      "stateMutability": "view",
      "type": "function"
    },
    {
      "constant": false,
      "inputs": [],
      "name": "stepE",
      "outputs": [],
      "payable": false,
      "stateMutability": "nonpayable",
      "type": "function"
    },
    {
      "constant": true,
      "inputs": [
        {
          "internalType": "uint256",
          "name": "epoch",
          "type": "uint256"
        }
      ],
      "name": "bootstrappingAt",
      "outputs": [
        {
          "internalType": "bool",
          "name": "",
          "type": "bool"
        }
      ],
      "payable": false,
      "stateMutability": "view",
      "type": "function"
    }
  ],
  "bytecode": "0x60806040523480156200001157600080fd5b5060405162005049380380620050498339810160408190526200003491620000cd565b42600f5560405181906200004890620000ac565b604051809103906000f08015801562000065573d6000803e3d6000fd5b50600980546001600160a01b03199081166001600160a01b0393841617909155600b8054821693831693909317909255600a80549092169316929092179091555062000138565b611bf9806200345083390190565b8051620000c7816200011e565b92915050565b60008060408385031215620000e157600080fd5b6000620000ef8585620000ba565b92505060206200010285828601620000ba565b9150509250929050565b60006001600160a01b038216620000c7565b62000129816200010c565b81146200013557600080fd5b50565b61330880620001486000396000f3fe608060405234801561001057600080fd5b50600436106104805760003560e01c80638413e52a11610257578063b16144a311610146578063d60b347f116100c3578063f1b7cf4911610087578063f1b7cf49146109a9578063f35adf7e146109bc578063f7a31818146109c4578063fc7b9c18146109d7578063ffbe3b73146109df57610480565b8063d60b347f1461094f578063d6d8816d14610962578063d83d3ed514610975578063dd62ed3e14610988578063e0abdf661461099657610480565b8063c2aeb5fe1161010a578063c2aeb5fe146108fb578063c45a3e0a1461090e578063c9aff70c14610921578063cc8d823c14610934578063cf0237791461094757610480565b8063b16144a3146108a7578063b32a2f90146108ba578063bc7513e2146108cd578063c0ec4ac5146108e0578063c1410c02146108e857610480565b80639f6e1b26116101d4578063a9059cbb11610198578063a9059cbb146104a3578063a9b3cf151461085b578063adbff2be1461086e578063ae5c238114610881578063b11ee0e31461089457610480565b80639f6e1b2614610807578063a00e14d11461081a578063a50cd8e71461082d578063a6c409f114610840578063a6f37b531461084857610480565b806397a5d5b51161021b57806397a5d5b5146107b35780639a649edc146107c65780639b82b49b146107ce5780639bc289f1146107e15780639be46493146107f457610480565b80638413e52a1461076a57806386cf9f141461077d5780638de2e57314610790578063900cf0cf146107a357806395d89b41146107ab57610480565b80633fd4973c1161037357806364668022116102f057806372924d2a116102b457806372924d2a1461070957806375d5024b1461071c5780637cb95a321461072f5780637dc0d1d014610742578063825ad6071461075757610480565b806364668022146106b55780636a39e328146106c85780636b862d66146106db57806370a08231146106ee57806371c511eb1461070157610480565b80635053e461116103375780635053e4611461066c57806351bf21d8146106745780635c60da1b146106875780635dbf800a1461068f5780635f14fec8146106a257610480565b80633fd4973c14610623578063416a23cc14610636578063438735261461063e57806344d96e95146106515780634c7360991461065957610480565b806320f6bc901161040157806332347422116103c557806332347422146105b7578063353a420c146105ca5780633a3e6c81146105dd5780633f7bcaf3146105f05780633fbba9a61461060357610480565b806320f6bc901461055657806323b872dd14610569578063259f7adf1461057c578063277805a91461058f578063313ce567146105a257610480565b806316f0115b1161044857806316f0115b1461050b57806318160ddd146105205780631a08e22a146105285780631edbcf6c1461053b5780631fac97321461054357610480565b806306fdde0314610485578063095ea7b3146104a35780630dc6d3a3146104c357806310e95b6c146104d857806315e14bf6146104f8575b600080fd5b61048d6109f2565b60405161049a91906130ed565b60405180910390f35b6104b66104b1366004612cf2565b610a1e565b60405161049a91906130c3565b6104d66104d1366004612c74565b610a27565b005b6104eb6104e6366004612e3f565b610a70565b60405161049a919061311e565b6104eb610506366004612b8c565b610a88565b610513610aa6565b60405161049a9190613072565b6104eb610ab5565b6104d6610536366004612ed1565b610abb565b6104eb610ac9565b6104d6610551366004612e3f565b610acf565b6104d6610564366004612cf2565b610adb565b6104b6610577366004612c31565b610ae5565b6104d661058a366004612e3f565b610aef565b6104d661059d366004612cf2565b610af8565b6105aa610b84565b60405161049a919061316f565b6104d66105c5366004612e7b565b610b89565b6104eb6105d8366004612b8c565b610bc9565b6104b66105eb366004612b8c565b610be7565b6104d66105fe366004612c31565b610c04565b610616610611366004612baa565b610c0f565b60405161049a91906130df565b6104d6610631366004612d22565b610c42565b6104d6610c89565b6104d661064c366004612e3f565b610c93565b6104eb610c9c565b6104eb610667366004612ed1565b610ca2565b6104eb610cd2565b6104eb610682366004612b8c565b610cf5565b610513610d13565b6104d661069d366004612e3f565b610d38565b6104d66106b0366004612cf2565b610d41565b6104eb6106c3366004612b8c565b610d4b565b6104eb6106d6366004612e3f565b610d69565b6104d66106e9366004612d8a565b610d7e565b6104eb6106fc366004612b8c565b610d89565b6104d6610da7565b6104d6610717366004612e7b565b610daf565b6104b661072a366004612e3f565b610def565b6104d661073d366004612d22565b610df6565b61074a610e37565b60405161049a91906130d1565b6104eb610765366004612b8c565b610e46565b6104d6610778366004612be4565b610e92565b6104eb61078b366004612b8c565b610e9d565b6104d661079e366004612e3f565b610eb8565b6104eb610ec1565b61048d610ec7565b6106166107c1366004612b8c565b610ee6565b6104eb610f4b565b6104d66107dc366004612e7b565b610f51565b6104eb6107ef366004612b8c565b610f91565b6104d6610802366004612b8c565b610faf565b6104eb610815366004612baa565b610fba565b6104d6610828366004612ed1565b610fe9565b6104eb61083b366004612b8c565b610ff4565b6104eb611017565b6104d6610856366004612b8c565b6110ad565b6104d6610869366004612e3f565b6110b6565b6104d661087c366004612d22565b6110bf565b6104d661088f366004612cf2565b611100565b6104d66108a2366004612cf2565b61110a565b6104d66108b5366004612e3f565b611114565b6104d66108c8366004612d22565b611127565b6104eb6108db366004612cf2565b611168565b61074a6111ac565b6104d66108f6366004612baa565b6111bb565b6104d6610909366004612dbc565b6111c5565b6104d661091c366004612cf2565b611207565b6104eb61092f366004612e3f565b611211565b6104d6610942366004612cf2565b611226565b6104eb611230565b6104b661095d366004612b8c565b611236565b6104d6610970366004612e3f565b611257565b6104d6610983366004612cf2565b611260565b6104eb6104b1366004612baa565b6104d66109a4366004612e3f565b61126a565b6104eb6109b7366004612b8c565b61126f565b6104d661128a565b6104d66109d2366004612cf2565b611292565b6104eb61129c565b6104eb6109ed366004612e3f565b6112a2565b6040805180820190915260118152704574686963204d6f6e6579205374616b6560781b60208201525b90565b60005b92915050565b610a6985858585858080601f0160208091040260200160405190810160405280939291908181526020018383808284376000920191909152506112b492505050565b5050505050565b6000818152600d60205260409020600201545b919050565b6001600160a01b03166000908152600e602052604090206001015490565b600b546001600160a01b031690565b60035490565b610ac58282611325565b5050565b60065490565b610ad881611357565b50565b610ac5828261139e565b60005b9392505050565b610ad881611448565b610b006111ac565b6001600160a01b03166340c10f1983836040518363ffffffff1660e01b8152600401610b2d9291906130a8565b602060405180830381600087803b158015610b4757600080fd5b505af1158015610b5b573d6000803e3d6000fd5b505050506040513d601f19601f82011682018060405250610b7f9190810190612df1565b505050565b601290565b610b7f8383838080601f01602080910402602001604051908101604052809392919081815260200183838082843760009201919091525061146192505050565b6001600160a01b03166000908152600e602052604090206003015490565b6001600160a01b03166000908152600e6020526040902054151590565b610b7f83838361147c565b6001600160a01b038082166000908152600e60209081526040808320938616835260049093019052205460ff1692915050565b610c83848484848080601f0160208091040260200160405190810160405280939291908181526020018383808284376000920191909152506114ac92505050565b50505050565b610c916114fd565b565b610ac581611595565b60045490565b6000828152600d60205260408120600301805483908110610cbf57fe5b9060005260206000200154905092915050565b6000610cdc612aa5565b610ce46115dc565b9050610cef8161160b565b91505090565b6001600160a01b03166000908152600c602052604090206004015490565b7f360894a13ba1a3210667c828492db98dca3e2076cc3735a920a3ca505d382bbc5490565b610ad88161162d565b610ac582826116b4565b6001600160a01b03166000908152600e602052604090206002015490565b6000908152600d602052604090206003015490565b610b7f8383836117c5565b6001600160a01b03166000908152600c602052604090206001015490565b610c9161186c565b610b7f8383838080601f01602080910402602001604051908101604052809392919081815260200183838082843760009201919091525061189392505050565b6005101590565b610c83848484848080601f0160208091040260200160405190810160405280939291908181526020018383808284376000920191909152506118ae92505050565b600a546001600160a01b031690565b600080610e51610ab5565b905080610e62576000915050610a83565b610ae881610e86610e7286610d89565b610e7a610c9c565b9063ffffffff6118ff16565b9063ffffffff61194216565b610b7f838383611984565b6001600160a01b03166000908152600c602052604090205490565b610ad8816119ce565b60025490565b604080518082019091526005815264455448435360d81b602082015290565b6000610ef0610ec1565b6001600160a01b0383166000908152600c60205260409020600501541115610f1a57506002610a83565b6001600160a01b0382166000908152600c6020526040902060040154610f3e610ec1565b1015610a1e576001610a21565b60085490565b610b7f8383838080601f0160208091040260200160405190810160405280939291908181526020018383808284376000920191909152506119e792505050565b6001600160a01b03166000908152600c602052604090206005015490565b610ad8816078611a02565b6001600160a01b039182166000908152600c602090815260408083209390941682526003909201909152205490565b600091909155600155565b6000610a2161100283610bc9565b61100b84610d4b565b9063ffffffff611a3116565b60006110a861102461129c565b61102c6111ac565b6001600160a01b03166318160ddd6040518163ffffffff1660e01b815260040160206040518083038186803b15801561106457600080fd5b505afa158015611078573d6000803e3d6000fd5b505050506040513d601f19601f8201168201806040525061109c9190810190612e5d565b9063ffffffff611a5616565b905090565b610ad881611a98565b610ad881611abf565b610c83848484848080601f016020809104026020016040519081016040528093929190818152602001838380828437600092019190915250611b0292505050565b610ac58282611bad565b610ac58282611c55565b610ac5611122826064611cb1565b611ce0565b610c83848484848080601f016020809104026020016040519081016040528093929190818152602001838380828437600092019190915250611dba92505050565b600061117382611211565b61117f57506000610a21565b506001600160a01b03919091166000908152600c6020908152604080832093835260029093019052205490565b6009546001600160a01b031690565b610ac58282611e19565b610a6985858585858080601f016020809104026020016040519081016040528093929190818152602001838380828437600092019190915250611e7992505050565b610ac58282611f24565b6000908152600d602052604090206001015490565b610ac58282611fce565b60055490565b6001600160a01b03166000908152600e602052604090206005015460ff1690565b610ad88161201d565b610ac58282612036565b600f55565b6001600160a01b03166000908152600e602052604090205490565b610c91612062565b610ac5828261207b565b60075490565b6000908152600d602052604090205490565b6001600160a01b038085166000908152600c6020908152604080832093871683526003909301905220546112ef90838363ffffffff6120ca16565b6001600160a01b039485166000908152600c60209081526040808320969097168252600390950190945293909220929092555050565b6000828152600d6020908152604080832060020184905592825291812060030180546001810182559082529190200155565b611396816040518060400160405280601c81526020017f436f6d7074726f6c6c65723a206e6f7420656e6f756768206465627400000000815250611893565b610ad86120f6565b6113a66111ac565b6001600160a01b03166340c10f1983836040518363ffffffff1660e01b81526004016113d39291906130a8565b602060405180830381600087803b1580156113ed57600080fd5b505af1158015611401573d6000803e3d6000fd5b505050506040513d601f19601f820116820180604052506114259190810190612df1565b5061143161072a610ec1565b6114405761143e81611595565b505b610ac56120f6565b60045461145b908263ffffffff611a3116565b60045550565b60065461147590838363ffffffff6120ca16565b6006555050565b6001600160a01b039283166000908152600c60209081526040808320949095168252600390930190925291902055565b6001600160a01b0383166000908152600e60205260409020600301546114d990838363ffffffff6120ca16565b6001600160a01b039093166000908152600e60205260409020600301929092555050565b611505612ac6565b61150d6121c9565b905061152761151a6122b8565b829063ffffffff6122da16565b1561153b57611535816122f0565b50610c91565b6115536115466122b8565b829063ffffffff6123a716565b1561156157611535816123bb565b611569610ec1565b6040517fff7db5a0dc69b02c191ba632db46961b7d0daa1bd30709ddba9b80ad0a15d2c090600090a250565b60006115a0826119ce565b60006115ad61112261244d565b90506115b76120f6565b8281116115d3576115ce838263ffffffff611a5616565b610ae8565b50600092915050565b6115e4612aa5565b6040518060600160405280606a8152602001635ffb1dce8152602001610e10815250905090565b6000610a21826000015161100b8460400151610e86866020015161109c61246f565b6116356111ac565b6001600160a01b03166342966c68826040518263ffffffff1660e01b8152600401611660919061311e565b600060405180830381600087803b15801561167a57600080fd5b505af115801561168e573d6000803e3d6000fd5b50505050611396816040518060600160405280602a815260200161329c602a9139611461565b6116bc6111ac565b6001600160a01b03166323b872dd8330846040518463ffffffff1660e01b81526004016116eb93929190613080565b602060405180830381600087803b15801561170557600080fd5b505af1158015611719573d6000803e3d6000fd5b505050506040513d601f19601f8201168201806040525061173d9190810190612df1565b506117466111ac565b6001600160a01b03166342966c68826040518263ffffffff1660e01b8152600401611771919061311e565b600060405180830381600087803b15801561178b57600080fd5b505af115801561179f573d6000803e3d6000fd5b505050506114408160405180606001604052806028815260200161327460289139611893565b6001600160a01b0383166000908152600c602090815260408083208584526002019091529020546117fc908263ffffffff611a3116565b6001600160a01b0384166000908152600c60209081526040808320868452600201825280832093909355600d9052206001015461183f908263ffffffff611a3116565b6000838152600d6020526040902060010155600854611864908263ffffffff611a3116565b600855505050565b611874610ab5565b600d6000611880610ec1565b8152602081019190915260400160002055565b6007546118a790838363ffffffff6120ca16565b6007555050565b6001600160a01b0383166000908152600e60205260409020600201546118db90838363ffffffff6120ca16565b6001600160a01b039093166000908152600e60205260409020600201929092555050565b60008261190e57506000610a21565b8282028284828161191b57fe5b0414610ae85760405162461bcd60e51b81526004016119399061310e565b60405180910390fd5b6000610ae883836040518060400160405280601a81526020017f536166654d6174683a206469766973696f6e206279207a65726f000000000000815250612475565b6001600160a01b038083166000908152600e6020908152604080832093871683526004909301905220805482919060ff191660018360028111156119c457fe5b0217905550505050565b6007546119e1908263ffffffff611a3116565b60075550565b6004546119fb90838363ffffffff6120ca16565b6004555050565b611a0e8161100b610ec1565b6001600160a01b039092166000908152600c602052604090206004019190915550565b600082820183811015610ae85760405162461bcd60e51b8152600401611939906130fe565b6000610ae883836040518060400160405280601e81526020017f536166654d6174683a207375627472616374696f6e206f766572666c6f7700008152506120ca565b6001600160a01b03166000908152600e60205260409020600501805460ff19166001179055565b6000611aca82611211565b905080611ad75750610ad8565b600854611aea908263ffffffff611a5616565b600855506000908152600d6020526040812060010155565b6001600160a01b0383166000908152600c6020526040902060010154611b2f90838363ffffffff6120ca16565b6001600160a01b0384166000908152600c6020526040902060010155600354611b5f90838363ffffffff6120ca16565b6003556040516000906001600160a01b038516907fddf252ad1be2c89b69c2b068fc378daa952ba7f163c4a11628f55a4df523b3ef90611ba090869061311e565b60405180910390a3505050565b6001600160a01b0382166000908152600c6020526040902060010154611bd9908263ffffffff611a3116565b6001600160a01b0383166000908152600c6020526040902060010155600354611c08908263ffffffff611a3116565b6003556040516001600160a01b038316906000907fddf252ad1be2c89b69c2b068fc378daa952ba7f163c4a11628f55a4df523b3ef90611c4990859061311e565b60405180910390a35050565b6001600160a01b0382166000908152600c6020526040902054611c7e908263ffffffff611a3116565b6001600160a01b0383166000908152600c6020526040902055600554611caa908263ffffffff611a3116565b6005555050565b611cb9612ac6565b6040518060200160405280611cd785670de0b6b3a7640000866124ac565b90529392505050565b600080611d73611d6e611cf16111ac565b6001600160a01b03166318160ddd6040518163ffffffff1660e01b815260040160206040518083038186803b158015611d2957600080fd5b505afa158015611d3d573d6000803e3d6000fd5b505050506040513d601f19601f82011682018060405250611d619190810190612e5d565b859063ffffffff6124ca16565b6124f1565b90506000611d7f61129c565b905081811115611db0576000611d9b828463ffffffff611a5616565b9050611da681611357565b9250610a83915050565b5060009392505050565b6001600160a01b0383166000908152600c6020526040902054611de490838363ffffffff6120ca16565b6001600160a01b0384166000908152600c6020526040902055600554611e1190838363ffffffff6120ca16565b600555505050565b6001600160a01b0382166000908152600c602052604081206005015490611e4b611e4284610a88565b61100b8561126f565b905081811115610c83576001600160a01b0384166000908152600c6020526040902060050181905550505050565b6001600160a01b0384166000908152600c60209081526040808320868452600201909152902054611eb190838363ffffffff6120ca16565b6001600160a01b0385166000908152600c60209081526040808320878452600201825280832093909355600d90522060010154611ef590838363ffffffff6120ca16565b6000848152600d6020526040902060010155600854611f1b90838363ffffffff6120ca16565b60085550505050565b611f2c6111ac565b6001600160a01b031663a9059cbb83836040518363ffffffff1660e01b8152600401611f599291906130a8565b602060405180830381600087803b158015611f7357600080fd5b505af1158015611f87573d6000803e3d6000fd5b505050506040513d601f19601f82011682018060405250611fab9190810190612df1565b50611440816040518060600160405280602a815260200161329c602a9139611461565b6001600160a01b0382166000908152600e6020526040902060030154611ffa908263ffffffff611a3116565b6001600160a01b039092166000908152600e602052604090206003019190915550565b600654612030908263ffffffff611a3116565b60065550565b61203e610ec1565b6001600160a01b039092166000908152600e60205260409020918255600190910155565b60025461207690600163ffffffff611a3116565b600255565b6001600160a01b0382166000908152600e60205260409020600201546120a7908263ffffffff611a3116565b6001600160a01b039092166000908152600e602052604090206002019190915550565b600081848411156120ee5760405162461bcd60e51b815260040161193991906130ed565b505050900390565b610c91612117612104610ac9565b61100b61210f611230565b61100b610c9c565b61211f6111ac565b6001600160a01b03166370a08231306040518263ffffffff1660e01b815260040161214a9190613072565b60206040518083038186803b15801561216257600080fd5b505afa158015612176573d6000803e3d6000fd5b505050506040513d601f19601f8201168201806040525061219a9190810190612e5d565b10156a21b7b6b83a3937b63632b960a91b74496e636f6e73697374656e742062616c616e63657360581b61250e565b6121d1612ac6565b6121d9612ac6565b60006121e3610e37565b6001600160a01b031663d4a3e9d76040518163ffffffff1660e01b81526004016040805180830381600087803b15801561221c57600080fd5b505af1158015612230573d6000803e3d6000fd5b505050506040513d601f19601f820116820180604052506122549190810190612e0f565b9150915061226861072a600161109c610ec1565b1561227e57612275612563565b92505050610a1b565b8061228b576122756122b8565b6122b160046122a58464e8d4a5100063ffffffff61258516565b9063ffffffff6124ca16565b9250505090565b6122c0612ac6565b506040805160208101909152670de0b6b3a7640000815290565b60006122e683836125ac565b6002149392505050565b60006122fd6111226125de565b9050612307612ac6565b6123286123226123156122b8565b859063ffffffff6125f916565b84612622565b90506000612347611d6e61233a611017565b849063ffffffff6124ca16565b9050600080612355836126ad565b91509150612361610ec1565b86516040517f32fcaa1e76ed9517f4749d8ec9a77dd5e7329456d740b9bf9665d900eef5e283916123979186908a90879061313a565b60405180910390a2505050505050565b60006123b383836125ac565b159392505050565b6123c3612ac6565b6123e46123de836123d26122b8565b9063ffffffff6125f916565b83612622565b905060006123f6611d6e61233a611017565b9050600061240382611595565b905061240d610ec1565b84516040517f5e139d4b8080a4a00dcc151e8217694aeebae893936326aa22096924a99066779161243f91859061312c565b60405180910390a250505050565b612455612ac6565b5060408051602081019091526702c68af0bb140000815290565b600f5490565b600081836124965760405162461bcd60e51b815260040161193991906130ed565b5060008385816124a257fe5b0495945050505050565b60006124c282610e86868663ffffffff6118ff16565b949350505050565b6124d2612ac6565b604080516020810190915283518190611cd7908563ffffffff6118ff16565b8051600090610a2190670de0b6b3a764000063ffffffff61194216565b82610b7f5761251c826127e1565b6101d160f51b61252b836127e1565b60405160200161253d93929190613041565b60408051601f198184030181529082905262461bcd60e51b8252611939916004016130ed565b61256b612ac6565b506040805160208101909152670f43fc2c04ee0000815290565b61258d612ac6565b604080516020810190915283518190611cd7908563ffffffff61194216565b8051825160009114156125c157506001610a21565b81518351116125d15760006125d4565b60025b60ff169392505050565b6125e6612ac6565b5060408051602081019091526000815290565b612601612ac6565b6040805160208101909152825184518291611cd7919063ffffffff611a5616565b61262a612ac6565b612632612ac6565b61263a612861565b90506000612646610ac9565b90506000612652610f4b565b905061266c61265f6122b8565b869063ffffffff6122da16565b801561267757508082105b1561268757612684612882565b92505b612697868463ffffffff6122da16565b6126a157856126a3565b825b9695505050505050565b60008060006126cf6064610e866126c26128a3565b879063ffffffff6118ff16565b90506126da816128a8565b60006126fa612710610e866126ed61293c565b889063ffffffff6118ff16565b905061270581612941565b6000612717838363ffffffff611a3116565b9050808611612727576000612737565b612737868263ffffffff611a5616565b9550600080612744610ac9565b90506000612750610f4b565b9050808210156127995761276a818363ffffffff611a5616565b9250888311612779578261277b565b885b925061278683612965565b612796898463ffffffff611a5616565b98505b6127a1610c9c565b6127aa57600098505b88156127b9576127b9896129f6565b6127c16120f6565b826127d28a8663ffffffff611a3116565b97509750505050505050915091565b606080826040516020016127f5919061302c565b60408051601f19818403018152919052905060205b801561284a5781516000199091019082908290811061282557fe5b01602001516001600160f81b031916156128455760010181529050610a83565b61280a565b505060408051600081526020810190915292915050565b612869612ac6565b506040805160208101909152660aa87bee538000815290565b61288a612ac6565b50604080516020810190915266d529ae9e860000815290565b601490565b8015610ad8576128b66111ac565b6001600160a01b03166340c10f196128cc610aa6565b836040518363ffffffff1660e01b81526004016128ea9291906130a8565b602060405180830381600087803b15801561290457600080fd5b505af1158015612918573d6000803e3d6000fd5b505050506040513d601f19601f82011682018060405250610ac59190810190612df1565b60fa90565b8015610ad85761294f6111ac565b6001600160a01b03166340c10f196128cc612a8d565b61296d6111ac565b6001600160a01b03166340c10f1930836040518363ffffffff1660e01b815260040161299a9291906130a8565b602060405180830381600087803b1580156129b457600080fd5b505af11580156129c8573d6000803e3d6000fd5b505050506040513d601f19601f820116820180604052506129ec9190810190612df1565b506113968161201d565b8015610ad857612a046111ac565b6001600160a01b03166340c10f1930836040518363ffffffff1660e01b8152600401612a319291906130a8565b602060405180830381600087803b158015612a4b57600080fd5b505af1158015612a5f573d6000803e3d6000fd5b505050506040513d601f19601f82011682018060405250612a839190810190612df1565b50610ad881611448565b7388b6b8518d80ecf62c39d5a3aafaccc4705941a790565b60405180606001604052806000815260200160008152602001600081525090565b6040518060200160405280600081525090565b8035610a2181613240565b8051610a2181613254565b8035610a218161325d565b60008083601f840112612b0c57600080fd5b50813567ffffffffffffffff811115612b2457600080fd5b602083019150836001820283011115612b3c57600080fd5b9250929050565b600060208284031215612b5557600080fd5b612b5f602061317d565b90506000612b6d8484612b81565b82525092915050565b8035610a218161326a565b8051610a218161326a565b600060208284031215612b9e57600080fd5b60006124c28484612ad9565b60008060408385031215612bbd57600080fd5b6000612bc98585612ad9565b9250506020612bda85828601612ad9565b9150509250929050565b600080600060608486031215612bf957600080fd5b6000612c058686612ad9565b9350506020612c1686828701612ad9565b9250506040612c2786828701612aef565b9150509250925092565b600080600060608486031215612c4657600080fd5b6000612c528686612ad9565b9350506020612c6386828701612ad9565b9250506040612c2786828701612b76565b600080600080600060808688031215612c8c57600080fd5b6000612c988888612ad9565b9550506020612ca988828901612ad9565b9450506040612cba88828901612b76565b935050606086013567ffffffffffffffff811115612cd757600080fd5b612ce388828901612afa565b92509250509295509295909350565b60008060408385031215612d0557600080fd5b6000612d118585612ad9565b9250506020612bda85828601612b76565b60008060008060608587031215612d3857600080fd5b6000612d448787612ad9565b9450506020612d5587828801612b76565b935050604085013567ffffffffffffffff811115612d7257600080fd5b612d7e87828801612afa565b95989497509550505050565b600080600060608486031215612d9f57600080fd5b6000612dab8686612ad9565b9350506020612c6386828701612b76565b600080600080600060808688031215612dd457600080fd5b6000612de08888612ad9565b9550506020612ca988828901612b76565b600060208284031215612e0357600080fd5b60006124c28484612ae4565b60008060408385031215612e2257600080fd5b6000612e2e8585612b43565b9250506020612bda85828601612ae4565b600060208284031215612e5157600080fd5b60006124c28484612b76565b600060208284031215612e6f57600080fd5b60006124c28484612b81565b600080600060408486031215612e9057600080fd5b6000612e9c8686612b76565b935050602084013567ffffffffffffffff811115612eb957600080fd5b612ec586828701612afa565b92509250509250925092565b60008060408385031215612ee457600080fd5b6000612d118585612b76565b612ef9816131b1565b82525050565b612ef9816131bc565b612ef9612f14826131c1565b610a1b565b612ef9612f1482610a1b565b6000612f30826131a4565b612f3a8185610a83565b9350612f4a818560208601613200565b9290920192915050565b612ef9816131ea565b612ef9816131f5565b6000612f71826131a4565b612f7b81856131a8565b9350612f8b818560208601613200565b612f948161322c565b9093019392505050565b6000612fab601b836131a8565b7f536166654d6174683a206164646974696f6e206f766572666c6f770000000000815260200192915050565b6000612fe46021836131a8565b7f536166654d6174683a206d756c7469706c69636174696f6e206f766572666c6f8152607760f81b602082015260400192915050565b612ef981610a1b565b612ef9816131e4565b60006130388284612f19565b50602001919050565b600061304d8286612f25565b91506130598285612f08565b6002820191506130698284612f25565b95945050505050565b60208101610a218284612ef0565b6060810161308e8286612ef0565b61309b6020830185612ef0565b6124c2604083018461301a565b604081016130b68285612ef0565b610ae8602083018461301a565b60208101610a218284612eff565b60208101610a218284612f54565b60208101610a218284612f5d565b60208082528101610ae88184612f66565b60208082528101610a2181612f9e565b60208082528101610a2181612fd7565b60208101610a21828461301a565b604081016130b6828561301a565b60808101613148828761301a565b613155602083018661301a565b613162604083018561301a565b613069606083018461301a565b60208101610a218284613023565b60405181810167ffffffffffffffff8111828210171561319c57600080fd5b604052919050565b5190565b90815260200190565b6000610a21826131d8565b151590565b6001600160f01b03191690565b80610a8381613236565b6001600160a01b031690565b60ff1690565b6000610a21826131b1565b6000610a21826131ce565b60005b8381101561321b578181015183820152602001613203565b83811115610c835750506000910152565b601f01601f191690565b60038110610ad857fe5b613249816131b1565b8114610ad857600080fd5b613249816131bc565b60038110610ad857600080fd5b61324981610a1b56fe436f6d7074726f6c6c65723a206e6f7420656e6f756768206f75747374616e64696e672064656274436f6d7074726f6c6c65723a206e6f7420656e6f7567682072656465656d61626c652062616c616e6365a365627a7a72315820e074e5ed6697980298e8821c5759e1b659647c2cea4ef67b42260990cae2e36e6c6578706572696d656e74616cf564736f6c6343000511004060806040523480156200001157600080fd5b5060405180604001604052806005815260200164457468696360d81b815250604051806040016040528060048152602001634554484360e01b815250601262000072620000636200010d60201b60201c565b6001600160e01b036200011216565b82516200008790600190602086019062000307565b5081516200009d90600290602085019062000307565b506003805460ff191660ff9290921691909117905550620001049050620000c362000164565b604051806040016040528060018152602001603160f81b815250620000f2620001fd60201b620016341760201c565b306200020260201b620016391760201c565b6007556200045d565b335b90565b6200012d8160006200025960201b62000d7e1790919060201c565b6040516001600160a01b038216907f6ae172837ea30b801fbfcdd4108aa1d5bf8ff775444fd70256b44e6bf3dfc3f690600090a250565b60018054604080516020601f60026000196101008789161502019095169490940493840181900481028201810190925282815260609390929091830182828015620001f35780601f10620001c757610100808354040283529160200191620001f3565b820191906000526020600020905b815481529060010190602001808311620001d557829003601f168201915b5050505050905090565b602a90565b8351602094850120835193850193909320604080517f8b73c3c69bb8fe3d512ecc4cf759cc79239f7b179b0ffacaa9a75d522b39400f815295860194909452928401929092526060830152608082015260a0902090565b6200026e82826001600160e01b03620002bc16565b15620002975760405162461bcd60e51b81526004016200028e906200042a565b60405180910390fd5b6001600160a01b0316600090815260209190915260409020805460ff19166001179055565b60006001600160a01b038216620002e75760405162461bcd60e51b81526004016200028e9062000442565b506001600160a01b03166000908152602091909152604090205460ff1690565b828054600181600116156101000203166002900490600052602060002090601f016020900481019282601f106200034a57805160ff19168380011785556200037a565b828001600101855582156200037a579182015b828111156200037a5782518255916020019190600101906200035d565b50620003889291506200038c565b5090565b6200010f91905b8082111562000388576000815560010162000393565b6000620003b8601f8362000454565b7f526f6c65733a206163636f756e7420616c72656164792068617320726f6c6500815260200192915050565b6000620003f360228362000454565b7f526f6c65733a206163636f756e7420697320746865207a65726f206164647265815261737360f01b602082015260400192915050565b602080825281016200043c81620003a9565b92915050565b602080825281016200043c81620003e4565b90815260200190565b61178c806200046d6000396000f3fe608060405234801561001057600080fd5b506004361061012c5760003560e01c806395d89b41116100ad578063aa271e1a11610071578063aa271e1a14610256578063d505accf14610269578063dab400f31461027c578063dd62ed3e14610284578063e879c19f146102975761012c565b806395d89b411461020d578063983b2d56146102155780639865027514610228578063a457c2d714610230578063a9059cbb146102435761012c565b806339509351116100f457806339509351146101ac57806340c10f19146101bf57806342966c68146101d257806370a08231146101e757806379cc6790146101fa5761012c565b806306fdde0314610131578063095ea7b31461014f57806318160ddd1461016f57806323b872dd14610184578063313ce56714610197575b600080fd5b61013961029f565b60405161014691906114c6565b60405180910390f35b61016261015d366004610ffc565b610334565b604051610146919061141b565b610177610352565b6040516101469190611429565b610162610192366004610f13565b610358565b61019f6103ca565b6040516101469190611587565b6101626101ba366004610ffc565b6103d3565b6101626101cd366004610ffc565b610427565b6101e56101e036600461102c565b610463565b005b6101776101f5366004610eb3565b610477565b6101e5610208366004610ffc565b610496565b6101396104a4565b6101e5610223366004610eb3565b610502565b6101e5610532565b61016261023e366004610ffc565b610544565b610162610251366004610ffc565b6105b2565b610162610264366004610eb3565b6105c6565b6101e5610277366004610f60565b6105d8565b61017761075f565b610177610292366004610ed9565b610765565b610177610790565b60018054604080516020601f6002600019610100878916150201909516949094049384018190048102820181019092528281526060939092909183018282801561032a5780601f106102ff5761010080835404028352916020019161032a565b820191906000526020600020905b81548152906001019060200180831161030d57829003601f168201915b5050505050905090565b60006103486103416107b4565b84846107b8565b5060015b92915050565b60065490565b600061036584848461086c565b600019610374856102926107b4565b146103c0576103c0846103856107b4565b6103bb856040518060600160405280602881526020016116fd602891396103ae8a6102926107b4565b919063ffffffff61098216565b6107b8565b5060019392505050565b60035460ff1690565b60006103486103e06107b4565b846103bb85600560006103f16107b4565b6001600160a01b03908116825260208083019390935260409182016000908120918c16815292529020549063ffffffff6109ae16565b60006104346102646107b4565b6104595760405162461bcd60e51b815260040161045090611517565b60405180910390fd5b61034883836109da565b61047461046e6107b4565b82610a9a565b50565b6001600160a01b0381166000908152600460205260409020545b919050565b6104a08282610b70565b5050565b60028054604080516020601f600019610100600187161502019094168590049384018190048102820181019092528281526060939092909183018282801561032a5780601f106102ff5761010080835404028352916020019161032a565b61050d6102646107b4565b6105295760405162461bcd60e51b815260040161045090611517565b61047481610beb565b61054261053d6107b4565b610c33565b565b60006103486105516107b4565b846103bb85604051806060016040528060258152602001611725602591396005600061057b6107b4565b6001600160a01b03908116825260208083019390935260409182016000908120918d1681529252902054919063ffffffff61098216565b60006103486105bf6107b4565b848461086c565b600061034c818363ffffffff610c7b16565b6007546001600160a01b03881660009081526008602090815260408083208054600181019091559051929361065a93909261063f927f6e71edae12b1b97f4d1f60370fef10105fa2faae0126114a169c64845d6126c9928e928e928e9290918e9101611437565b60405160208183030381529060405280519060200120610cc3565b90506000600182868686604051600081526020016040526040516106819493929190611491565b6020604051602081039080840390855afa1580156106a3573d6000803e3d6000fd5b5050506020604051035190506106f0896001600160a01b0316826001600160a01b0316146a5065726d69747461626c6560a81b70496e76616c6964207369676e617475726560781b610ce2565b6107236001600160a01b03821615156a5065726d69747461626c6560a81b6b5a65726f206164647265737360a01b610ce2565b610749864211156a5065726d69747461626c6560a81b66115e1c1a5c995960ca1b610ce2565b6107548989896107b8565b505050505050505050565b60075481565b6001600160a01b03918216600090815260056020908152604080832093909416825291909152205490565b7f6e71edae12b1b97f4d1f60370fef10105fa2faae0126114a169c64845d6126c981565b3390565b6001600160a01b0383166107de5760405162461bcd60e51b815260040161045090611567565b6001600160a01b0382166108045760405162461bcd60e51b8152600401610450906114f7565b6001600160a01b0380841660008181526005602090815260408083209487168084529490915290819020849055517f8c5be1e5ebec7d5bd14f71427d1e84f3dd0314c0f7b2291e5b200ac8c7c3b9259061085f908590611429565b60405180910390a3505050565b6001600160a01b0383166108925760405162461bcd60e51b815260040161045090611557565b6001600160a01b0382166108b85760405162461bcd60e51b8152600401610450906114d7565b6108fb816040518060600160405280602681526020016116b3602691396001600160a01b038616600090815260046020526040902054919063ffffffff61098216565b6001600160a01b038085166000908152600460205260408082209390935590841681522054610930908263ffffffff6109ae16565b6001600160a01b0380841660008181526004602052604090819020939093559151908516907fddf252ad1be2c89b69c2b068fc378daa952ba7f163c4a11628f55a4df523b3ef9061085f908590611429565b600081848411156109a65760405162461bcd60e51b815260040161045091906114c6565b505050900390565b6000828201838110156109d35760405162461bcd60e51b815260040161045090611507565b9392505050565b6001600160a01b038216610a005760405162461bcd60e51b815260040161045090611577565b600654610a13908263ffffffff6109ae16565b6006556001600160a01b038216600090815260046020526040902054610a3f908263ffffffff6109ae16565b6001600160a01b0383166000818152600460205260408082209390935591519091907fddf252ad1be2c89b69c2b068fc378daa952ba7f163c4a11628f55a4df523b3ef90610a8e908590611429565b60405180910390a35050565b6001600160a01b038216610ac05760405162461bcd60e51b815260040161045090611547565b610b0381604051806060016040528060228152602001611691602291396001600160a01b038516600090815260046020526040902054919063ffffffff61098216565b6001600160a01b038316600090815260046020526040902055600654610b2f908263ffffffff610d3c16565b6006556040516000906001600160a01b038416907fddf252ad1be2c89b69c2b068fc378daa952ba7f163c4a11628f55a4df523b3ef90610a8e908590611429565b610b7a8282610a9a565b6104a082610b866107b4565b6103bb846040518060600160405280602481526020016116d9602491396001600160a01b038816600090815260056020526040812090610bc46107b4565b6001600160a01b03168152602081019190915260400160002054919063ffffffff61098216565b610bfc60008263ffffffff610d7e16565b6040516001600160a01b038216907f6ae172837ea30b801fbfcdd4108aa1d5bf8ff775444fd70256b44e6bf3dfc3f690600090a250565b610c4460008263ffffffff610dca16565b6040516001600160a01b038216907fe94479a9f7e1952cc78f2d6baab678adc1b772d936c6583def489e524cb6669290600090a250565b60006001600160a01b038216610ca35760405162461bcd60e51b815260040161045090611537565b506001600160a01b03166000908152602091909152604090205460ff1690565b60405161190160f01b8152600281019290925260228201526042902090565b82610d3757610cf082610e12565b6101d160f51b610cff83610e12565b604051602001610d11939291906113ea565b60408051601f198184030181529082905262461bcd60e51b8252610450916004016114c6565b505050565b60006109d383836040518060400160405280601e81526020017f536166654d6174683a207375627472616374696f6e206f766572666c6f770000815250610982565b610d888282610c7b565b15610da55760405162461bcd60e51b8152600401610450906114e7565b6001600160a01b0316600090815260209190915260409020805460ff19166001179055565b610dd48282610c7b565b610df05760405162461bcd60e51b815260040161045090611527565b6001600160a01b0316600090815260209190915260409020805460ff19169055565b60608082604051602001610e2691906113d5565b60408051601f19818403018152919052905060205b8015610e7b57815160001990910190829082908110610e5657fe5b01602001516001600160f81b03191615610e765760010181529050610491565b610e3b565b505060408051600081526020810190915292915050565b803561034c8161160e565b803561034c81611622565b803561034c8161162b565b600060208284031215610ec557600080fd5b6000610ed18484610e92565b949350505050565b60008060408385031215610eec57600080fd5b6000610ef88585610e92565b9250506020610f0985828601610e92565b9150509250929050565b600080600060608486031215610f2857600080fd5b6000610f348686610e92565b9350506020610f4586828701610e92565b9250506040610f5686828701610e9d565b9150509250925092565b600080600080600080600060e0888a031215610f7b57600080fd5b6000610f878a8a610e92565b9750506020610f988a828b01610e92565b9650506040610fa98a828b01610e9d565b9550506060610fba8a828b01610e9d565b9450506080610fcb8a828b01610ea8565b93505060a0610fdc8a828b01610e9d565b92505060c0610fed8a828b01610e9d565b91505092959891949750929550565b6000806040838503121561100f57600080fd5b600061101b8585610e92565b9250506020610f0985828601610e9d565b60006020828403121561103e57600080fd5b6000610ed18484610e9d565b611053816115a2565b82525050565b611053816115ad565b61105361106e826115b2565b6115bf565b611053816115bf565b61105361106e826115bf565b600061109382611595565b61109d8185610491565b93506110ad8185602086016115d4565b9290920192915050565b60006110c282611595565b6110cc8185611599565b93506110dc8185602086016115d4565b6110e581611604565b9093019392505050565b60006110fc602383611599565b7f45524332303a207472616e7366657220746f20746865207a65726f206164647281526265737360e81b602082015260400192915050565b6000611141601f83611599565b7f526f6c65733a206163636f756e7420616c72656164792068617320726f6c6500815260200192915050565b600061117a602283611599565b7f45524332303a20617070726f766520746f20746865207a65726f206164647265815261737360f01b602082015260400192915050565b60006111be601b83611599565b7f536166654d6174683a206164646974696f6e206f766572666c6f770000000000815260200192915050565b60006111f7603083611599565b7f4d696e746572526f6c653a2063616c6c657220646f6573206e6f74206861766581526f20746865204d696e74657220726f6c6560801b602082015260400192915050565b6000611249602183611599565b7f526f6c65733a206163636f756e7420646f6573206e6f74206861766520726f6c8152606560f81b602082015260400192915050565b600061128c602283611599565b7f526f6c65733a206163636f756e7420697320746865207a65726f206164647265815261737360f01b602082015260400192915050565b60006112d0602183611599565b7f45524332303a206275726e2066726f6d20746865207a65726f206164647265738152607360f81b602082015260400192915050565b6000611313602583611599565b7f45524332303a207472616e736665722066726f6d20746865207a65726f206164815264647265737360d81b602082015260400192915050565b600061135a602483611599565b7f45524332303a20617070726f76652066726f6d20746865207a65726f206164648152637265737360e01b602082015260400192915050565b60006113a0601f83611599565b7f45524332303a206d696e7420746f20746865207a65726f206164647265737300815260200192915050565b611053816115ce565b60006113e1828461107c565b50602001919050565b60006113f68286611088565b91506114028285611062565b6002820191506114128284611088565b95945050505050565b6020810161034c8284611059565b6020810161034c8284611073565b60c081016114458289611073565b611452602083018861104a565b61145f604083018761104a565b61146c6060830186611073565b6114796080830185611073565b61148660a0830184611073565b979650505050505050565b6080810161149f8287611073565b6114ac60208301866113cc565b6114b96040830185611073565b6114126060830184611073565b602080825281016109d381846110b7565b6020808252810161034c816110ef565b6020808252810161034c81611134565b6020808252810161034c8161116d565b6020808252810161034c816111b1565b6020808252810161034c816111ea565b6020808252810161034c8161123c565b6020808252810161034c8161127f565b6020808252810161034c816112c3565b6020808252810161034c81611306565b6020808252810161034c8161134d565b6020808252810161034c81611393565b6020810161034c82846113cc565b5190565b90815260200190565b600061034c826115c2565b151590565b6001600160f01b03191690565b90565b6001600160a01b031690565b60ff1690565b60005b838110156115ef5781810151838201526020016115d7565b838111156115fe576000848401525b50505050565b601f01601f191690565b611617816115a2565b811461047457600080fd5b611617816115bf565b611617816115ce565b602a90565b8351602094850120835193850193909320604080517f8b73c3c69bb8fe3d512ecc4cf759cc79239f7b179b0ffacaa9a75d522b39400f815295860194909452928401929092526060830152608082015260a090209056fe45524332303a206275726e20616d6f756e7420657863656564732062616c616e636545524332303a207472616e7366657220616d6f756e7420657863656564732062616c616e636545524332303a206275726e20616d6f756e74206578636565647320616c6c6f77616e636545746869633a207472616e7366657220616d6f756e74206578636565647320616c6c6f77616e636545524332303a2064656372656173656420616c6c6f77616e63652062656c6f77207a65726fa365627a7a72315820942211f028568291e67a5cda9d87f19b9dffdf91f3a5f72969294736db56c8846c6578706572696d656e74616cf564736f6c63430005110040",
  "source": "/*\n    Copyright 2021 Ethic Money Devs <devs@ethic.money> and Copyright 2020 Empty Set Squad <emptysetsquad@protonmail.com>\n\n    Licensed under the Apache License, Version 2.0 (the \"License\");\n    you may not use this file except in compliance with the License.\n    You may obtain a copy of the License at\n\n    http://www.apache.org/licenses/LICENSE-2.0\n\n    Unless required by applicable law or agreed to in writing, software\n    distributed under the License is distributed on an \"AS IS\" BASIS,\n    WITHOUT WARRANTIES OR CONDITIONS OF ANY KIND, either express or implied.\n    See the License for the specific language governing permissions and\n    limitations under the License.\n*/\n\npragma solidity ^0.5.17;\npragma experimental ABIEncoderV2;\n\nimport \"../dao/Regulator.sol\";\nimport \"../oracle/IOracle.sol\";\nimport \"./MockComptroller.sol\";\nimport \"./MockState.sol\";\n\ncontract MockRegulator is MockComptroller, Regulator {\n    constructor (address oracle, address pool) MockComptroller(pool) public {\n        _state.provider.oracle = IOracle(oracle);\n    }\n\n    function stepE() external {\n        super.step();\n    }\n\n    function bootstrappingAt(uint256 epoch) public view returns (bool) {\n        return epoch <= 5;\n    }\n}\n",
  "sourcePath": "/home/ville/projects/ethic/protocol/contracts/mock/MockRegulator.sol",
  "compiler": {
    "name": "solc",
    "version": "0.5.17+commit.d19bba13.Emscripten.clang"
  },
  "schemaVersion": "3.3.2",
  "updatedAt": "2021-02-04T11:16:03.247Z",
  "devdoc": {
    "methods": {}
  },
  "userdoc": {
    "methods": {
      "balanceOfStaged(address)": {
        "notice": "Account"
      },
      "createCandidateE(address,uint256)": {
        "notice": "Governance"
      },
      "epoch()": {
        "notice": "Epoch"
      },
      "ethic()": {
        "notice": "Global"
      },
      "incrementBalanceOfE(address,uint256)": {
        "notice": "Account"
      },
      "incrementTotalBondedE(uint256)": {
        "notice": "Global"
      },
      "name()": {
        "notice": "ERC20 Interface"
      },
      "recordedVote(address,address)": {
        "notice": "Governance"
      },
      "setBlockTimestamp(uint256)": {
        "notice": "Mock"
      },
      "setEpochParamsE(uint256,uint256)": {
        "notice": "Epoch"
      },
      "transfer(address,uint256)": {
        "notice": "ERC20 Interface"
      }
    }
  }
}