{
  "contractName": "MockState",
  "abi": [
    {
      "inputs": [],
      "payable": false,
      "stateMutability": "nonpayable",
      "type": "constructor"
    },
    {
      "anonymous": false,
      "inputs": [
        {
          "indexed": true,
          "internalType": "address",
          "name": "from",
          "type": "address"
        },
        {
          "indexed": true,
          "internalType": "address",
          "name": "to",
          "type": "address"
        },
        {
          "indexed": false,
          "internalType": "uint256",
          "name": "value",
          "type": "uint256"
        }
      ],
      "name": "Transfer",
      "type": "event"
    },
    {
      "constant": true,
      "inputs": [
        {
          "internalType": "address",
          "name": "owner",
          "type": "address"
        },
        {
          "internalType": "address",
          "name": "spender",
          "type": "address"
        }
      ],
      "name": "allowance",
      "outputs": [
        {
          "internalType": "uint256",
          "name": "",
          "type": "uint256"
        }
      ],
      "payable": false,
      "stateMutability": "view",
      "type": "function"
    },
    {
      "constant": true,
      "inputs": [
        {
          "internalType": "address",
          "name": "owner",
          "type": "address"
        },
        {
          "internalType": "address",
          "name": "spender",
          "type": "address"
        }
      ],
      "name": "allowanceCoupons",
      "outputs": [
        {
          "internalType": "uint256",
          "name": "",
          "type": "uint256"
        }
      ],
      "payable": false,
      "stateMutability": "view",
      "type": "function"
    },
    {
      "constant": false,
      "inputs": [
        {
          "internalType": "address",
          "name": "spender",
          "type": "address"
        },
        {
          "internalType": "uint256",
          "name": "amount",
          "type": "uint256"
        }
      ],
      "name": "approve",
      "outputs": [
        {
          "internalType": "bool",
          "name": "",
          "type": "bool"
        }
      ],
      "payable": false,
      "stateMutability": "nonpayable",
      "type": "function"
    },
    {
      "constant": true,
      "inputs": [
        {
          "internalType": "address",
          "name": "candidate",
          "type": "address"
        }
      ],
      "name": "approveFor",
      "outputs": [
        {
          "internalType": "uint256",
          "name": "",
          "type": "uint256"
        }
      ],
      "payable": false,
      "stateMutability": "view",
      "type": "function"
    },
    {
      "constant": true,
      "inputs": [
        {
          "internalType": "address",
          "name": "account",
          "type": "address"
        }
      ],
      "name": "balanceOf",
      "outputs": [
        {
          "internalType": "uint256",
          "name": "",
          "type": "uint256"
        }
      ],
      "payable": false,
      "stateMutability": "view",
      "type": "function"
    },
    {
      "constant": true,
      "inputs": [
        {
          "internalType": "address",
          "name": "account",
          "type": "address"
        }
      ],
      "name": "balanceOfBonded",
      "outputs": [
        {
          "internalType": "uint256",
          "name": "",
          "type": "uint256"
        }
      ],
      "payable": false,
      "stateMutability": "view",
      "type": "function"
    },
    {
      "constant": true,
      "inputs": [
        {
          "internalType": "address",
          "name": "account",
          "type": "address"
        },
        {
          "internalType": "uint256",
          "name": "epoch",
          "type": "uint256"
        }
      ],
      "name": "balanceOfCoupons",
      "outputs": [
        {
          "internalType": "uint256",
          "name": "",
          "type": "uint256"
        }
      ],
      "payable": false,
      "stateMutability": "view",
      "type": "function"
    },
    {
      "constant": true,
      "inputs": [
        {
          "internalType": "address",
          "name": "account",
          "type": "address"
        }
      ],
      "name": "balanceOfStaged",
      "outputs": [
        {
          "internalType": "uint256",
          "name": "",
          "type": "uint256"
        }
      ],
      "payable": false,
      "stateMutability": "view",
      "type": "function"
    },
    {
      "constant": true,
      "inputs": [
        {
          "internalType": "uint256",
          "name": "epoch",
          "type": "uint256"
        }
      ],
      "name": "bootstrappingAt",
      "outputs": [
        {
          "internalType": "bool",
          "name": "",
          "type": "bool"
        }
      ],
      "payable": false,
      "stateMutability": "view",
      "type": "function"
    },
    {
      "constant": true,
      "inputs": [
        {
          "internalType": "uint256",
          "name": "epoch",
          "type": "uint256"
        }
      ],
      "name": "couponsExpiration",
      "outputs": [
        {
          "internalType": "uint256",
          "name": "",
          "type": "uint256"
        }
      ],
      "payable": false,
      "stateMutability": "view",
      "type": "function"
    },
    {
      "constant": true,
      "inputs": [],
      "name": "decimals",
      "outputs": [
        {
          "internalType": "uint8",
          "name": "",
          "type": "uint8"
        }
      ],
      "payable": false,
      "stateMutability": "view",
      "type": "function"
    },
    {
      "constant": true,
      "inputs": [],
      "name": "epoch",
      "outputs": [
        {
          "internalType": "uint256",
          "name": "",
          "type": "uint256"
        }
      ],
      "payable": false,
      "stateMutability": "view",
      "type": "function"
    },
    {
      "constant": true,
      "inputs": [],
      "name": "epochTime",
      "outputs": [
        {
          "internalType": "uint256",
          "name": "",
          "type": "uint256"
        }
      ],
      "payable": false,
      "stateMutability": "view",
      "type": "function"
    },
    {
      "constant": true,
      "inputs": [],
      "name": "ethic",
      "outputs": [
        {
          "internalType": "contract IEthic",
          "name": "",
          "type": "address"
        }
      ],
      "payable": false,
      "stateMutability": "view",
      "type": "function"
    },
    {
      "constant": true,
      "inputs": [
        {
          "internalType": "uint256",
          "name": "epoch",
          "type": "uint256"
        }
      ],
      "name": "expiringCoupons",
      "outputs": [
        {
          "internalType": "uint256",
          "name": "",
          "type": "uint256"
        }
      ],
      "payable": false,
      "stateMutability": "view",
      "type": "function"
    },
    {
      "constant": true,
      "inputs": [
        {
          "internalType": "uint256",
          "name": "epoch",
          "type": "uint256"
        },
        {
          "internalType": "uint256",
          "name": "i",
          "type": "uint256"
        }
      ],
      "name": "expiringCouponsAtIndex",
      "outputs": [
        {
          "internalType": "uint256",
          "name": "",
          "type": "uint256"
        }
      ],
      "payable": false,
      "stateMutability": "view",
      "type": "function"
    },
    {
      "constant": true,
      "inputs": [
        {
          "internalType": "address",
          "name": "account",
          "type": "address"
        }
      ],
      "name": "fluidUntil",
      "outputs": [
        {
          "internalType": "uint256",
          "name": "",
          "type": "uint256"
        }
      ],
      "payable": false,
      "stateMutability": "view",
      "type": "function"
    },
    {
      "constant": true,
      "inputs": [],
      "name": "implementation",
      "outputs": [
        {
          "internalType": "address",
          "name": "impl",
          "type": "address"
        }
      ],
      "payable": false,
      "stateMutability": "view",
      "type": "function"
    },
    {
      "constant": true,
      "inputs": [
        {
          "internalType": "address",
          "name": "candidate",
          "type": "address"
        }
      ],
      "name": "isInitialized",
      "outputs": [
        {
          "internalType": "bool",
          "name": "",
          "type": "bool"
        }
      ],
      "payable": false,
      "stateMutability": "view",
      "type": "function"
    },
    {
      "constant": true,
      "inputs": [
        {
          "internalType": "address",
          "name": "candidate",
          "type": "address"
        }
      ],
      "name": "isNominated",
      "outputs": [
        {
          "internalType": "bool",
          "name": "",
          "type": "bool"
        }
      ],
      "payable": false,
      "stateMutability": "view",
      "type": "function"
    },
    {
      "constant": true,
      "inputs": [
        {
          "internalType": "address",
          "name": "account",
          "type": "address"
        }
      ],
      "name": "lockedUntil",
      "outputs": [
        {
          "internalType": "uint256",
          "name": "",
          "type": "uint256"
        }
      ],
      "payable": false,
      "stateMutability": "view",
      "type": "function"
    },
    {
      "constant": true,
      "inputs": [],
      "name": "name",
      "outputs": [
        {
          "internalType": "string",
          "name": "",
          "type": "string"
        }
      ],
      "payable": false,
      "stateMutability": "view",
      "type": "function"
    },
    {
      "constant": true,
      "inputs": [],
      "name": "oracle",
      "outputs": [
        {
          "internalType": "contract IOracle",
          "name": "",
          "type": "address"
        }
      ],
      "payable": false,
      "stateMutability": "view",
      "type": "function"
    },
    {
      "constant": true,
      "inputs": [
        {
          "internalType": "uint256",
          "name": "epoch",
          "type": "uint256"
        }
      ],
      "name": "outstandingCoupons",
      "outputs": [
        {
          "internalType": "uint256",
          "name": "",
          "type": "uint256"
        }
      ],
      "payable": false,
      "stateMutability": "view",
      "type": "function"
    },
    {
      "constant": true,
      "inputs": [
        {
          "internalType": "address",
          "name": "candidate",
          "type": "address"
        }
      ],
      "name": "periodFor",
      "outputs": [
        {
          "internalType": "uint256",
          "name": "",
          "type": "uint256"
        }
      ],
      "payable": false,
      "stateMutability": "view",
      "type": "function"
    },
    {
      "constant": true,
      "inputs": [],
      "name": "pool",
      "outputs": [
        {
          "internalType": "address",
          "name": "",
          "type": "address"
        }
      ],
      "payable": false,
      "stateMutability": "view",
      "type": "function"
    },
    {
      "constant": true,
      "inputs": [
        {
          "internalType": "address",
          "name": "account",
          "type": "address"
        },
        {
          "internalType": "address",
          "name": "candidate",
          "type": "address"
        }
      ],
      "name": "recordedVote",
      "outputs": [
        {
          "internalType": "enum Candidate.Vote",
          "name": "",
          "type": "uint8"
        }
      ],
      "payable": false,
      "stateMutability": "view",
      "type": "function"
    },
    {
      "constant": true,
      "inputs": [
        {
          "internalType": "address",
          "name": "candidate",
          "type": "address"
        }
      ],
      "name": "rejectFor",
      "outputs": [
        {
          "internalType": "uint256",
          "name": "",
          "type": "uint256"
        }
      ],
      "payable": false,
      "stateMutability": "view",
      "type": "function"
    },
    {
      "constant": true,
      "inputs": [
        {
          "internalType": "address",
          "name": "candidate",
          "type": "address"
        }
      ],
      "name": "startFor",
      "outputs": [
        {
          "internalType": "uint256",
          "name": "",
          "type": "uint256"
        }
      ],
      "payable": false,
      "stateMutability": "view",
      "type": "function"
    },
    {
      "constant": true,
      "inputs": [
        {
          "internalType": "address",
          "name": "account",
          "type": "address"
        }
      ],
      "name": "statusOf",
      "outputs": [
        {
          "internalType": "enum Account.Status",
          "name": "",
          "type": "uint8"
        }
      ],
      "payable": false,
      "stateMutability": "view",
      "type": "function"
    },
    {
      "constant": true,
      "inputs": [],
      "name": "symbol",
      "outputs": [
        {
          "internalType": "string",
          "name": "",
          "type": "string"
        }
      ],
      "payable": false,
      "stateMutability": "view",
      "type": "function"
    },
    {
      "constant": true,
      "inputs": [],
      "name": "totalBonded",
      "outputs": [
        {
          "internalType": "uint256",
          "name": "",
          "type": "uint256"
        }
      ],
      "payable": false,
      "stateMutability": "view",
      "type": "function"
    },
    {
      "constant": true,
      "inputs": [
        {
          "internalType": "uint256",
          "name": "epoch",
          "type": "uint256"
        }
      ],
      "name": "totalBondedAt",
      "outputs": [
        {
          "internalType": "uint256",
          "name": "",
          "type": "uint256"
        }
      ],
      "payable": false,
      "stateMutability": "view",
      "type": "function"
    },
    {
      "constant": true,
      "inputs": [],
      "name": "totalCoupons",
      "outputs": [
        {
          "internalType": "uint256",
          "name": "",
          "type": "uint256"
        }
      ],
      "payable": false,
      "stateMutability": "view",
      "type": "function"
    },
    {
      "constant": true,
      "inputs": [],
      "name": "totalDebt",
      "outputs": [
        {
          "internalType": "uint256",
          "name": "",
          "type": "uint256"
        }
      ],
      "payable": false,
      "stateMutability": "view",
      "type": "function"
    },
    {
      "constant": true,
      "inputs": [],
      "name": "totalNet",
      "outputs": [
        {
          "internalType": "uint256",
          "name": "",
          "type": "uint256"
        }
      ],
      "payable": false,
      "stateMutability": "view",
      "type": "function"
    },
    {
      "constant": true,
      "inputs": [],
      "name": "totalRedeemable",
      "outputs": [
        {
          "internalType": "uint256",
          "name": "",
          "type": "uint256"
        }
      ],
      "payable": false,
      "stateMutability": "view",
      "type": "function"
    },
    {
      "constant": true,
      "inputs": [],
      "name": "totalStaged",
      "outputs": [
        {
          "internalType": "uint256",
          "name": "",
          "type": "uint256"
        }
      ],
      "payable": false,
      "stateMutability": "view",
      "type": "function"
    },
    {
      "constant": true,
      "inputs": [],
      "name": "totalSupply",
      "outputs": [
        {
          "internalType": "uint256",
          "name": "",
          "type": "uint256"
        }
      ],
      "payable": false,
      "stateMutability": "view",
      "type": "function"
    },
    {
      "constant": false,
      "inputs": [
        {
          "internalType": "address",
          "name": "recipient",
          "type": "address"
        },
        {
          "internalType": "uint256",
          "name": "amount",
          "type": "uint256"
        }
      ],
      "name": "transfer",
      "outputs": [
        {
          "internalType": "bool",
          "name": "",
          "type": "bool"
        }
      ],
      "payable": false,
      "stateMutability": "nonpayable",
      "type": "function"
    },
    {
      "constant": false,
      "inputs": [
        {
          "internalType": "address",
          "name": "sender",
          "type": "address"
        },
        {
          "internalType": "address",
          "name": "recipient",
          "type": "address"
        },
        {
          "internalType": "uint256",
          "name": "amount",
          "type": "uint256"
        }
      ],
      "name": "transferFrom",
      "outputs": [
        {
          "internalType": "bool",
          "name": "",
          "type": "bool"
        }
      ],
      "payable": false,
      "stateMutability": "nonpayable",
      "type": "function"
    },
    {
      "constant": true,
      "inputs": [
        {
          "internalType": "address",
          "name": "candidate",
          "type": "address"
        }
      ],
      "name": "votesFor",
      "outputs": [
        {
          "internalType": "uint256",
          "name": "",
          "type": "uint256"
        }
      ],
      "payable": false,
      "stateMutability": "view",
      "type": "function"
    },
    {
      "constant": false,
      "inputs": [
        {
          "internalType": "uint256",
          "name": "amount",
          "type": "uint256"
        }
      ],
      "name": "incrementTotalBondedE",
      "outputs": [],
      "payable": false,
      "stateMutability": "nonpayable",
      "type": "function"
    },
    {
      "constant": false,
      "inputs": [
        {
          "internalType": "uint256",
          "name": "amount",
          "type": "uint256"
        },
        {
          "internalType": "string",
          "name": "reason",
          "type": "string"
        }
      ],
      "name": "decrementTotalBondedE",
      "outputs": [],
      "payable": false,
      "stateMutability": "nonpayable",
      "type": "function"
    },
    {
      "constant": false,
      "inputs": [
        {
          "internalType": "uint256",
          "name": "amount",
          "type": "uint256"
        }
      ],
      "name": "incrementTotalDebtE",
      "outputs": [],
      "payable": false,
      "stateMutability": "nonpayable",
      "type": "function"
    },
    {
      "constant": false,
      "inputs": [
        {
          "internalType": "uint256",
          "name": "amount",
          "type": "uint256"
        },
        {
          "internalType": "string",
          "name": "reason",
          "type": "string"
        }
      ],
      "name": "decrementTotalDebtE",
      "outputs": [],
      "payable": false,
      "stateMutability": "nonpayable",
      "type": "function"
    },
    {
      "constant": false,
      "inputs": [
        {
          "internalType": "uint256",
          "name": "amount",
          "type": "uint256"
        }
      ],
      "name": "incrementTotalRedeemableE",
      "outputs": [],
      "payable": false,
      "stateMutability": "nonpayable",
      "type": "function"
    },
    {
      "constant": false,
      "inputs": [
        {
          "internalType": "uint256",
          "name": "amount",
          "type": "uint256"
        },
        {
          "internalType": "string",
          "name": "reason",
          "type": "string"
        }
      ],
      "name": "decrementTotalRedeemableE",
      "outputs": [],
      "payable": false,
      "stateMutability": "nonpayable",
      "type": "function"
    },
    {
      "constant": false,
      "inputs": [
        {
          "internalType": "address",
          "name": "account",
          "type": "address"
        },
        {
          "internalType": "uint256",
          "name": "amount",
          "type": "uint256"
        }
      ],
      "name": "incrementBalanceOfE",
      "outputs": [],
      "payable": false,
      "stateMutability": "nonpayable",
      "type": "function"
    },
    {
      "constant": false,
      "inputs": [
        {
          "internalType": "address",
          "name": "account",
          "type": "address"
        },
        {
          "internalType": "uint256",
          "name": "amount",
          "type": "uint256"
        },
        {
          "internalType": "string",
          "name": "reason",
          "type": "string"
        }
      ],
      "name": "decrementBalanceOfE",
      "outputs": [],
      "payable": false,
      "stateMutability": "nonpayable",
      "type": "function"
    },
    {
      "constant": false,
      "inputs": [
        {
          "internalType": "address",
          "name": "account",
          "type": "address"
        },
        {
          "internalType": "uint256",
          "name": "amount",
          "type": "uint256"
        }
      ],
      "name": "incrementBalanceOfStagedE",
      "outputs": [],
      "payable": false,
      "stateMutability": "nonpayable",
      "type": "function"
    },
    {
      "constant": false,
      "inputs": [
        {
          "internalType": "address",
          "name": "account",
          "type": "address"
        },
        {
          "internalType": "uint256",
          "name": "amount",
          "type": "uint256"
        },
        {
          "internalType": "string",
          "name": "reason",
          "type": "string"
        }
      ],
      "name": "decrementBalanceOfStagedE",
      "outputs": [],
      "payable": false,
      "stateMutability": "nonpayable",
      "type": "function"
    },
    {
      "constant": false,
      "inputs": [
        {
          "internalType": "address",
          "name": "account",
          "type": "address"
        },
        {
          "internalType": "uint256",
          "name": "epoch",
          "type": "uint256"
        },
        {
          "internalType": "uint256",
          "name": "amount",
          "type": "uint256"
        }
      ],
      "name": "incrementBalanceOfCouponsE",
      "outputs": [],
      "payable": false,
      "stateMutability": "nonpayable",
      "type": "function"
    },
    {
      "constant": false,
      "inputs": [
        {
          "internalType": "address",
          "name": "account",
          "type": "address"
        },
        {
          "internalType": "uint256",
          "name": "epoch",
          "type": "uint256"
        },
        {
          "internalType": "uint256",
          "name": "amount",
          "type": "uint256"
        },
        {
          "internalType": "string",
          "name": "reason",
          "type": "string"
        }
      ],
      "name": "decrementBalanceOfCouponsE",
      "outputs": [],
      "payable": false,
      "stateMutability": "nonpayable",
      "type": "function"
    },
    {
      "constant": false,
      "inputs": [
        {
          "internalType": "address",
          "name": "account",
          "type": "address"
        }
      ],
      "name": "unfreezeE",
      "outputs": [],
      "payable": false,
      "stateMutability": "nonpayable",
      "type": "function"
    },
    {
      "constant": false,
      "inputs": [
        {
          "internalType": "address",
          "name": "owner",
          "type": "address"
        },
        {
          "internalType": "address",
          "name": "spender",
          "type": "address"
        },
        {
          "internalType": "uint256",
          "name": "amount",
          "type": "uint256"
        }
      ],
      "name": "updateAllowanceCouponsE",
      "outputs": [],
      "payable": false,
      "stateMutability": "nonpayable",
      "type": "function"
    },
    {
      "constant": false,
      "inputs": [
        {
          "internalType": "address",
          "name": "owner",
          "type": "address"
        },
        {
          "internalType": "address",
          "name": "spender",
          "type": "address"
        },
        {
          "internalType": "uint256",
          "name": "amount",
          "type": "uint256"
        },
        {
          "internalType": "string",
          "name": "reason",
          "type": "string"
        }
      ],
      "name": "decrementAllowanceCouponsE",
      "outputs": [],
      "payable": false,
      "stateMutability": "nonpayable",
      "type": "function"
    },
    {
      "constant": false,
      "inputs": [
        {
          "internalType": "uint256",
          "name": "start",
          "type": "uint256"
        },
        {
          "internalType": "uint256",
          "name": "period",
          "type": "uint256"
        }
      ],
      "name": "setEpochParamsE",
      "outputs": [],
      "payable": false,
      "stateMutability": "nonpayable",
      "type": "function"
    },
    {
      "constant": false,
      "inputs": [],
      "name": "incrementEpochE",
      "outputs": [],
      "payable": false,
      "stateMutability": "nonpayable",
      "type": "function"
    },
    {
      "constant": false,
      "inputs": [],
      "name": "snapshotTotalBondedE",
      "outputs": [],
      "payable": false,
      "stateMutability": "nonpayable",
      "type": "function"
    },
    {
      "constant": false,
      "inputs": [
        {
          "internalType": "uint256",
          "name": "epoch",
          "type": "uint256"
        },
        {
          "internalType": "uint256",
          "name": "expiration",
          "type": "uint256"
        }
      ],
      "name": "initializeCouponsExpirationE",
      "outputs": [],
      "payable": false,
      "stateMutability": "nonpayable",
      "type": "function"
    },
    {
      "constant": false,
      "inputs": [
        {
          "internalType": "uint256",
          "name": "epoch",
          "type": "uint256"
        }
      ],
      "name": "eliminateOutstandingCouponsE",
      "outputs": [],
      "payable": false,
      "stateMutability": "nonpayable",
      "type": "function"
    },
    {
      "constant": false,
      "inputs": [
        {
          "internalType": "address",
          "name": "candidate",
          "type": "address"
        },
        {
          "internalType": "uint256",
          "name": "period",
          "type": "uint256"
        }
      ],
      "name": "createCandidateE",
      "outputs": [],
      "payable": false,
      "stateMutability": "nonpayable",
      "type": "function"
    },
    {
      "constant": false,
      "inputs": [
        {
          "internalType": "address",
          "name": "account",
          "type": "address"
        },
        {
          "internalType": "address",
          "name": "candidate",
          "type": "address"
        },
        {
          "internalType": "enum Candidate.Vote",
          "name": "vote",
          "type": "uint8"
        }
      ],
      "name": "recordVoteE",
      "outputs": [],
      "payable": false,
      "stateMutability": "nonpayable",
      "type": "function"
    },
    {
      "constant": false,
      "inputs": [
        {
          "internalType": "address",
          "name": "candidate",
          "type": "address"
        },
        {
          "internalType": "uint256",
          "name": "amount",
          "type": "uint256"
        }
      ],
      "name": "incrementApproveForE",
      "outputs": [],
      "payable": false,
      "stateMutability": "nonpayable",
      "type": "function"
    },
    {
      "constant": false,
      "inputs": [
        {
          "internalType": "address",
          "name": "candidate",
          "type": "address"
        },
        {
          "internalType": "uint256",
          "name": "amount",
          "type": "uint256"
        },
        {
          "internalType": "string",
          "name": "reason",
          "type": "string"
        }
      ],
      "name": "decrementApproveForE",
      "outputs": [],
      "payable": false,
      "stateMutability": "nonpayable",
      "type": "function"
    },
    {
      "constant": false,
      "inputs": [
        {
          "internalType": "address",
          "name": "candidate",
          "type": "address"
        },
        {
          "internalType": "uint256",
          "name": "amount",
          "type": "uint256"
        }
      ],
      "name": "incrementRejectForE",
      "outputs": [],
      "payable": false,
      "stateMutability": "nonpayable",
      "type": "function"
    },
    {
      "constant": false,
      "inputs": [
        {
          "internalType": "address",
          "name": "candidate",
          "type": "address"
        },
        {
          "internalType": "uint256",
          "name": "amount",
          "type": "uint256"
        },
        {
          "internalType": "string",
          "name": "reason",
          "type": "string"
        }
      ],
      "name": "decrementRejectForE",
      "outputs": [],
      "payable": false,
      "stateMutability": "nonpayable",
      "type": "function"
    },
    {
      "constant": false,
      "inputs": [
        {
          "internalType": "address",
          "name": "account",
          "type": "address"
        },
        {
          "internalType": "address",
          "name": "candidate",
          "type": "address"
        }
      ],
      "name": "placeLockE",
      "outputs": [],
      "payable": false,
      "stateMutability": "nonpayable",
      "type": "function"
    },
    {
      "constant": false,
      "inputs": [
        {
          "internalType": "address",
          "name": "candidate",
          "type": "address"
        }
      ],
      "name": "initializedE",
      "outputs": [],
      "payable": false,
      "stateMutability": "nonpayable",
      "type": "function"
    },
    {
      "constant": false,
      "inputs": [
        {
          "internalType": "uint256",
          "name": "timestamp",
          "type": "uint256"
        }
      ],
      "name": "setBlockTimestamp",
      "outputs": [],
      "payable": false,
      "stateMutability": "nonpayable",
      "type": "function"
    }
  ],
  "bytecode": "0x608060405234801561001057600080fd5b5042600f55612078806100246000396000f3fe608060405234801561001057600080fd5b506004361061041d5760003560e01c80638de2e5731161022b578063b32a2f9011610130578063d6d8816d116100b8578063f1b7cf4911610087578063f1b7cf49146108a6578063f35adf7e146108b9578063f7a31818146108c1578063fc7b9c18146108d4578063ffbe3b73146108dc5761041d565b8063d6d8816d1461085f578063d83d3ed514610872578063dd62ed3e14610885578063e0abdf66146108935761041d565b8063c2aeb5fe116100ff578063c2aeb5fe1461080b578063c9aff70c1461081e578063cc8d823c14610831578063cf02377914610844578063d60b347f1461084c5761041d565b8063b32a2f90146107ca578063bc7513e2146107dd578063c0ec4ac5146107f0578063c1410c02146107f85761041d565b8063a00e14d1116101b3578063a9059cbb11610182578063a9059cbb14610440578063a9b3cf151461077e578063adbff2be14610791578063ae5c2381146107a4578063b11ee0e3146107b75761041d565b8063a00e14d11461073d578063a50cd8e714610750578063a6c409f114610763578063a6f37b531461076b5761041d565b80639a649edc116101fa5780639a649edc146106e95780639b82b49b146106f15780639bc289f1146107045780639be46493146107175780639f6e1b261461072a5761041d565b80638de2e573146106b3578063900cf0cf146106c657806395d89b41146106ce57806397a5d5b5146106d65761041d565b80633fd4973c1161033157806370a08231116102b95780637cb95a32116102885780637cb95a32146106525780637dc0d1d014610665578063825ad6071461067a5780638413e52a1461068d57806386cf9f14146106a05761041d565b806370a082311461061157806371c511eb1461062457806372924d2a1461062c57806375d5024b1461063f5761041d565b806351bf21d81161030057806351bf21d8146105bd5780635c60da1b146105d057806364668022146105d85780636a39e328146105eb5780636b862d66146105fe5761041d565b80633fd4973c1461058757806344d96e951461059a5780634c736099146105a25780635053e461146105b55761041d565b80631edbcf6c116103b45780633234742211610383578063323474221461051b578063353a420c1461052e5780633a3e6c81146105415780633f7bcaf3146105545780633fbba9a6146105675761041d565b80631edbcf6c146104d857806323b872dd146104e0578063259f7adf146104f3578063313ce567146105065761041d565b806315e14bf6116103f057806315e14bf61461049557806316f0115b146104a857806318160ddd146104bd5780631a08e22a146104c55761041d565b806306fdde0314610422578063095ea7b3146104405780630dc6d3a31461046057806310e95b6c14610475575b600080fd5b61042a6108ef565b6040516104379190611f2c565b60405180910390f35b61045361044e366004611c54565b61091a565b6040516104379190611f02565b61047361046e366004611bd6565b610923565b005b610488610483366004611d53565b61096c565b6040516104379190611f5d565b6104886104a3366004611ae6565b610984565b6104b06109a2565b6040516104379190611ef4565b6104886109b1565b6104736104d3366004611de5565b6109b7565b6104886109c5565b6104536104ee366004611b93565b6109cb565b610473610501366004611d53565b6109d4565b61050e6109e0565b6040516104379190611f6b565b610473610529366004611d8f565b6109e5565b61048861053c366004611ae6565b610a2a565b61045361054f366004611ae6565b610a48565b610473610562366004611b93565b610a65565b61057a610575366004611b0c565b610a70565b6040516104379190611f1e565b610473610595366004611c84565b610aa3565b610488610aea565b6104886105b0366004611de5565b610af0565b610488610b20565b6104886105cb366004611ae6565b610b43565b6104b0610b61565b6104886105e6366004611ae6565b610b86565b6104886105f9366004611d53565b610ba4565b61047361060c366004611cec565b610bb9565b61048861061f366004611ae6565b610bc4565b610473610be2565b61047361063a366004611d8f565b610bec565b61045361064d366004611d53565b610c2c565b610473610660366004611c84565b610c3f565b61066d610c80565b6040516104379190611f10565b610488610688366004611ae6565b610c8f565b61047361069b366004611b46565b610ce2565b6104886106ae366004611ae6565b610ced565b6104736106c1366004611d53565b610d08565b610488610d11565b61042a610d17565b61057a6106e4366004611ae6565b610d36565b610488610d9b565b6104736106ff366004611d8f565b610da1565b610488610712366004611ae6565b610de1565b610473610725366004611ae6565b610dff565b610488610738366004611b0c565b610e0a565b61047361074b366004611de5565b610e39565b61048861075e366004611ae6565b610e44565b610488610e67565b610473610779366004611ae6565b610efd565b61047361078c366004611d53565b610f06565b61047361079f366004611c84565b610f0f565b6104736107b2366004611c54565b610f50565b6104736107c5366004611c54565b610f5a565b6104736107d8366004611c84565b610f64565b6104886107eb366004611c54565b610fa5565b61066d610fe9565b610473610806366004611b0c565b610ff8565b610473610819366004611d1e565b611002565b61048861082c366004611d53565b611044565b61047361083f366004611c54565b611059565b610488611063565b61045361085a366004611ae6565b611069565b61047361086d366004611d53565b61108a565b610473610880366004611c54565b611093565b61048861044e366004611b0c565b6104736108a1366004611d53565b61109d565b6104886108b4366004611ae6565b6110a2565b6104736110bd565b6104736108cf366004611c54565b6110c5565b6104886110cf565b6104886108ea366004611d53565b6110d5565b6040805180820190915260118152704574686963204d6f6e6579205374616b6560781b602082015290565b60005b92915050565b61096585858585858080601f0160208091040260200160405190810160405280939291908181526020018383808284376000920191909152506110e792505050565b5050505050565b6000818152600d60205260409020600201545b919050565b6001600160a01b03166000908152600e602052604090206001015490565b600b546001600160a01b031690565b60035490565b6109c18282611158565b5050565b60065490565b60009392505050565b6109dd8161118a565b50565b601290565b610a258383838080601f0160208091040260200160405190810160405280939291908181526020018383808284376000920191909152506111a392505050565b505050565b6001600160a01b03166000908152600e602052604090206003015490565b6001600160a01b03166000908152600e6020526040902054151590565b610a258383836111be565b6001600160a01b038082166000908152600e60209081526040808320938616835260049093019052205460ff1692915050565b610ae4848484848080601f0160208091040260200160405190810160405280939291908181526020018383808284376000920191909152506111ee92505050565b50505050565b60045490565b6000828152600d60205260408120600301805483908110610b0d57fe5b9060005260206000200154905092915050565b6000610b2a611a50565b610b3261123f565b9050610b3d8161126e565b91505090565b6001600160a01b03166000908152600c602052604090206004015490565b7f360894a13ba1a3210667c828492db98dca3e2076cc3735a920a3ca505d382bbc5490565b6001600160a01b03166000908152600e602052604090206002015490565b6000908152600d602052604090206003015490565b610a25838383611290565b6001600160a01b03166000908152600c602052604090206001015490565b610bea611337565b565b610a258383838080601f01602080910402602001604051908101604052809392919081815260200183838082843760009201919091525061135e92505050565b6000610c36611379565b90911115919050565b610ae4848484848080601f01602080910402602001604051908101604052809392919081815260200183838082843760009201919091525061137e92505050565b600a546001600160a01b031690565b600080610c9a6109b1565b905080610cab57600091505061097f565b610cdb81610ccf610cbb86610bc4565b610cc3610aea565b9063ffffffff6113cf16565b9063ffffffff61141216565b9392505050565b610a25838383611454565b6001600160a01b03166000908152600c602052604090205490565b6109dd8161149e565b60025490565b604080518082019091526005815264455448435360d81b602082015290565b6000610d40610d11565b6001600160a01b0383166000908152600c60205260409020600501541115610d6a5750600261097f565b6001600160a01b0382166000908152600c6020526040902060040154610d8e610d11565b101561091a57600161091d565b60085490565b610a258383838080601f0160208091040260200160405190810160405280939291908181526020018383808284376000920191909152506114b792505050565b6001600160a01b03166000908152600c602052604090206005015490565b6109dd8160786114d2565b6001600160a01b039182166000908152600c602090815260408083209390941682526003909201909152205490565b600091909155600155565b600061091d610e5283610a2a565b610e5b84610b86565b9063ffffffff61150116565b6000610ef8610e746110cf565b610e7c610fe9565b6001600160a01b03166318160ddd6040518163ffffffff1660e01b815260040160206040518083038186803b158015610eb457600080fd5b505afa158015610ec8573d6000803e3d6000fd5b505050506040513d601f19601f82011682018060405250610eec9190810190611d71565b9063ffffffff61152616565b905090565b6109dd81611568565b6109dd8161158f565b610ae4848484848080601f0160208091040260200160405190810160405280939291908181526020018383808284376000920191909152506115d292505050565b6109c1828261167d565b6109c18282611725565b610ae4848484848080601f01602080910402602001604051908101604052809392919081815260200183838082843760009201919091525061178192505050565b6000610fb082611044565b610fbc5750600061091d565b506001600160a01b03919091166000908152600c6020908152604080832093835260029093019052205490565b6009546001600160a01b031690565b6109c182826117e0565b61096585858585858080601f01602080910402602001604051908101604052809392919081815260200183838082843760009201919091525061184092505050565b6000908152600d602052604090206001015490565b6109c182826118eb565b60055490565b6001600160a01b03166000908152600e602052604090206005015460ff1690565b6109dd8161193a565b6109c18282611953565b600f55565b6001600160a01b03166000908152600e602052604090205490565b610bea61197f565b6109c18282611998565b60075490565b6000908152600d602052604090205490565b6001600160a01b038085166000908152600c60209081526040808320938716835260039093019052205461112290838363ffffffff6119e716565b6001600160a01b039485166000908152600c60209081526040808320969097168252600390950190945293909220929092555050565b6000828152600d6020908152604080832060020184905592825291812060030180546001810182559082529190200155565b60045461119d908263ffffffff61150116565b60045550565b6006546111b790838363ffffffff6119e716565b6006555050565b6001600160a01b039283166000908152600c60209081526040808320949095168252600390930190925291902055565b6001600160a01b0383166000908152600e602052604090206003015461121b90838363ffffffff6119e716565b6001600160a01b039093166000908152600e60205260409020600301929092555050565b611247611a50565b6040518060600160405280606a8152602001635ffb1dce8152602001610e10815250905090565b600061091d8260000151610e5b8460400151610ccf8660200151610eec611a13565b6001600160a01b0383166000908152600c602090815260408083208584526002019091529020546112c7908263ffffffff61150116565b6001600160a01b0384166000908152600c60209081526040808320868452600201825280832093909355600d9052206001015461130a908263ffffffff61150116565b6000838152600d602052604090206001015560085461132f908263ffffffff61150116565b600855505050565b61133f6109b1565b600d600061134b610d11565b8152602081019190915260400160002055565b60075461137290838363ffffffff6119e716565b6007555050565b605a90565b6001600160a01b0383166000908152600e60205260409020600201546113ab90838363ffffffff6119e716565b6001600160a01b039093166000908152600e60205260409020600201929092555050565b6000826113de5750600061091d565b828202828482816113eb57fe5b0414610cdb5760405162461bcd60e51b815260040161140990611f4d565b60405180910390fd5b6000610cdb83836040518060400160405280601a81526020017f536166654d6174683a206469766973696f6e206279207a65726f000000000000815250611a19565b6001600160a01b038083166000908152600e6020908152604080832093871683526004909301905220805482919060ff1916600183600281111561149457fe5b0217905550505050565b6007546114b1908263ffffffff61150116565b60075550565b6004546114cb90838363ffffffff6119e716565b6004555050565b6114de81610e5b610d11565b6001600160a01b039092166000908152600c602052604090206004019190915550565b600082820183811015610cdb5760405162461bcd60e51b815260040161140990611f3d565b6000610cdb83836040518060400160405280601e81526020017f536166654d6174683a207375627472616374696f6e206f766572666c6f7700008152506119e7565b6001600160a01b03166000908152600e60205260409020600501805460ff19166001179055565b600061159a82611044565b9050806115a757506109dd565b6008546115ba908263ffffffff61152616565b600855506000908152600d6020526040812060010155565b6001600160a01b0383166000908152600c60205260409020600101546115ff90838363ffffffff6119e716565b6001600160a01b0384166000908152600c602052604090206001015560035461162f90838363ffffffff6119e716565b6003556040516000906001600160a01b038516907fddf252ad1be2c89b69c2b068fc378daa952ba7f163c4a11628f55a4df523b3ef90611670908690611f5d565b60405180910390a3505050565b6001600160a01b0382166000908152600c60205260409020600101546116a9908263ffffffff61150116565b6001600160a01b0383166000908152600c60205260409020600101556003546116d8908263ffffffff61150116565b6003556040516001600160a01b038316906000907fddf252ad1be2c89b69c2b068fc378daa952ba7f163c4a11628f55a4df523b3ef90611719908590611f5d565b60405180910390a35050565b6001600160a01b0382166000908152600c602052604090205461174e908263ffffffff61150116565b6001600160a01b0383166000908152600c602052604090205560055461177a908263ffffffff61150116565b6005555050565b6001600160a01b0383166000908152600c60205260409020546117ab90838363ffffffff6119e716565b6001600160a01b0384166000908152600c60205260409020556005546117d890838363ffffffff6119e716565b600555505050565b6001600160a01b0382166000908152600c60205260408120600501549061181261180984610984565b610e5b856110a2565b905081811115610ae4576001600160a01b0384166000908152600c6020526040902060050181905550505050565b6001600160a01b0384166000908152600c6020908152604080832086845260020190915290205461187890838363ffffffff6119e716565b6001600160a01b0385166000908152600c60209081526040808320878452600201825280832093909355600d905220600101546118bc90838363ffffffff6119e716565b6000848152600d60205260409020600101556008546118e290838363ffffffff6119e716565b60085550505050565b6001600160a01b0382166000908152600e6020526040902060030154611917908263ffffffff61150116565b6001600160a01b039092166000908152600e602052604090206003019190915550565b60065461194d908263ffffffff61150116565b60065550565b61195b610d11565b6001600160a01b039092166000908152600e60205260409020918255600190910155565b60025461199390600163ffffffff61150116565b600255565b6001600160a01b0382166000908152600e60205260409020600201546119c4908263ffffffff61150116565b6001600160a01b039092166000908152600e602052604090206002019190915550565b60008184841115611a0b5760405162461bcd60e51b81526004016114099190611f2c565b505050900390565b600f5490565b60008183611a3a5760405162461bcd60e51b81526004016114099190611f2c565b506000838581611a4657fe5b0495945050505050565b60405180606001604052806000815260200160008152602001600081525090565b803561091d8161200b565b803561091d8161201f565b60008083601f840112611a9957600080fd5b50813567ffffffffffffffff811115611ab157600080fd5b602083019150836001820283011115611ac957600080fd5b9250929050565b803561091d8161202c565b805161091d8161202c565b600060208284031215611af857600080fd5b6000611b048484611a71565b949350505050565b60008060408385031215611b1f57600080fd5b6000611b2b8585611a71565b9250506020611b3c85828601611a71565b9150509250929050565b600080600060608486031215611b5b57600080fd5b6000611b678686611a71565b9350506020611b7886828701611a71565b9250506040611b8986828701611a7c565b9150509250925092565b600080600060608486031215611ba857600080fd5b6000611bb48686611a71565b9350506020611bc586828701611a71565b9250506040611b8986828701611ad0565b600080600080600060808688031215611bee57600080fd5b6000611bfa8888611a71565b9550506020611c0b88828901611a71565b9450506040611c1c88828901611ad0565b935050606086013567ffffffffffffffff811115611c3957600080fd5b611c4588828901611a87565b92509250509295509295909350565b60008060408385031215611c6757600080fd5b6000611c738585611a71565b9250506020611b3c85828601611ad0565b60008060008060608587031215611c9a57600080fd5b6000611ca68787611a71565b9450506020611cb787828801611ad0565b935050604085013567ffffffffffffffff811115611cd457600080fd5b611ce087828801611a87565b95989497509550505050565b600080600060608486031215611d0157600080fd5b6000611d0d8686611a71565b9350506020611bc586828701611ad0565b600080600080600060808688031215611d3657600080fd5b6000611d428888611a71565b9550506020611c0b88828901611ad0565b600060208284031215611d6557600080fd5b6000611b048484611ad0565b600060208284031215611d8357600080fd5b6000611b048484611adb565b600080600060408486031215611da457600080fd5b6000611db08686611ad0565b935050602084013567ffffffffffffffff811115611dcd57600080fd5b611dd986828701611a87565b92509250509250925092565b60008060408385031215611df857600080fd5b6000611c738585611ad0565b611e0d81611f86565b82525050565b611e0d81611f91565b611e0d81611fb5565b611e0d81611fc0565b6000611e3982611f79565b611e438185611f7d565b9350611e53818560208601611fcb565b611e5c81611ff7565b9093019392505050565b6000611e73601b83611f7d565b7f536166654d6174683a206164646974696f6e206f766572666c6f770000000000815260200192915050565b6000611eac602183611f7d565b7f536166654d6174683a206d756c7469706c69636174696f6e206f766572666c6f8152607760f81b602082015260400192915050565b611e0d81611fac565b611e0d81611faf565b6020810161091d8284611e04565b6020810161091d8284611e13565b6020810161091d8284611e1c565b6020810161091d8284611e25565b60208082528101610cdb8184611e2e565b6020808252810161091d81611e66565b6020808252810161091d81611e9f565b6020810161091d8284611ee2565b6020810161091d8284611eeb565b5190565b90815260200190565b600061091d82611fa0565b151590565b8061097f81612001565b6001600160a01b031690565b90565b60ff1690565b600061091d82611f86565b600061091d82611f96565b60005b83811015611fe6578181015183820152602001611fce565b83811115610ae45750506000910152565b601f01601f191690565b600381106109dd57fe5b61201481611f86565b81146109dd57600080fd5b600381106109dd57600080fd5b61201481611fac56fea365627a7a72315820d2eee22f7631f35eace6c135e86ef54c939ee6fecd33dac03f95a771a7cd5ecd6c6578706572696d656e74616cf564736f6c63430005110040",
  "source": "/*\n    Copyright 2021 Ethic Money Devs <devs@ethic.money> and Copyright 2020 Empty Set Squad <emptysetsquad@protonmail.com>\n\n    Licensed under the Apache License, Version 2.0 (the \"License\");\n    you may not use this file except in compliance with the License.\n    You may obtain a copy of the License at\n\n    http://www.apache.org/licenses/LICENSE-2.0\n\n    Unless required by applicable law or agreed to in writing, software\n    distributed under the License is distributed on an \"AS IS\" BASIS,\n    WITHOUT WARRANTIES OR CONDITIONS OF ANY KIND, either express or implied.\n    See the License for the specific language governing permissions and\n    limitations under the License.\n*/\n\npragma solidity ^0.5.17;\npragma experimental ABIEncoderV2;\n\nimport \"../dao/Setters.sol\";\n\ncontract MockState is Setters {\n    uint256 internal _blockTimestamp;\n\n    constructor () public {\n        _blockTimestamp = block.timestamp;\n    }\n\n    /**\n     * Global\n     */\n\n    function incrementTotalBondedE(uint256 amount) external {\n        super.incrementTotalBonded(amount);\n    }\n\n    function decrementTotalBondedE(uint256 amount, string calldata reason) external {\n        super.decrementTotalBonded(amount, reason);\n    }\n\n    function incrementTotalDebtE(uint256 amount) external {\n        super.incrementTotalDebt(amount);\n    }\n\n    function decrementTotalDebtE(uint256 amount, string calldata reason) external {\n        super.decrementTotalDebt(amount, reason);\n    }\n\n    function incrementTotalRedeemableE(uint256 amount) external {\n        super.incrementTotalRedeemable(amount);\n    }\n\n    function decrementTotalRedeemableE(uint256 amount, string calldata reason) external {\n        super.decrementTotalRedeemable(amount, reason);\n    }\n\n    /**\n     * Account\n     */\n\n    function incrementBalanceOfE(address account, uint256 amount) external {\n        super.incrementBalanceOf(account, amount);\n    }\n\n    function decrementBalanceOfE(address account, uint256 amount, string calldata reason) external {\n        super.decrementBalanceOf(account, amount, reason);\n    }\n\n    function incrementBalanceOfStagedE(address account, uint256 amount) external {\n        super.incrementBalanceOfStaged(account, amount);\n    }\n\n    function decrementBalanceOfStagedE(address account, uint256 amount, string calldata reason) external {\n        super.decrementBalanceOfStaged(account, amount, reason);\n    }\n\n    function incrementBalanceOfCouponsE(address account, uint256 epoch, uint256 amount) external {\n        super.incrementBalanceOfCoupons(account, epoch, amount);\n    }\n\n    function decrementBalanceOfCouponsE(address account, uint256 epoch, uint256 amount, string calldata reason) external {\n        super.decrementBalanceOfCoupons(account, epoch, amount, reason);\n    }\n\n    function unfreezeE(address account) external {\n        super.unfreeze(account, 120); // Hardcode 120 epochs to unfreeze - 5 days @ 24 epochs per day\n    }\n\n    function updateAllowanceCouponsE(address owner, address spender, uint256 amount) external {\n        super.updateAllowanceCoupons(owner, spender, amount);\n    }\n\n    function decrementAllowanceCouponsE(address owner, address spender, uint256 amount, string calldata reason) external {\n        super.decrementAllowanceCoupons(owner, spender, amount, reason);\n    }\n\n    /**\n     * Epoch\n     */\n\n    function setEpochParamsE(uint256 start, uint256 period) external {\n        _state.epoch.start = start;\n        _state.epoch.period = period;\n    }\n\n    function incrementEpochE() external {\n        super.incrementEpoch();\n    }\n\n    function snapshotTotalBondedE() external {\n        super.snapshotTotalBonded();\n    }\n\n    function initializeCouponsExpirationE(uint256 epoch, uint256 expiration) external {\n        super.initializeCouponsExpiration(epoch, expiration);\n    }\n\n    function eliminateOutstandingCouponsE(uint256 epoch) external {\n       super.eliminateOutstandingCoupons(epoch);\n    }\n\n    /**\n     * Governance\n     */\n\n    function createCandidateE(address candidate, uint256 period) external {\n        super.createCandidate(candidate, period);\n    }\n\n    function recordVoteE(address account, address candidate, Candidate.Vote vote) external {\n        super.recordVote(account, candidate, vote);\n    }\n\n    function incrementApproveForE(address candidate, uint256 amount) external {\n        super.incrementApproveFor(candidate, amount);\n    }\n\n    function decrementApproveForE(address candidate, uint256 amount, string calldata reason) external {\n        super.decrementApproveFor(candidate, amount, reason);\n    }\n\n    function incrementRejectForE(address candidate, uint256 amount) external {\n        super.incrementRejectFor(candidate, amount);\n    }\n\n    function decrementRejectForE(address candidate, uint256 amount, string calldata reason) external {\n        super.decrementRejectFor(candidate, amount, reason);\n    }\n\n    function placeLockE(address account, address candidate) external {\n        super.placeLock(account, candidate);\n    }\n\n    function initializedE(address candidate) external {\n        super.initialized(candidate);\n    }\n\n    /**\n     * Mock\n     */\n\n    function setBlockTimestamp(uint256 timestamp) external {\n        _blockTimestamp = timestamp;\n    }\n\n    function blockTimestamp() internal view returns (uint256) {\n        return _blockTimestamp;\n    }\n}\n",
  "sourcePath": "/home/ville/projects/ethic/protocol/contracts/mock/MockState.sol",
  "compiler": {
    "name": "solc",
    "version": "0.5.17+commit.d19bba13.Emscripten.clang"
  },
  "schemaVersion": "3.3.2",
  "updatedAt": "2021-02-04T10:39:17.447Z",
  "devdoc": {
    "methods": {}
  },
  "userdoc": {
    "methods": {
      "balanceOfStaged(address)": {
        "notice": "Account"
      },
      "createCandidateE(address,uint256)": {
        "notice": "Governance"
      },
      "epoch()": {
        "notice": "Epoch"
      },
      "ethic()": {
        "notice": "Global"
      },
      "incrementBalanceOfE(address,uint256)": {
        "notice": "Account"
      },
      "incrementTotalBondedE(uint256)": {
        "notice": "Global"
      },
      "name()": {
        "notice": "ERC20 Interface"
      },
      "recordedVote(address,address)": {
        "notice": "Governance"
      },
      "setBlockTimestamp(uint256)": {
        "notice": "Mock"
      },
      "setEpochParamsE(uint256,uint256)": {
        "notice": "Epoch"
      },
      "transfer(address,uint256)": {
        "notice": "ERC20 Interface"
      }
    }
  }
}