{
  "contractName": "MockPool",
  "abi": [
    {
      "inputs": [
        {
          "internalType": "address",
          "name": "ethic",
          "type": "address"
        },
        {
          "internalType": "address",
          "name": "dai",
          "type": "address"
        },
        {
          "internalType": "address",
          "name": "univ2",
          "type": "address"
        }
      ],
      "payable": false,
      "stateMutability": "nonpayable",
      "type": "constructor"
    },
    {
      "anonymous": false,
      "inputs": [
        {
          "indexed": true,
          "internalType": "address",
          "name": "account",
          "type": "address"
        },
        {
          "indexed": false,
          "internalType": "uint256",
          "name": "start",
          "type": "uint256"
        },
        {
          "indexed": false,
          "internalType": "uint256",
          "name": "value",
          "type": "uint256"
        }
      ],
      "name": "Bond",
      "type": "event"
    },
    {
      "anonymous": false,
      "inputs": [
        {
          "indexed": true,
          "internalType": "address",
          "name": "account",
          "type": "address"
        },
        {
          "indexed": false,
          "internalType": "uint256",
          "name": "value",
          "type": "uint256"
        }
      ],
      "name": "Claim",
      "type": "event"
    },
    {
      "anonymous": false,
      "inputs": [
        {
          "indexed": true,
          "internalType": "address",
          "name": "account",
          "type": "address"
        },
        {
          "indexed": false,
          "internalType": "uint256",
          "name": "value",
          "type": "uint256"
        }
      ],
      "name": "Deposit",
      "type": "event"
    },
    {
      "anonymous": false,
      "inputs": [
        {
          "indexed": true,
          "internalType": "address",
          "name": "account",
          "type": "address"
        },
        {
          "indexed": false,
          "internalType": "uint256",
          "name": "value",
          "type": "uint256"
        },
        {
          "indexed": false,
          "internalType": "uint256",
          "name": "lessDai",
          "type": "uint256"
        },
        {
          "indexed": false,
          "internalType": "uint256",
          "name": "newUniv2",
          "type": "uint256"
        }
      ],
      "name": "Provide",
      "type": "event"
    },
    {
      "anonymous": false,
      "inputs": [
        {
          "indexed": true,
          "internalType": "address",
          "name": "account",
          "type": "address"
        },
        {
          "indexed": false,
          "internalType": "uint256",
          "name": "start",
          "type": "uint256"
        },
        {
          "indexed": false,
          "internalType": "uint256",
          "name": "value",
          "type": "uint256"
        },
        {
          "indexed": false,
          "internalType": "uint256",
          "name": "newClaimable",
          "type": "uint256"
        }
      ],
      "name": "Unbond",
      "type": "event"
    },
    {
      "anonymous": false,
      "inputs": [
        {
          "indexed": true,
          "internalType": "address",
          "name": "account",
          "type": "address"
        },
        {
          "indexed": false,
          "internalType": "uint256",
          "name": "value",
          "type": "uint256"
        }
      ],
      "name": "Withdraw",
      "type": "event"
    },
    {
      "constant": true,
      "inputs": [
        {
          "internalType": "address",
          "name": "account",
          "type": "address"
        }
      ],
      "name": "balanceOfBonded",
      "outputs": [
        {
          "internalType": "uint256",
          "name": "",
          "type": "uint256"
        }
      ],
      "payable": false,
      "stateMutability": "view",
      "type": "function"
    },
    {
      "constant": true,
      "inputs": [
        {
          "internalType": "address",
          "name": "account",
          "type": "address"
        }
      ],
      "name": "balanceOfClaimable",
      "outputs": [
        {
          "internalType": "uint256",
          "name": "",
          "type": "uint256"
        }
      ],
      "payable": false,
      "stateMutability": "view",
      "type": "function"
    },
    {
      "constant": true,
      "inputs": [
        {
          "internalType": "address",
          "name": "account",
          "type": "address"
        }
      ],
      "name": "balanceOfPhantom",
      "outputs": [
        {
          "internalType": "uint256",
          "name": "",
          "type": "uint256"
        }
      ],
      "payable": false,
      "stateMutability": "view",
      "type": "function"
    },
    {
      "constant": true,
      "inputs": [
        {
          "internalType": "address",
          "name": "account",
          "type": "address"
        }
      ],
      "name": "balanceOfRewarded",
      "outputs": [
        {
          "internalType": "uint256",
          "name": "",
          "type": "uint256"
        }
      ],
      "payable": false,
      "stateMutability": "view",
      "type": "function"
    },
    {
      "constant": true,
      "inputs": [
        {
          "internalType": "address",
          "name": "account",
          "type": "address"
        }
      ],
      "name": "balanceOfStaged",
      "outputs": [
        {
          "internalType": "uint256",
          "name": "",
          "type": "uint256"
        }
      ],
      "payable": false,
      "stateMutability": "view",
      "type": "function"
    },
    {
      "constant": false,
      "inputs": [
        {
          "internalType": "uint256",
          "name": "value",
          "type": "uint256"
        }
      ],
      "name": "bond",
      "outputs": [],
      "payable": false,
      "stateMutability": "nonpayable",
      "type": "function"
    },
    {
      "constant": false,
      "inputs": [
        {
          "internalType": "uint256",
          "name": "value",
          "type": "uint256"
        }
      ],
      "name": "claim",
      "outputs": [],
      "payable": false,
      "stateMutability": "nonpayable",
      "type": "function"
    },
    {
      "constant": false,
      "inputs": [
        {
          "internalType": "uint256",
          "name": "value",
          "type": "uint256"
        }
      ],
      "name": "deposit",
      "outputs": [],
      "payable": false,
      "stateMutability": "nonpayable",
      "type": "function"
    },
    {
      "constant": false,
      "inputs": [],
      "name": "emergencyPause",
      "outputs": [],
      "payable": false,
      "stateMutability": "nonpayable",
      "type": "function"
    },
    {
      "constant": false,
      "inputs": [
        {
          "internalType": "address",
          "name": "token",
          "type": "address"
        },
        {
          "internalType": "uint256",
          "name": "value",
          "type": "uint256"
        }
      ],
      "name": "emergencyWithdraw",
      "outputs": [],
      "payable": false,
      "stateMutability": "nonpayable",
      "type": "function"
    },
    {
      "constant": true,
      "inputs": [],
      "name": "paused",
      "outputs": [
        {
          "internalType": "bool",
          "name": "",
          "type": "bool"
        }
      ],
      "payable": false,
      "stateMutability": "view",
      "type": "function"
    },
    {
      "constant": false,
      "inputs": [
        {
          "internalType": "uint256",
          "name": "value",
          "type": "uint256"
        }
      ],
      "name": "provide",
      "outputs": [],
      "payable": false,
      "stateMutability": "nonpayable",
      "type": "function"
    },
    {
      "constant": true,
      "inputs": [
        {
          "internalType": "address",
          "name": "account",
          "type": "address"
        }
      ],
      "name": "statusOf",
      "outputs": [
        {
          "internalType": "enum PoolAccount.Status",
          "name": "",
          "type": "uint8"
        }
      ],
      "payable": false,
      "stateMutability": "view",
      "type": "function"
    },
    {
      "constant": true,
      "inputs": [],
      "name": "totalBonded",
      "outputs": [
        {
          "internalType": "uint256",
          "name": "",
          "type": "uint256"
        }
      ],
      "payable": false,
      "stateMutability": "view",
      "type": "function"
    },
    {
      "constant": true,
      "inputs": [],
      "name": "totalClaimable",
      "outputs": [
        {
          "internalType": "uint256",
          "name": "",
          "type": "uint256"
        }
      ],
      "payable": false,
      "stateMutability": "view",
      "type": "function"
    },
    {
      "constant": true,
      "inputs": [],
      "name": "totalPhantom",
      "outputs": [
        {
          "internalType": "uint256",
          "name": "",
          "type": "uint256"
        }
      ],
      "payable": false,
      "stateMutability": "view",
      "type": "function"
    },
    {
      "constant": true,
      "inputs": [],
      "name": "totalRewarded",
      "outputs": [
        {
          "internalType": "uint256",
          "name": "",
          "type": "uint256"
        }
      ],
      "payable": false,
      "stateMutability": "view",
      "type": "function"
    },
    {
      "constant": true,
      "inputs": [],
      "name": "totalStaged",
      "outputs": [
        {
          "internalType": "uint256",
          "name": "",
          "type": "uint256"
        }
      ],
      "payable": false,
      "stateMutability": "view",
      "type": "function"
    },
    {
      "constant": false,
      "inputs": [
        {
          "internalType": "uint256",
          "name": "value",
          "type": "uint256"
        }
      ],
      "name": "unbond",
      "outputs": [],
      "payable": false,
      "stateMutability": "nonpayable",
      "type": "function"
    },
    {
      "constant": false,
      "inputs": [
        {
          "internalType": "uint256",
          "name": "value",
          "type": "uint256"
        }
      ],
      "name": "withdraw",
      "outputs": [],
      "payable": false,
      "stateMutability": "nonpayable",
      "type": "function"
    },
    {
      "constant": false,
      "inputs": [
        {
          "internalType": "address",
          "name": "dao",
          "type": "address"
        },
        {
          "internalType": "address",
          "name": "ethic",
          "type": "address"
        },
        {
          "internalType": "address",
          "name": "univ2",
          "type": "address"
        }
      ],
      "name": "set",
      "outputs": [],
      "payable": false,
      "stateMutability": "nonpayable",
      "type": "function"
    },
    {
      "constant": true,
      "inputs": [],
      "name": "dai",
      "outputs": [
        {
          "internalType": "address",
          "name": "",
          "type": "address"
        }
      ],
      "payable": false,
      "stateMutability": "view",
      "type": "function"
    },
    {
      "constant": true,
      "inputs": [],
      "name": "dao",
      "outputs": [
        {
          "internalType": "contract IDAO",
          "name": "",
          "type": "address"
        }
      ],
      "payable": false,
      "stateMutability": "view",
      "type": "function"
    },
    {
      "constant": true,
      "inputs": [],
      "name": "ethic",
      "outputs": [
        {
          "internalType": "contract IEthic",
          "name": "",
          "type": "address"
        }
      ],
      "payable": false,
      "stateMutability": "view",
      "type": "function"
    },
    {
      "constant": true,
      "inputs": [],
      "name": "univ2",
      "outputs": [
        {
          "internalType": "contract IERC20",
          "name": "",
          "type": "address"
        }
      ],
      "payable": false,
      "stateMutability": "view",
      "type": "function"
    }
  ],
  "bytecode": "0x60806040523480156200001157600080fd5b5060405162001ec838038062001ec8833981016040819052620000349162000094565b60048054336001600160a01b0319918216179091556005805482166001600160a01b0395861617905560068054821692851692909217909155600980549091169190921617905562000114565b80516200008e81620000fa565b92915050565b600080600060608486031215620000aa57600080fd5b6000620000b8868662000081565b9350506020620000cb8682870162000081565b9250506040620000de8682870162000081565b9150509250925092565b60006001600160a01b0382166200008e565b6200010581620000e8565b81146200011157600080fd5b50565b611da480620001246000396000f3fe608060405234801561001057600080fd5b50600436106101735760003560e01c8063825ad607116100de578063aed29d0711610097578063c0ec4ac511610071578063c0ec4ac5146102f9578063cf02377914610301578063e0cf728514610309578063f4b9fa751461031157610173565b8063aed29d07146102cb578063b6b55f25146102d3578063c0d7a94f146102e657610173565b8063825ad6071461024c578063832092591461025f57806386cf9f141461027257806395ccea671461028557806397a5d5b5146102985780639940686e146102b857610173565b80634162169f116101305780634162169f1461020257806344d96e95146102175780634838ed191461021f57806351858e27146102275780635c975abb1461022f5780637298d36e1461024457610173565b80631667eb171461017857806327de9e32146101a157806329f32ed4146101b65780632e1a7d4d146101c95780632e2ebe06146101dc578063379607f5146101ef575b600080fd5b61018b610186366004611777565b610326565b6040516101989190611bae565b60405180910390f35b6101b46101af366004611885565b610348565b005b61018b6101c4366004611777565b610491565b6101b46101d7366004611885565b6104af565b6101b46101ea366004611885565b6105de565b6101b46101fd366004611885565b610783565b61020a61087a565b6040516101989190611b41565b61018b610889565b61018b61088f565b6101b4610895565b6102376108d6565b6040516101989190611b33565b61020a6108df565b61018b61025a366004611777565b6108ee565b6101b461026d36600461179d565b61090c565b61018b610280366004611777565b61094b565b6101b46102933660046117ea565b610966565b6102ab6102a6366004611777565b6109fd565b6040516101989190611b4f565b6101b46102c6366004611885565b610a37565b61018b610b25565b6101b46102e1366004611885565b610bc6565b61018b6102f4366004611777565b610cb1565b61020a610d39565b61018b610d48565b61018b610d4e565b610319610d54565b6040516101989190611ad4565b6001600160a01b0381166000908152600860205260409020600101545b919050565b61035133610d63565b600061035c336108ee565b90506103936000821163141bdbdb60e21b7f696e73756666696369656e7420626f6e6465642062616c616e63650000000000610d95565b60006103be826103b2856103a633610cb1565b9063ffffffff610df316565b9063ffffffff610e3416565b905060006103d3836103b2866103a633610491565b90506103df3385610e76565b6103e93383610ed3565b61040c3385604051806060016040528060218152602001611d4160219139610f38565b61042f3382604051806060016040528060228152602001611cfe60229139610fa0565b610437611008565b337f93530ac0ee8c50e696e13c5ac62355d0c0ba4bd943620d5bda1eb08b64ae751261047260016104666110d1565b9063ffffffff61114b16565b868560405161048393929190611bca565b60405180910390a250505050565b6001600160a01b031660009081526008602052604090206003015490565b336104e660005b6104bf836109fd565b60028111156104ca57fe5b1463141bdbdb60e21b692737ba10333937bd32b760b11b610d95565b6104ee6108df565b6001600160a01b031663a9059cbb33846040518363ffffffff1660e01b815260040161051b929190611b0a565b602060405180830381600087803b15801561053557600080fd5b505af1158015610549573d6000803e3d6000fd5b505050506040513d601f19601f8201168201806040525061056d9190810190611824565b506105913383604051806060016040528060218152602001611d2060219139611170565b610599611008565b336001600160a01b03167f884edad9ce6fa2440d8a54cc123490eb96d2768479d49ff9c7366125a9424364836040516105d29190611bae565b60405180910390a25050565b336105e960006104b6565b61060c6105f46108d6565b1563141bdbdb60e21b6514185d5cd95960d21b610d95565b6106486000610619610889565b1163141bdbdb60e21b7f696e73756666696369656e7420746f74616c20626f6e64656400000000000000610d95565b6106846000610655610b25565b1163141bdbdb60e21b7f696e73756666696369656e7420746f74616c2072657761726465640000000000610d95565b6106c18261069133610cb1565b101563141bdbdb60e21b7f696e73756666696369656e742072657761726465642062616c616e6365000000610d95565b6000806106cd846111d0565b9150915060006106ea856104666106e2610d4e565b610466610b25565b905060006107096106f9610889565b6103b2848663ffffffff610df316565b905061071533846113c3565b61072e33610729888463ffffffff61114b16565b611428565b610736611008565b336001600160a01b03167fbe9d8078818a53534ce225882a00e0c6f709b5296c8a08c3a1f23f9ffd44838087868660405161077393929190611bca565b60405180910390a2505050505050565b3361078e60006104b6565b610796610d39565b6001600160a01b031663a9059cbb33846040518363ffffffff1660e01b81526004016107c3929190611b0a565b602060405180830381600087803b1580156107dd57600080fd5b505af11580156107f1573d6000803e3d6000fd5b505050506040513d601f19601f820116820180604052506108159190810190611824565b506108393383604051806060016040528060248152602001611cda6024913961148d565b610841611008565b336001600160a01b03167f47cee97cb7acd717b3c0aa1435d004cd5b3c8c57d70dbceb4e4458bbd60e39d4836040516105d29190611bae565b600a546001600160a01b031690565b60025490565b60015490565b6108cc6108a061087a565b6001600160a01b0316336001600160a01b03161463141bdbdb60e21b664e6f742064616f60c81b610d95565b6108d46114f5565b565b60075460ff1690565b600c546001600160a01b031690565b6001600160a01b031660009081526008602052604090206002015490565b600a80546001600160a01b039485166001600160a01b031991821617909155600b805493851693821693909317909255600c8054919093169116179055565b6001600160a01b031660009081526008602052604090205490565b6109716108a061087a565b816001600160a01b031663a9059cbb61098861087a565b836040518363ffffffff1660e01b81526004016109a6929190611b25565b602060405180830381600087803b1580156109c057600080fd5b505af11580156109d4573d6000803e3d6000fd5b505050506040513d601f19601f820116820180604052506109f89190810190611824565b505050565b6001600160a01b038116600090815260086020526040812060040154610a216110d1565b1015610a2e576001610a31565b60005b92915050565b610a426105f46108d6565b610a4b33610d63565b6000610a586106e2610d4e565b90506000610a64610889565b15610a7957610a746106f9610889565b610a99565b610a81610b25565b15610a8d576000610a99565b610a99836103a6611504565b9050610aa533846113c3565b610aaf3382611428565b610ad23384604051806060016040528060218152602001611d2060219139611170565b610ada611008565b337f3ae9ad26d7d47616d306d7757b947fe7b0f9a7c61a5f0dc784b0ddb6c7c40b5a610b0960016104666110d1565b85604051610b18929190611bbc565b60405180910390a2505050565b6000610bc1610b3261088f565b610b3a610d39565b6001600160a01b03166370a08231306040518263ffffffff1660e01b8152600401610b659190611ad4565b60206040518083038186803b158015610b7d57600080fd5b505afa158015610b91573d6000803e3d6000fd5b505050506040513d601f19601f82011682018060405250610bb591908101906118a3565b9063ffffffff61150b16565b905090565b33610bd160006104b6565b610bdc6105f46108d6565b610be46108df565b6001600160a01b03166323b872dd3330856040518463ffffffff1660e01b8152600401610c1393929190611ae2565b602060405180830381600087803b158015610c2d57600080fd5b505af1158015610c41573d6000803e3d6000fd5b505050506040513d601f19601f82011682018060405250610c659190810190611824565b50610c703383610e76565b610c78611008565b336001600160a01b03167fe1fffcc4923d04b559f4d29a8bfc6cda04eb5b0d3c460751c2402c5c5cc9109c836040516105d29190611bae565b600080610cbc610889565b905080610ccd576000915050610343565b6000610cda6106e2610d4e565b90506000610cfb836103b2610cee886108ee565b859063ffffffff610df316565b90506000610d0886610491565b905080821115610d2d57610d22828263ffffffff61150b16565b945050505050610343565b50600095945050505050565b600b546001600160a01b031690565b60005490565b60035490565b6009546001600160a01b031690565b610d76610d6e61154d565b6104666110d1565b6001600160a01b03909116600090815260086020526040902060040155565b826109f857610da382611552565b6101d160f51b610db283611552565b604051602001610dc493929190611aa3565b60408051601f198184030181529082905262461bcd60e51b8252610dea91600401611b5d565b60405180910390fd5b600082610e0257506000610a31565b82820282848281610e0f57fe5b0414610e2d5760405162461bcd60e51b8152600401610dea90611b8e565b9392505050565b6000610e2d83836040518060400160405280601a81526020017f536166654d6174683a206469766973696f6e206279207a65726f0000000000008152506115d2565b6001600160a01b038216600090815260086020526040902054610e9f908263ffffffff61114b16565b6001600160a01b03831660009081526008602052604081209190915554610ecc908263ffffffff61114b16565b6000555050565b6001600160a01b038216600090815260086020526040902060010154610eff908263ffffffff61114b16565b6001600160a01b038316600090815260086020526040902060019081019190915554610f31908263ffffffff61114b16565b6001555050565b6001600160a01b038316600090815260086020526040902060020154610f6590838363ffffffff61160916565b6001600160a01b038416600090815260086020526040902060029081019190915554610f9890838363ffffffff61160916565b600255505050565b6001600160a01b038316600090815260086020526040902060030154610fcd90838363ffffffff61160916565b6001600160a01b03841660009081526008602052604090206003908101919091555461100090838363ffffffff61160916565b600355505050565b6108d461101e611016610889565b610466610d48565b6110266108df565b6001600160a01b03166370a08231306040518263ffffffff1660e01b81526004016110519190611ad4565b60206040518083038186803b15801561106957600080fd5b505afa15801561107d573d6000803e3d6000fd5b505050506040513d601f19601f820116820180604052506110a191908101906118a3565b101563141bdbdb60e21b7f496e636f6e73697374656e7420554e492d56322062616c616e63657300000000610d95565b60006110db61087a565b6001600160a01b031663900cf0cf6040518163ffffffff1660e01b815260040160206040518083038186803b15801561111357600080fd5b505afa158015611127573d6000803e3d6000fd5b505050506040513d601f19601f82011682018060405250610bc191908101906118a3565b600082820183811015610e2d5760405162461bcd60e51b8152600401610dea90611b6e565b6001600160a01b03831660009081526008602052604090205461119a90838363ffffffff61160916565b6001600160a01b038416600090815260086020526040812091909155546111c890838363ffffffff61160916565b600055505050565b6000806000806111de610d39565b6111e6610d54565b915091506000806111f78484611635565b91509150600082600014801561120b575081155b61121f5761121a8884846116c7565b611221565b875b9050600061122d6108df565b60405163a9059cbb60e01b81529091506001600160a01b0387169063a9059cbb9061125e9084908d90600401611b25565b602060405180830381600087803b15801561127857600080fd5b505af115801561128c573d6000803e3d6000fd5b505050506040513d601f19601f820116820180604052506112b09190810190611824565b506040516323b872dd60e01b81526001600160a01b038616906323b872dd906112e190339085908790600401611ae2565b602060405180830381600087803b1580156112fb57600080fd5b505af115801561130f573d6000803e3d6000fd5b505050506040513d601f19601f820116820180604052506113339190810190611824565b506040516335313c2160e11b815282906001600160a01b03831690636a62784290611362903090600401611ad4565b602060405180830381600087803b15801561137c57600080fd5b505af1158015611390573d6000803e3d6000fd5b505050506040513d601f19601f820116820180604052506113b491908101906118a3565b97509750505050505050915091565b6001600160a01b0382166000908152600860205260409020600201546113ef908263ffffffff61114b16565b6001600160a01b038316600090815260086020526040902060029081019190915554611421908263ffffffff61114b16565b6002555050565b6001600160a01b038216600090815260086020526040902060030154611454908263ffffffff61114b16565b6001600160a01b038316600090815260086020526040902060039081019190915554611486908263ffffffff61114b16565b6003555050565b6001600160a01b0383166000908152600860205260409020600101546114ba90838363ffffffff61160916565b6001600160a01b0384166000908152600860205260409020600190810191909155546114ed90838363ffffffff61160916565b600155505050565b6007805460ff19166001179055565b620f424090565b6000610e2d83836040518060400160405280601e81526020017f536166654d6174683a207375627472616374696f6e206f766572666c6f770000815250611609565b606090565b606080826040516020016115669190611a8e565b60408051601f19818403018152919052905060205b80156115bb5781516000199091019082908290811061159657fe5b01602001516001600160f81b031916156115b65760010181529050610343565b61157b565b505060408051600081526020810190915292915050565b600081836115f35760405162461bcd60e51b8152600401610dea9190611b5d565b5060008385816115ff57fe5b0495945050505050565b6000818484111561162d5760405162461bcd60e51b8152600401610dea9190611b5d565b505050900390565b6000806116406108df565b6001600160a01b0316630902f1ac6040518163ffffffff1660e01b815260040160606040518083038186803b15801561167857600080fd5b505afa15801561168c573d6000803e3d6000fd5b505050506040513d601f19601f820116820180604052506116b09190810190611842565b506001600160701b03918216969116945092505050565b60008084116116e85760405162461bcd60e51b8152600401610dea90611b9e565b6000831180156116f85750600082115b6117145760405162461bcd60e51b8152600401610dea90611b7e565b82611725858463ffffffff610df316565b8161172c57fe5b04949350505050565b8035610a3181611ca1565b8051610a3181611cb5565b8051610a3181611cbe565b8035610a3181611cc7565b8051610a3181611cc7565b8051610a3181611cd0565b60006020828403121561178957600080fd5b60006117958484611735565b949350505050565b6000806000606084860312156117b257600080fd5b60006117be8686611735565b93505060206117cf86828701611735565b92505060406117e086828701611735565b9150509250925092565b600080604083850312156117fd57600080fd5b60006118098585611735565b925050602061181a85828601611756565b9150509250929050565b60006020828403121561183657600080fd5b60006117958484611740565b60008060006060848603121561185757600080fd5b6000611863868661174b565b93505060206118748682870161174b565b92505060406117e08682870161176c565b60006020828403121561189757600080fd5b60006117958484611756565b6000602082840312156118b557600080fd5b60006117958484611761565b6118ca81611c3d565b82525050565b6118ca81611bf2565b6118ca81611bfd565b6118ca6118ee82611c02565b611c0f565b6118ca6118ee82611c0f565b600061190a82611be5565b6119148185610343565b9350611924818560208601611c5a565b9290920192915050565b6118ca81611c44565b6118ca81611c4f565b600061194b82611be5565b6119558185611be9565b9350611965818560208601611c5a565b61196e81611c8a565b9093019392505050565b6000611985601b83611be9565b7f536166654d6174683a206164646974696f6e206f766572666c6f770000000000815260200192915050565b60006119be602883611be9565b7f556e697377617056324c6962726172793a20494e53554646494349454e545f4c815267495155494449545960c01b602082015260400192915050565b6000611a08602183611be9565b7f536166654d6174683a206d756c7469706c69636174696f6e206f766572666c6f8152607760f81b602082015260400192915050565b6000611a4b602583611be9565b7f556e697377617056324c6962726172793a20494e53554646494349454e545f418152641353d5539560da1b602082015260400192915050565b6118ca81611c0f565b6000611a9a82846118f3565b50602001919050565b6000611aaf82866118ff565b9150611abb82856118e2565b600282019150611acb82846118ff565b95945050505050565b60208101610a3182846118d0565b60608101611af082866118c1565b611afd60208301856118d0565b6117956040830184611a85565b60408101611b1882856118c1565b610e2d6020830184611a85565b60408101611b1882856118d0565b60208101610a3182846118d9565b60208101610a31828461192e565b60208101610a318284611937565b60208082528101610e2d8184611940565b60208082528101610a3181611978565b60208082528101610a31816119b1565b60208082528101610a31816119fb565b60208082528101610a3181611a3e565b60208101610a318284611a85565b60408101611b188285611a85565b60608101611bd88286611a85565b611afd6020830185611a85565b5190565b90815260200190565b6000610a3182611c28565b151590565b6001600160f01b03191690565b90565b8061034381611c94565b6001600160701b031690565b6001600160a01b031690565b63ffffffff1690565b6000610a31825b6000610a3182611bf2565b6000610a3182611c12565b60005b83811015611c75578181015183820152602001611c5d565b83811115611c84576000848401525b50505050565b601f01601f191690565b60038110611c9e57fe5b50565b611caa81611bf2565b8114611c9e57600080fd5b611caa81611bfd565b611caa81611c1c565b611caa81611c0f565b611caa81611c3456fe506f6f6c3a20696e73756666696369656e7420636c61696d61626c652062616c616e6365506f6f6c3a20696e73756666696369656e74207068616e746f6d2062616c616e6365506f6f6c3a20696e73756666696369656e74207374616765642062616c616e6365506f6f6c3a20696e73756666696369656e7420626f6e6465642062616c616e6365a365627a7a723158209085cbc395f4152384f3d7bb01beaaea234cadfeb4c756ffc475bfa40de55f6d6c6578706572696d656e74616cf564736f6c63430005110040",
  "source": "/*\n    Copyright 2021 Ethic Money Devs <devs@ethic.money> and Copyright 2020 Empty Set Squad <emptysetsquad@protonmail.com>\n\n    Licensed under the Apache License, Version 2.0 (the \"License\");\n    you may not use this file except in compliance with the License.\n    You may obtain a copy of the License at\n\n    http://www.apache.org/licenses/LICENSE-2.0\n\n    Unless required by applicable law or agreed to in writing, software\n    distributed under the License is distributed on an \"AS IS\" BASIS,\n    WITHOUT WARRANTIES OR CONDITIONS OF ANY KIND, either express or implied.\n    See the License for the specific language governing permissions and\n    limitations under the License.\n*/\n\npragma solidity ^0.5.17;\npragma experimental ABIEncoderV2;\n\nimport \"../oracle/Pool.sol\";\n\ncontract MockPool is Pool {\n    address private _dai;\n    address private _dao;\n    address private _ethic;\n    address private _univ2;\n\n    constructor(address ethic, address dai, address univ2) Pool(ethic, univ2) public {\n        _dai = dai;\n    }\n\n    function set(address dao, address ethic, address univ2) external {\n        _dao = dao;\n        _ethic = ethic;\n        _univ2 = univ2;\n    }\n\n    function dai() public view returns (address) {\n        return _dai;\n    }\n\n    function dao() public view returns (IDAO) {\n        return IDAO(_dao);\n    }\n\n    function ethic() public view returns (IEthic) {\n        return IEthic(_ethic);\n    }\n\n    function univ2() public view returns (IERC20) {\n        return IERC20(_univ2);\n    }\n\n    function getReserves(address tokenA, address tokenB) internal view returns (uint reserveA, uint reserveB) {\n        (reserveA, reserveB,) = IUniswapV2Pair(address(univ2())).getReserves();\n    }\n}\n",
  "sourcePath": "/home/ville/projects/ethic/protocol/contracts/mock/MockPool.sol",
  "compiler": {
    "name": "solc",
    "version": "0.5.17+commit.d19bba13.Emscripten.clang"
  },
  "schemaVersion": "3.3.2",
  "updatedAt": "2021-02-04T14:36:42.372Z",
  "devdoc": {
    "methods": {}
  },
  "userdoc": {
    "methods": {
      "balanceOfStaged(address)": {
        "notice": "Account"
      }
    }
  }
}