{
  "contractName": "MockMarket",
  "abi": [
    {
      "inputs": [
        {
          "internalType": "address",
          "name": "pool",
          "type": "address"
        }
      ],
      "payable": false,
      "stateMutability": "nonpayable",
      "type": "constructor"
    },
    {
      "anonymous": false,
      "inputs": [
        {
          "indexed": true,
          "internalType": "address",
          "name": "owner",
          "type": "address"
        },
        {
          "indexed": true,
          "internalType": "address",
          "name": "spender",
          "type": "address"
        },
        {
          "indexed": false,
          "internalType": "uint256",
          "name": "value",
          "type": "uint256"
        }
      ],
      "name": "CouponApproval",
      "type": "event"
    },
    {
      "anonymous": false,
      "inputs": [
        {
          "indexed": true,
          "internalType": "address",
          "name": "account",
          "type": "address"
        },
        {
          "indexed": true,
          "internalType": "uint256",
          "name": "epoch",
          "type": "uint256"
        },
        {
          "indexed": false,
          "internalType": "uint256",
          "name": "couponAmount",
          "type": "uint256"
        }
      ],
      "name": "CouponBurn",
      "type": "event"
    },
    {
      "anonymous": false,
      "inputs": [
        {
          "indexed": true,
          "internalType": "uint256",
          "name": "epoch",
          "type": "uint256"
        },
        {
          "indexed": false,
          "internalType": "uint256",
          "name": "couponsExpired",
          "type": "uint256"
        },
        {
          "indexed": false,
          "internalType": "uint256",
          "name": "lessRedeemable",
          "type": "uint256"
        },
        {
          "indexed": false,
          "internalType": "uint256",
          "name": "lessDebt",
          "type": "uint256"
        },
        {
          "indexed": false,
          "internalType": "uint256",
          "name": "newBonded",
          "type": "uint256"
        }
      ],
      "name": "CouponExpiration",
      "type": "event"
    },
    {
      "anonymous": false,
      "inputs": [
        {
          "indexed": true,
          "internalType": "address",
          "name": "account",
          "type": "address"
        },
        {
          "indexed": true,
          "internalType": "uint256",
          "name": "epoch",
          "type": "uint256"
        },
        {
          "indexed": false,
          "internalType": "uint256",
          "name": "dollarAmount",
          "type": "uint256"
        },
        {
          "indexed": false,
          "internalType": "uint256",
          "name": "couponAmount",
          "type": "uint256"
        }
      ],
      "name": "CouponPurchase",
      "type": "event"
    },
    {
      "anonymous": false,
      "inputs": [
        {
          "indexed": true,
          "internalType": "address",
          "name": "account",
          "type": "address"
        },
        {
          "indexed": true,
          "internalType": "uint256",
          "name": "epoch",
          "type": "uint256"
        },
        {
          "indexed": false,
          "internalType": "uint256",
          "name": "couponAmount",
          "type": "uint256"
        }
      ],
      "name": "CouponRedemption",
      "type": "event"
    },
    {
      "anonymous": false,
      "inputs": [
        {
          "indexed": true,
          "internalType": "address",
          "name": "from",
          "type": "address"
        },
        {
          "indexed": true,
          "internalType": "address",
          "name": "to",
          "type": "address"
        },
        {
          "indexed": true,
          "internalType": "uint256",
          "name": "epoch",
          "type": "uint256"
        },
        {
          "indexed": false,
          "internalType": "uint256",
          "name": "value",
          "type": "uint256"
        }
      ],
      "name": "CouponTransfer",
      "type": "event"
    },
    {
      "anonymous": false,
      "inputs": [
        {
          "indexed": true,
          "internalType": "address",
          "name": "from",
          "type": "address"
        },
        {
          "indexed": true,
          "internalType": "address",
          "name": "to",
          "type": "address"
        },
        {
          "indexed": false,
          "internalType": "uint256",
          "name": "value",
          "type": "uint256"
        }
      ],
      "name": "Transfer",
      "type": "event"
    },
    {
      "constant": true,
      "inputs": [
        {
          "internalType": "address",
          "name": "owner",
          "type": "address"
        },
        {
          "internalType": "address",
          "name": "spender",
          "type": "address"
        }
      ],
      "name": "allowance",
      "outputs": [
        {
          "internalType": "uint256",
          "name": "",
          "type": "uint256"
        }
      ],
      "payable": false,
      "stateMutability": "view",
      "type": "function"
    },
    {
      "constant": true,
      "inputs": [
        {
          "internalType": "address",
          "name": "owner",
          "type": "address"
        },
        {
          "internalType": "address",
          "name": "spender",
          "type": "address"
        }
      ],
      "name": "allowanceCoupons",
      "outputs": [
        {
          "internalType": "uint256",
          "name": "",
          "type": "uint256"
        }
      ],
      "payable": false,
      "stateMutability": "view",
      "type": "function"
    },
    {
      "constant": false,
      "inputs": [
        {
          "internalType": "address",
          "name": "spender",
          "type": "address"
        },
        {
          "internalType": "uint256",
          "name": "amount",
          "type": "uint256"
        }
      ],
      "name": "approve",
      "outputs": [
        {
          "internalType": "bool",
          "name": "",
          "type": "bool"
        }
      ],
      "payable": false,
      "stateMutability": "nonpayable",
      "type": "function"
    },
    {
      "constant": false,
      "inputs": [
        {
          "internalType": "address",
          "name": "spender",
          "type": "address"
        },
        {
          "internalType": "uint256",
          "name": "amount",
          "type": "uint256"
        }
      ],
      "name": "approveCoupons",
      "outputs": [],
      "payable": false,
      "stateMutability": "nonpayable",
      "type": "function"
    },
    {
      "constant": true,
      "inputs": [
        {
          "internalType": "address",
          "name": "candidate",
          "type": "address"
        }
      ],
      "name": "approveFor",
      "outputs": [
        {
          "internalType": "uint256",
          "name": "",
          "type": "uint256"
        }
      ],
      "payable": false,
      "stateMutability": "view",
      "type": "function"
    },
    {
      "constant": true,
      "inputs": [
        {
          "internalType": "address",
          "name": "account",
          "type": "address"
        }
      ],
      "name": "balanceOf",
      "outputs": [
        {
          "internalType": "uint256",
          "name": "",
          "type": "uint256"
        }
      ],
      "payable": false,
      "stateMutability": "view",
      "type": "function"
    },
    {
      "constant": true,
      "inputs": [
        {
          "internalType": "address",
          "name": "account",
          "type": "address"
        }
      ],
      "name": "balanceOfBonded",
      "outputs": [
        {
          "internalType": "uint256",
          "name": "",
          "type": "uint256"
        }
      ],
      "payable": false,
      "stateMutability": "view",
      "type": "function"
    },
    {
      "constant": true,
      "inputs": [
        {
          "internalType": "address",
          "name": "account",
          "type": "address"
        },
        {
          "internalType": "uint256",
          "name": "epoch",
          "type": "uint256"
        }
      ],
      "name": "balanceOfCoupons",
      "outputs": [
        {
          "internalType": "uint256",
          "name": "",
          "type": "uint256"
        }
      ],
      "payable": false,
      "stateMutability": "view",
      "type": "function"
    },
    {
      "constant": true,
      "inputs": [
        {
          "internalType": "address",
          "name": "account",
          "type": "address"
        }
      ],
      "name": "balanceOfStaged",
      "outputs": [
        {
          "internalType": "uint256",
          "name": "",
          "type": "uint256"
        }
      ],
      "payable": false,
      "stateMutability": "view",
      "type": "function"
    },
    {
      "constant": true,
      "inputs": [
        {
          "internalType": "uint256",
          "name": "epoch",
          "type": "uint256"
        }
      ],
      "name": "bootstrappingAt",
      "outputs": [
        {
          "internalType": "bool",
          "name": "",
          "type": "bool"
        }
      ],
      "payable": false,
      "stateMutability": "view",
      "type": "function"
    },
    {
      "constant": false,
      "inputs": [
        {
          "internalType": "address",
          "name": "account",
          "type": "address"
        },
        {
          "internalType": "uint256",
          "name": "amount",
          "type": "uint256"
        }
      ],
      "name": "burnFromAccountE",
      "outputs": [],
      "payable": false,
      "stateMutability": "nonpayable",
      "type": "function"
    },
    {
      "constant": false,
      "inputs": [
        {
          "internalType": "uint256",
          "name": "amount",
          "type": "uint256"
        }
      ],
      "name": "burnRedeemableE",
      "outputs": [],
      "payable": false,
      "stateMutability": "nonpayable",
      "type": "function"
    },
    {
      "constant": true,
      "inputs": [
        {
          "internalType": "uint256",
          "name": "amount",
          "type": "uint256"
        }
      ],
      "name": "couponPremium",
      "outputs": [
        {
          "internalType": "uint256",
          "name": "",
          "type": "uint256"
        }
      ],
      "payable": false,
      "stateMutability": "view",
      "type": "function"
    },
    {
      "constant": true,
      "inputs": [
        {
          "internalType": "uint256",
          "name": "couponEpoch",
          "type": "uint256"
        },
        {
          "internalType": "uint256",
          "name": "couponAmount",
          "type": "uint256"
        }
      ],
      "name": "couponRedemptionPenalty",
      "outputs": [
        {
          "internalType": "uint256",
          "name": "",
          "type": "uint256"
        }
      ],
      "payable": false,
      "stateMutability": "view",
      "type": "function"
    },
    {
      "constant": true,
      "inputs": [
        {
          "internalType": "uint256",
          "name": "epoch",
          "type": "uint256"
        }
      ],
      "name": "couponsExpiration",
      "outputs": [
        {
          "internalType": "uint256",
          "name": "",
          "type": "uint256"
        }
      ],
      "payable": false,
      "stateMutability": "view",
      "type": "function"
    },
    {
      "constant": false,
      "inputs": [
        {
          "internalType": "address",
          "name": "candidate",
          "type": "address"
        },
        {
          "internalType": "uint256",
          "name": "period",
          "type": "uint256"
        }
      ],
      "name": "createCandidateE",
      "outputs": [],
      "payable": false,
      "stateMutability": "nonpayable",
      "type": "function"
    },
    {
      "constant": true,
      "inputs": [],
      "name": "decimals",
      "outputs": [
        {
          "internalType": "uint8",
          "name": "",
          "type": "uint8"
        }
      ],
      "payable": false,
      "stateMutability": "view",
      "type": "function"
    },
    {
      "constant": false,
      "inputs": [
        {
          "internalType": "uint256",
          "name": "amount",
          "type": "uint256"
        }
      ],
      "name": "decreaseDebtE",
      "outputs": [],
      "payable": false,
      "stateMutability": "nonpayable",
      "type": "function"
    },
    {
      "constant": false,
      "inputs": [
        {
          "internalType": "address",
          "name": "owner",
          "type": "address"
        },
        {
          "internalType": "address",
          "name": "spender",
          "type": "address"
        },
        {
          "internalType": "uint256",
          "name": "amount",
          "type": "uint256"
        },
        {
          "internalType": "string",
          "name": "reason",
          "type": "string"
        }
      ],
      "name": "decrementAllowanceCouponsE",
      "outputs": [],
      "payable": false,
      "stateMutability": "nonpayable",
      "type": "function"
    },
    {
      "constant": false,
      "inputs": [
        {
          "internalType": "address",
          "name": "candidate",
          "type": "address"
        },
        {
          "internalType": "uint256",
          "name": "amount",
          "type": "uint256"
        },
        {
          "internalType": "string",
          "name": "reason",
          "type": "string"
        }
      ],
      "name": "decrementApproveForE",
      "outputs": [],
      "payable": false,
      "stateMutability": "nonpayable",
      "type": "function"
    },
    {
      "constant": false,
      "inputs": [
        {
          "internalType": "address",
          "name": "account",
          "type": "address"
        },
        {
          "internalType": "uint256",
          "name": "epoch",
          "type": "uint256"
        },
        {
          "internalType": "uint256",
          "name": "amount",
          "type": "uint256"
        },
        {
          "internalType": "string",
          "name": "reason",
          "type": "string"
        }
      ],
      "name": "decrementBalanceOfCouponsE",
      "outputs": [],
      "payable": false,
      "stateMutability": "nonpayable",
      "type": "function"
    },
    {
      "constant": false,
      "inputs": [
        {
          "internalType": "address",
          "name": "account",
          "type": "address"
        },
        {
          "internalType": "uint256",
          "name": "amount",
          "type": "uint256"
        },
        {
          "internalType": "string",
          "name": "reason",
          "type": "string"
        }
      ],
      "name": "decrementBalanceOfE",
      "outputs": [],
      "payable": false,
      "stateMutability": "nonpayable",
      "type": "function"
    },
    {
      "constant": false,
      "inputs": [
        {
          "internalType": "address",
          "name": "account",
          "type": "address"
        },
        {
          "internalType": "uint256",
          "name": "amount",
          "type": "uint256"
        },
        {
          "internalType": "string",
          "name": "reason",
          "type": "string"
        }
      ],
      "name": "decrementBalanceOfStagedE",
      "outputs": [],
      "payable": false,
      "stateMutability": "nonpayable",
      "type": "function"
    },
    {
      "constant": false,
      "inputs": [
        {
          "internalType": "address",
          "name": "candidate",
          "type": "address"
        },
        {
          "internalType": "uint256",
          "name": "amount",
          "type": "uint256"
        },
        {
          "internalType": "string",
          "name": "reason",
          "type": "string"
        }
      ],
      "name": "decrementRejectForE",
      "outputs": [],
      "payable": false,
      "stateMutability": "nonpayable",
      "type": "function"
    },
    {
      "constant": false,
      "inputs": [
        {
          "internalType": "uint256",
          "name": "amount",
          "type": "uint256"
        },
        {
          "internalType": "string",
          "name": "reason",
          "type": "string"
        }
      ],
      "name": "decrementTotalBondedE",
      "outputs": [],
      "payable": false,
      "stateMutability": "nonpayable",
      "type": "function"
    },
    {
      "constant": false,
      "inputs": [
        {
          "internalType": "uint256",
          "name": "amount",
          "type": "uint256"
        },
        {
          "internalType": "string",
          "name": "reason",
          "type": "string"
        }
      ],
      "name": "decrementTotalDebtE",
      "outputs": [],
      "payable": false,
      "stateMutability": "nonpayable",
      "type": "function"
    },
    {
      "constant": false,
      "inputs": [
        {
          "internalType": "uint256",
          "name": "amount",
          "type": "uint256"
        },
        {
          "internalType": "string",
          "name": "reason",
          "type": "string"
        }
      ],
      "name": "decrementTotalRedeemableE",
      "outputs": [],
      "payable": false,
      "stateMutability": "nonpayable",
      "type": "function"
    },
    {
      "constant": false,
      "inputs": [
        {
          "internalType": "uint256",
          "name": "epoch",
          "type": "uint256"
        }
      ],
      "name": "eliminateOutstandingCouponsE",
      "outputs": [],
      "payable": false,
      "stateMutability": "nonpayable",
      "type": "function"
    },
    {
      "constant": true,
      "inputs": [],
      "name": "epoch",
      "outputs": [
        {
          "internalType": "uint256",
          "name": "",
          "type": "uint256"
        }
      ],
      "payable": false,
      "stateMutability": "view",
      "type": "function"
    },
    {
      "constant": true,
      "inputs": [],
      "name": "epochTime",
      "outputs": [
        {
          "internalType": "uint256",
          "name": "",
          "type": "uint256"
        }
      ],
      "payable": false,
      "stateMutability": "view",
      "type": "function"
    },
    {
      "constant": true,
      "inputs": [],
      "name": "ethic",
      "outputs": [
        {
          "internalType": "contract IEthic",
          "name": "",
          "type": "address"
        }
      ],
      "payable": false,
      "stateMutability": "view",
      "type": "function"
    },
    {
      "constant": true,
      "inputs": [
        {
          "internalType": "uint256",
          "name": "epoch",
          "type": "uint256"
        }
      ],
      "name": "expiringCoupons",
      "outputs": [
        {
          "internalType": "uint256",
          "name": "",
          "type": "uint256"
        }
      ],
      "payable": false,
      "stateMutability": "view",
      "type": "function"
    },
    {
      "constant": true,
      "inputs": [
        {
          "internalType": "uint256",
          "name": "epoch",
          "type": "uint256"
        },
        {
          "internalType": "uint256",
          "name": "i",
          "type": "uint256"
        }
      ],
      "name": "expiringCouponsAtIndex",
      "outputs": [
        {
          "internalType": "uint256",
          "name": "",
          "type": "uint256"
        }
      ],
      "payable": false,
      "stateMutability": "view",
      "type": "function"
    },
    {
      "constant": true,
      "inputs": [
        {
          "internalType": "address",
          "name": "account",
          "type": "address"
        }
      ],
      "name": "fluidUntil",
      "outputs": [
        {
          "internalType": "uint256",
          "name": "",
          "type": "uint256"
        }
      ],
      "payable": false,
      "stateMutability": "view",
      "type": "function"
    },
    {
      "constant": true,
      "inputs": [],
      "name": "implementation",
      "outputs": [
        {
          "internalType": "address",
          "name": "impl",
          "type": "address"
        }
      ],
      "payable": false,
      "stateMutability": "view",
      "type": "function"
    },
    {
      "constant": false,
      "inputs": [
        {
          "internalType": "uint256",
          "name": "amount",
          "type": "uint256"
        }
      ],
      "name": "increaseDebtE",
      "outputs": [],
      "payable": false,
      "stateMutability": "nonpayable",
      "type": "function"
    },
    {
      "constant": false,
      "inputs": [
        {
          "internalType": "address",
          "name": "candidate",
          "type": "address"
        },
        {
          "internalType": "uint256",
          "name": "amount",
          "type": "uint256"
        }
      ],
      "name": "incrementApproveForE",
      "outputs": [],
      "payable": false,
      "stateMutability": "nonpayable",
      "type": "function"
    },
    {
      "constant": false,
      "inputs": [
        {
          "internalType": "address",
          "name": "account",
          "type": "address"
        },
        {
          "internalType": "uint256",
          "name": "epoch",
          "type": "uint256"
        },
        {
          "internalType": "uint256",
          "name": "amount",
          "type": "uint256"
        }
      ],
      "name": "incrementBalanceOfCouponsE",
      "outputs": [],
      "payable": false,
      "stateMutability": "nonpayable",
      "type": "function"
    },
    {
      "constant": false,
      "inputs": [
        {
          "internalType": "address",
          "name": "account",
          "type": "address"
        },
        {
          "internalType": "uint256",
          "name": "amount",
          "type": "uint256"
        }
      ],
      "name": "incrementBalanceOfE",
      "outputs": [],
      "payable": false,
      "stateMutability": "nonpayable",
      "type": "function"
    },
    {
      "constant": false,
      "inputs": [
        {
          "internalType": "address",
          "name": "account",
          "type": "address"
        },
        {
          "internalType": "uint256",
          "name": "amount",
          "type": "uint256"
        }
      ],
      "name": "incrementBalanceOfStagedE",
      "outputs": [],
      "payable": false,
      "stateMutability": "nonpayable",
      "type": "function"
    },
    {
      "constant": false,
      "inputs": [],
      "name": "incrementEpochE",
      "outputs": [],
      "payable": false,
      "stateMutability": "nonpayable",
      "type": "function"
    },
    {
      "constant": false,
      "inputs": [
        {
          "internalType": "address",
          "name": "candidate",
          "type": "address"
        },
        {
          "internalType": "uint256",
          "name": "amount",
          "type": "uint256"
        }
      ],
      "name": "incrementRejectForE",
      "outputs": [],
      "payable": false,
      "stateMutability": "nonpayable",
      "type": "function"
    },
    {
      "constant": false,
      "inputs": [
        {
          "internalType": "uint256",
          "name": "amount",
          "type": "uint256"
        }
      ],
      "name": "incrementTotalBondedE",
      "outputs": [],
      "payable": false,
      "stateMutability": "nonpayable",
      "type": "function"
    },
    {
      "constant": false,
      "inputs": [
        {
          "internalType": "uint256",
          "name": "amount",
          "type": "uint256"
        }
      ],
      "name": "incrementTotalDebtE",
      "outputs": [],
      "payable": false,
      "stateMutability": "nonpayable",
      "type": "function"
    },
    {
      "constant": false,
      "inputs": [
        {
          "internalType": "uint256",
          "name": "amount",
          "type": "uint256"
        }
      ],
      "name": "incrementTotalRedeemableE",
      "outputs": [],
      "payable": false,
      "stateMutability": "nonpayable",
      "type": "function"
    },
    {
      "constant": false,
      "inputs": [
        {
          "internalType": "uint256",
          "name": "epoch",
          "type": "uint256"
        },
        {
          "internalType": "uint256",
          "name": "expiration",
          "type": "uint256"
        }
      ],
      "name": "initializeCouponsExpirationE",
      "outputs": [],
      "payable": false,
      "stateMutability": "nonpayable",
      "type": "function"
    },
    {
      "constant": false,
      "inputs": [
        {
          "internalType": "address",
          "name": "candidate",
          "type": "address"
        }
      ],
      "name": "initializedE",
      "outputs": [],
      "payable": false,
      "stateMutability": "nonpayable",
      "type": "function"
    },
    {
      "constant": true,
      "inputs": [
        {
          "internalType": "address",
          "name": "candidate",
          "type": "address"
        }
      ],
      "name": "isInitialized",
      "outputs": [
        {
          "internalType": "bool",
          "name": "",
          "type": "bool"
        }
      ],
      "payable": false,
      "stateMutability": "view",
      "type": "function"
    },
    {
      "constant": true,
      "inputs": [
        {
          "internalType": "address",
          "name": "candidate",
          "type": "address"
        }
      ],
      "name": "isNominated",
      "outputs": [
        {
          "internalType": "bool",
          "name": "",
          "type": "bool"
        }
      ],
      "payable": false,
      "stateMutability": "view",
      "type": "function"
    },
    {
      "constant": true,
      "inputs": [
        {
          "internalType": "address",
          "name": "account",
          "type": "address"
        }
      ],
      "name": "lockedUntil",
      "outputs": [
        {
          "internalType": "uint256",
          "name": "",
          "type": "uint256"
        }
      ],
      "payable": false,
      "stateMutability": "view",
      "type": "function"
    },
    {
      "constant": false,
      "inputs": [
        {
          "internalType": "address",
          "name": "account",
          "type": "address"
        },
        {
          "internalType": "uint256",
          "name": "amount",
          "type": "uint256"
        }
      ],
      "name": "mintToAccountE",
      "outputs": [],
      "payable": false,
      "stateMutability": "nonpayable",
      "type": "function"
    },
    {
      "constant": false,
      "inputs": [
        {
          "internalType": "address",
          "name": "account",
          "type": "address"
        },
        {
          "internalType": "uint256",
          "name": "amount",
          "type": "uint256"
        }
      ],
      "name": "mintToE",
      "outputs": [],
      "payable": false,
      "stateMutability": "nonpayable",
      "type": "function"
    },
    {
      "constant": true,
      "inputs": [],
      "name": "name",
      "outputs": [
        {
          "internalType": "string",
          "name": "",
          "type": "string"
        }
      ],
      "payable": false,
      "stateMutability": "view",
      "type": "function"
    },
    {
      "constant": true,
      "inputs": [],
      "name": "oracle",
      "outputs": [
        {
          "internalType": "contract IOracle",
          "name": "",
          "type": "address"
        }
      ],
      "payable": false,
      "stateMutability": "view",
      "type": "function"
    },
    {
      "constant": true,
      "inputs": [
        {
          "internalType": "uint256",
          "name": "epoch",
          "type": "uint256"
        }
      ],
      "name": "outstandingCoupons",
      "outputs": [
        {
          "internalType": "uint256",
          "name": "",
          "type": "uint256"
        }
      ],
      "payable": false,
      "stateMutability": "view",
      "type": "function"
    },
    {
      "constant": true,
      "inputs": [
        {
          "internalType": "address",
          "name": "candidate",
          "type": "address"
        }
      ],
      "name": "periodFor",
      "outputs": [
        {
          "internalType": "uint256",
          "name": "",
          "type": "uint256"
        }
      ],
      "payable": false,
      "stateMutability": "view",
      "type": "function"
    },
    {
      "constant": false,
      "inputs": [
        {
          "internalType": "address",
          "name": "account",
          "type": "address"
        },
        {
          "internalType": "address",
          "name": "candidate",
          "type": "address"
        }
      ],
      "name": "placeLockE",
      "outputs": [],
      "payable": false,
      "stateMutability": "nonpayable",
      "type": "function"
    },
    {
      "constant": true,
      "inputs": [],
      "name": "pool",
      "outputs": [
        {
          "internalType": "address",
          "name": "",
          "type": "address"
        }
      ],
      "payable": false,
      "stateMutability": "view",
      "type": "function"
    },
    {
      "constant": false,
      "inputs": [
        {
          "internalType": "uint256",
          "name": "ethicAmount",
          "type": "uint256"
        }
      ],
      "name": "purchaseCoupons",
      "outputs": [
        {
          "internalType": "uint256",
          "name": "",
          "type": "uint256"
        }
      ],
      "payable": false,
      "stateMutability": "nonpayable",
      "type": "function"
    },
    {
      "constant": false,
      "inputs": [
        {
          "internalType": "address",
          "name": "account",
          "type": "address"
        },
        {
          "internalType": "address",
          "name": "candidate",
          "type": "address"
        },
        {
          "internalType": "enum Candidate.Vote",
          "name": "vote",
          "type": "uint8"
        }
      ],
      "name": "recordVoteE",
      "outputs": [],
      "payable": false,
      "stateMutability": "nonpayable",
      "type": "function"
    },
    {
      "constant": true,
      "inputs": [
        {
          "internalType": "address",
          "name": "account",
          "type": "address"
        },
        {
          "internalType": "address",
          "name": "candidate",
          "type": "address"
        }
      ],
      "name": "recordedVote",
      "outputs": [
        {
          "internalType": "enum Candidate.Vote",
          "name": "",
          "type": "uint8"
        }
      ],
      "payable": false,
      "stateMutability": "view",
      "type": "function"
    },
    {
      "constant": false,
      "inputs": [
        {
          "internalType": "uint256",
          "name": "couponEpoch",
          "type": "uint256"
        },
        {
          "internalType": "uint256",
          "name": "couponAmount",
          "type": "uint256"
        }
      ],
      "name": "redeemCoupons",
      "outputs": [],
      "payable": false,
      "stateMutability": "nonpayable",
      "type": "function"
    },
    {
      "constant": false,
      "inputs": [
        {
          "internalType": "address",
          "name": "account",
          "type": "address"
        },
        {
          "internalType": "uint256",
          "name": "amount",
          "type": "uint256"
        }
      ],
      "name": "redeemToAccountE",
      "outputs": [],
      "payable": false,
      "stateMutability": "nonpayable",
      "type": "function"
    },
    {
      "constant": true,
      "inputs": [
        {
          "internalType": "address",
          "name": "candidate",
          "type": "address"
        }
      ],
      "name": "rejectFor",
      "outputs": [
        {
          "internalType": "uint256",
          "name": "",
          "type": "uint256"
        }
      ],
      "payable": false,
      "stateMutability": "view",
      "type": "function"
    },
    {
      "constant": false,
      "inputs": [
        {
          "internalType": "uint256",
          "name": "percent",
          "type": "uint256"
        }
      ],
      "name": "resetDebtE",
      "outputs": [],
      "payable": false,
      "stateMutability": "nonpayable",
      "type": "function"
    },
    {
      "constant": false,
      "inputs": [
        {
          "internalType": "uint256",
          "name": "timestamp",
          "type": "uint256"
        }
      ],
      "name": "setBlockTimestamp",
      "outputs": [],
      "payable": false,
      "stateMutability": "nonpayable",
      "type": "function"
    },
    {
      "constant": false,
      "inputs": [
        {
          "internalType": "uint256",
          "name": "start",
          "type": "uint256"
        },
        {
          "internalType": "uint256",
          "name": "period",
          "type": "uint256"
        }
      ],
      "name": "setEpochParamsE",
      "outputs": [],
      "payable": false,
      "stateMutability": "nonpayable",
      "type": "function"
    },
    {
      "constant": false,
      "inputs": [],
      "name": "snapshotTotalBondedE",
      "outputs": [],
      "payable": false,
      "stateMutability": "nonpayable",
      "type": "function"
    },
    {
      "constant": true,
      "inputs": [
        {
          "internalType": "address",
          "name": "candidate",
          "type": "address"
        }
      ],
      "name": "startFor",
      "outputs": [
        {
          "internalType": "uint256",
          "name": "",
          "type": "uint256"
        }
      ],
      "payable": false,
      "stateMutability": "view",
      "type": "function"
    },
    {
      "constant": true,
      "inputs": [
        {
          "internalType": "address",
          "name": "account",
          "type": "address"
        }
      ],
      "name": "statusOf",
      "outputs": [
        {
          "internalType": "enum Account.Status",
          "name": "",
          "type": "uint8"
        }
      ],
      "payable": false,
      "stateMutability": "view",
      "type": "function"
    },
    {
      "constant": true,
      "inputs": [],
      "name": "symbol",
      "outputs": [
        {
          "internalType": "string",
          "name": "",
          "type": "string"
        }
      ],
      "payable": false,
      "stateMutability": "view",
      "type": "function"
    },
    {
      "constant": true,
      "inputs": [],
      "name": "totalBonded",
      "outputs": [
        {
          "internalType": "uint256",
          "name": "",
          "type": "uint256"
        }
      ],
      "payable": false,
      "stateMutability": "view",
      "type": "function"
    },
    {
      "constant": true,
      "inputs": [
        {
          "internalType": "uint256",
          "name": "epoch",
          "type": "uint256"
        }
      ],
      "name": "totalBondedAt",
      "outputs": [
        {
          "internalType": "uint256",
          "name": "",
          "type": "uint256"
        }
      ],
      "payable": false,
      "stateMutability": "view",
      "type": "function"
    },
    {
      "constant": true,
      "inputs": [],
      "name": "totalCoupons",
      "outputs": [
        {
          "internalType": "uint256",
          "name": "",
          "type": "uint256"
        }
      ],
      "payable": false,
      "stateMutability": "view",
      "type": "function"
    },
    {
      "constant": true,
      "inputs": [],
      "name": "totalDebt",
      "outputs": [
        {
          "internalType": "uint256",
          "name": "",
          "type": "uint256"
        }
      ],
      "payable": false,
      "stateMutability": "view",
      "type": "function"
    },
    {
      "constant": true,
      "inputs": [],
      "name": "totalNet",
      "outputs": [
        {
          "internalType": "uint256",
          "name": "",
          "type": "uint256"
        }
      ],
      "payable": false,
      "stateMutability": "view",
      "type": "function"
    },
    {
      "constant": true,
      "inputs": [],
      "name": "totalRedeemable",
      "outputs": [
        {
          "internalType": "uint256",
          "name": "",
          "type": "uint256"
        }
      ],
      "payable": false,
      "stateMutability": "view",
      "type": "function"
    },
    {
      "constant": true,
      "inputs": [],
      "name": "totalStaged",
      "outputs": [
        {
          "internalType": "uint256",
          "name": "",
          "type": "uint256"
        }
      ],
      "payable": false,
      "stateMutability": "view",
      "type": "function"
    },
    {
      "constant": true,
      "inputs": [],
      "name": "totalSupply",
      "outputs": [
        {
          "internalType": "uint256",
          "name": "",
          "type": "uint256"
        }
      ],
      "payable": false,
      "stateMutability": "view",
      "type": "function"
    },
    {
      "constant": false,
      "inputs": [
        {
          "internalType": "address",
          "name": "recipient",
          "type": "address"
        },
        {
          "internalType": "uint256",
          "name": "amount",
          "type": "uint256"
        }
      ],
      "name": "transfer",
      "outputs": [
        {
          "internalType": "bool",
          "name": "",
          "type": "bool"
        }
      ],
      "payable": false,
      "stateMutability": "nonpayable",
      "type": "function"
    },
    {
      "constant": false,
      "inputs": [
        {
          "internalType": "address",
          "name": "sender",
          "type": "address"
        },
        {
          "internalType": "address",
          "name": "recipient",
          "type": "address"
        },
        {
          "internalType": "uint256",
          "name": "epoch",
          "type": "uint256"
        },
        {
          "internalType": "uint256",
          "name": "amount",
          "type": "uint256"
        }
      ],
      "name": "transferCoupons",
      "outputs": [],
      "payable": false,
      "stateMutability": "nonpayable",
      "type": "function"
    },
    {
      "constant": false,
      "inputs": [
        {
          "internalType": "address",
          "name": "sender",
          "type": "address"
        },
        {
          "internalType": "address",
          "name": "recipient",
          "type": "address"
        },
        {
          "internalType": "uint256",
          "name": "amount",
          "type": "uint256"
        }
      ],
      "name": "transferFrom",
      "outputs": [
        {
          "internalType": "bool",
          "name": "",
          "type": "bool"
        }
      ],
      "payable": false,
      "stateMutability": "nonpayable",
      "type": "function"
    },
    {
      "constant": false,
      "inputs": [
        {
          "internalType": "address",
          "name": "account",
          "type": "address"
        }
      ],
      "name": "unfreezeE",
      "outputs": [],
      "payable": false,
      "stateMutability": "nonpayable",
      "type": "function"
    },
    {
      "constant": false,
      "inputs": [
        {
          "internalType": "address",
          "name": "owner",
          "type": "address"
        },
        {
          "internalType": "address",
          "name": "spender",
          "type": "address"
        },
        {
          "internalType": "uint256",
          "name": "amount",
          "type": "uint256"
        }
      ],
      "name": "updateAllowanceCouponsE",
      "outputs": [],
      "payable": false,
      "stateMutability": "nonpayable",
      "type": "function"
    },
    {
      "constant": true,
      "inputs": [
        {
          "internalType": "address",
          "name": "candidate",
          "type": "address"
        }
      ],
      "name": "votesFor",
      "outputs": [
        {
          "internalType": "uint256",
          "name": "",
          "type": "uint256"
        }
      ],
      "payable": false,
      "stateMutability": "view",
      "type": "function"
    },
    {
      "constant": false,
      "inputs": [],
      "name": "stepE",
      "outputs": [],
      "payable": false,
      "stateMutability": "nonpayable",
      "type": "function"
    }
  ],
  "bytecode": "0x60806040523480156200001157600080fd5b5060405162005802380380620058028339810160408190526200003491620000bd565b42600f55604051819062000048906200009c565b604051809103906000f08015801562000065573d6000803e3d6000fd5b50600980546001600160a01b039283166001600160a01b031991821617909155600b80549390921692169190911790555062000112565b611bf98062003c0983390190565b8051620000b781620000f8565b92915050565b600060208284031215620000d057600080fd5b6000620000de8484620000aa565b949350505050565b60006001600160a01b038216620000b7565b6200010381620000e6565b81146200010f57600080fd5b50565b613ae780620001226000396000f3fe608060405234801561001057600080fd5b50600436106104c15760003560e01c806386cf9f1411610278578063b32a2f901161015c578063d6d8816d116100ce578063e5f55c7e11610092578063e5f55c7e14610a49578063f1b7cf4914610a5c578063f35adf7e14610a6f578063f7a3181814610a77578063fc7b9c1814610a8a578063ffbe3b7314610a92576104c1565b8063d6d8816d146109ef578063d83d3ed514610a02578063d8f5413814610a15578063dd62ed3e14610a28578063e0abdf6614610a36576104c1565b8063c45a3e0a11610120578063c45a3e0a14610988578063c9aff70c1461099b578063cc8d823c146109ae578063cf023779146109c1578063d60b347f146109c9578063d6a9cf08146109dc576104c1565b8063b32a2f9014610934578063bc7513e214610947578063c0ec4ac51461095a578063c1410c0214610962578063c2aeb5fe14610975576104c1565b8063a00e14d1116101f5578063a9059cbb116101b9578063a9059cbb146104f9578063a9b3cf15146108d5578063adbff2be146108e8578063ae5c2381146108fb578063b11ee0e31461090e578063b16144a314610921576104c1565b8063a00e14d114610881578063a1eb31e814610894578063a50cd8e7146108a7578063a6c409f1146108ba578063a6f37b53146108c2576104c1565b80639a649edc1161023c5780639a649edc1461082d5780639b82b49b146108355780639bc289f1146108485780639be464931461085b5780639f6e1b261461086e576104c1565b806386cf9f14146107e45780638de2e573146107f7578063900cf0cf1461080a57806395d89b411461081257806397a5d5b51461081a576104c1565b80633fbba9a6116103aa578063646680221161031c57806372924d2a116102e057806372924d2a1461077057806375d5024b146107835780637cb95a32146107965780637dc0d1d0146107a9578063825ad607146107be5780638413e52a146107d1576104c1565b8063646680221461071c5780636a39e3281461072f5780636b862d661461074257806370a082311461075557806371c511eb14610768576104c1565b80634c7360991161036e5780634c736099146106c05780635053e461146106d357806351bf21d8146106db5780635c60da1b146106ee5780635dbf800a146106f65780635f14fec814610709576104c1565b80633fbba9a61461066a5780633fd4973c1461068a578063416a23cc1461069d57806343873526146106a557806344d96e95146106b8576104c1565b80631fac9732116104435780632f7f889e116104075780632f7f889e146105f6578063313ce56714610609578063323474221461061e578063353a420c146106315780633a3e6c81146106445780633f7bcaf314610657576104c1565b80631fac97321461059757806320f6bc90146105aa57806323b872dd146105bd578063259f7adf146105d0578063277805a9146105e3576104c1565b806315e14bf61161048a57806315e14bf61461054c57806316f0115b1461055f57806318160ddd146105745780631a08e22a1461057c5780631edbcf6c1461058f576104c1565b80625edd37146104c657806306fdde03146104db578063095ea7b3146104f95780630dc6d3a31461051957806310e95b6c1461052c575b600080fd5b6104d96104d4366004613308565b610aa5565b005b6104e3610bc8565b6040516104f0919061385e565b60405180910390f35b61050c610507366004613369565b610bf3565b6040516104f09190613834565b6104d961052736600461328a565b610bfc565b61053f61053a366004613486565b610c45565b6040516104f091906138cf565b61053f61055a3660046131a2565b610c5d565b610567610c7b565b6040516104f091906137e3565b61053f610c8a565b6104d961058a366004613518565b610c90565b61053f610c9e565b6104d96105a5366004613486565b610ca4565b6104d96105b8366004613369565b610cb0565b61050c6105cb366004613247565b610cba565b6104d96105de366004613486565b610cc4565b6104d96105f1366004613369565b610ccd565b6104d9610604366004613369565b610d59565b610611610dd9565b6040516104f09190613920565b6104d961062c3660046134c2565b610dde565b61053f61063f3660046131a2565b610e1e565b61050c6106523660046131a2565b610e3c565b6104d9610665366004613247565b610e59565b61067d6106783660046131c0565b610e64565b6040516104f09190613850565b6104d9610698366004613399565b610e97565b6104d9610ede565b6104d96106b3366004613486565b610ee8565b61053f610ef1565b61053f6106ce366004613518565b610ef7565b61053f610f27565b61053f6106e93660046131a2565b610f4a565b610567610f68565b6104d9610704366004613486565b610f8d565b6104d9610717366004613369565b610f96565b61053f61072a3660046131a2565b610fa0565b61053f61073d366004613486565b610fbe565b6104d9610750366004613401565b610fd3565b61053f6107633660046131a2565b610fde565b6104d9610ffc565b6104d961077e3660046134c2565b611004565b61050c610791366004613486565b611044565b6104d96107a4366004613399565b611057565b6107b1611098565b6040516104f09190613842565b61053f6107cc3660046131a2565b6110a7565b6104d96107df3660046131fa565b6110f3565b61053f6107f23660046131a2565b6110fe565b6104d9610805366004613486565b611119565b61053f611122565b6104e3611128565b61067d6108283660046131a2565b611147565b61053f6111ac565b6104d96108433660046134c2565b6111b2565b61053f6108563660046131a2565b6111f2565b6104d96108693660046131a2565b611210565b61053f61087c3660046131c0565b61121b565b6104d961088f366004613518565b61124a565b61053f6108a2366004613518565b611255565b61053f6108b53660046131a2565b61137b565b61053f61139e565b6104d96108d03660046131a2565b611434565b6104d96108e3366004613486565b61143d565b6104d96108f6366004613399565b611446565b6104d9610909366004613369565b611487565b6104d961091c366004613369565b611491565b6104d961092f366004613486565b61149b565b6104d9610942366004613399565b6114ae565b61053f610955366004613369565b6114ef565b6107b1611533565b6104d96109703660046131c0565b611542565b6104d9610983366004613433565b61154c565b6104d9610996366004613369565b61158e565b61053f6109a9366004613486565b611598565b6104d96109bc366004613369565b6115ad565b61053f6115b7565b61050c6109d73660046131a2565b6115bd565b6104d96109ea366004613518565b6115de565b6104d96109fd366004613486565b6116d3565b6104d9610a10366004613369565b6116dc565b61053f610a23366004613486565b6116e6565b61053f6105073660046131c0565b6104d9610a44366004613486565b611771565b61053f610a57366004613486565b611776565b61053f610a6a3660046131a2565b611868565b6104d9611883565b6104d9610a85366004613369565b61188b565b61053f611895565b61053f610aa0366004613486565b61189b565b6001600160a01b038416610ad45760405162461bcd60e51b8152600401610acb906138af565b60405180910390fd5b6001600160a01b038316610afa5760405162461bcd60e51b8152600401610acb9061387f565b610b1e848383604051806060016040528060238152602001613a0c602391396118ad565b610b29838383611958565b336001600160a01b03851614801590610b4d5750600019610b4a853361121b565b14155b15610b7657610b76843383604051806060016040528060248152602001613a2f602491396119ff565b81836001600160a01b0316856001600160a01b03167f0f1dbb1ccbe57a1590c7baad7b01d581b730c9ebc535dcde4345e6db424063d884604051610bba91906138cf565b60405180910390a450505050565b6040805180820190915260118152704574686963204d6f6e6579205374616b6560781b602082015290565b60005b92915050565b610c3e85858585858080601f0160208091040260200160405190810160405280939291908181526020018383808284376000920191909152506119ff92505050565b5050505050565b6000818152600d60205260409020600201545b919050565b6001600160a01b03166000908152600e602052604090206001015490565b600b546001600160a01b031690565b60035490565b610c9a8282611a70565b5050565b60065490565b610cad81611aa2565b50565b610c9a8282611ae9565b60005b9392505050565b610cad81611b93565b610cd5611533565b6001600160a01b03166340c10f1983836040518363ffffffff1660e01b8152600401610d02929190613819565b602060405180830381600087803b158015610d1c57600080fd5b505af1158015610d30573d6000803e3d6000fd5b505050506040513d601f19601f82011682018060405250610d549190810190613468565b505050565b6001600160a01b038216610d7f5760405162461bcd60e51b8152600401610acb9061389f565b610d8a338383611bac565b816001600160a01b0316336001600160a01b03167f8ff27e6b95060c1ca851e7c2c28af8b413eb1a8bcb637b0290da9543a709cce383604051610dcd91906138cf565b60405180910390a35050565b601290565b610d548383838080601f016020809104026020016040519081016040528093929190818152602001838380828437600092019190915250611bdc92505050565b6001600160a01b03166000908152600e602052604090206003015490565b6001600160a01b03166000908152600e6020526040902054151590565b610d54838383611bac565b6001600160a01b038082166000908152600e60209081526040808320938616835260049093019052205460ff1692915050565b610ed8848484848080601f016020809104026020016040519081016040528093929190818152602001838380828437600092019190915250611bf792505050565b50505050565b610ee6611c48565b565b610c9a81611ca7565b60045490565b6000828152600d60205260408120600301805483908110610f1457fe5b9060005260206000200154905092915050565b6000610f316130ee565b610f39611cee565b9050610f4481611d1d565b91505090565b6001600160a01b03166000908152600c602052604090206004015490565b7f360894a13ba1a3210667c828492db98dca3e2076cc3735a920a3ca505d382bbc5490565b610cad81611d3f565b610c9a8282611dc6565b6001600160a01b03166000908152600e602052604090206002015490565b6000908152600d602052604090206003015490565b610d54838383611958565b6001600160a01b03166000908152600c602052604090206001015490565b610ee6611ed7565b610d548383838080601f016020809104026020016040519081016040528093929190818152602001838380828437600092019190915250611efe92505050565b600061104e611f19565b90911115919050565b610ed8848484848080601f016020809104026020016040519081016040528093929190818152602001838380828437600092019190915250611f1e92505050565b600a546001600160a01b031690565b6000806110b2610c8a565b9050806110c3576000915050610c58565b610cbd816110e76110d386610fde565b6110db610ef1565b9063ffffffff611f6f16565b9063ffffffff611fa916565b610d54838383611feb565b6001600160a01b03166000908152600c602052604090205490565b610cad81612035565b60025490565b604080518082019091526005815264455448435360d81b602082015290565b6000611151611122565b6001600160a01b0383166000908152600c6020526040902060050154111561117b57506002610c58565b6001600160a01b0382166000908152600c602052604090206004015461119f611122565b1015610bf3576001610bf6565b60085490565b610d548383838080601f01602080910402602001604051908101604052809392919081815260200183838082843760009201919091525061204e92505050565b6001600160a01b03166000908152600c602052604090206005015490565b610cad816078612069565b6001600160a01b039182166000908152600c602090815260408083209390941682526003909201909152205490565b600091909155600155565b600080611260611cee565b60400151428161126c57fe5b06905060008461127a611122565b039050600081611288612098565b03611291612098565b61129961209e565b816112a057fe5b04029050808311156112b85760009350505050610bf6565b6112c061310f565b6113136040518060200160405280856112d7612098565b0381525061130760405180602001604052806112f1612098565b90526112fb6120a4565b9063ffffffff6120c616565b9063ffffffff6120fd16565b905061131d61310f565b60408051602080820183528786038252825190810190925284825261134d9161130790859063ffffffff6120c616565b604080516020810190915288815290915061136e908263ffffffff6120fd16565b5198975050505050505050565b6000610bf661138983610e1e565b61139284610fa0565b9063ffffffff61212b16565b600061142f6113ab611895565b6113b3611533565b6001600160a01b03166318160ddd6040518163ffffffff1660e01b815260040160206040518083038186803b1580156113eb57600080fd5b505afa1580156113ff573d6000803e3d6000fd5b505050506040513d601f19601f8201168201806040525061142391908101906134a4565b9063ffffffff61215016565b905090565b610cad81612192565b610cad816121b9565b610ed8848484848080601f0160208091040260200160405190810160405280939291908181526020018383808284376000920191909152506121fc92505050565b610c9a82826122a7565b610c9a8282612343565b610c9a6114a982606461239f565b6123c5565b610ed8848484848080601f01602080910402602001604051908101604052809392919081815260200183838082843760009201919091525061249f92505050565b60006114fa82611598565b61150657506000610bf6565b506001600160a01b03919091166000908152600c6020908152604080832093835260029093019052205490565b6009546001600160a01b031690565b610c9a82826124fe565b610c3e85858585858080601f0160208091040260200160405190810160405280939291908181526020018383808284376000920191909152506118ad92505050565b610c9a828261255e565b6000908152600d602052604090206001015490565b610c9a8282612608565b60055490565b6001600160a01b03166000908152600e602052604090206005015460ff1690565b60026115ec83611423611122565b101561160a5760405162461bcd60e51b8152600401610acb906138bf565b61162e338383604051806060016040528060238152602001613a0c602391396118ad565b600061163a8383611255565b9050808203611649338261255e565b83336001600160a01b03167f1cd1213d4276c260e84170b4a39025dc8398fbf744edee0709261769b456b94b8460405161168391906138cf565b60405180910390a383336001600160a01b03167f46e9903ae8ac9e9f0c9bc321b05965c1c036e7d4783758703f5cdfc4133c51b6836040516116c591906138cf565b60405180910390a350505050565b610cad81612657565b610c9a8282612670565b6000610bf66116f3611533565b6001600160a01b03166318160ddd6040518163ffffffff1660e01b815260040160206040518083038186803b15801561172b57600080fd5b505afa15801561173f573d6000803e3d6000fd5b505050506040513d601f19601f8201168201806040525061176391908101906134a4565b61176b611895565b8461269c565b600f55565b60006117af600083116513585c9ad95d60d21b7f4d757374207075726368617365206e6f6e2d7a65726f20616d6f756e740000006126c4565b6117df826117bb611895565b10156513585c9ad95d60d21b6e139bdd08195b9bdd59da081919589d608a1b6126c4565b60006117e9611122565b905060006118066117f9856116e6565b859063ffffffff61212b16565b90506118123385611dc6565b61181d338383611958565b81336001600160a01b03167fbce252db29f761f815dc2e9ea60005af065efba6eb619d2a0b2a113fdeb6141486846040516118599291906138dd565b60405180910390a39392505050565b6001600160a01b03166000908152600e602052604090205490565b610ee6612719565b610c9a8282612732565b60075490565b6000908152600d602052604090205490565b6001600160a01b0384166000908152600c602090815260408083208684526002019091529020546118e590838363ffffffff61278116565b6001600160a01b0385166000908152600c60209081526040808320878452600201825280832093909355600d9052206001015461192990838363ffffffff61278116565b6000848152600d602052604090206001015560085461194f90838363ffffffff61278116565b60085550505050565b6001600160a01b0383166000908152600c6020908152604080832085845260020190915290205461198f908263ffffffff61212b16565b6001600160a01b0384166000908152600c60209081526040808320868452600201825280832093909355600d905220600101546119d2908263ffffffff61212b16565b6000838152600d60205260409020600101556008546119f7908263ffffffff61212b16565b600855505050565b6001600160a01b038085166000908152600c602090815260408083209387168352600390930190522054611a3a90838363ffffffff61278116565b6001600160a01b039485166000908152600c60209081526040808320969097168252600390950190945293909220929092555050565b6000828152600d6020908152604080832060020184905592825291812060030180546001810182559082529190200155565b611ae1816040518060400160405280601c81526020017f436f6d7074726f6c6c65723a206e6f7420656e6f756768206465627400000000815250611efe565b610cad6127ad565b611af1611533565b6001600160a01b03166340c10f1983836040518363ffffffff1660e01b8152600401611b1e929190613819565b602060405180830381600087803b158015611b3857600080fd5b505af1158015611b4c573d6000803e3d6000fd5b505050506040513d601f19601f82011682018060405250611b709190810190613468565b50611b7c610791611122565b611b8b57611b8981611ca7565b505b610c9a6127ad565b600454611ba6908263ffffffff61212b16565b60045550565b6001600160a01b039283166000908152600c60209081526040808320949095168252600390930190925291902055565b600654611bf090838363ffffffff61278116565b6006555050565b6001600160a01b0383166000908152600e6020526040902060030154611c2490838363ffffffff61278116565b6001600160a01b039093166000908152600e60205260409020600301929092555050565b60005b611c5661073d611122565b811015611c7e57611c76611c71611c6b611122565b83610ef7565b612880565b600101611c4b565b506000611c94611c8c612098565b611392611122565b9050610cad611ca1611122565b82611a70565b6000611cb282612035565b6000611cbf6114a9612928565b9050611cc96127ad565b828111611ce557611ce0838263ffffffff61215016565b610cbd565b50600092915050565b611cf66130ee565b6040518060600160405280606a8152602001635ffb1dce8152602001610e10815250905090565b6000610bf6826000015161139284604001516110e7866020015161142361294a565b611d47611533565b6001600160a01b03166342966c68826040518263ffffffff1660e01b8152600401611d7291906138cf565b600060405180830381600087803b158015611d8c57600080fd5b505af1158015611da0573d6000803e3d6000fd5b50505050611ae1816040518060600160405280602a8152602001613a7b602a9139611bdc565b611dce611533565b6001600160a01b03166323b872dd8330846040518463ffffffff1660e01b8152600401611dfd939291906137f1565b602060405180830381600087803b158015611e1757600080fd5b505af1158015611e2b573d6000803e3d6000fd5b505050506040513d601f19601f82011682018060405250611e4f9190810190613468565b50611e58611533565b6001600160a01b03166342966c68826040518263ffffffff1660e01b8152600401611e8391906138cf565b600060405180830381600087803b158015611e9d57600080fd5b505af1158015611eb1573d6000803e3d6000fd5b50505050611b8b81604051806060016040528060288152602001613a5360289139611efe565b611edf610c8a565b600d6000611eeb611122565b8152602081019190915260400160002055565b600754611f1290838363ffffffff61278116565b6007555050565b605a90565b6001600160a01b0383166000908152600e6020526040902060020154611f4b90838363ffffffff61278116565b6001600160a01b039093166000908152600e60205260409020600201929092555050565b600082611f7e57506000610bf6565b82820282848281611f8b57fe5b0414610cbd5760405162461bcd60e51b8152600401610acb9061388f565b6000610cbd83836040518060400160405280601a81526020017f536166654d6174683a206469766973696f6e206279207a65726f000000000000815250612950565b6001600160a01b038083166000908152600e6020908152604080832093871683526004909301905220805482919060ff1916600183600281111561202b57fe5b0217905550505050565b600754612048908263ffffffff61212b16565b60075550565b60045461206290838363ffffffff61278116565b6004555050565b61207581611392611122565b6001600160a01b039092166000908152600c602052604090206004019190915550565b61043890565b610e1090565b6120ac61310f565b5060408051602081019091526706f05b59d3b20000815290565b6120ce61310f565b60405180602001604052806120f48560000151670de0b6b3a76400008660000151612987565b90529392505050565b61210561310f565b60405180602001604052806120f485600001518560000151670de0b6b3a7640000612987565b600082820183811015610cbd5760405162461bcd60e51b8152600401610acb9061386f565b6000610cbd83836040518060400160405280601e81526020017f536166654d6174683a207375627472616374696f6e206f766572666c6f770000815250612781565b6001600160a01b03166000908152600e60205260409020600501805460ff19166001179055565b60006121c482611598565b9050806121d15750610cad565b6008546121e4908263ffffffff61215016565b600855506000908152600d6020526040812060010155565b6001600160a01b0383166000908152600c602052604090206001015461222990838363ffffffff61278116565b6001600160a01b0384166000908152600c602052604090206001015560035461225990838363ffffffff61278116565b6003556040516000906001600160a01b038516907fddf252ad1be2c89b69c2b068fc378daa952ba7f163c4a11628f55a4df523b3ef9061229a9086906138cf565b60405180910390a3505050565b6001600160a01b0382166000908152600c60205260409020600101546122d3908263ffffffff61212b16565b6001600160a01b0383166000908152600c6020526040902060010155600354612302908263ffffffff61212b16565b6003556040516001600160a01b038316906000907fddf252ad1be2c89b69c2b068fc378daa952ba7f163c4a11628f55a4df523b3ef90610dcd9085906138cf565b6001600160a01b0382166000908152600c602052604090205461236c908263ffffffff61212b16565b6001600160a01b0383166000908152600c6020526040902055600554612398908263ffffffff61212b16565b6005555050565b6123a761310f565b60405180602001604052806120f485670de0b6b3a764000086612987565b6000806124586124536123d6611533565b6001600160a01b03166318160ddd6040518163ffffffff1660e01b815260040160206040518083038186803b15801561240e57600080fd5b505afa158015612422573d6000803e3d6000fd5b505050506040513d601f19601f8201168201806040525061244691908101906134a4565b859063ffffffff61299d16565b6129c4565b90506000612464611895565b905081811115612495576000612480828463ffffffff61215016565b905061248b81611aa2565b9250610c58915050565b5060009392505050565b6001600160a01b0383166000908152600c60205260409020546124c990838363ffffffff61278116565b6001600160a01b0384166000908152600c60205260409020556005546124f690838363ffffffff61278116565b600555505050565b6001600160a01b0382166000908152600c60205260408120600501549061253061252784610c5d565b61139285611868565b905081811115610ed8576001600160a01b0384166000908152600c6020526040902060050181905550505050565b612566611533565b6001600160a01b031663a9059cbb83836040518363ffffffff1660e01b8152600401612593929190613819565b602060405180830381600087803b1580156125ad57600080fd5b505af11580156125c1573d6000803e3d6000fd5b505050506040513d601f19601f820116820180604052506125e59190810190613468565b50611b8b816040518060600160405280602a8152602001613a7b602a9139611bdc565b6001600160a01b0382166000908152600e6020526040902060030154612634908263ffffffff61212b16565b6001600160a01b039092166000908152600e602052604090206003019190915550565b60065461266a908263ffffffff61212b16565b60065550565b612678611122565b6001600160a01b039092166000908152600e60205260409020918255600190910155565b60006126bc612453836126b08787876129e1565b9063ffffffff61299d16565b949350505050565b82610d54576126d282612b4e565b6101d160f51b6126e183612b4e565b6040516020016126f3939291906137b2565b60408051601f198184030181529082905262461bcd60e51b8252610acb9160040161385e565b60025461272d90600163ffffffff61212b16565b600255565b6001600160a01b0382166000908152600e602052604090206002015461275e908263ffffffff61212b16565b6001600160a01b039092166000908152600e602052604090206002019190915550565b600081848411156127a55760405162461bcd60e51b8152600401610acb919061385e565b505050900390565b610ee66127ce6127bb610c9e565b6113926127c66115b7565b611392610ef1565b6127d6611533565b6001600160a01b03166370a08231306040518263ffffffff1660e01b815260040161280191906137e3565b60206040518083038186803b15801561281957600080fd5b505afa15801561282d573d6000803e3d6000fd5b505050506040513d601f19601f8201168201806040525061285191908101906134a4565b10156a21b7b6b83a3937b63632b960a91b74496e636f6e73697374656e742062616c616e63657360581b6126c4565b600061288b82611598565b9050600080612899846121b9565b60006128a3610c9e565b905060006128af6111ac565b9050808211156128e1576128c9828263ffffffff61215016565b93506128d484611d3f565b6128dd84612bce565b9350505b857f753df65b37159bf237ae1fca97ba1bd57cf83bc9498f271a514a4d7bafe87bda868660008760405161291894939291906138eb565b60405180910390a2505050505050565b61293061310f565b5060408051602081019091526702c68af0bb140000815290565b600f5490565b600081836129715760405162461bcd60e51b8152600401610acb919061385e565b50600083858161297d57fe5b0495945050505050565b60006126bc826110e7868663ffffffff611f6f16565b6129a561310f565b6040805160208101909152835181906120f4908563ffffffff611f6f16565b8051600090610bf690670de0b6b3a764000063ffffffff611fa916565b6129e961310f565b6129f161310f565b6129fb848661239f565b9050612a0561310f565b612a0d612928565b90506000612a21878663ffffffff61215016565b90506000612a35878763ffffffff61215016565b9050612a3f61310f565b612a49828461239f565b9050612a5b858563ffffffff612d0216565b15612b3757612a70818563ffffffff612d0216565b15612a8a57612a7e84612d18565b95505050505050610cbd565b612a9261310f565b612a9c8286612d5f565b9050612aa661310f565b612ab6868463ffffffff612db516565b9050612ac061310f565b612ac987612d18565b9050612ad361310f565b612ae3898963ffffffff612db516565b9050612b27612af8848363ffffffff612dde16565b6112fb612b0b858563ffffffff6120fd16565b612b1b888863ffffffff6120fd16565b9063ffffffff612dde16565b9950505050505050505050610cbd565b612b418186612d5f565b9998505050505050505050565b60608082604051602001612b62919061379d565b60408051601f19818403018152919052905060205b8015612bb757815160001990910190829082908110612b9257fe5b01602001516001600160f81b03191615612bb25760010181529050610c58565b612b77565b505060408051600081526020810190915292915050565b6000806000612bf060646110e7612be3612e07565b879063ffffffff611f6f16565b9050612bfb81612e0c565b6000612c1b6127106110e7612c0e612ea0565b889063ffffffff611f6f16565b9050612c2681612ea5565b6000612c38838363ffffffff61212b16565b9050808611612c48576000612c58565b612c58868263ffffffff61215016565b9550600080612c65610c9e565b90506000612c716111ac565b905080821015612cba57612c8b818363ffffffff61215016565b9250888311612c9a5782612c9c565b885b9250612ca783612ec9565b612cb7898463ffffffff61215016565b98505b612cc2610ef1565b612ccb57600098505b8815612cda57612cda89612f5a565b612ce26127ad565b82612cf38a8663ffffffff61212b16565b97509750505050505050915091565b6000612d0e8383612ff1565b6002149392505050565b612d2061310f565b610bf6612d2b613023565b612d3f612d576002612d4b87612d3f613023565b9063ffffffff612db516565b9063ffffffff61304516565b6112fb613023565b612d6761310f565b612d77838363ffffffff61309b16565b15612d8c57612d8583612d18565b9050610bf6565b610cbd612d97613023565b612d3f612d57612da987612d3f613023565b61130787612d3f613023565b612dbd61310f565b60408051602081019091528251845182916120f4919063ffffffff61215016565b612de661310f565b60408051602081019091528251845182916120f4919063ffffffff61212b16565b601490565b8015610cad57612e1a611533565b6001600160a01b03166340c10f19612e30610c7b565b836040518363ffffffff1660e01b8152600401612e4e929190613819565b602060405180830381600087803b158015612e6857600080fd5b505af1158015612e7c573d6000803e3d6000fd5b505050506040513d601f19601f82011682018060405250610c9a9190810190613468565b60fa90565b8015610cad57612eb3611533565b6001600160a01b03166340c10f19612e306130a2565b612ed1611533565b6001600160a01b03166340c10f1930836040518363ffffffff1660e01b8152600401612efe929190613819565b602060405180830381600087803b158015612f1857600080fd5b505af1158015612f2c573d6000803e3d6000fd5b505050506040513d601f19601f82011682018060405250612f509190810190613468565b50611ae181612657565b8015610cad57612f68611533565b6001600160a01b03166340c10f1930836040518363ffffffff1660e01b8152600401612f95929190613819565b602060405180830381600087803b158015612faf57600080fd5b505af1158015612fc3573d6000803e3d6000fd5b505050506040513d601f19601f82011682018060405250612fe79190810190613468565b50610cad81611b93565b80518251600091141561300657506001610bf6565b8151835111613016576000613019565b60025b60ff169392505050565b61302b61310f565b506040805160208101909152670de0b6b3a7640000815290565b61304d61310f565b8161305c57612d8560016130ba565b61306461310f565b5060408051602081019091528351815260015b838110156130935761308982866120fd565b9150600101613077565b509392505050565b5190511490565b7388b6b8518d80ecf62c39d5a3aafaccc4705941a790565b6130c261310f565b6040805160208101909152806130e684670de0b6b3a764000063ffffffff611f6f16565b905292915050565b60405180606001604052806000815260200160008152602001600081525090565b6040518060200160405280600081525090565b8035610bf6816139d8565b8051610bf6816139ec565b8035610bf6816139f5565b60008083601f84011261315557600080fd5b50813567ffffffffffffffff81111561316d57600080fd5b60208301915083600182028301111561318557600080fd5b9250929050565b8035610bf681613a02565b8051610bf681613a02565b6000602082840312156131b457600080fd5b60006126bc8484613122565b600080604083850312156131d357600080fd5b60006131df8585613122565b92505060206131f085828601613122565b9150509250929050565b60008060006060848603121561320f57600080fd5b600061321b8686613122565b935050602061322c86828701613122565b925050604061323d86828701613138565b9150509250925092565b60008060006060848603121561325c57600080fd5b60006132688686613122565b935050602061327986828701613122565b925050604061323d8682870161318c565b6000806000806000608086880312156132a257600080fd5b60006132ae8888613122565b95505060206132bf88828901613122565b94505060406132d08882890161318c565b935050606086013567ffffffffffffffff8111156132ed57600080fd5b6132f988828901613143565b92509250509295509295909350565b6000806000806080858703121561331e57600080fd5b600061332a8787613122565b945050602061333b87828801613122565b935050604061334c8782880161318c565b925050606061335d8782880161318c565b91505092959194509250565b6000806040838503121561337c57600080fd5b60006133888585613122565b92505060206131f08582860161318c565b600080600080606085870312156133af57600080fd5b60006133bb8787613122565b94505060206133cc8782880161318c565b935050604085013567ffffffffffffffff8111156133e957600080fd5b6133f587828801613143565b95989497509550505050565b60008060006060848603121561341657600080fd5b60006134228686613122565b93505060206132798682870161318c565b60008060008060006080868803121561344b57600080fd5b60006134578888613122565b95505060206132bf8882890161318c565b60006020828403121561347a57600080fd5b60006126bc848461312d565b60006020828403121561349857600080fd5b60006126bc848461318c565b6000602082840312156134b657600080fd5b60006126bc8484613197565b6000806000604084860312156134d757600080fd5b60006134e3868661318c565b935050602084013567ffffffffffffffff81111561350057600080fd5b61350c86828701613143565b92509250509250925092565b6000806040838503121561352b57600080fd5b6000613388858561318c565b6135408161393b565b82525050565b61354081613946565b61354061355b8261394b565b613958565b61354061355b82613958565b60006135778261392e565b6135818185610c58565b9350613591818560208601613998565b9290920192915050565b61354081613977565b61354081613982565b6135408161398d565b60006135c18261392e565b6135cb8185613932565b93506135db818560208601613998565b6135e4816139c4565b9093019392505050565b60006135fb601b83613932565b7f536166654d6174683a206164646974696f6e206f766572666c6f770000000000815260200192915050565b6000613634602b83613932565b7f4d61726b65743a20436f75706f6e207472616e7366657220746f20746865207a81526a65726f206164647265737360a81b602082015260400192915050565b6000613681602183613932565b7f536166654d6174683a206d756c7469706c69636174696f6e206f766572666c6f8152607760f81b602082015260400192915050565b60006136c4602a83613932565b7f4d61726b65743a20436f75706f6e20617070726f766520746f20746865207a65815269726f206164647265737360b01b602082015260400192915050565b6000613710602d83613932565b7f4d61726b65743a20436f75706f6e207472616e736665722066726f6d2074686581526c207a65726f206164647265737360981b602082015260400192915050565b600061375f601b83613932565b7f4d61726b65743a20546f6f206561726c7920746f2072656465656d0000000000815260200192915050565b61354081613958565b61354081613971565b60006137a98284613560565b50602001919050565b60006137be828661356c565b91506137ca828561354f565b6002820191506137da828461356c565b95945050505050565b60208101610bf68284613537565b606081016137ff8286613537565b61380c6020830185613537565b6126bc604083018461378b565b604081016138278285613537565b610cbd602083018461378b565b60208101610bf68284613546565b60208101610bf6828461359b565b60208101610bf682846135a4565b60208082528101610cbd81846135b6565b60208082528101610bf6816135ee565b60208082528101610bf681613627565b60208082528101610bf681613674565b60208082528101610bf6816136b7565b60208082528101610bf681613703565b60208082528101610bf681613752565b60208101610bf6828461378b565b60408101613827828561378b565b608081016138f9828761378b565b613906602083018661378b565b61391360408301856135ad565b6137da606083018461378b565b60208101610bf68284613794565b5190565b90815260200190565b6000610bf682613965565b151590565b6001600160f01b03191690565b90565b80610c58816139ce565b6001600160a01b031690565b60ff1690565b6000610bf68261393b565b6000610bf68261395b565b6000610bf682613958565b60005b838110156139b357818101518382015260200161399b565b83811115610ed85750506000910152565b601f01601f191690565b60038110610cad57fe5b6139e18161393b565b8114610cad57600080fd5b6139e181613946565b60038110610cad57600080fd5b6139e18161395856fe4d61726b65743a20496e73756666696369656e7420636f75706f6e2062616c616e63654d61726b65743a20496e73756666696369656e7420636f75706f6e20617070726f76616c436f6d7074726f6c6c65723a206e6f7420656e6f756768206f75747374616e64696e672064656274436f6d7074726f6c6c65723a206e6f7420656e6f7567682072656465656d61626c652062616c616e6365a365627a7a723158209af04411f2c4cc87433a754299c48eae286df82cd25bb62b6722fa0b188d6dcb6c6578706572696d656e74616cf564736f6c6343000511004060806040523480156200001157600080fd5b5060405180604001604052806005815260200164457468696360d81b815250604051806040016040528060048152602001634554484360e01b815250601262000072620000636200010d60201b60201c565b6001600160e01b036200011216565b82516200008790600190602086019062000307565b5081516200009d90600290602085019062000307565b506003805460ff191660ff9290921691909117905550620001049050620000c362000164565b604051806040016040528060018152602001603160f81b815250620000f2620001fd60201b620016341760201c565b306200020260201b620016391760201c565b6007556200045d565b335b90565b6200012d8160006200025960201b62000d7e1790919060201c565b6040516001600160a01b038216907f6ae172837ea30b801fbfcdd4108aa1d5bf8ff775444fd70256b44e6bf3dfc3f690600090a250565b60018054604080516020601f60026000196101008789161502019095169490940493840181900481028201810190925282815260609390929091830182828015620001f35780601f10620001c757610100808354040283529160200191620001f3565b820191906000526020600020905b815481529060010190602001808311620001d557829003601f168201915b5050505050905090565b602a90565b8351602094850120835193850193909320604080517f8b73c3c69bb8fe3d512ecc4cf759cc79239f7b179b0ffacaa9a75d522b39400f815295860194909452928401929092526060830152608082015260a0902090565b6200026e82826001600160e01b03620002bc16565b15620002975760405162461bcd60e51b81526004016200028e906200042a565b60405180910390fd5b6001600160a01b0316600090815260209190915260409020805460ff19166001179055565b60006001600160a01b038216620002e75760405162461bcd60e51b81526004016200028e9062000442565b506001600160a01b03166000908152602091909152604090205460ff1690565b828054600181600116156101000203166002900490600052602060002090601f016020900481019282601f106200034a57805160ff19168380011785556200037a565b828001600101855582156200037a579182015b828111156200037a5782518255916020019190600101906200035d565b50620003889291506200038c565b5090565b6200010f91905b8082111562000388576000815560010162000393565b6000620003b8601f8362000454565b7f526f6c65733a206163636f756e7420616c72656164792068617320726f6c6500815260200192915050565b6000620003f360228362000454565b7f526f6c65733a206163636f756e7420697320746865207a65726f206164647265815261737360f01b602082015260400192915050565b602080825281016200043c81620003a9565b92915050565b602080825281016200043c81620003e4565b90815260200190565b61178c806200046d6000396000f3fe608060405234801561001057600080fd5b506004361061012c5760003560e01c806395d89b41116100ad578063aa271e1a11610071578063aa271e1a14610256578063d505accf14610269578063dab400f31461027c578063dd62ed3e14610284578063e879c19f146102975761012c565b806395d89b411461020d578063983b2d56146102155780639865027514610228578063a457c2d714610230578063a9059cbb146102435761012c565b806339509351116100f457806339509351146101ac57806340c10f19146101bf57806342966c68146101d257806370a08231146101e757806379cc6790146101fa5761012c565b806306fdde0314610131578063095ea7b31461014f57806318160ddd1461016f57806323b872dd14610184578063313ce56714610197575b600080fd5b61013961029f565b60405161014691906114c6565b60405180910390f35b61016261015d366004610ffc565b610334565b604051610146919061141b565b610177610352565b6040516101469190611429565b610162610192366004610f13565b610358565b61019f6103ca565b6040516101469190611587565b6101626101ba366004610ffc565b6103d3565b6101626101cd366004610ffc565b610427565b6101e56101e036600461102c565b610463565b005b6101776101f5366004610eb3565b610477565b6101e5610208366004610ffc565b610496565b6101396104a4565b6101e5610223366004610eb3565b610502565b6101e5610532565b61016261023e366004610ffc565b610544565b610162610251366004610ffc565b6105b2565b610162610264366004610eb3565b6105c6565b6101e5610277366004610f60565b6105d8565b61017761075f565b610177610292366004610ed9565b610765565b610177610790565b60018054604080516020601f6002600019610100878916150201909516949094049384018190048102820181019092528281526060939092909183018282801561032a5780601f106102ff5761010080835404028352916020019161032a565b820191906000526020600020905b81548152906001019060200180831161030d57829003601f168201915b5050505050905090565b60006103486103416107b4565b84846107b8565b5060015b92915050565b60065490565b600061036584848461086c565b600019610374856102926107b4565b146103c0576103c0846103856107b4565b6103bb856040518060600160405280602881526020016116fd602891396103ae8a6102926107b4565b919063ffffffff61098216565b6107b8565b5060019392505050565b60035460ff1690565b60006103486103e06107b4565b846103bb85600560006103f16107b4565b6001600160a01b03908116825260208083019390935260409182016000908120918c16815292529020549063ffffffff6109ae16565b60006104346102646107b4565b6104595760405162461bcd60e51b815260040161045090611517565b60405180910390fd5b61034883836109da565b61047461046e6107b4565b82610a9a565b50565b6001600160a01b0381166000908152600460205260409020545b919050565b6104a08282610b70565b5050565b60028054604080516020601f600019610100600187161502019094168590049384018190048102820181019092528281526060939092909183018282801561032a5780601f106102ff5761010080835404028352916020019161032a565b61050d6102646107b4565b6105295760405162461bcd60e51b815260040161045090611517565b61047481610beb565b61054261053d6107b4565b610c33565b565b60006103486105516107b4565b846103bb85604051806060016040528060258152602001611725602591396005600061057b6107b4565b6001600160a01b03908116825260208083019390935260409182016000908120918d1681529252902054919063ffffffff61098216565b60006103486105bf6107b4565b848461086c565b600061034c818363ffffffff610c7b16565b6007546001600160a01b03881660009081526008602090815260408083208054600181019091559051929361065a93909261063f927f6e71edae12b1b97f4d1f60370fef10105fa2faae0126114a169c64845d6126c9928e928e928e9290918e9101611437565b60405160208183030381529060405280519060200120610cc3565b90506000600182868686604051600081526020016040526040516106819493929190611491565b6020604051602081039080840390855afa1580156106a3573d6000803e3d6000fd5b5050506020604051035190506106f0896001600160a01b0316826001600160a01b0316146a5065726d69747461626c6560a81b70496e76616c6964207369676e617475726560781b610ce2565b6107236001600160a01b03821615156a5065726d69747461626c6560a81b6b5a65726f206164647265737360a01b610ce2565b610749864211156a5065726d69747461626c6560a81b66115e1c1a5c995960ca1b610ce2565b6107548989896107b8565b505050505050505050565b60075481565b6001600160a01b03918216600090815260056020908152604080832093909416825291909152205490565b7f6e71edae12b1b97f4d1f60370fef10105fa2faae0126114a169c64845d6126c981565b3390565b6001600160a01b0383166107de5760405162461bcd60e51b815260040161045090611567565b6001600160a01b0382166108045760405162461bcd60e51b8152600401610450906114f7565b6001600160a01b0380841660008181526005602090815260408083209487168084529490915290819020849055517f8c5be1e5ebec7d5bd14f71427d1e84f3dd0314c0f7b2291e5b200ac8c7c3b9259061085f908590611429565b60405180910390a3505050565b6001600160a01b0383166108925760405162461bcd60e51b815260040161045090611557565b6001600160a01b0382166108b85760405162461bcd60e51b8152600401610450906114d7565b6108fb816040518060600160405280602681526020016116b3602691396001600160a01b038616600090815260046020526040902054919063ffffffff61098216565b6001600160a01b038085166000908152600460205260408082209390935590841681522054610930908263ffffffff6109ae16565b6001600160a01b0380841660008181526004602052604090819020939093559151908516907fddf252ad1be2c89b69c2b068fc378daa952ba7f163c4a11628f55a4df523b3ef9061085f908590611429565b600081848411156109a65760405162461bcd60e51b815260040161045091906114c6565b505050900390565b6000828201838110156109d35760405162461bcd60e51b815260040161045090611507565b9392505050565b6001600160a01b038216610a005760405162461bcd60e51b815260040161045090611577565b600654610a13908263ffffffff6109ae16565b6006556001600160a01b038216600090815260046020526040902054610a3f908263ffffffff6109ae16565b6001600160a01b0383166000818152600460205260408082209390935591519091907fddf252ad1be2c89b69c2b068fc378daa952ba7f163c4a11628f55a4df523b3ef90610a8e908590611429565b60405180910390a35050565b6001600160a01b038216610ac05760405162461bcd60e51b815260040161045090611547565b610b0381604051806060016040528060228152602001611691602291396001600160a01b038516600090815260046020526040902054919063ffffffff61098216565b6001600160a01b038316600090815260046020526040902055600654610b2f908263ffffffff610d3c16565b6006556040516000906001600160a01b038416907fddf252ad1be2c89b69c2b068fc378daa952ba7f163c4a11628f55a4df523b3ef90610a8e908590611429565b610b7a8282610a9a565b6104a082610b866107b4565b6103bb846040518060600160405280602481526020016116d9602491396001600160a01b038816600090815260056020526040812090610bc46107b4565b6001600160a01b03168152602081019190915260400160002054919063ffffffff61098216565b610bfc60008263ffffffff610d7e16565b6040516001600160a01b038216907f6ae172837ea30b801fbfcdd4108aa1d5bf8ff775444fd70256b44e6bf3dfc3f690600090a250565b610c4460008263ffffffff610dca16565b6040516001600160a01b038216907fe94479a9f7e1952cc78f2d6baab678adc1b772d936c6583def489e524cb6669290600090a250565b60006001600160a01b038216610ca35760405162461bcd60e51b815260040161045090611537565b506001600160a01b03166000908152602091909152604090205460ff1690565b60405161190160f01b8152600281019290925260228201526042902090565b82610d3757610cf082610e12565b6101d160f51b610cff83610e12565b604051602001610d11939291906113ea565b60408051601f198184030181529082905262461bcd60e51b8252610450916004016114c6565b505050565b60006109d383836040518060400160405280601e81526020017f536166654d6174683a207375627472616374696f6e206f766572666c6f770000815250610982565b610d888282610c7b565b15610da55760405162461bcd60e51b8152600401610450906114e7565b6001600160a01b0316600090815260209190915260409020805460ff19166001179055565b610dd48282610c7b565b610df05760405162461bcd60e51b815260040161045090611527565b6001600160a01b0316600090815260209190915260409020805460ff19169055565b60608082604051602001610e2691906113d5565b60408051601f19818403018152919052905060205b8015610e7b57815160001990910190829082908110610e5657fe5b01602001516001600160f81b03191615610e765760010181529050610491565b610e3b565b505060408051600081526020810190915292915050565b803561034c8161160e565b803561034c81611622565b803561034c8161162b565b600060208284031215610ec557600080fd5b6000610ed18484610e92565b949350505050565b60008060408385031215610eec57600080fd5b6000610ef88585610e92565b9250506020610f0985828601610e92565b9150509250929050565b600080600060608486031215610f2857600080fd5b6000610f348686610e92565b9350506020610f4586828701610e92565b9250506040610f5686828701610e9d565b9150509250925092565b600080600080600080600060e0888a031215610f7b57600080fd5b6000610f878a8a610e92565b9750506020610f988a828b01610e92565b9650506040610fa98a828b01610e9d565b9550506060610fba8a828b01610e9d565b9450506080610fcb8a828b01610ea8565b93505060a0610fdc8a828b01610e9d565b92505060c0610fed8a828b01610e9d565b91505092959891949750929550565b6000806040838503121561100f57600080fd5b600061101b8585610e92565b9250506020610f0985828601610e9d565b60006020828403121561103e57600080fd5b6000610ed18484610e9d565b611053816115a2565b82525050565b611053816115ad565b61105361106e826115b2565b6115bf565b611053816115bf565b61105361106e826115bf565b600061109382611595565b61109d8185610491565b93506110ad8185602086016115d4565b9290920192915050565b60006110c282611595565b6110cc8185611599565b93506110dc8185602086016115d4565b6110e581611604565b9093019392505050565b60006110fc602383611599565b7f45524332303a207472616e7366657220746f20746865207a65726f206164647281526265737360e81b602082015260400192915050565b6000611141601f83611599565b7f526f6c65733a206163636f756e7420616c72656164792068617320726f6c6500815260200192915050565b600061117a602283611599565b7f45524332303a20617070726f766520746f20746865207a65726f206164647265815261737360f01b602082015260400192915050565b60006111be601b83611599565b7f536166654d6174683a206164646974696f6e206f766572666c6f770000000000815260200192915050565b60006111f7603083611599565b7f4d696e746572526f6c653a2063616c6c657220646f6573206e6f74206861766581526f20746865204d696e74657220726f6c6560801b602082015260400192915050565b6000611249602183611599565b7f526f6c65733a206163636f756e7420646f6573206e6f74206861766520726f6c8152606560f81b602082015260400192915050565b600061128c602283611599565b7f526f6c65733a206163636f756e7420697320746865207a65726f206164647265815261737360f01b602082015260400192915050565b60006112d0602183611599565b7f45524332303a206275726e2066726f6d20746865207a65726f206164647265738152607360f81b602082015260400192915050565b6000611313602583611599565b7f45524332303a207472616e736665722066726f6d20746865207a65726f206164815264647265737360d81b602082015260400192915050565b600061135a602483611599565b7f45524332303a20617070726f76652066726f6d20746865207a65726f206164648152637265737360e01b602082015260400192915050565b60006113a0601f83611599565b7f45524332303a206d696e7420746f20746865207a65726f206164647265737300815260200192915050565b611053816115ce565b60006113e1828461107c565b50602001919050565b60006113f68286611088565b91506114028285611062565b6002820191506114128284611088565b95945050505050565b6020810161034c8284611059565b6020810161034c8284611073565b60c081016114458289611073565b611452602083018861104a565b61145f604083018761104a565b61146c6060830186611073565b6114796080830185611073565b61148660a0830184611073565b979650505050505050565b6080810161149f8287611073565b6114ac60208301866113cc565b6114b96040830185611073565b6114126060830184611073565b602080825281016109d381846110b7565b6020808252810161034c816110ef565b6020808252810161034c81611134565b6020808252810161034c8161116d565b6020808252810161034c816111b1565b6020808252810161034c816111ea565b6020808252810161034c8161123c565b6020808252810161034c8161127f565b6020808252810161034c816112c3565b6020808252810161034c81611306565b6020808252810161034c8161134d565b6020808252810161034c81611393565b6020810161034c82846113cc565b5190565b90815260200190565b600061034c826115c2565b151590565b6001600160f01b03191690565b90565b6001600160a01b031690565b60ff1690565b60005b838110156115ef5781810151838201526020016115d7565b838111156115fe576000848401525b50505050565b601f01601f191690565b611617816115a2565b811461047457600080fd5b611617816115bf565b611617816115ce565b602a90565b8351602094850120835193850193909320604080517f8b73c3c69bb8fe3d512ecc4cf759cc79239f7b179b0ffacaa9a75d522b39400f815295860194909452928401929092526060830152608082015260a090209056fe45524332303a206275726e20616d6f756e7420657863656564732062616c616e636545524332303a207472616e7366657220616d6f756e7420657863656564732062616c616e636545524332303a206275726e20616d6f756e74206578636565647320616c6c6f77616e636545746869633a207472616e7366657220616d6f756e74206578636565647320616c6c6f77616e636545524332303a2064656372656173656420616c6c6f77616e63652062656c6f77207a65726fa365627a7a72315820942211f028568291e67a5cda9d87f19b9dffdf91f3a5f72969294736db56c8846c6578706572696d656e74616cf564736f6c63430005110040",
  "source": "/*\n    Copyright 2021 Ethic Money Devs <devs@ethic.money> and Copyright 2020 Empty Set Squad <emptysetsquad@protonmail.com>\n\n    Licensed under the Apache License, Version 2.0 (the \"License\");\n    you may not use this file except in compliance with the License.\n    You may obtain a copy of the License at\n\n    http://www.apache.org/licenses/LICENSE-2.0\n\n    Unless required by applicable law or agreed to in writing, software\n    distributed under the License is distributed on an \"AS IS\" BASIS,\n    WITHOUT WARRANTIES OR CONDITIONS OF ANY KIND, either express or implied.\n    See the License for the specific language governing permissions and\n    limitations under the License.\n*/\n\npragma solidity ^0.5.17;\npragma experimental ABIEncoderV2;\n\nimport \"../dao/Market.sol\";\nimport \"./MockState.sol\";\nimport \"./MockComptroller.sol\";\n\ncontract MockMarket is MockState, MockComptroller, Market {\n    constructor(address pool) MockComptroller(pool) public { }\n\n    function stepE() external {\n        Market.step();\n    }\n}\n",
  "sourcePath": "/home/ville/projects/ethic/protocol/contracts/mock/MockMarket.sol",
  "compiler": {
    "name": "solc",
    "version": "0.5.17+commit.d19bba13.Emscripten.clang"
  },
  "schemaVersion": "3.3.2",
  "updatedAt": "2021-02-04T10:39:17.430Z",
  "devdoc": {
    "methods": {}
  },
  "userdoc": {
    "methods": {
      "balanceOfStaged(address)": {
        "notice": "Account"
      },
      "createCandidateE(address,uint256)": {
        "notice": "Governance"
      },
      "epoch()": {
        "notice": "Epoch"
      },
      "ethic()": {
        "notice": "Global"
      },
      "incrementBalanceOfE(address,uint256)": {
        "notice": "Account"
      },
      "incrementTotalBondedE(uint256)": {
        "notice": "Global"
      },
      "name()": {
        "notice": "ERC20 Interface"
      },
      "recordedVote(address,address)": {
        "notice": "Governance"
      },
      "setBlockTimestamp(uint256)": {
        "notice": "Mock"
      },
      "setEpochParamsE(uint256,uint256)": {
        "notice": "Epoch"
      },
      "transfer(address,uint256)": {
        "notice": "ERC20 Interface"
      }
    }
  }
}