{
  "contractName": "MockGovern",
  "abi": [
    {
      "inputs": [],
      "payable": false,
      "stateMutability": "nonpayable",
      "type": "constructor"
    },
    {
      "anonymous": false,
      "inputs": [
        {
          "indexed": true,
          "internalType": "address",
          "name": "account",
          "type": "address"
        },
        {
          "indexed": true,
          "internalType": "address",
          "name": "candidate",
          "type": "address"
        }
      ],
      "name": "Commit",
      "type": "event"
    },
    {
      "anonymous": false,
      "inputs": [
        {
          "indexed": true,
          "internalType": "address",
          "name": "candidate",
          "type": "address"
        },
        {
          "indexed": true,
          "internalType": "address",
          "name": "account",
          "type": "address"
        },
        {
          "indexed": true,
          "internalType": "uint256",
          "name": "start",
          "type": "uint256"
        },
        {
          "indexed": false,
          "internalType": "uint256",
          "name": "period",
          "type": "uint256"
        }
      ],
      "name": "Proposal",
      "type": "event"
    },
    {
      "anonymous": false,
      "inputs": [
        {
          "indexed": true,
          "internalType": "address",
          "name": "from",
          "type": "address"
        },
        {
          "indexed": true,
          "internalType": "address",
          "name": "to",
          "type": "address"
        },
        {
          "indexed": false,
          "internalType": "uint256",
          "name": "value",
          "type": "uint256"
        }
      ],
      "name": "Transfer",
      "type": "event"
    },
    {
      "anonymous": false,
      "inputs": [
        {
          "indexed": true,
          "internalType": "address",
          "name": "implementation",
          "type": "address"
        }
      ],
      "name": "Upgraded",
      "type": "event"
    },
    {
      "anonymous": false,
      "inputs": [
        {
          "indexed": true,
          "internalType": "address",
          "name": "account",
          "type": "address"
        },
        {
          "indexed": true,
          "internalType": "address",
          "name": "candidate",
          "type": "address"
        },
        {
          "indexed": false,
          "internalType": "enum Candidate.Vote",
          "name": "vote",
          "type": "uint8"
        },
        {
          "indexed": false,
          "internalType": "uint256",
          "name": "bonded",
          "type": "uint256"
        }
      ],
      "name": "Vote",
      "type": "event"
    },
    {
      "constant": true,
      "inputs": [
        {
          "internalType": "address",
          "name": "owner",
          "type": "address"
        },
        {
          "internalType": "address",
          "name": "spender",
          "type": "address"
        }
      ],
      "name": "allowance",
      "outputs": [
        {
          "internalType": "uint256",
          "name": "",
          "type": "uint256"
        }
      ],
      "payable": false,
      "stateMutability": "view",
      "type": "function"
    },
    {
      "constant": true,
      "inputs": [
        {
          "internalType": "address",
          "name": "owner",
          "type": "address"
        },
        {
          "internalType": "address",
          "name": "spender",
          "type": "address"
        }
      ],
      "name": "allowanceCoupons",
      "outputs": [
        {
          "internalType": "uint256",
          "name": "",
          "type": "uint256"
        }
      ],
      "payable": false,
      "stateMutability": "view",
      "type": "function"
    },
    {
      "constant": false,
      "inputs": [
        {
          "internalType": "address",
          "name": "spender",
          "type": "address"
        },
        {
          "internalType": "uint256",
          "name": "amount",
          "type": "uint256"
        }
      ],
      "name": "approve",
      "outputs": [
        {
          "internalType": "bool",
          "name": "",
          "type": "bool"
        }
      ],
      "payable": false,
      "stateMutability": "nonpayable",
      "type": "function"
    },
    {
      "constant": true,
      "inputs": [
        {
          "internalType": "address",
          "name": "candidate",
          "type": "address"
        }
      ],
      "name": "approveFor",
      "outputs": [
        {
          "internalType": "uint256",
          "name": "",
          "type": "uint256"
        }
      ],
      "payable": false,
      "stateMutability": "view",
      "type": "function"
    },
    {
      "constant": true,
      "inputs": [
        {
          "internalType": "address",
          "name": "account",
          "type": "address"
        }
      ],
      "name": "balanceOf",
      "outputs": [
        {
          "internalType": "uint256",
          "name": "",
          "type": "uint256"
        }
      ],
      "payable": false,
      "stateMutability": "view",
      "type": "function"
    },
    {
      "constant": true,
      "inputs": [
        {
          "internalType": "address",
          "name": "account",
          "type": "address"
        }
      ],
      "name": "balanceOfBonded",
      "outputs": [
        {
          "internalType": "uint256",
          "name": "",
          "type": "uint256"
        }
      ],
      "payable": false,
      "stateMutability": "view",
      "type": "function"
    },
    {
      "constant": true,
      "inputs": [
        {
          "internalType": "address",
          "name": "account",
          "type": "address"
        },
        {
          "internalType": "uint256",
          "name": "epoch",
          "type": "uint256"
        }
      ],
      "name": "balanceOfCoupons",
      "outputs": [
        {
          "internalType": "uint256",
          "name": "",
          "type": "uint256"
        }
      ],
      "payable": false,
      "stateMutability": "view",
      "type": "function"
    },
    {
      "constant": true,
      "inputs": [
        {
          "internalType": "address",
          "name": "account",
          "type": "address"
        }
      ],
      "name": "balanceOfStaged",
      "outputs": [
        {
          "internalType": "uint256",
          "name": "",
          "type": "uint256"
        }
      ],
      "payable": false,
      "stateMutability": "view",
      "type": "function"
    },
    {
      "constant": true,
      "inputs": [
        {
          "internalType": "uint256",
          "name": "epoch",
          "type": "uint256"
        }
      ],
      "name": "bootstrappingAt",
      "outputs": [
        {
          "internalType": "bool",
          "name": "",
          "type": "bool"
        }
      ],
      "payable": false,
      "stateMutability": "view",
      "type": "function"
    },
    {
      "constant": false,
      "inputs": [
        {
          "internalType": "address",
          "name": "account",
          "type": "address"
        },
        {
          "internalType": "uint256",
          "name": "amount",
          "type": "uint256"
        }
      ],
      "name": "burnFromAccountE",
      "outputs": [],
      "payable": false,
      "stateMutability": "nonpayable",
      "type": "function"
    },
    {
      "constant": false,
      "inputs": [
        {
          "internalType": "uint256",
          "name": "amount",
          "type": "uint256"
        }
      ],
      "name": "burnRedeemableE",
      "outputs": [],
      "payable": false,
      "stateMutability": "nonpayable",
      "type": "function"
    },
    {
      "constant": false,
      "inputs": [
        {
          "internalType": "address",
          "name": "candidate",
          "type": "address"
        }
      ],
      "name": "commit",
      "outputs": [],
      "payable": false,
      "stateMutability": "nonpayable",
      "type": "function"
    },
    {
      "constant": true,
      "inputs": [
        {
          "internalType": "uint256",
          "name": "epoch",
          "type": "uint256"
        }
      ],
      "name": "couponsExpiration",
      "outputs": [
        {
          "internalType": "uint256",
          "name": "",
          "type": "uint256"
        }
      ],
      "payable": false,
      "stateMutability": "view",
      "type": "function"
    },
    {
      "constant": false,
      "inputs": [
        {
          "internalType": "address",
          "name": "candidate",
          "type": "address"
        },
        {
          "internalType": "uint256",
          "name": "period",
          "type": "uint256"
        }
      ],
      "name": "createCandidateE",
      "outputs": [],
      "payable": false,
      "stateMutability": "nonpayable",
      "type": "function"
    },
    {
      "constant": true,
      "inputs": [],
      "name": "decimals",
      "outputs": [
        {
          "internalType": "uint8",
          "name": "",
          "type": "uint8"
        }
      ],
      "payable": false,
      "stateMutability": "view",
      "type": "function"
    },
    {
      "constant": false,
      "inputs": [
        {
          "internalType": "uint256",
          "name": "amount",
          "type": "uint256"
        }
      ],
      "name": "decreaseDebtE",
      "outputs": [],
      "payable": false,
      "stateMutability": "nonpayable",
      "type": "function"
    },
    {
      "constant": false,
      "inputs": [
        {
          "internalType": "address",
          "name": "owner",
          "type": "address"
        },
        {
          "internalType": "address",
          "name": "spender",
          "type": "address"
        },
        {
          "internalType": "uint256",
          "name": "amount",
          "type": "uint256"
        },
        {
          "internalType": "string",
          "name": "reason",
          "type": "string"
        }
      ],
      "name": "decrementAllowanceCouponsE",
      "outputs": [],
      "payable": false,
      "stateMutability": "nonpayable",
      "type": "function"
    },
    {
      "constant": false,
      "inputs": [
        {
          "internalType": "address",
          "name": "candidate",
          "type": "address"
        },
        {
          "internalType": "uint256",
          "name": "amount",
          "type": "uint256"
        },
        {
          "internalType": "string",
          "name": "reason",
          "type": "string"
        }
      ],
      "name": "decrementApproveForE",
      "outputs": [],
      "payable": false,
      "stateMutability": "nonpayable",
      "type": "function"
    },
    {
      "constant": false,
      "inputs": [
        {
          "internalType": "address",
          "name": "account",
          "type": "address"
        },
        {
          "internalType": "uint256",
          "name": "epoch",
          "type": "uint256"
        },
        {
          "internalType": "uint256",
          "name": "amount",
          "type": "uint256"
        },
        {
          "internalType": "string",
          "name": "reason",
          "type": "string"
        }
      ],
      "name": "decrementBalanceOfCouponsE",
      "outputs": [],
      "payable": false,
      "stateMutability": "nonpayable",
      "type": "function"
    },
    {
      "constant": false,
      "inputs": [
        {
          "internalType": "address",
          "name": "account",
          "type": "address"
        },
        {
          "internalType": "uint256",
          "name": "amount",
          "type": "uint256"
        },
        {
          "internalType": "string",
          "name": "reason",
          "type": "string"
        }
      ],
      "name": "decrementBalanceOfE",
      "outputs": [],
      "payable": false,
      "stateMutability": "nonpayable",
      "type": "function"
    },
    {
      "constant": false,
      "inputs": [
        {
          "internalType": "address",
          "name": "account",
          "type": "address"
        },
        {
          "internalType": "uint256",
          "name": "amount",
          "type": "uint256"
        },
        {
          "internalType": "string",
          "name": "reason",
          "type": "string"
        }
      ],
      "name": "decrementBalanceOfStagedE",
      "outputs": [],
      "payable": false,
      "stateMutability": "nonpayable",
      "type": "function"
    },
    {
      "constant": false,
      "inputs": [
        {
          "internalType": "address",
          "name": "candidate",
          "type": "address"
        },
        {
          "internalType": "uint256",
          "name": "amount",
          "type": "uint256"
        },
        {
          "internalType": "string",
          "name": "reason",
          "type": "string"
        }
      ],
      "name": "decrementRejectForE",
      "outputs": [],
      "payable": false,
      "stateMutability": "nonpayable",
      "type": "function"
    },
    {
      "constant": false,
      "inputs": [
        {
          "internalType": "uint256",
          "name": "amount",
          "type": "uint256"
        },
        {
          "internalType": "string",
          "name": "reason",
          "type": "string"
        }
      ],
      "name": "decrementTotalBondedE",
      "outputs": [],
      "payable": false,
      "stateMutability": "nonpayable",
      "type": "function"
    },
    {
      "constant": false,
      "inputs": [
        {
          "internalType": "uint256",
          "name": "amount",
          "type": "uint256"
        },
        {
          "internalType": "string",
          "name": "reason",
          "type": "string"
        }
      ],
      "name": "decrementTotalDebtE",
      "outputs": [],
      "payable": false,
      "stateMutability": "nonpayable",
      "type": "function"
    },
    {
      "constant": false,
      "inputs": [
        {
          "internalType": "uint256",
          "name": "amount",
          "type": "uint256"
        },
        {
          "internalType": "string",
          "name": "reason",
          "type": "string"
        }
      ],
      "name": "decrementTotalRedeemableE",
      "outputs": [],
      "payable": false,
      "stateMutability": "nonpayable",
      "type": "function"
    },
    {
      "constant": false,
      "inputs": [
        {
          "internalType": "uint256",
          "name": "epoch",
          "type": "uint256"
        }
      ],
      "name": "eliminateOutstandingCouponsE",
      "outputs": [],
      "payable": false,
      "stateMutability": "nonpayable",
      "type": "function"
    },
    {
      "constant": false,
      "inputs": [
        {
          "internalType": "address",
          "name": "candidate",
          "type": "address"
        }
      ],
      "name": "emergencyCommit",
      "outputs": [],
      "payable": false,
      "stateMutability": "nonpayable",
      "type": "function"
    },
    {
      "constant": true,
      "inputs": [],
      "name": "epoch",
      "outputs": [
        {
          "internalType": "uint256",
          "name": "",
          "type": "uint256"
        }
      ],
      "payable": false,
      "stateMutability": "view",
      "type": "function"
    },
    {
      "constant": true,
      "inputs": [],
      "name": "ethic",
      "outputs": [
        {
          "internalType": "contract IEthic",
          "name": "",
          "type": "address"
        }
      ],
      "payable": false,
      "stateMutability": "view",
      "type": "function"
    },
    {
      "constant": true,
      "inputs": [
        {
          "internalType": "uint256",
          "name": "epoch",
          "type": "uint256"
        }
      ],
      "name": "expiringCoupons",
      "outputs": [
        {
          "internalType": "uint256",
          "name": "",
          "type": "uint256"
        }
      ],
      "payable": false,
      "stateMutability": "view",
      "type": "function"
    },
    {
      "constant": true,
      "inputs": [
        {
          "internalType": "uint256",
          "name": "epoch",
          "type": "uint256"
        },
        {
          "internalType": "uint256",
          "name": "i",
          "type": "uint256"
        }
      ],
      "name": "expiringCouponsAtIndex",
      "outputs": [
        {
          "internalType": "uint256",
          "name": "",
          "type": "uint256"
        }
      ],
      "payable": false,
      "stateMutability": "view",
      "type": "function"
    },
    {
      "constant": true,
      "inputs": [
        {
          "internalType": "address",
          "name": "account",
          "type": "address"
        }
      ],
      "name": "fluidUntil",
      "outputs": [
        {
          "internalType": "uint256",
          "name": "",
          "type": "uint256"
        }
      ],
      "payable": false,
      "stateMutability": "view",
      "type": "function"
    },
    {
      "constant": true,
      "inputs": [],
      "name": "implementation",
      "outputs": [
        {
          "internalType": "address",
          "name": "impl",
          "type": "address"
        }
      ],
      "payable": false,
      "stateMutability": "view",
      "type": "function"
    },
    {
      "constant": false,
      "inputs": [
        {
          "internalType": "uint256",
          "name": "amount",
          "type": "uint256"
        }
      ],
      "name": "increaseDebtE",
      "outputs": [],
      "payable": false,
      "stateMutability": "nonpayable",
      "type": "function"
    },
    {
      "constant": false,
      "inputs": [
        {
          "internalType": "address",
          "name": "candidate",
          "type": "address"
        },
        {
          "internalType": "uint256",
          "name": "amount",
          "type": "uint256"
        }
      ],
      "name": "incrementApproveForE",
      "outputs": [],
      "payable": false,
      "stateMutability": "nonpayable",
      "type": "function"
    },
    {
      "constant": false,
      "inputs": [
        {
          "internalType": "address",
          "name": "account",
          "type": "address"
        },
        {
          "internalType": "uint256",
          "name": "epoch",
          "type": "uint256"
        },
        {
          "internalType": "uint256",
          "name": "amount",
          "type": "uint256"
        }
      ],
      "name": "incrementBalanceOfCouponsE",
      "outputs": [],
      "payable": false,
      "stateMutability": "nonpayable",
      "type": "function"
    },
    {
      "constant": false,
      "inputs": [
        {
          "internalType": "address",
          "name": "account",
          "type": "address"
        },
        {
          "internalType": "uint256",
          "name": "amount",
          "type": "uint256"
        }
      ],
      "name": "incrementBalanceOfE",
      "outputs": [],
      "payable": false,
      "stateMutability": "nonpayable",
      "type": "function"
    },
    {
      "constant": false,
      "inputs": [
        {
          "internalType": "address",
          "name": "account",
          "type": "address"
        },
        {
          "internalType": "uint256",
          "name": "amount",
          "type": "uint256"
        }
      ],
      "name": "incrementBalanceOfStagedE",
      "outputs": [],
      "payable": false,
      "stateMutability": "nonpayable",
      "type": "function"
    },
    {
      "constant": false,
      "inputs": [],
      "name": "incrementEpochE",
      "outputs": [],
      "payable": false,
      "stateMutability": "nonpayable",
      "type": "function"
    },
    {
      "constant": false,
      "inputs": [
        {
          "internalType": "address",
          "name": "candidate",
          "type": "address"
        },
        {
          "internalType": "uint256",
          "name": "amount",
          "type": "uint256"
        }
      ],
      "name": "incrementRejectForE",
      "outputs": [],
      "payable": false,
      "stateMutability": "nonpayable",
      "type": "function"
    },
    {
      "constant": false,
      "inputs": [
        {
          "internalType": "uint256",
          "name": "amount",
          "type": "uint256"
        }
      ],
      "name": "incrementTotalBondedE",
      "outputs": [],
      "payable": false,
      "stateMutability": "nonpayable",
      "type": "function"
    },
    {
      "constant": false,
      "inputs": [
        {
          "internalType": "uint256",
          "name": "amount",
          "type": "uint256"
        }
      ],
      "name": "incrementTotalDebtE",
      "outputs": [],
      "payable": false,
      "stateMutability": "nonpayable",
      "type": "function"
    },
    {
      "constant": false,
      "inputs": [
        {
          "internalType": "uint256",
          "name": "amount",
          "type": "uint256"
        }
      ],
      "name": "incrementTotalRedeemableE",
      "outputs": [],
      "payable": false,
      "stateMutability": "nonpayable",
      "type": "function"
    },
    {
      "constant": false,
      "inputs": [
        {
          "internalType": "uint256",
          "name": "epoch",
          "type": "uint256"
        },
        {
          "internalType": "uint256",
          "name": "expiration",
          "type": "uint256"
        }
      ],
      "name": "initializeCouponsExpirationE",
      "outputs": [],
      "payable": false,
      "stateMutability": "nonpayable",
      "type": "function"
    },
    {
      "constant": false,
      "inputs": [
        {
          "internalType": "address",
          "name": "candidate",
          "type": "address"
        }
      ],
      "name": "initializedE",
      "outputs": [],
      "payable": false,
      "stateMutability": "nonpayable",
      "type": "function"
    },
    {
      "constant": true,
      "inputs": [
        {
          "internalType": "address",
          "name": "candidate",
          "type": "address"
        }
      ],
      "name": "isInitialized",
      "outputs": [
        {
          "internalType": "bool",
          "name": "",
          "type": "bool"
        }
      ],
      "payable": false,
      "stateMutability": "view",
      "type": "function"
    },
    {
      "constant": true,
      "inputs": [
        {
          "internalType": "address",
          "name": "candidate",
          "type": "address"
        }
      ],
      "name": "isNominated",
      "outputs": [
        {
          "internalType": "bool",
          "name": "",
          "type": "bool"
        }
      ],
      "payable": false,
      "stateMutability": "view",
      "type": "function"
    },
    {
      "constant": true,
      "inputs": [
        {
          "internalType": "address",
          "name": "account",
          "type": "address"
        }
      ],
      "name": "lockedUntil",
      "outputs": [
        {
          "internalType": "uint256",
          "name": "",
          "type": "uint256"
        }
      ],
      "payable": false,
      "stateMutability": "view",
      "type": "function"
    },
    {
      "constant": false,
      "inputs": [
        {
          "internalType": "address",
          "name": "account",
          "type": "address"
        },
        {
          "internalType": "uint256",
          "name": "amount",
          "type": "uint256"
        }
      ],
      "name": "mintToAccountE",
      "outputs": [],
      "payable": false,
      "stateMutability": "nonpayable",
      "type": "function"
    },
    {
      "constant": false,
      "inputs": [
        {
          "internalType": "address",
          "name": "account",
          "type": "address"
        },
        {
          "internalType": "uint256",
          "name": "amount",
          "type": "uint256"
        }
      ],
      "name": "mintToE",
      "outputs": [],
      "payable": false,
      "stateMutability": "nonpayable",
      "type": "function"
    },
    {
      "constant": true,
      "inputs": [],
      "name": "name",
      "outputs": [
        {
          "internalType": "string",
          "name": "",
          "type": "string"
        }
      ],
      "payable": false,
      "stateMutability": "view",
      "type": "function"
    },
    {
      "constant": true,
      "inputs": [],
      "name": "oracle",
      "outputs": [
        {
          "internalType": "contract IOracle",
          "name": "",
          "type": "address"
        }
      ],
      "payable": false,
      "stateMutability": "view",
      "type": "function"
    },
    {
      "constant": true,
      "inputs": [
        {
          "internalType": "uint256",
          "name": "epoch",
          "type": "uint256"
        }
      ],
      "name": "outstandingCoupons",
      "outputs": [
        {
          "internalType": "uint256",
          "name": "",
          "type": "uint256"
        }
      ],
      "payable": false,
      "stateMutability": "view",
      "type": "function"
    },
    {
      "constant": true,
      "inputs": [
        {
          "internalType": "address",
          "name": "candidate",
          "type": "address"
        }
      ],
      "name": "periodFor",
      "outputs": [
        {
          "internalType": "uint256",
          "name": "",
          "type": "uint256"
        }
      ],
      "payable": false,
      "stateMutability": "view",
      "type": "function"
    },
    {
      "constant": false,
      "inputs": [
        {
          "internalType": "address",
          "name": "account",
          "type": "address"
        },
        {
          "internalType": "address",
          "name": "candidate",
          "type": "address"
        }
      ],
      "name": "placeLockE",
      "outputs": [],
      "payable": false,
      "stateMutability": "nonpayable",
      "type": "function"
    },
    {
      "constant": true,
      "inputs": [],
      "name": "pool",
      "outputs": [
        {
          "internalType": "address",
          "name": "",
          "type": "address"
        }
      ],
      "payable": false,
      "stateMutability": "view",
      "type": "function"
    },
    {
      "constant": false,
      "inputs": [
        {
          "internalType": "address",
          "name": "account",
          "type": "address"
        },
        {
          "internalType": "address",
          "name": "candidate",
          "type": "address"
        },
        {
          "internalType": "enum Candidate.Vote",
          "name": "vote",
          "type": "uint8"
        }
      ],
      "name": "recordVoteE",
      "outputs": [],
      "payable": false,
      "stateMutability": "nonpayable",
      "type": "function"
    },
    {
      "constant": true,
      "inputs": [
        {
          "internalType": "address",
          "name": "account",
          "type": "address"
        },
        {
          "internalType": "address",
          "name": "candidate",
          "type": "address"
        }
      ],
      "name": "recordedVote",
      "outputs": [
        {
          "internalType": "enum Candidate.Vote",
          "name": "",
          "type": "uint8"
        }
      ],
      "payable": false,
      "stateMutability": "view",
      "type": "function"
    },
    {
      "constant": false,
      "inputs": [
        {
          "internalType": "address",
          "name": "account",
          "type": "address"
        },
        {
          "internalType": "uint256",
          "name": "amount",
          "type": "uint256"
        }
      ],
      "name": "redeemToAccountE",
      "outputs": [],
      "payable": false,
      "stateMutability": "nonpayable",
      "type": "function"
    },
    {
      "constant": true,
      "inputs": [
        {
          "internalType": "address",
          "name": "candidate",
          "type": "address"
        }
      ],
      "name": "rejectFor",
      "outputs": [
        {
          "internalType": "uint256",
          "name": "",
          "type": "uint256"
        }
      ],
      "payable": false,
      "stateMutability": "view",
      "type": "function"
    },
    {
      "constant": false,
      "inputs": [
        {
          "internalType": "uint256",
          "name": "percent",
          "type": "uint256"
        }
      ],
      "name": "resetDebtE",
      "outputs": [],
      "payable": false,
      "stateMutability": "nonpayable",
      "type": "function"
    },
    {
      "constant": false,
      "inputs": [
        {
          "internalType": "uint256",
          "name": "timestamp",
          "type": "uint256"
        }
      ],
      "name": "setBlockTimestamp",
      "outputs": [],
      "payable": false,
      "stateMutability": "nonpayable",
      "type": "function"
    },
    {
      "constant": false,
      "inputs": [
        {
          "internalType": "uint256",
          "name": "start",
          "type": "uint256"
        },
        {
          "internalType": "uint256",
          "name": "period",
          "type": "uint256"
        }
      ],
      "name": "setEpochParamsE",
      "outputs": [],
      "payable": false,
      "stateMutability": "nonpayable",
      "type": "function"
    },
    {
      "constant": false,
      "inputs": [],
      "name": "snapshotTotalBondedE",
      "outputs": [],
      "payable": false,
      "stateMutability": "nonpayable",
      "type": "function"
    },
    {
      "constant": true,
      "inputs": [
        {
          "internalType": "address",
          "name": "candidate",
          "type": "address"
        }
      ],
      "name": "startFor",
      "outputs": [
        {
          "internalType": "uint256",
          "name": "",
          "type": "uint256"
        }
      ],
      "payable": false,
      "stateMutability": "view",
      "type": "function"
    },
    {
      "constant": true,
      "inputs": [
        {
          "internalType": "address",
          "name": "account",
          "type": "address"
        }
      ],
      "name": "statusOf",
      "outputs": [
        {
          "internalType": "enum Account.Status",
          "name": "",
          "type": "uint8"
        }
      ],
      "payable": false,
      "stateMutability": "view",
      "type": "function"
    },
    {
      "constant": true,
      "inputs": [],
      "name": "symbol",
      "outputs": [
        {
          "internalType": "string",
          "name": "",
          "type": "string"
        }
      ],
      "payable": false,
      "stateMutability": "view",
      "type": "function"
    },
    {
      "constant": true,
      "inputs": [],
      "name": "totalBonded",
      "outputs": [
        {
          "internalType": "uint256",
          "name": "",
          "type": "uint256"
        }
      ],
      "payable": false,
      "stateMutability": "view",
      "type": "function"
    },
    {
      "constant": true,
      "inputs": [
        {
          "internalType": "uint256",
          "name": "epoch",
          "type": "uint256"
        }
      ],
      "name": "totalBondedAt",
      "outputs": [
        {
          "internalType": "uint256",
          "name": "",
          "type": "uint256"
        }
      ],
      "payable": false,
      "stateMutability": "view",
      "type": "function"
    },
    {
      "constant": true,
      "inputs": [],
      "name": "totalCoupons",
      "outputs": [
        {
          "internalType": "uint256",
          "name": "",
          "type": "uint256"
        }
      ],
      "payable": false,
      "stateMutability": "view",
      "type": "function"
    },
    {
      "constant": true,
      "inputs": [],
      "name": "totalDebt",
      "outputs": [
        {
          "internalType": "uint256",
          "name": "",
          "type": "uint256"
        }
      ],
      "payable": false,
      "stateMutability": "view",
      "type": "function"
    },
    {
      "constant": true,
      "inputs": [],
      "name": "totalNet",
      "outputs": [
        {
          "internalType": "uint256",
          "name": "",
          "type": "uint256"
        }
      ],
      "payable": false,
      "stateMutability": "view",
      "type": "function"
    },
    {
      "constant": true,
      "inputs": [],
      "name": "totalRedeemable",
      "outputs": [
        {
          "internalType": "uint256",
          "name": "",
          "type": "uint256"
        }
      ],
      "payable": false,
      "stateMutability": "view",
      "type": "function"
    },
    {
      "constant": true,
      "inputs": [],
      "name": "totalStaged",
      "outputs": [
        {
          "internalType": "uint256",
          "name": "",
          "type": "uint256"
        }
      ],
      "payable": false,
      "stateMutability": "view",
      "type": "function"
    },
    {
      "constant": true,
      "inputs": [],
      "name": "totalSupply",
      "outputs": [
        {
          "internalType": "uint256",
          "name": "",
          "type": "uint256"
        }
      ],
      "payable": false,
      "stateMutability": "view",
      "type": "function"
    },
    {
      "constant": false,
      "inputs": [
        {
          "internalType": "address",
          "name": "recipient",
          "type": "address"
        },
        {
          "internalType": "uint256",
          "name": "amount",
          "type": "uint256"
        }
      ],
      "name": "transfer",
      "outputs": [
        {
          "internalType": "bool",
          "name": "",
          "type": "bool"
        }
      ],
      "payable": false,
      "stateMutability": "nonpayable",
      "type": "function"
    },
    {
      "constant": false,
      "inputs": [
        {
          "internalType": "address",
          "name": "sender",
          "type": "address"
        },
        {
          "internalType": "address",
          "name": "recipient",
          "type": "address"
        },
        {
          "internalType": "uint256",
          "name": "amount",
          "type": "uint256"
        }
      ],
      "name": "transferFrom",
      "outputs": [
        {
          "internalType": "bool",
          "name": "",
          "type": "bool"
        }
      ],
      "payable": false,
      "stateMutability": "nonpayable",
      "type": "function"
    },
    {
      "constant": false,
      "inputs": [
        {
          "internalType": "address",
          "name": "account",
          "type": "address"
        }
      ],
      "name": "unfreezeE",
      "outputs": [],
      "payable": false,
      "stateMutability": "nonpayable",
      "type": "function"
    },
    {
      "constant": false,
      "inputs": [
        {
          "internalType": "address",
          "name": "owner",
          "type": "address"
        },
        {
          "internalType": "address",
          "name": "spender",
          "type": "address"
        },
        {
          "internalType": "uint256",
          "name": "amount",
          "type": "uint256"
        }
      ],
      "name": "updateAllowanceCouponsE",
      "outputs": [],
      "payable": false,
      "stateMutability": "nonpayable",
      "type": "function"
    },
    {
      "constant": false,
      "inputs": [
        {
          "internalType": "address",
          "name": "candidate",
          "type": "address"
        },
        {
          "internalType": "enum Candidate.Vote",
          "name": "vote",
          "type": "uint8"
        }
      ],
      "name": "vote",
      "outputs": [],
      "payable": false,
      "stateMutability": "nonpayable",
      "type": "function"
    },
    {
      "constant": true,
      "inputs": [
        {
          "internalType": "address",
          "name": "candidate",
          "type": "address"
        }
      ],
      "name": "votesFor",
      "outputs": [
        {
          "internalType": "uint256",
          "name": "",
          "type": "uint256"
        }
      ],
      "payable": false,
      "stateMutability": "view",
      "type": "function"
    },
    {
      "constant": false,
      "inputs": [],
      "name": "initialize",
      "outputs": [],
      "payable": false,
      "stateMutability": "nonpayable",
      "type": "function"
    },
    {
      "constant": false,
      "inputs": [
        {
          "internalType": "address",
          "name": "newImplementation",
          "type": "address"
        }
      ],
      "name": "upgradeToE",
      "outputs": [],
      "payable": false,
      "stateMutability": "nonpayable",
      "type": "function"
    },
    {
      "constant": false,
      "inputs": [
        {
          "internalType": "uint256",
          "name": "epochTime",
          "type": "uint256"
        }
      ],
      "name": "setEpochTime",
      "outputs": [],
      "payable": false,
      "stateMutability": "nonpayable",
      "type": "function"
    },
    {
      "constant": true,
      "inputs": [],
      "name": "epochTime",
      "outputs": [
        {
          "internalType": "uint256",
          "name": "",
          "type": "uint256"
        }
      ],
      "payable": false,
      "stateMutability": "view",
      "type": "function"
    }
  ],
  "bytecode": "0x60806040523480156200001157600080fd5b5042600f5560405160009062000027906200007a565b604051809103906000f08015801562000044573d6000803e3d6000fd5b50600980546001600160a01b039283166001600160a01b031991821617909155600b805493909216921691909117905562000088565b611bf980620033af83390190565b61331780620000986000396000f3fe608060405234801561001057600080fd5b50600436106104b75760003560e01c8063825ad60711610278578063b11ee0e31161015c578063cf023779116100ce578063e0abdf6611610092578063e0abdf6614610a2c578063f1b7cf4914610a3f578063f35adf7e14610a52578063f7a3181814610a5a578063fc7b9c1814610a6d578063ffbe3b7314610a75576104b7565b8063cf023779146109dd578063d60b347f146109e5578063d6d8816d146109f8578063d83d3ed514610a0b578063dd62ed3e14610a1e576104b7565b8063c0ec4ac511610120578063c0ec4ac514610976578063c1410c021461097e578063c2aeb5fe14610991578063c45a3e0a146109a4578063c9aff70c146109b7578063cc8d823c146109ca576104b7565b8063b11ee0e314610917578063b16144a31461092a578063b32a2f901461093d578063bc7513e214610950578063bceb514d14610963576104b7565b80639bc289f1116101f5578063a6c409f1116101b9578063a6c409f1146108c3578063a6f37b53146108cb578063a9059cbb146104da578063a9b3cf15146108de578063adbff2be146108f1578063ae5c238114610904576104b7565b80639bc289f1146108645780639be46493146108775780639f6e1b261461088a578063a00e14d11461089d578063a50cd8e7146108b0576104b7565b8063900cf0cf1161023c578063900cf0cf1461082657806395d89b411461082e57806397a5d5b5146108365780639a649edc146108495780639b82b49b14610851576104b7565b8063825ad607146107c75780638413e52a146107da57806386cf9f14146107ed5780638a558b04146108005780638de2e57314610813576104b7565b80633fd4973c1161039f578063646680221161031c57806372924d2a116102e057806372924d2a1461075e57806375d5024b146107715780637a26ec28146107845780637cb95a32146107975780637dc0d1d0146107aa5780638129fc1c146107bf576104b7565b8063646680221461070a5780636a39e3281461071d5780636b862d661461073057806370a082311461074357806371c511eb14610756576104b7565b80635053e461116103635780635053e461146106c157806351bf21d8146106c95780635c60da1b146106dc5780635dbf800a146106e45780635f14fec8146106f7576104b7565b80633fd4973c1461066d578063438735261461068057806344d96e951461069357806347c050691461069b5780634c736099146106ae576104b7565b806320f6bc901161043857806332347422116103fc57806332347422146105ee578063353a420c14610601578063369e8c1d146106145780633a3e6c81146106275780633f7bcaf31461063a5780633fbba9a61461064d576104b7565b806320f6bc901461058d57806323b872dd146105a0578063259f7adf146105b3578063277805a9146105c6578063313ce567146105d9576104b7565b806316f0115b1161047f57806316f0115b1461054257806318160ddd146105575780631a08e22a1461055f5780631edbcf6c146105725780631fac97321461057a576104b7565b806306fdde03146104bc578063095ea7b3146104da5780630dc6d3a3146104fa57806310e95b6c1461050f57806315e14bf61461052f575b600080fd5b6104c4610a88565b6040516104d19190613143565b60405180910390f35b6104ed6104e8366004612cd4565b610ab3565b6040516104d1919061310b565b61050d610508366004612c26565b610abc565b005b61052261051d366004612df1565b610b05565b6040516104d19190613194565b61052261053d366004612b3e565b610b1d565b61054a610b3b565b6040516104d191906130ba565b610522610b4a565b61050d61056d366004612e83565b610b50565b610522610b5e565b61050d610588366004612df1565b610b64565b61050d61059b366004612cd4565b610b70565b6104ed6105ae366004612be3565b610b7a565b61050d6105c1366004612df1565b610b84565b61050d6105d4366004612cd4565b610b8d565b6105e1610c19565b6040516104d191906131a2565b61050d6105fc366004612e2d565b610c1e565b61052261060f366004612b3e565b610c5e565b61050d610622366004612b3e565b610c7c565b6104ed610635366004612b3e565b610e19565b61050d610648366004612be3565b610e36565b61066061065b366004612b5c565b610e41565b6040516104d19190613127565b61050d61067b366004612d04565b610e74565b61050d61068e366004612df1565b610ebb565b610522610ec4565b61050d6106a9366004612b3e565b610eca565b6105226106bc366004612e83565b610fbd565b610522610fed565b6105226106d7366004612b3e565b610ff3565b61054a611011565b61050d6106f2366004612df1565b611036565b61050d610705366004612cd4565b61103f565b610522610718366004612b3e565b611049565b61052261072b366004612df1565b611067565b61050d61073e366004612d6c565b61107c565b610522610751366004612b3e565b611087565b61050d6110a5565b61050d61076c366004612e2d565b6110af565b6104ed61077f366004612df1565b6110ef565b61050d610792366004612df1565b611102565b61050d6107a5366004612d04565b611107565b6107b2611148565b6040516104d19190613119565b61050d611157565b6105226107d5366004612b3e565b611178565b61050d6107e8366004612b96565b6111c4565b6105226107fb366004612b3e565b6111cf565b61050d61080e366004612b3e565b6111ea565b61050d610821366004612df1565b6111f3565b6105226111fc565b6104c4611202565b610660610844366004612b3e565b611221565b610522611286565b61050d61085f366004612e2d565b61128c565b610522610872366004612b3e565b6112cc565b61050d610885366004612b3e565b6112ea565b610522610898366004612b5c565b6112f5565b61050d6108ab366004612e83565b611324565b6105226108be366004612b3e565b61132f565b610522611346565b61050d6108d9366004612b3e565b6113d0565b61050d6108ec366004612df1565b6113d9565b61050d6108ff366004612d04565b6113e2565b61050d610912366004612cd4565b611423565b61050d610925366004612cd4565b61142d565b61050d610938366004612df1565b611437565b61050d61094b366004612d04565b61144a565b61052261095e366004612cd4565b61148b565b61050d610971366004612ca4565b6114cf565b6107b26117b0565b61050d61098c366004612b5c565b6117bf565b61050d61099f366004612d9e565b6117c9565b61050d6109b2366004612cd4565b61180b565b6105226109c5366004612df1565b611815565b61050d6109d8366004612cd4565b61182a565b610522611834565b6104ed6109f3366004612b3e565b61183a565b61050d610a06366004612df1565b61185b565b61050d610a19366004612cd4565b611864565b6105226104e8366004612b5c565b61050d610a3a366004612df1565b61186e565b610522610a4d366004612b3e565b611873565b61050d61188e565b61050d610a68366004612cd4565b611896565b6105226118a0565b610522610a83366004612df1565b6118a6565b6040805180820190915260118152704574686963204d6f6e6579205374616b6560781b602082015290565b60005b92915050565b610afe85858585858080601f0160208091040260200160405190810160405280939291908181526020018383808284376000920191909152506118b892505050565b5050505050565b6000818152600d60205260409020600201545b919050565b6001600160a01b03166000908152600e602052604090206001015490565b600b546001600160a01b031690565b60035490565b610b5a8282611929565b5050565b60065490565b610b6d8161195b565b50565b610b5a82826119a2565b60005b9392505050565b610b6d81611a4c565b610b956117b0565b6001600160a01b03166340c10f1983836040518363ffffffff1660e01b8152600401610bc29291906130f0565b602060405180830381600087803b158015610bdc57600080fd5b505af1158015610bf0573d6000803e3d6000fd5b505050506040513d601f19601f82011682018060405250610c149190810190612dd3565b505050565b601290565b610c148383838080601f016020809104026020016040519081016040528093929190818152602001838380828437600092019190915250611a6592505050565b6001600160a01b03166000908152600e602052604090206003015490565b610ca8610c8882610e19565b6523b7bb32b93760d11b6c139bdd081b9bdb5a5b985d1959609a1b611a80565b6000610cdc6001610cd0610cbb85610b1d565b610cc486611873565b9063ffffffff611ad516565b9063ffffffff611afa16565b9050610d0781610cea6111fc565b116523b7bb32b93760d11b68139bdd08195b99195960ba1b611a80565b610d4a610d26610d15611b3c565b610cc484600163ffffffff611ad516565b610d2e6111fc565b11156523b7bb32b93760d11b66115e1c1a5c995960ca1b611a80565b610da1610d7e610d58611b41565b610d72610d648661132f565b610d6d866118a6565b611b63565b9063ffffffff611b9216565b6523b7bb32b93760d11b6f4d75737420686176652071756f726f6d60801b611a80565b610dd6610dad83610c5e565b610db684611049565b116523b7bb32b93760d11b6b139bdd08185c1c1c9bdd995960a21b611a80565b610ddf82611ba8565b6040516001600160a01b0383169033907f815ca4497ab9fc80c76f210e6e842a5e198e195aa136034557eee144f790e7bb90600090a35050565b6001600160a01b03166000908152600e6020526040902054151590565b610c14838383611c94565b6001600160a01b038082166000908152600e60209081526040808320938616835260049093019052205460ff1692915050565b610eb5848484848080601f016020809104026020016040519081016040528093929190818152602001838380828437600092019190915250611cc492505050565b50505050565b610b5a81611d15565b60045490565b610ed6610c8882610e19565b610f14610eec610ee4611d5c565b610cc46111fc565b610ef4610fed565b116523b7bb32b93760d11b6b115c1bd8da081cde5b98d95960a21b611a80565b610f66610f36610f22611d61565b610d72610f2e85611049565b610d6d610b4a565b6523b7bb32b93760d11b7f4d7573742068617665207375706572206d616a6f726974790000000000000000611a80565b610f7b610f7282610c5e565b610db683611049565b610f8481611ba8565b6040516001600160a01b0382169033907f815ca4497ab9fc80c76f210e6e842a5e198e195aa136034557eee144f790e7bb90600090a350565b6000828152600d60205260408120600301805483908110610fda57fe5b9060005260206000200154905092915050565b60105490565b6001600160a01b03166000908152600c602052604090206004015490565b7f360894a13ba1a3210667c828492db98dca3e2076cc3735a920a3ca505d382bbc5490565b610b6d81611d83565b610b5a8282611e0a565b6001600160a01b03166000908152600e602052604090206002015490565b6000908152600d602052604090206003015490565b610c14838383611f1b565b6001600160a01b03166000908152600c602052604090206001015490565b6110ad611fc2565b565b610c148383838080601f016020809104026020016040519081016040528093929190818152602001838380828437600092019190915250611fe992505050565b60006110f9612004565b90911115919050565b601055565b610eb5848484848080601f01602080910402602001604051908101604052809392919081815260200183838082843760009201919091525061200992505050565b600a546001600160a01b031690565b60405162461bcd60e51b815260040161116f90613184565b60405180910390fd5b600080611183610b4a565b905080611194576000915050610b18565b610b7d816111b86111a486611087565b6111ac610ec4565b9063ffffffff61205a16565b9063ffffffff61209416565b610c148383836120d6565b6001600160a01b03166000908152600c602052604090205490565b610b6d81611ba8565b610b6d81612120565b60025490565b604080518082019091526005815264455448435360d81b602082015290565b600061122b6111fc565b6001600160a01b0383166000908152600c6020526040902060050154111561125557506002610b18565b6001600160a01b0382166000908152600c60205260409020600401546112796111fc565b1015610ab3576001610ab6565b60085490565b610c148383838080601f01602080910402602001604051908101604052809392919081815260200183838082843760009201919091525061213992505050565b6001600160a01b03166000908152600c602052604090206005015490565b610b6d816078612154565b6001600160a01b039182166000908152600c602090815260408083209390941682526003909201909152205490565b600091909155600155565b6000610ab661133d83610c5e565b610cc484611049565b60006113cb6113536118a0565b61135b6117b0565b6001600160a01b03166318160ddd6040518163ffffffff1660e01b815260040160206040518083038186803b15801561139357600080fd5b505afa1580156113a7573d6000803e3d6000fd5b505050506040513d601f19601f82011682018060405250610cd09190810190612e0f565b905090565b610b6d81612183565b610b6d816121aa565b610eb5848484848080601f0160208091040260200160405190810160405280939291908181526020018383808284376000920191909152506121ed92505050565b610b5a8282612298565b610b5a8282612340565b610b5a611445826064611b63565b61239c565b610eb5848484848080601f01602080910402602001604051908101604052809392919081815260200183838082843760009201919091525061247692505050565b600061149682611815565b6114a257506000610ab6565b506001600160a01b03919091166000908152600c6020908152604080832093835260029093019052205490565b3361151660016114de83611221565b60028111156114e957fe5b1415692832b936b4b9b9b4b7b760b11b73139bdd08199c9bde995b881bdc881b1bd8dad95960621b611a80565b611547600061152433611087565b116523b7bb32b93760d11b6e4d7573742068617665207374616b6560881b611a80565b61155083610e19565b6115f357611590611560336124d5565b6523b7bb32b93760d11b7f4e6f7420656e6f756768207374616b6520746f2070726f706f73650000000000611a80565b6115a18361159c612519565b61251e565b6115a96111fc565b336001600160a01b0385167fd15e38a680a427478883cd2d32eb664cb6bb2090b0126a23ebaf3e3784b8c56b6115dd612519565b6040516115ea9190613194565b60405180910390a45b611623611602610cbb85610b1d565b61160a6111fc565b106523b7bb32b93760d11b64115b99195960da1b611a80565b600061162e33611087565b9050600061163c3386610e41565b905080600281111561164a57fe5b84600281111561165657fe5b1415611663575050610c14565b600281600281111561167157fe5b14156116b7576116b785836040518060400160405280601b81526020017f476f7665726e3a20496e73756666696369656e742072656a6563740000000000815250611cc4565b60018160028111156116c557fe5b141561170b5761170b85836040518060400160405280601c81526020017f476f7665726e3a20496e73756666696369656e7420617070726f766500000000815250612009565b600284600281111561171957fe5b141561172957611729858361254a565b600184600281111561173757fe5b1415611747576117478583612599565b6117523386866120d6565b61175c33866125e8565b846001600160a01b0316336001600160a01b03167fbe50c78cbc15b0864819aadea36c6499da421b33c38e2ef19bebda583c708c7886856040516117a1929190613135565b60405180910390a35050505050565b6009546001600160a01b031690565b610b5a82826125e8565b610afe85858585858080601f01602080910402602001604051908101604052809392919081815260200183838082843760009201919091525061264892505050565b610b5a82826126f3565b6000908152600d602052604090206001015490565b610b5a828261254a565b60055490565b6001600160a01b03166000908152600e602052604090206005015460ff1690565b610b6d8161279d565b610b5a828261251e565b600f55565b6001600160a01b03166000908152600e602052604090205490565b6110ad6127b6565b610b5a8282612599565b60075490565b6000908152600d602052604090205490565b6001600160a01b038085166000908152600c6020908152604080832093871683526003909301905220546118f390838363ffffffff6127cf16565b6001600160a01b039485166000908152600c60209081526040808320969097168252600390950190945293909220929092555050565b6000828152600d6020908152604080832060020184905592825291812060030180546001810182559082529190200155565b61199a816040518060400160405280601c81526020017f436f6d7074726f6c6c65723a206e6f7420656e6f756768206465627400000000815250611fe9565b610b6d6127fb565b6119aa6117b0565b6001600160a01b03166340c10f1983836040518363ffffffff1660e01b81526004016119d79291906130f0565b602060405180830381600087803b1580156119f157600080fd5b505af1158015611a05573d6000803e3d6000fd5b505050506040513d601f19601f82011682018060405250611a299190810190612dd3565b50611a3561077f6111fc565b611a4457611a4281611d15565b505b610b5a6127fb565b600454611a5f908263ffffffff611ad516565b60045550565b600654611a7990838363ffffffff6127cf16565b6006555050565b82610c1457611a8e826128ce565b6101d160f51b611a9d836128ce565b604051602001611aaf93929190613089565b60408051601f198184030181529082905262461bcd60e51b825261116f91600401613143565b600082820183811015610b7d5760405162461bcd60e51b815260040161116f90613154565b6000610b7d83836040518060400160405280601e81526020017f536166654d6174683a207375627472616374696f6e206f766572666c6f7700008152506127cf565b601790565b611b49612aab565b506040805160208101909152670429d069189e0000815290565b611b6b612aab565b6040518060200160405280611b8985670de0b6b3a76400008661294e565b90529392505050565b6000611b9e838361296c565b6002149392505050565b611bb18161299e565b60408051600481526024810182526020810180516001600160e01b031663204a7f0760e21b17905290516000916060916001600160a01b03851691611bf59161307d565b600060405180830381855af49150503d8060008114611c30576040519150601f19603f3d011682016040523d82523d6000602084013e611c35565b606091505b5091509150818190611c5a5760405162461bcd60e51b815260040161116f9190613143565b506040516001600160a01b038416907fbc7cd75a20ee27fd9adebab32041f755214dbc6bffa90cc0225b39da2e5c2d3b90600090a2505050565b6001600160a01b039283166000908152600c60209081526040808320949095168252600390930190925291902055565b6001600160a01b0383166000908152600e6020526040902060030154611cf190838363ffffffff6127cf16565b6001600160a01b039093166000908152600e60205260409020600301929092555050565b6000611d2082612120565b6000611d2d6114456129e7565b9050611d376127fb565b828111611d5357611d4e838263ffffffff611afa16565b610b7d565b50600092915050565b604890565b611d69612aab565b506040805160208101909152670853a0d2313c0000815290565b611d8b6117b0565b6001600160a01b03166342966c68826040518263ffffffff1660e01b8152600401611db69190613194565b600060405180830381600087803b158015611dd057600080fd5b505af1158015611de4573d6000803e3d6000fd5b5050505061199a816040518060600160405280602a81526020016132ab602a9139611a65565b611e126117b0565b6001600160a01b03166323b872dd8330846040518463ffffffff1660e01b8152600401611e41939291906130c8565b602060405180830381600087803b158015611e5b57600080fd5b505af1158015611e6f573d6000803e3d6000fd5b505050506040513d601f19601f82011682018060405250611e939190810190612dd3565b50611e9c6117b0565b6001600160a01b03166342966c68826040518263ffffffff1660e01b8152600401611ec79190613194565b600060405180830381600087803b158015611ee157600080fd5b505af1158015611ef5573d6000803e3d6000fd5b50505050611a448160405180606001604052806028815260200161328360289139611fe9565b6001600160a01b0383166000908152600c60209081526040808320858452600201909152902054611f52908263ffffffff611ad516565b6001600160a01b0384166000908152600c60209081526040808320868452600201825280832093909355600d90522060010154611f95908263ffffffff611ad516565b6000838152600d6020526040902060010155600854611fba908263ffffffff611ad516565b600855505050565b611fca610b4a565b600d6000611fd66111fc565b8152602081019190915260400160002055565b600754611ffd90838363ffffffff6127cf16565b6007555050565b605a90565b6001600160a01b0383166000908152600e602052604090206002015461203690838363ffffffff6127cf16565b6001600160a01b039093166000908152600e60205260409020600201929092555050565b60008261206957506000610ab6565b8282028284828161207657fe5b0414610b7d5760405162461bcd60e51b815260040161116f90613164565b6000610b7d83836040518060400160405280601a81526020017f536166654d6174683a206469766973696f6e206279207a65726f000000000000815250612a09565b6001600160a01b038083166000908152600e6020908152604080832093871683526004909301905220805482919060ff1916600183600281111561211657fe5b0217905550505050565b600754612133908263ffffffff611ad516565b60075550565b60045461214d90838363ffffffff6127cf16565b6004555050565b61216081610cc46111fc565b6001600160a01b039092166000908152600c602052604090206004019190915550565b6001600160a01b03166000908152600e60205260409020600501805460ff19166001179055565b60006121b582611815565b9050806121c25750610b6d565b6008546121d5908263ffffffff611afa16565b600855506000908152600d6020526040812060010155565b6001600160a01b0383166000908152600c602052604090206001015461221a90838363ffffffff6127cf16565b6001600160a01b0384166000908152600c602052604090206001015560035461224a90838363ffffffff6127cf16565b6003556040516000906001600160a01b038516907fddf252ad1be2c89b69c2b068fc378daa952ba7f163c4a11628f55a4df523b3ef9061228b908690613194565b60405180910390a3505050565b6001600160a01b0382166000908152600c60205260409020600101546122c4908263ffffffff611ad516565b6001600160a01b0383166000908152600c60205260409020600101556003546122f3908263ffffffff611ad516565b6003556040516001600160a01b038316906000907fddf252ad1be2c89b69c2b068fc378daa952ba7f163c4a11628f55a4df523b3ef90612334908590613194565b60405180910390a35050565b6001600160a01b0382166000908152600c6020526040902054612369908263ffffffff611ad516565b6001600160a01b0383166000908152600c6020526040902055600554612395908263ffffffff611ad516565b6005555050565b60008061242f61242a6123ad6117b0565b6001600160a01b03166318160ddd6040518163ffffffff1660e01b815260040160206040518083038186803b1580156123e557600080fd5b505afa1580156123f9573d6000803e3d6000fd5b505050506040513d601f19601f8201168201806040525061241d9190810190612e0f565b859063ffffffff612a4016565b612a67565b9050600061243b6118a0565b90508181111561246c576000612457828463ffffffff611afa16565b90506124628161195b565b9250610b18915050565b5060009392505050565b6001600160a01b0383166000908152600c60205260409020546124a090838363ffffffff6127cf16565b6001600160a01b0384166000908152600c60205260409020556005546124cd90838363ffffffff6127cf16565b600555505050565b60006124df610ec4565b6124eb57506000610b18565b6124f3612aab565b6124ff610f2e84611087565b9050610b7d61250c612a84565b829063ffffffff611b9216565b606090565b6125266111fc565b6001600160a01b039092166000908152600e60205260409020918255600190910155565b6001600160a01b0382166000908152600e6020526040902060030154612576908263ffffffff611ad516565b6001600160a01b039092166000908152600e602052604090206003019190915550565b6001600160a01b0382166000908152600e60205260409020600201546125c5908263ffffffff611ad516565b6001600160a01b039092166000908152600e602052604090206002019190915550565b6001600160a01b0382166000908152600c60205260408120600501549061261a61261184610b1d565b610cc485611873565b905081811115610eb5576001600160a01b0384166000908152600c6020526040902060050181905550505050565b6001600160a01b0384166000908152600c6020908152604080832086845260020190915290205461268090838363ffffffff6127cf16565b6001600160a01b0385166000908152600c60209081526040808320878452600201825280832093909355600d905220600101546126c490838363ffffffff6127cf16565b6000848152600d60205260409020600101556008546126ea90838363ffffffff6127cf16565b60085550505050565b6126fb6117b0565b6001600160a01b031663a9059cbb83836040518363ffffffff1660e01b81526004016127289291906130f0565b602060405180830381600087803b15801561274257600080fd5b505af1158015612756573d6000803e3d6000fd5b505050506040513d601f19601f8201168201806040525061277a9190810190612dd3565b50611a44816040518060600160405280602a81526020016132ab602a9139611a65565b6006546127b0908263ffffffff611ad516565b60065550565b6002546127ca90600163ffffffff611ad516565b600255565b600081848411156127f35760405162461bcd60e51b815260040161116f9190613143565b505050900390565b6110ad61281c612809610b5e565b610cc4612814611834565b610cc4610ec4565b6128246117b0565b6001600160a01b03166370a08231306040518263ffffffff1660e01b815260040161284f91906130ba565b60206040518083038186803b15801561286757600080fd5b505afa15801561287b573d6000803e3d6000fd5b505050506040513d601f19601f8201168201806040525061289f9190810190612e0f565b10156a21b7b6b83a3937b63632b960a91b74496e636f6e73697374656e742062616c616e63657360581b611a80565b606080826040516020016128e29190613068565b60408051601f19818403018152919052905060205b80156129375781516000199091019082908290811061291257fe5b01602001516001600160f81b031916156129325760010181529050610b18565b6128f7565b505060408051600081526020810190915292915050565b6000612964826111b8868663ffffffff61205a16565b949350505050565b80518251600091141561298157506001610ab6565b8151835111612991576000612994565b60025b60ff169392505050565b6129a781612aa5565b6129c35760405162461bcd60e51b815260040161116f90613174565b7f360894a13ba1a3210667c828492db98dca3e2076cc3735a920a3ca505d382bbc55565b6129ef612aab565b5060408051602081019091526702c68af0bb140000815290565b60008183612a2a5760405162461bcd60e51b815260040161116f9190613143565b506000838581612a3657fe5b0495945050505050565b612a48612aab565b604080516020810190915283518190611b89908563ffffffff61205a16565b8051600090610ab690670de0b6b3a764000063ffffffff61209416565b612a8c612aab565b50604080516020810190915266470de4df820000815290565b3b151590565b6040518060200160405280600081525090565b8035610ab68161324f565b8051610ab681613263565b8035610ab68161326c565b60008083601f840112612af157600080fd5b50813567ffffffffffffffff811115612b0957600080fd5b602083019150836001820283011115612b2157600080fd5b9250929050565b8035610ab681613279565b8051610ab681613279565b600060208284031215612b5057600080fd5b60006129648484612abe565b60008060408385031215612b6f57600080fd5b6000612b7b8585612abe565b9250506020612b8c85828601612abe565b9150509250929050565b600080600060608486031215612bab57600080fd5b6000612bb78686612abe565b9350506020612bc886828701612abe565b9250506040612bd986828701612ad4565b9150509250925092565b600080600060608486031215612bf857600080fd5b6000612c048686612abe565b9350506020612c1586828701612abe565b9250506040612bd986828701612b28565b600080600080600060808688031215612c3e57600080fd5b6000612c4a8888612abe565b9550506020612c5b88828901612abe565b9450506040612c6c88828901612b28565b935050606086013567ffffffffffffffff811115612c8957600080fd5b612c9588828901612adf565b92509250509295509295909350565b60008060408385031215612cb757600080fd5b6000612cc38585612abe565b9250506020612b8c85828601612ad4565b60008060408385031215612ce757600080fd5b6000612cf38585612abe565b9250506020612b8c85828601612b28565b60008060008060608587031215612d1a57600080fd5b6000612d268787612abe565b9450506020612d3787828801612b28565b935050604085013567ffffffffffffffff811115612d5457600080fd5b612d6087828801612adf565b95989497509550505050565b600080600060608486031215612d8157600080fd5b6000612d8d8686612abe565b9350506020612c1586828701612b28565b600080600080600060808688031215612db657600080fd5b6000612dc28888612abe565b9550506020612c5b88828901612b28565b600060208284031215612de557600080fd5b60006129648484612ac9565b600060208284031215612e0357600080fd5b60006129648484612b28565b600060208284031215612e2157600080fd5b60006129648484612b33565b600080600060408486031215612e4257600080fd5b6000612e4e8686612b28565b935050602084013567ffffffffffffffff811115612e6b57600080fd5b612e7786828701612adf565b92509250509250925092565b60008060408385031215612e9657600080fd5b6000612cf38585612b28565b612eab816131bd565b82525050565b612eab816131c8565b612eab612ec6826131cd565b6131da565b612eab612ec6826131da565b6000612ee2826131b0565b612eec8185610b18565b9350612efc81856020860161320f565b9290920192915050565b612eab816131f9565b612eab81613204565b6000612f23826131b0565b612f2d81856131b4565b9350612f3d81856020860161320f565b612f468161323b565b9093019392505050565b6000612f5d601b836131b4565b7f536166654d6174683a206164646974696f6e206f766572666c6f770000000000815260200192915050565b6000612f966021836131b4565b7f536166654d6174683a206d756c7469706c69636174696f6e206f766572666c6f8152607760f81b602082015260400192915050565b6000612fd9603b836131b4565b7f43616e6e6f742073657420612070726f787920696d706c656d656e746174696f81527f6e20746f2061206e6f6e2d636f6e747261637420616464726573730000000000602082015260400192915050565b6000613038600f836131b4565b6e14da1bdd5b19081b9bdd0818d85b1b608a1b815260200192915050565b612eab816131da565b612eab816131f3565b60006130748284612ecb565b50602001919050565b6000610b7d8284612ed7565b60006130958286612ed7565b91506130a18285612eba565b6002820191506130b18284612ed7565b95945050505050565b60208101610ab68284612ea2565b606081016130d68286612ea2565b6130e36020830185612ea2565b6129646040830184613056565b604081016130fe8285612ea2565b610b7d6020830184613056565b60208101610ab68284612eb1565b60208101610ab68284612f06565b60208101610ab68284612f0f565b604081016130fe8285612f0f565b60208082528101610b7d8184612f18565b60208082528101610ab681612f50565b60208082528101610ab681612f89565b60208082528101610ab681612fcc565b60208082528101610ab68161302b565b60208101610ab68284613056565b60208101610ab6828461305f565b5190565b90815260200190565b6000610ab6826131e7565b151590565b6001600160f01b03191690565b90565b80610b1881613245565b6001600160a01b031690565b60ff1690565b6000610ab6826131bd565b6000610ab6826131dd565b60005b8381101561322a578181015183820152602001613212565b83811115610eb55750506000910152565b601f01601f191690565b60038110610b6d57fe5b613258816131bd565b8114610b6d57600080fd5b613258816131c8565b60038110610b6d57600080fd5b613258816131da56fe436f6d7074726f6c6c65723a206e6f7420656e6f756768206f75747374616e64696e672064656274436f6d7074726f6c6c65723a206e6f7420656e6f7567682072656465656d61626c652062616c616e6365a365627a7a723158203f33c6355254faec0abfd2d0bec76cbed3a06d43c7f14236c8ed0af38d7d448a6c6578706572696d656e74616cf564736f6c6343000511004060806040523480156200001157600080fd5b5060405180604001604052806005815260200164457468696360d81b815250604051806040016040528060048152602001634554484360e01b815250601262000072620000636200010d60201b60201c565b6001600160e01b036200011216565b82516200008790600190602086019062000307565b5081516200009d90600290602085019062000307565b506003805460ff191660ff9290921691909117905550620001049050620000c362000164565b604051806040016040528060018152602001603160f81b815250620000f2620001fd60201b620016341760201c565b306200020260201b620016391760201c565b6007556200045d565b335b90565b6200012d8160006200025960201b62000d7e1790919060201c565b6040516001600160a01b038216907f6ae172837ea30b801fbfcdd4108aa1d5bf8ff775444fd70256b44e6bf3dfc3f690600090a250565b60018054604080516020601f60026000196101008789161502019095169490940493840181900481028201810190925282815260609390929091830182828015620001f35780601f10620001c757610100808354040283529160200191620001f3565b820191906000526020600020905b815481529060010190602001808311620001d557829003601f168201915b5050505050905090565b602a90565b8351602094850120835193850193909320604080517f8b73c3c69bb8fe3d512ecc4cf759cc79239f7b179b0ffacaa9a75d522b39400f815295860194909452928401929092526060830152608082015260a0902090565b6200026e82826001600160e01b03620002bc16565b15620002975760405162461bcd60e51b81526004016200028e906200042a565b60405180910390fd5b6001600160a01b0316600090815260209190915260409020805460ff19166001179055565b60006001600160a01b038216620002e75760405162461bcd60e51b81526004016200028e9062000442565b506001600160a01b03166000908152602091909152604090205460ff1690565b828054600181600116156101000203166002900490600052602060002090601f016020900481019282601f106200034a57805160ff19168380011785556200037a565b828001600101855582156200037a579182015b828111156200037a5782518255916020019190600101906200035d565b50620003889291506200038c565b5090565b6200010f91905b8082111562000388576000815560010162000393565b6000620003b8601f8362000454565b7f526f6c65733a206163636f756e7420616c72656164792068617320726f6c6500815260200192915050565b6000620003f360228362000454565b7f526f6c65733a206163636f756e7420697320746865207a65726f206164647265815261737360f01b602082015260400192915050565b602080825281016200043c81620003a9565b92915050565b602080825281016200043c81620003e4565b90815260200190565b61178c806200046d6000396000f3fe608060405234801561001057600080fd5b506004361061012c5760003560e01c806395d89b41116100ad578063aa271e1a11610071578063aa271e1a14610256578063d505accf14610269578063dab400f31461027c578063dd62ed3e14610284578063e879c19f146102975761012c565b806395d89b411461020d578063983b2d56146102155780639865027514610228578063a457c2d714610230578063a9059cbb146102435761012c565b806339509351116100f457806339509351146101ac57806340c10f19146101bf57806342966c68146101d257806370a08231146101e757806379cc6790146101fa5761012c565b806306fdde0314610131578063095ea7b31461014f57806318160ddd1461016f57806323b872dd14610184578063313ce56714610197575b600080fd5b61013961029f565b60405161014691906114c6565b60405180910390f35b61016261015d366004610ffc565b610334565b604051610146919061141b565b610177610352565b6040516101469190611429565b610162610192366004610f13565b610358565b61019f6103ca565b6040516101469190611587565b6101626101ba366004610ffc565b6103d3565b6101626101cd366004610ffc565b610427565b6101e56101e036600461102c565b610463565b005b6101776101f5366004610eb3565b610477565b6101e5610208366004610ffc565b610496565b6101396104a4565b6101e5610223366004610eb3565b610502565b6101e5610532565b61016261023e366004610ffc565b610544565b610162610251366004610ffc565b6105b2565b610162610264366004610eb3565b6105c6565b6101e5610277366004610f60565b6105d8565b61017761075f565b610177610292366004610ed9565b610765565b610177610790565b60018054604080516020601f6002600019610100878916150201909516949094049384018190048102820181019092528281526060939092909183018282801561032a5780601f106102ff5761010080835404028352916020019161032a565b820191906000526020600020905b81548152906001019060200180831161030d57829003601f168201915b5050505050905090565b60006103486103416107b4565b84846107b8565b5060015b92915050565b60065490565b600061036584848461086c565b600019610374856102926107b4565b146103c0576103c0846103856107b4565b6103bb856040518060600160405280602881526020016116fd602891396103ae8a6102926107b4565b919063ffffffff61098216565b6107b8565b5060019392505050565b60035460ff1690565b60006103486103e06107b4565b846103bb85600560006103f16107b4565b6001600160a01b03908116825260208083019390935260409182016000908120918c16815292529020549063ffffffff6109ae16565b60006104346102646107b4565b6104595760405162461bcd60e51b815260040161045090611517565b60405180910390fd5b61034883836109da565b61047461046e6107b4565b82610a9a565b50565b6001600160a01b0381166000908152600460205260409020545b919050565b6104a08282610b70565b5050565b60028054604080516020601f600019610100600187161502019094168590049384018190048102820181019092528281526060939092909183018282801561032a5780601f106102ff5761010080835404028352916020019161032a565b61050d6102646107b4565b6105295760405162461bcd60e51b815260040161045090611517565b61047481610beb565b61054261053d6107b4565b610c33565b565b60006103486105516107b4565b846103bb85604051806060016040528060258152602001611725602591396005600061057b6107b4565b6001600160a01b03908116825260208083019390935260409182016000908120918d1681529252902054919063ffffffff61098216565b60006103486105bf6107b4565b848461086c565b600061034c818363ffffffff610c7b16565b6007546001600160a01b03881660009081526008602090815260408083208054600181019091559051929361065a93909261063f927f6e71edae12b1b97f4d1f60370fef10105fa2faae0126114a169c64845d6126c9928e928e928e9290918e9101611437565b60405160208183030381529060405280519060200120610cc3565b90506000600182868686604051600081526020016040526040516106819493929190611491565b6020604051602081039080840390855afa1580156106a3573d6000803e3d6000fd5b5050506020604051035190506106f0896001600160a01b0316826001600160a01b0316146a5065726d69747461626c6560a81b70496e76616c6964207369676e617475726560781b610ce2565b6107236001600160a01b03821615156a5065726d69747461626c6560a81b6b5a65726f206164647265737360a01b610ce2565b610749864211156a5065726d69747461626c6560a81b66115e1c1a5c995960ca1b610ce2565b6107548989896107b8565b505050505050505050565b60075481565b6001600160a01b03918216600090815260056020908152604080832093909416825291909152205490565b7f6e71edae12b1b97f4d1f60370fef10105fa2faae0126114a169c64845d6126c981565b3390565b6001600160a01b0383166107de5760405162461bcd60e51b815260040161045090611567565b6001600160a01b0382166108045760405162461bcd60e51b8152600401610450906114f7565b6001600160a01b0380841660008181526005602090815260408083209487168084529490915290819020849055517f8c5be1e5ebec7d5bd14f71427d1e84f3dd0314c0f7b2291e5b200ac8c7c3b9259061085f908590611429565b60405180910390a3505050565b6001600160a01b0383166108925760405162461bcd60e51b815260040161045090611557565b6001600160a01b0382166108b85760405162461bcd60e51b8152600401610450906114d7565b6108fb816040518060600160405280602681526020016116b3602691396001600160a01b038616600090815260046020526040902054919063ffffffff61098216565b6001600160a01b038085166000908152600460205260408082209390935590841681522054610930908263ffffffff6109ae16565b6001600160a01b0380841660008181526004602052604090819020939093559151908516907fddf252ad1be2c89b69c2b068fc378daa952ba7f163c4a11628f55a4df523b3ef9061085f908590611429565b600081848411156109a65760405162461bcd60e51b815260040161045091906114c6565b505050900390565b6000828201838110156109d35760405162461bcd60e51b815260040161045090611507565b9392505050565b6001600160a01b038216610a005760405162461bcd60e51b815260040161045090611577565b600654610a13908263ffffffff6109ae16565b6006556001600160a01b038216600090815260046020526040902054610a3f908263ffffffff6109ae16565b6001600160a01b0383166000818152600460205260408082209390935591519091907fddf252ad1be2c89b69c2b068fc378daa952ba7f163c4a11628f55a4df523b3ef90610a8e908590611429565b60405180910390a35050565b6001600160a01b038216610ac05760405162461bcd60e51b815260040161045090611547565b610b0381604051806060016040528060228152602001611691602291396001600160a01b038516600090815260046020526040902054919063ffffffff61098216565b6001600160a01b038316600090815260046020526040902055600654610b2f908263ffffffff610d3c16565b6006556040516000906001600160a01b038416907fddf252ad1be2c89b69c2b068fc378daa952ba7f163c4a11628f55a4df523b3ef90610a8e908590611429565b610b7a8282610a9a565b6104a082610b866107b4565b6103bb846040518060600160405280602481526020016116d9602491396001600160a01b038816600090815260056020526040812090610bc46107b4565b6001600160a01b03168152602081019190915260400160002054919063ffffffff61098216565b610bfc60008263ffffffff610d7e16565b6040516001600160a01b038216907f6ae172837ea30b801fbfcdd4108aa1d5bf8ff775444fd70256b44e6bf3dfc3f690600090a250565b610c4460008263ffffffff610dca16565b6040516001600160a01b038216907fe94479a9f7e1952cc78f2d6baab678adc1b772d936c6583def489e524cb6669290600090a250565b60006001600160a01b038216610ca35760405162461bcd60e51b815260040161045090611537565b506001600160a01b03166000908152602091909152604090205460ff1690565b60405161190160f01b8152600281019290925260228201526042902090565b82610d3757610cf082610e12565b6101d160f51b610cff83610e12565b604051602001610d11939291906113ea565b60408051601f198184030181529082905262461bcd60e51b8252610450916004016114c6565b505050565b60006109d383836040518060400160405280601e81526020017f536166654d6174683a207375627472616374696f6e206f766572666c6f770000815250610982565b610d888282610c7b565b15610da55760405162461bcd60e51b8152600401610450906114e7565b6001600160a01b0316600090815260209190915260409020805460ff19166001179055565b610dd48282610c7b565b610df05760405162461bcd60e51b815260040161045090611527565b6001600160a01b0316600090815260209190915260409020805460ff19169055565b60608082604051602001610e2691906113d5565b60408051601f19818403018152919052905060205b8015610e7b57815160001990910190829082908110610e5657fe5b01602001516001600160f81b03191615610e765760010181529050610491565b610e3b565b505060408051600081526020810190915292915050565b803561034c8161160e565b803561034c81611622565b803561034c8161162b565b600060208284031215610ec557600080fd5b6000610ed18484610e92565b949350505050565b60008060408385031215610eec57600080fd5b6000610ef88585610e92565b9250506020610f0985828601610e92565b9150509250929050565b600080600060608486031215610f2857600080fd5b6000610f348686610e92565b9350506020610f4586828701610e92565b9250506040610f5686828701610e9d565b9150509250925092565b600080600080600080600060e0888a031215610f7b57600080fd5b6000610f878a8a610e92565b9750506020610f988a828b01610e92565b9650506040610fa98a828b01610e9d565b9550506060610fba8a828b01610e9d565b9450506080610fcb8a828b01610ea8565b93505060a0610fdc8a828b01610e9d565b92505060c0610fed8a828b01610e9d565b91505092959891949750929550565b6000806040838503121561100f57600080fd5b600061101b8585610e92565b9250506020610f0985828601610e9d565b60006020828403121561103e57600080fd5b6000610ed18484610e9d565b611053816115a2565b82525050565b611053816115ad565b61105361106e826115b2565b6115bf565b611053816115bf565b61105361106e826115bf565b600061109382611595565b61109d8185610491565b93506110ad8185602086016115d4565b9290920192915050565b60006110c282611595565b6110cc8185611599565b93506110dc8185602086016115d4565b6110e581611604565b9093019392505050565b60006110fc602383611599565b7f45524332303a207472616e7366657220746f20746865207a65726f206164647281526265737360e81b602082015260400192915050565b6000611141601f83611599565b7f526f6c65733a206163636f756e7420616c72656164792068617320726f6c6500815260200192915050565b600061117a602283611599565b7f45524332303a20617070726f766520746f20746865207a65726f206164647265815261737360f01b602082015260400192915050565b60006111be601b83611599565b7f536166654d6174683a206164646974696f6e206f766572666c6f770000000000815260200192915050565b60006111f7603083611599565b7f4d696e746572526f6c653a2063616c6c657220646f6573206e6f74206861766581526f20746865204d696e74657220726f6c6560801b602082015260400192915050565b6000611249602183611599565b7f526f6c65733a206163636f756e7420646f6573206e6f74206861766520726f6c8152606560f81b602082015260400192915050565b600061128c602283611599565b7f526f6c65733a206163636f756e7420697320746865207a65726f206164647265815261737360f01b602082015260400192915050565b60006112d0602183611599565b7f45524332303a206275726e2066726f6d20746865207a65726f206164647265738152607360f81b602082015260400192915050565b6000611313602583611599565b7f45524332303a207472616e736665722066726f6d20746865207a65726f206164815264647265737360d81b602082015260400192915050565b600061135a602483611599565b7f45524332303a20617070726f76652066726f6d20746865207a65726f206164648152637265737360e01b602082015260400192915050565b60006113a0601f83611599565b7f45524332303a206d696e7420746f20746865207a65726f206164647265737300815260200192915050565b611053816115ce565b60006113e1828461107c565b50602001919050565b60006113f68286611088565b91506114028285611062565b6002820191506114128284611088565b95945050505050565b6020810161034c8284611059565b6020810161034c8284611073565b60c081016114458289611073565b611452602083018861104a565b61145f604083018761104a565b61146c6060830186611073565b6114796080830185611073565b61148660a0830184611073565b979650505050505050565b6080810161149f8287611073565b6114ac60208301866113cc565b6114b96040830185611073565b6114126060830184611073565b602080825281016109d381846110b7565b6020808252810161034c816110ef565b6020808252810161034c81611134565b6020808252810161034c8161116d565b6020808252810161034c816111b1565b6020808252810161034c816111ea565b6020808252810161034c8161123c565b6020808252810161034c8161127f565b6020808252810161034c816112c3565b6020808252810161034c81611306565b6020808252810161034c8161134d565b6020808252810161034c81611393565b6020810161034c82846113cc565b5190565b90815260200190565b600061034c826115c2565b151590565b6001600160f01b03191690565b90565b6001600160a01b031690565b60ff1690565b60005b838110156115ef5781810151838201526020016115d7565b838111156115fe576000848401525b50505050565b601f01601f191690565b611617816115a2565b811461047457600080fd5b611617816115bf565b611617816115ce565b602a90565b8351602094850120835193850193909320604080517f8b73c3c69bb8fe3d512ecc4cf759cc79239f7b179b0ffacaa9a75d522b39400f815295860194909452928401929092526060830152608082015260a090209056fe45524332303a206275726e20616d6f756e7420657863656564732062616c616e636545524332303a207472616e7366657220616d6f756e7420657863656564732062616c616e636545524332303a206275726e20616d6f756e74206578636565647320616c6c6f77616e636545746869633a207472616e7366657220616d6f756e74206578636565647320616c6c6f77616e636545524332303a2064656372656173656420616c6c6f77616e63652062656c6f77207a65726fa365627a7a72315820942211f028568291e67a5cda9d87f19b9dffdf91f3a5f72969294736db56c8846c6578706572696d656e74616cf564736f6c63430005110040",
  "source": "/*\n    Copyright 2021 Ethic Money Devs <devs@ethic.money> and Copyright 2020 Empty Set Squad <emptysetsquad@protonmail.com>\n\n    Licensed under the Apache License, Version 2.0 (the \"License\");\n    you may not use this file except in compliance with the License.\n    You may obtain a copy of the License at\n\n    http://www.apache.org/licenses/LICENSE-2.0\n\n    Unless required by applicable law or agreed to in writing, software\n    distributed under the License is distributed on an \"AS IS\" BASIS,\n    WITHOUT WARRANTIES OR CONDITIONS OF ANY KIND, either express or implied.\n    See the License for the specific language governing permissions and\n    limitations under the License.\n*/\n\npragma solidity ^0.5.17;\npragma experimental ABIEncoderV2;\n\nimport \"../dao/Govern.sol\";\nimport \"./MockUpgradeable.sol\";\nimport \"./MockComptroller.sol\";\n\ncontract MockGovern is Govern, MockComptroller {\n    uint256 internal _epochTime;\n\n    constructor() MockComptroller(address(0)) public { }\n\n    function initialize() public {\n        revert(\"Should not call\");\n    }\n\n    function upgradeToE(address newImplementation) external {\n        super.upgradeTo(newImplementation);\n    }\n\n    function setEpochTime(uint256 epochTime) external {\n        _epochTime = epochTime;\n    }\n\n    function epochTime() public view returns (uint256) {\n        return _epochTime;\n    }\n}\n",
  "sourcePath": "/home/ville/projects/ethic/protocol/contracts/mock/MockGovern.sol",
  "compiler": {
    "name": "solc",
    "version": "0.5.17+commit.d19bba13.Emscripten.clang"
  },
  "schemaVersion": "3.3.2",
  "updatedAt": "2021-02-04T10:39:17.425Z",
  "devdoc": {
    "methods": {}
  },
  "userdoc": {
    "methods": {
      "balanceOfStaged(address)": {
        "notice": "Account"
      },
      "createCandidateE(address,uint256)": {
        "notice": "Governance"
      },
      "epoch()": {
        "notice": "Epoch"
      },
      "ethic()": {
        "notice": "Global"
      },
      "incrementBalanceOfE(address,uint256)": {
        "notice": "Account"
      },
      "incrementTotalBondedE(uint256)": {
        "notice": "Global"
      },
      "name()": {
        "notice": "ERC20 Interface"
      },
      "recordedVote(address,address)": {
        "notice": "Governance"
      },
      "setBlockTimestamp(uint256)": {
        "notice": "Mock"
      },
      "setEpochParamsE(uint256,uint256)": {
        "notice": "Epoch"
      },
      "transfer(address,uint256)": {
        "notice": "ERC20 Interface"
      }
    }
  }
}