{
  "contractName": "MockOracle",
  "abi": [
    {
      "inputs": [
        {
          "internalType": "address",
          "name": "pair",
          "type": "address"
        },
        {
          "internalType": "address",
          "name": "ethic",
          "type": "address"
        },
        {
          "internalType": "address",
          "name": "dai",
          "type": "address"
        }
      ],
      "payable": false,
      "stateMutability": "nonpayable",
      "type": "constructor"
    },
    {
      "constant": true,
      "inputs": [],
      "name": "pair",
      "outputs": [
        {
          "internalType": "address",
          "name": "",
          "type": "address"
        }
      ],
      "payable": false,
      "stateMutability": "view",
      "type": "function"
    },
    {
      "constant": false,
      "inputs": [],
      "name": "setup",
      "outputs": [],
      "payable": false,
      "stateMutability": "nonpayable",
      "type": "function"
    },
    {
      "constant": false,
      "inputs": [],
      "name": "capture",
      "outputs": [
        {
          "components": [
            {
              "internalType": "uint256",
              "name": "value",
              "type": "uint256"
            }
          ],
          "internalType": "struct Decimal.D256",
          "name": "",
          "type": "tuple"
        },
        {
          "internalType": "bool",
          "name": "",
          "type": "bool"
        }
      ],
      "payable": false,
      "stateMutability": "nonpayable",
      "type": "function"
    },
    {
      "constant": true,
      "inputs": [],
      "name": "latestPrice",
      "outputs": [
        {
          "components": [
            {
              "internalType": "uint256",
              "name": "value",
              "type": "uint256"
            }
          ],
          "internalType": "struct Decimal.D256",
          "name": "",
          "type": "tuple"
        }
      ],
      "payable": false,
      "stateMutability": "view",
      "type": "function"
    },
    {
      "constant": true,
      "inputs": [],
      "name": "latestValid",
      "outputs": [
        {
          "internalType": "bool",
          "name": "",
          "type": "bool"
        }
      ],
      "payable": false,
      "stateMutability": "view",
      "type": "function"
    },
    {
      "constant": true,
      "inputs": [],
      "name": "isInitialized",
      "outputs": [
        {
          "internalType": "bool",
          "name": "",
          "type": "bool"
        }
      ],
      "payable": false,
      "stateMutability": "view",
      "type": "function"
    },
    {
      "constant": true,
      "inputs": [],
      "name": "cumulative",
      "outputs": [
        {
          "internalType": "uint256",
          "name": "",
          "type": "uint256"
        }
      ],
      "payable": false,
      "stateMutability": "view",
      "type": "function"
    },
    {
      "constant": true,
      "inputs": [],
      "name": "timestamp",
      "outputs": [
        {
          "internalType": "uint256",
          "name": "",
          "type": "uint256"
        }
      ],
      "payable": false,
      "stateMutability": "view",
      "type": "function"
    },
    {
      "constant": true,
      "inputs": [],
      "name": "reserve",
      "outputs": [
        {
          "internalType": "uint256",
          "name": "",
          "type": "uint256"
        }
      ],
      "payable": false,
      "stateMutability": "view",
      "type": "function"
    }
  ],
  "bytecode": "0x60806040523480156200001157600080fd5b506040516200124e3803806200124e8339810160408190526200003491620000a9565b60008054336001600160a01b03199182161782556001805482166001600160a01b03958616179055600280549091169484169490941790935560039290925560088054610100600160a81b031916610100939092169290920217905562000129565b8051620000a3816200010f565b92915050565b600080600060608486031215620000bf57600080fd5b6000620000cd868662000096565b9350506020620000e08682870162000096565b9250506040620000f38682870162000096565b9150509250925092565b60006001600160a01b038216620000a3565b6200011a81620000fd565b81146200012657600080fd5b50565b61111580620001396000396000f3fe608060405234801561001057600080fd5b50600436106100935760003560e01c8063b80777ea11610066578063b80777ea146100f5578063ba0bba40146100fd578063cd3293de14610107578063d4a3e9d71461010f578063f8cd50a21461012557610093565b8063392e53cd146100985780637ae176ff146100b6578063a3e6ba94146100cb578063a8aa1b31146100e0575b600080fd5b6100a061012d565b6040516100ad9190610fa6565b60405180910390f35b6100be61013d565b6040516100ad919061100e565b6100d3610143565b6040516100ad9190610fe5565b6100e861015f565b6040516100ad9190610f7d565b6100be61016e565b61010561017a565b005b6100be6103ce565b6101176103d4565b6040516100ad929190610ff3565b6100a061041a565b600154600160a01b900460ff1690565b60045490565b61014b610d1d565b506040805160208101909152600754815290565b6002546001600160a01b031690565b60055463ffffffff1690565b6000546101a6906001600160a01b03163314654f7261636c6560d01b664e6f742064616f60c81b610423565b600154735c69bee701ef814a2b6a3edd4b1652cb9cc5aa6f9063c9c65396906001600160a01b03166101d6610486565b6040518363ffffffff1660e01b81526004016101f3929190610f8b565b602060405180830381600087803b15801561020d57600080fd5b505af1158015610221573d6000803e3d6000fd5b505050506040513d601f19601f820116820180604052506102459190810190610d6e565b600280546001600160a01b0319166001600160a01b03928316179081905560408051630dfe168160e01b8152905160009384931691630dfe1681916004808301926020929190829003018186803b15801561029f57600080fd5b505afa1580156102b3573d6000803e3d6000fd5b505050506040513d601f19601f820116820180604052506102d79190810190610d6e565b600260009054906101000a90046001600160a01b03166001600160a01b031663d21220a76040518163ffffffff1660e01b815260040160206040518083038186803b15801561032557600080fd5b505afa158015610339573d6000803e3d6000fd5b505050506040513d601f19601f8201168201806040525061035d9190810190610d6e565b60015491935091506001600160a01b0380841691161461037e576001610381565b60005b60ff1660038190556103ca9015806103a657506001546001600160a01b038381169116145b654f7261636c6560d01b7038a2225d1a1a58c81b9bdd08199bdd5b99607a1b610423565b5050565b60065490565b6103dc610d1d565b60006103e661048b565b6008805460ff19169115159190911790819055905160078190556040805160208101909152908152925060ff1690505b9091565b60085460ff1690565b8261048157610431826104fe565b6101d160f51b610440836104fe565b60405160200161045293929190610f4c565b60408051601f198184030181529082905262461bcd60e51b825261047891600401610fb4565b60405180910390fd5b505050565b600090565b610493610d1d565b600080546104c0906001600160a01b03163314654f7261636c6560d01b664e6f742064616f60c81b610423565b600154600160a01b900460ff16156104e3576104da610580565b91509150610416565b6104eb6105ea565b6104f36107f4565b600091509150610416565b606080826040516020016105129190610f37565b60408051601f19818403018152919052905060205b80156105675781516000199091019082908290811061054257fe5b01602001516001600160f81b03191615610562576001018152905061057b565b610527565b505060408051600081526020810190915290505b919050565b610588610d1d565b6000610592610d1d565b61059a610816565b905060006105a66108cc565b9050600060016105b4610988565b8310156105bf575060005b6105c7610988565b60065410156105d4575060005b81156105de575060005b92945091925050509091565b6002546003546001600160a01b03909116906000901561067a57816001600160a01b0316635a3d54936040518163ffffffff1660e01b815260040160206040518083038186803b15801561063d57600080fd5b505afa158015610651573d6000803e3d6000fd5b505050506040513d601f19601f820116820180604052506106759190810190610de1565b6106eb565b816001600160a01b0316635909c0d56040518163ffffffff1660e01b815260040160206040518083038186803b1580156106b357600080fd5b505afa1580156106c7573d6000803e3d6000fd5b505050506040513d601f19601f820116820180604052506106eb9190810190610de1565b90506000806000846001600160a01b0316630902f1ac6040518163ffffffff1660e01b815260040160606040518083038186803b15801561072b57600080fd5b505afa15801561073f573d6000803e3d6000fd5b505050506040513d601f19601f820116820180604052506107639190810190610d94565b925092509250826001600160701b031660001415801561078b57506001600160701b03821615155b801561079c575063ffffffff811615155b156107ed5760048490556005805463ffffffff831663ffffffff199091161790556001805460ff60a01b1916600160a01b179055600354156107de57826107e0565b815b6001600160701b03166006555b5050505050565b6107fc610d1d565b506040805160208101909152670de0b6b3a7640000815290565b61081e610d1d565b6002546000908190819061083a906001600160a01b0316610991565b600554600354939650919450925063ffffffff168203906000901561085f5783610861565b845b905061086b610d1d565b61088c8363ffffffff1660045484038161088157fe5b04600160701b610b66565b6005805463ffffffff191663ffffffff8781169190911790915560048490559091506108c190829064e8d4a5100090610b9716565b965050505050505090565b6000806006549050600080600260009054906101000a90046001600160a01b03166001600160a01b0316630902f1ac6040518163ffffffff1660e01b815260040160606040518083038186803b15801561092557600080fd5b505afa158015610939573d6000803e3d6000fd5b505050506040513d601f19601f8201168201806040525061095d9190810190610d94565b50915091506003546000146109725781610974565b805b6001600160701b0316600655509091505090565b6402540be40090565b600080600061099e610bbe565b9050836001600160a01b0316635909c0d56040518163ffffffff1660e01b815260040160206040518083038186803b1580156109d957600080fd5b505afa1580156109ed573d6000803e3d6000fd5b505050506040513d601f19601f82011682018060405250610a119190810190610de1565b9250836001600160a01b0316635a3d54936040518163ffffffff1660e01b815260040160206040518083038186803b158015610a4c57600080fd5b505afa158015610a60573d6000803e3d6000fd5b505050506040513d601f19601f82011682018060405250610a849190810190610de1565b91506000806000866001600160a01b0316630902f1ac6040518163ffffffff1660e01b815260040160606040518083038186803b158015610ac457600080fd5b505afa158015610ad8573d6000803e3d6000fd5b505050506040513d601f19601f82011682018060405250610afc9190810190610d94565b9250925092508363ffffffff168163ffffffff1614610b5c5780840363ffffffff8116610b298486610bc8565b516001600160e01b031602969096019563ffffffff8116610b4a8585610bc8565b516001600160e01b0316029590950194505b5050509193909250565b610b6e610d1d565b6040518060200160405280610b8c85670de0b6b3a764000086610c43565b905290505b92915050565b610b9f610d1d565b604080516020810190915283518190610b8c908563ffffffff610c6f16565b63ffffffff421690565b610bd0610d30565b6000826001600160701b031611610bf95760405162461bcd60e51b815260040161047890610fd5565b6040805160208101909152806001600160701b0384166dffffffffffffffffffffffffffff60701b607087901b1681610c2e57fe5b046001600160e01b0316815250905092915050565b6000610c6582610c59868663ffffffff610c6f16565b9063ffffffff610ca916565b90505b9392505050565b600082610c7e57506000610b91565b82820282848281610c8b57fe5b0414610c685760405162461bcd60e51b815260040161047890610fc5565b6000610c6883836040518060400160405280601a81526020017f536166654d6174683a206469766973696f6e206279207a65726f00000000000081525060008183610d075760405162461bcd60e51b81526004016104789190610fb4565b506000838581610d1357fe5b0495945050505050565b6040518060200160405280600081525090565b60408051602081019091526000815290565b8051610b91816110a0565b8051610b91816110b7565b8051610b91816110c0565b8051610b91816110c9565b600060208284031215610d8057600080fd5b6000610d8c8484610d42565b949350505050565b600080600060608486031215610da957600080fd5b6000610db58686610d4d565b9350506020610dc686828701610d4d565b9250506040610dd786828701610d63565b9150509250925092565b600060208284031215610df357600080fd5b6000610d8c8484610d58565b610e0881611029565b82525050565b610e0881611034565b610e08610e2382611039565b611046565b610e08610e2382611046565b6000610e3f8261101c565b610e49818561057b565b9350610e5981856020860161106a565b9290920192915050565b6000610e6e8261101c565b610e788185611020565b9350610e8881856020860161106a565b610e9181611096565b9093019392505050565b6000610ea8602183611020565b7f536166654d6174683a206d756c7469706c69636174696f6e206f766572666c6f8152607760f81b602082015260400192915050565b6000610eeb601783611020565b7f4669786564506f696e743a204449565f42595f5a45524f000000000000000000815260200192915050565b80516020830190610f288482610f2e565b50505050565b610e0881611046565b6000610f438284610e28565b50602001919050565b6000610f588286610e34565b9150610f648285610e17565b600282019150610f748284610e34565b95945050505050565b60208101610b918284610dff565b60408101610f998285610dff565b610c686020830184610dff565b60208101610b918284610e0e565b60208082528101610c688184610e63565b60208082528101610b9181610e9b565b60208082528101610b9181610ede565b60208101610b918284610f17565b604081016110018285610f17565b610c686020830184610e0e565b60208101610b918284610f2e565b5190565b90815260200190565b6000610b9182611055565b151590565b6001600160f01b03191690565b90565b6001600160701b031690565b6001600160a01b031690565b63ffffffff1690565b60005b8381101561108557818101518382015260200161106d565b83811115610f285750506000910152565b601f01601f191690565b6110a981611029565b81146110b457600080fd5b50565b6110a981611049565b6110a981611046565b6110a98161106156fea365627a7a72315820361d48f8a4deb845b3283745b7825aff7c6ee517c3ab2e05bb1f8267ac8569c06c6578706572696d656e74616cf564736f6c63430005110040",
  "source": "/*\n    Copyright 2021 Ethic Money Devs <devs@ethic.money> and Copyright 2020 Empty Set Squad <emptysetsquad@protonmail.com>\n\n    Licensed under the Apache License, Version 2.0 (the \"License\");\n    you may not use this file except in compliance with the License.\n    You may obtain a copy of the License at\n\n    http://www.apache.org/licenses/LICENSE-2.0\n\n    Unless required by applicable law or agreed to in writing, software\n    distributed under the License is distributed on an \"AS IS\" BASIS,\n    WITHOUT WARRANTIES OR CONDITIONS OF ANY KIND, either express or implied.\n    See the License for the specific language governing permissions and\n    limitations under the License.\n*/\n\npragma solidity ^0.5.17;\npragma experimental ABIEncoderV2;\n\nimport '@uniswap/v2-core/contracts/interfaces/IUniswapV2Pair.sol';\nimport \"../oracle/Oracle.sol\";\nimport \"../external/Decimal.sol\";\n\ncontract MockOracle is Oracle {\n    Decimal.D256 private _latestPrice;\n    bool private _latestValid;\n    address private _dai;\n\n    constructor (address pair, address ethic, address dai) Oracle(ethic) public {\n        _pair = IUniswapV2Pair(pair);\n        _index = 0;\n        _dai = dai ;\n    }\n\n    function dai() internal view returns (address) {    }\n\n    function capture() public returns (Decimal.D256 memory, bool) {\n        (_latestPrice, _latestValid) = super.capture();\n        return (_latestPrice, _latestValid);\n    }\n\n    function latestPrice() external view returns (Decimal.D256 memory) {\n        return _latestPrice;\n    }\n\n    function latestValid() external view returns (bool) {\n        return _latestValid;\n    }\n\n    function isInitialized() external view returns (bool) {\n        return _initialized;\n    }\n\n    function cumulative() external view returns (uint256) {\n        return _cumulative;\n    }\n\n    function timestamp() external view returns (uint256) {\n        return _timestamp;\n    }\n\n    function reserve() external view returns (uint256) {\n        return _reserve;\n    }\n}\n",
  "sourcePath": "/home/ville/projects/ethic/protocol/contracts/mock/MockOracle.sol",
  "compiler": {
    "name": "solc",
    "version": "0.5.17+commit.d19bba13.Emscripten.clang"
  },
  "schemaVersion": "3.3.2",
  "updatedAt": "2021-02-04T10:39:17.433Z",
  "devdoc": {
    "methods": {}
  },
  "userdoc": {
    "methods": {}
  }
}