{
  "contractName": "MockPoolState",
  "abi": [
    {
      "constant": true,
      "inputs": [
        {
          "internalType": "address",
          "name": "account",
          "type": "address"
        }
      ],
      "name": "balanceOfBonded",
      "outputs": [
        {
          "internalType": "uint256",
          "name": "",
          "type": "uint256"
        }
      ],
      "payable": false,
      "stateMutability": "view",
      "type": "function"
    },
    {
      "constant": true,
      "inputs": [
        {
          "internalType": "address",
          "name": "account",
          "type": "address"
        }
      ],
      "name": "balanceOfClaimable",
      "outputs": [
        {
          "internalType": "uint256",
          "name": "",
          "type": "uint256"
        }
      ],
      "payable": false,
      "stateMutability": "view",
      "type": "function"
    },
    {
      "constant": true,
      "inputs": [
        {
          "internalType": "address",
          "name": "account",
          "type": "address"
        }
      ],
      "name": "balanceOfPhantom",
      "outputs": [
        {
          "internalType": "uint256",
          "name": "",
          "type": "uint256"
        }
      ],
      "payable": false,
      "stateMutability": "view",
      "type": "function"
    },
    {
      "constant": true,
      "inputs": [
        {
          "internalType": "address",
          "name": "account",
          "type": "address"
        }
      ],
      "name": "balanceOfRewarded",
      "outputs": [
        {
          "internalType": "uint256",
          "name": "",
          "type": "uint256"
        }
      ],
      "payable": false,
      "stateMutability": "view",
      "type": "function"
    },
    {
      "constant": true,
      "inputs": [
        {
          "internalType": "address",
          "name": "account",
          "type": "address"
        }
      ],
      "name": "balanceOfStaged",
      "outputs": [
        {
          "internalType": "uint256",
          "name": "",
          "type": "uint256"
        }
      ],
      "payable": false,
      "stateMutability": "view",
      "type": "function"
    },
    {
      "constant": true,
      "inputs": [],
      "name": "dai",
      "outputs": [
        {
          "internalType": "address",
          "name": "",
          "type": "address"
        }
      ],
      "payable": false,
      "stateMutability": "view",
      "type": "function"
    },
    {
      "constant": true,
      "inputs": [],
      "name": "paused",
      "outputs": [
        {
          "internalType": "bool",
          "name": "",
          "type": "bool"
        }
      ],
      "payable": false,
      "stateMutability": "view",
      "type": "function"
    },
    {
      "constant": true,
      "inputs": [
        {
          "internalType": "address",
          "name": "account",
          "type": "address"
        }
      ],
      "name": "statusOf",
      "outputs": [
        {
          "internalType": "enum PoolAccount.Status",
          "name": "",
          "type": "uint8"
        }
      ],
      "payable": false,
      "stateMutability": "view",
      "type": "function"
    },
    {
      "constant": true,
      "inputs": [],
      "name": "totalBonded",
      "outputs": [
        {
          "internalType": "uint256",
          "name": "",
          "type": "uint256"
        }
      ],
      "payable": false,
      "stateMutability": "view",
      "type": "function"
    },
    {
      "constant": true,
      "inputs": [],
      "name": "totalClaimable",
      "outputs": [
        {
          "internalType": "uint256",
          "name": "",
          "type": "uint256"
        }
      ],
      "payable": false,
      "stateMutability": "view",
      "type": "function"
    },
    {
      "constant": true,
      "inputs": [],
      "name": "totalPhantom",
      "outputs": [
        {
          "internalType": "uint256",
          "name": "",
          "type": "uint256"
        }
      ],
      "payable": false,
      "stateMutability": "view",
      "type": "function"
    },
    {
      "constant": true,
      "inputs": [],
      "name": "totalRewarded",
      "outputs": [
        {
          "internalType": "uint256",
          "name": "",
          "type": "uint256"
        }
      ],
      "payable": false,
      "stateMutability": "view",
      "type": "function"
    },
    {
      "constant": true,
      "inputs": [],
      "name": "totalStaged",
      "outputs": [
        {
          "internalType": "uint256",
          "name": "",
          "type": "uint256"
        }
      ],
      "payable": false,
      "stateMutability": "view",
      "type": "function"
    },
    {
      "constant": true,
      "inputs": [],
      "name": "univ2",
      "outputs": [
        {
          "internalType": "contract IERC20",
          "name": "",
          "type": "address"
        }
      ],
      "payable": false,
      "stateMutability": "view",
      "type": "function"
    },
    {
      "constant": false,
      "inputs": [
        {
          "internalType": "address",
          "name": "dao",
          "type": "address"
        },
        {
          "internalType": "address",
          "name": "ethic",
          "type": "address"
        }
      ],
      "name": "set",
      "outputs": [],
      "payable": false,
      "stateMutability": "nonpayable",
      "type": "function"
    },
    {
      "constant": true,
      "inputs": [],
      "name": "dao",
      "outputs": [
        {
          "internalType": "contract IDAO",
          "name": "",
          "type": "address"
        }
      ],
      "payable": false,
      "stateMutability": "view",
      "type": "function"
    },
    {
      "constant": true,
      "inputs": [],
      "name": "ethic",
      "outputs": [
        {
          "internalType": "contract IEthic",
          "name": "",
          "type": "address"
        }
      ],
      "payable": false,
      "stateMutability": "view",
      "type": "function"
    },
    {
      "constant": false,
      "inputs": [
        {
          "internalType": "address",
          "name": "account",
          "type": "address"
        },
        {
          "internalType": "uint256",
          "name": "amount",
          "type": "uint256"
        }
      ],
      "name": "incrementBalanceOfBondedE",
      "outputs": [],
      "payable": false,
      "stateMutability": "nonpayable",
      "type": "function"
    },
    {
      "constant": false,
      "inputs": [
        {
          "internalType": "address",
          "name": "account",
          "type": "address"
        },
        {
          "internalType": "uint256",
          "name": "amount",
          "type": "uint256"
        },
        {
          "internalType": "string",
          "name": "reason",
          "type": "string"
        }
      ],
      "name": "decrementBalanceOfBondedE",
      "outputs": [],
      "payable": false,
      "stateMutability": "nonpayable",
      "type": "function"
    },
    {
      "constant": false,
      "inputs": [
        {
          "internalType": "address",
          "name": "account",
          "type": "address"
        },
        {
          "internalType": "uint256",
          "name": "amount",
          "type": "uint256"
        }
      ],
      "name": "incrementBalanceOfStagedE",
      "outputs": [],
      "payable": false,
      "stateMutability": "nonpayable",
      "type": "function"
    },
    {
      "constant": false,
      "inputs": [
        {
          "internalType": "address",
          "name": "account",
          "type": "address"
        },
        {
          "internalType": "uint256",
          "name": "amount",
          "type": "uint256"
        },
        {
          "internalType": "string",
          "name": "reason",
          "type": "string"
        }
      ],
      "name": "decrementBalanceOfStagedE",
      "outputs": [],
      "payable": false,
      "stateMutability": "nonpayable",
      "type": "function"
    },
    {
      "constant": false,
      "inputs": [
        {
          "internalType": "address",
          "name": "account",
          "type": "address"
        },
        {
          "internalType": "uint256",
          "name": "amount",
          "type": "uint256"
        }
      ],
      "name": "incrementBalanceOfClaimableE",
      "outputs": [],
      "payable": false,
      "stateMutability": "nonpayable",
      "type": "function"
    },
    {
      "constant": false,
      "inputs": [
        {
          "internalType": "address",
          "name": "account",
          "type": "address"
        },
        {
          "internalType": "uint256",
          "name": "amount",
          "type": "uint256"
        },
        {
          "internalType": "string",
          "name": "reason",
          "type": "string"
        }
      ],
      "name": "decrementBalanceOfClaimableE",
      "outputs": [],
      "payable": false,
      "stateMutability": "nonpayable",
      "type": "function"
    },
    {
      "constant": false,
      "inputs": [
        {
          "internalType": "address",
          "name": "account",
          "type": "address"
        },
        {
          "internalType": "uint256",
          "name": "amount",
          "type": "uint256"
        }
      ],
      "name": "incrementBalanceOfPhantomE",
      "outputs": [],
      "payable": false,
      "stateMutability": "nonpayable",
      "type": "function"
    },
    {
      "constant": false,
      "inputs": [
        {
          "internalType": "address",
          "name": "account",
          "type": "address"
        },
        {
          "internalType": "uint256",
          "name": "amount",
          "type": "uint256"
        },
        {
          "internalType": "string",
          "name": "reason",
          "type": "string"
        }
      ],
      "name": "decrementBalanceOfPhantomE",
      "outputs": [],
      "payable": false,
      "stateMutability": "nonpayable",
      "type": "function"
    },
    {
      "constant": false,
      "inputs": [
        {
          "internalType": "address",
          "name": "account",
          "type": "address"
        }
      ],
      "name": "unfreezeE",
      "outputs": [],
      "payable": false,
      "stateMutability": "nonpayable",
      "type": "function"
    }
  ],
  "bytecode": "0x608060405234801561001057600080fd5b50611030806100206000396000f3fe608060405234801561001057600080fd5b506004361061018e5760003560e01c8063825ad607116100de578063b11ee0e311610097578063c0ec4ac511610071578063c0ec4ac514610332578063cf0237791461033a578063e0cf728514610342578063f4b9fa751461034a5761018e565b8063b11ee0e3146102f9578063b32a2f901461030c578063c0d7a94f1461031f5761018e565b8063825ad6071461028557806386cf9f141461029857806389675cac146102ab57806397a5d5b5146102be5780639be46493146102de578063aed29d07146102f15761018e565b80634162169f1161014b5780634838ed19116101255780634838ed191461024d57806356a7d6ce146102555780635c975abb146102685780637298d36e1461027d5761018e565b80634162169f1461021d578063447ca8b41461023257806344d96e95146102455761018e565b80631667eb171461019357806326ff681a146101bc57806329f32ed4146101d15780633cdb7767146101e45780633d2286d3146101f7578063400d56ac1461020a575b600080fd5b6101a66101a1366004610cd0565b61035f565b6040516101b39190610f36565b60405180910390f35b6101cf6101ca366004610d30565b610381565b005b6101a66101df366004610cd0565b61038f565b6101cf6101f2366004610d30565b6103ad565b6101cf610205366004610d60565b6103b7565b6101cf610218366004610d60565b6103fe565b61022561043f565b6040516101b39190610ee9565b6101cf610240366004610d60565b61044e565b6101a661048f565b6101a6610495565b6101cf610263366004610d30565b61049b565b6102706104a5565b6040516101b39190610edb565b6102256104ae565b6101a6610293366004610cd0565b6104bd565b6101a66102a6366004610cd0565b6104db565b6101cf6102b9366004610cf6565b6104f6565b6102d16102cc366004610cd0565b610524565b6040516101b39190610ef7565b6101cf6102ec366004610cd0565b61055e565b6101a661056a565b6101cf610307366004610d30565b61060b565b6101cf61031a366004610d60565b610615565b6101a661032d366004610cd0565b610656565b6102256106fe565b6101a661070d565b6101a6610713565b610352610719565b6040516101b39190610ecd565b6001600160a01b0381166000908152600860205260409020600101545b919050565b61038b8282610723565b5050565b6001600160a01b031660009081526008602052604090206003015490565b61038b8282610788565b6103f8848484848080601f0160208091040260200160405190810160405280939291908181526020018383808284376000920191909152506107ed92505050565b50505050565b6103f8848484848080601f01602080910402602001604051908101604052809392919081815260200183838082843760009201919091525061085592505050565b6009546001600160a01b031690565b6103f8848484848080601f0160208091040260200160405190810160405280939291908181526020018383808284376000920191909152506108bd92505050565b60025490565b60015490565b61038b8282610925565b60075460ff1690565b6006546001600160a01b031690565b6001600160a01b031660009081526008602052604090206002015490565b6001600160a01b031660009081526008602052604090205490565b600980546001600160a01b039384166001600160a01b031991821617909155600a8054929093169116179055565b6001600160a01b03811660009081526008602052604081206004015461054861098a565b1015610555576001610558565b60005b92915050565b61056781610a04565b50565b6000610606610577610495565b61057f6106fe565b6001600160a01b03166370a08231306040518263ffffffff1660e01b81526004016105aa9190610ecd565b60206040518083038186803b1580156105c257600080fd5b505afa1580156105d6573d6000803e3d6000fd5b505050506040513d601f19601f820116820180604052506105fa9190810190610dc8565b9063ffffffff610a3616565b905090565b61038b8282610a7f565b6103f8848484848080601f016020809104026020016040519081016040528093929190818152602001838380828437600092019190915250610adc92505050565b60008061066161048f565b90508061067257600091505061037c565b600061069361067f610713565b61068761056a565b9063ffffffff610b3c16565b905060006106c0836106b46106a7886104bd565b859063ffffffff610b6a16565b9063ffffffff610ba416565b905060006106cd8661038f565b9050808211156106f2576106e7828263ffffffff610a3616565b94505050505061037c565b50600095945050505050565b600a546001600160a01b031690565b60005490565b60035490565b6000610606610be6565b6001600160a01b03821660009081526008602052604090206002015461074f908263ffffffff610b3c16565b6001600160a01b038316600090815260086020526040902060029081019190915554610781908263ffffffff610b3c16565b6002555050565b6001600160a01b0382166000908152600860205260409020600101546107b4908263ffffffff610b3c16565b6001600160a01b0383166000908152600860205260409020600190810191909155546107e6908263ffffffff610b3c16565b6001555050565b6001600160a01b03831660009081526008602052604090206003015461081a90838363ffffffff610bfe16565b6001600160a01b03841660009081526008602052604090206003908101919091555461084d90838363ffffffff610bfe16565b600355505050565b6001600160a01b03831660009081526008602052604090206002015461088290838363ffffffff610bfe16565b6001600160a01b0384166000908152600860205260409020600290810191909155546108b590838363ffffffff610bfe16565b600255505050565b6001600160a01b0383166000908152600860205260409020600101546108ea90838363ffffffff610bfe16565b6001600160a01b03841660009081526008602052604090206001908101919091555461091d90838363ffffffff610bfe16565b600155505050565b6001600160a01b038216600090815260086020526040902060030154610951908263ffffffff610b3c16565b6001600160a01b038316600090815260086020526040902060039081019190915554610983908263ffffffff610b3c16565b6003555050565b600061099461043f565b6001600160a01b031663900cf0cf6040518163ffffffff1660e01b815260040160206040518083038186803b1580156109cc57600080fd5b505afa1580156109e0573d6000803e3d6000fd5b505050506040513d601f19601f820116820180604052506106069190810190610dc8565b610a17610a0f610c2a565b61068761098a565b6001600160a01b03909116600090815260086020526040902060040155565b6000610a7883836040518060400160405280601e81526020017f536166654d6174683a207375627472616374696f6e206f766572666c6f770000815250610bfe565b9392505050565b6001600160a01b038216600090815260086020526040902054610aa8908263ffffffff610b3c16565b6001600160a01b03831660009081526008602052604081209190915554610ad5908263ffffffff610b3c16565b6000555050565b6001600160a01b038316600090815260086020526040902054610b0690838363ffffffff610bfe16565b6001600160a01b03841660009081526008602052604081209190915554610b3490838363ffffffff610bfe16565b600055505050565b600082820183811015610a785760405162461bcd60e51b8152600401610b6190610f16565b60405180910390fd5b600082610b7957506000610558565b82820282848281610b8657fe5b0414610a785760405162461bcd60e51b8152600401610b6190610f26565b6000610a7883836040518060400160405280601a81526020017f536166654d6174683a206469766973696f6e206279207a65726f000000000000815250610c2f565b734f96fe3b7a6cf9725f59d353f723c1bdb64ca6aa90565b60008184841115610c225760405162461bcd60e51b8152600401610b619190610f05565b505050900390565b606090565b60008183610c505760405162461bcd60e51b8152600401610b619190610f05565b506000838581610c5c57fe5b0495945050505050565b803561055881610fd0565b60008083601f840112610c8357600080fd5b50813567ffffffffffffffff811115610c9b57600080fd5b602083019150836001820283011115610cb357600080fd5b9250929050565b803561055881610fe4565b805161055881610fe4565b600060208284031215610ce257600080fd5b6000610cee8484610c66565b949350505050565b60008060408385031215610d0957600080fd5b6000610d158585610c66565b9250506020610d2685828601610c66565b9150509250929050565b60008060408385031215610d4357600080fd5b6000610d4f8585610c66565b9250506020610d2685828601610cba565b60008060008060608587031215610d7657600080fd5b6000610d828787610c66565b9450506020610d9387828801610cba565b935050604085013567ffffffffffffffff811115610db057600080fd5b610dbc87828801610c71565b95989497509550505050565b600060208284031215610dda57600080fd5b6000610cee8484610cc5565b610def81610f51565b82525050565b610def81610f5c565b610def81610f7a565b610def81610f85565b6000610e1b82610f44565b610e258185610f48565b9350610e35818560208601610f90565b610e3e81610fbc565b9093019392505050565b6000610e55601b83610f48565b7f536166654d6174683a206164646974696f6e206f766572666c6f770000000000815260200192915050565b6000610e8e602183610f48565b7f536166654d6174683a206d756c7469706c69636174696f6e206f766572666c6f8152607760f81b602082015260400192915050565b610def81610f77565b602081016105588284610de6565b602081016105588284610df5565b602081016105588284610dfe565b602081016105588284610e07565b60208082528101610a788184610e10565b6020808252810161055881610e48565b6020808252810161055881610e81565b602081016105588284610ec4565b5190565b90815260200190565b600061055882610f6b565b151590565b8061037c81610fc6565b6001600160a01b031690565b90565b600061055882610f51565b600061055882610f61565b60005b83811015610fab578181015183820152602001610f93565b838111156103f85750506000910152565b601f01601f191690565b6003811061056757fe5b610fd981610f51565b811461056757600080fd5b610fd981610f7756fea365627a7a723158206d5a6a5815cc2c334820b8e1774c506df5e0ecaefe12e4bf2bafebd59b736ff16c6578706572696d656e74616cf564736f6c63430005110040",
  "source": "/*\n    Copyright 2021 Ethic Money Devs <devs@ethic.money> and Copyright 2020 Empty Set Squad <emptysetsquad@protonmail.com>\n\n    Licensed under the Apache License, Version 2.0 (the \"License\");\n    you may not use this file except in compliance with the License.\n    You may obtain a copy of the License at\n\n    http://www.apache.org/licenses/LICENSE-2.0\n\n    Unless required by applicable law or agreed to in writing, software\n    distributed under the License is distributed on an \"AS IS\" BASIS,\n    WITHOUT WARRANTIES OR CONDITIONS OF ANY KIND, either express or implied.\n    See the License for the specific language governing permissions and\n    limitations under the License.\n*/\n\npragma solidity ^0.5.17;\npragma experimental ABIEncoderV2;\n\nimport \"../oracle/PoolSetters.sol\";\n\ncontract MockPoolState is PoolSetters {\n    address private _dao;\n    address private _ethic;\n\n    function set(address dao, address ethic) external {\n        _dao = dao;\n        _ethic = ethic;\n    }\n\n    function dao() public view returns (IDAO) {\n        return IDAO(_dao);\n    }\n\n    function ethic() public view returns (IEthic) {\n        return IEthic(_ethic);\n    }\n\n    /**\n     * Account\n     */\n\n    function incrementBalanceOfBondedE(address account, uint256 amount) external {\n        super.incrementBalanceOfBonded(account, amount);\n    }\n\n    function decrementBalanceOfBondedE(address account, uint256 amount, string calldata reason) external {\n        super.decrementBalanceOfBonded(account, amount, reason);\n    }\n\n    function incrementBalanceOfStagedE(address account, uint256 amount) external {\n        super.incrementBalanceOfStaged(account, amount);\n    }\n\n    function decrementBalanceOfStagedE(address account, uint256 amount, string calldata reason) external {\n        super.decrementBalanceOfStaged(account, amount, reason);\n    }\n\n    function incrementBalanceOfClaimableE(address account, uint256 amount) external {\n        super.incrementBalanceOfClaimable(account, amount);\n    }\n\n    function decrementBalanceOfClaimableE(address account, uint256 amount, string calldata reason) external {\n        super.decrementBalanceOfClaimable(account, amount, reason);\n    }\n\n    function incrementBalanceOfPhantomE(address account, uint256 amount) external {\n        super.incrementBalanceOfPhantom(account, amount);\n    }\n\n    function decrementBalanceOfPhantomE(address account, uint256 amount, string calldata reason) external {\n        super.decrementBalanceOfPhantom(account, amount, reason);\n    }\n\n    function unfreezeE(address account) external {\n        super.unfreeze(account);\n    }\n}\n",
  "sourcePath": "/home/ville/projects/ethic/protocol/contracts/mock/MockPoolState.sol",
  "compiler": {
    "name": "solc",
    "version": "0.5.17+commit.d19bba13.Emscripten.clang"
  },
  "schemaVersion": "3.3.2",
  "updatedAt": "2021-02-04T14:35:43.993Z",
  "devdoc": {
    "methods": {}
  },
  "userdoc": {
    "methods": {
      "balanceOfStaged(address)": {
        "notice": "Account"
      },
      "dai()": {
        "notice": "Global"
      },
      "incrementBalanceOfBondedE(address,uint256)": {
        "notice": "Account"
      }
    }
  }
}