{
  "contractName": "MockComptroller",
  "abi": [
    {
      "inputs": [
        {
          "internalType": "address",
          "name": "pool",
          "type": "address"
        }
      ],
      "payable": false,
      "stateMutability": "nonpayable",
      "type": "constructor"
    },
    {
      "anonymous": false,
      "inputs": [
        {
          "indexed": true,
          "internalType": "address",
          "name": "from",
          "type": "address"
        },
        {
          "indexed": true,
          "internalType": "address",
          "name": "to",
          "type": "address"
        },
        {
          "indexed": false,
          "internalType": "uint256",
          "name": "value",
          "type": "uint256"
        }
      ],
      "name": "Transfer",
      "type": "event"
    },
    {
      "constant": true,
      "inputs": [
        {
          "internalType": "address",
          "name": "owner",
          "type": "address"
        },
        {
          "internalType": "address",
          "name": "spender",
          "type": "address"
        }
      ],
      "name": "allowance",
      "outputs": [
        {
          "internalType": "uint256",
          "name": "",
          "type": "uint256"
        }
      ],
      "payable": false,
      "stateMutability": "view",
      "type": "function"
    },
    {
      "constant": true,
      "inputs": [
        {
          "internalType": "address",
          "name": "owner",
          "type": "address"
        },
        {
          "internalType": "address",
          "name": "spender",
          "type": "address"
        }
      ],
      "name": "allowanceCoupons",
      "outputs": [
        {
          "internalType": "uint256",
          "name": "",
          "type": "uint256"
        }
      ],
      "payable": false,
      "stateMutability": "view",
      "type": "function"
    },
    {
      "constant": false,
      "inputs": [
        {
          "internalType": "address",
          "name": "spender",
          "type": "address"
        },
        {
          "internalType": "uint256",
          "name": "amount",
          "type": "uint256"
        }
      ],
      "name": "approve",
      "outputs": [
        {
          "internalType": "bool",
          "name": "",
          "type": "bool"
        }
      ],
      "payable": false,
      "stateMutability": "nonpayable",
      "type": "function"
    },
    {
      "constant": true,
      "inputs": [
        {
          "internalType": "address",
          "name": "candidate",
          "type": "address"
        }
      ],
      "name": "approveFor",
      "outputs": [
        {
          "internalType": "uint256",
          "name": "",
          "type": "uint256"
        }
      ],
      "payable": false,
      "stateMutability": "view",
      "type": "function"
    },
    {
      "constant": true,
      "inputs": [
        {
          "internalType": "address",
          "name": "account",
          "type": "address"
        }
      ],
      "name": "balanceOf",
      "outputs": [
        {
          "internalType": "uint256",
          "name": "",
          "type": "uint256"
        }
      ],
      "payable": false,
      "stateMutability": "view",
      "type": "function"
    },
    {
      "constant": true,
      "inputs": [
        {
          "internalType": "address",
          "name": "account",
          "type": "address"
        }
      ],
      "name": "balanceOfBonded",
      "outputs": [
        {
          "internalType": "uint256",
          "name": "",
          "type": "uint256"
        }
      ],
      "payable": false,
      "stateMutability": "view",
      "type": "function"
    },
    {
      "constant": true,
      "inputs": [
        {
          "internalType": "address",
          "name": "account",
          "type": "address"
        },
        {
          "internalType": "uint256",
          "name": "epoch",
          "type": "uint256"
        }
      ],
      "name": "balanceOfCoupons",
      "outputs": [
        {
          "internalType": "uint256",
          "name": "",
          "type": "uint256"
        }
      ],
      "payable": false,
      "stateMutability": "view",
      "type": "function"
    },
    {
      "constant": true,
      "inputs": [
        {
          "internalType": "address",
          "name": "account",
          "type": "address"
        }
      ],
      "name": "balanceOfStaged",
      "outputs": [
        {
          "internalType": "uint256",
          "name": "",
          "type": "uint256"
        }
      ],
      "payable": false,
      "stateMutability": "view",
      "type": "function"
    },
    {
      "constant": true,
      "inputs": [
        {
          "internalType": "uint256",
          "name": "epoch",
          "type": "uint256"
        }
      ],
      "name": "bootstrappingAt",
      "outputs": [
        {
          "internalType": "bool",
          "name": "",
          "type": "bool"
        }
      ],
      "payable": false,
      "stateMutability": "view",
      "type": "function"
    },
    {
      "constant": true,
      "inputs": [
        {
          "internalType": "uint256",
          "name": "epoch",
          "type": "uint256"
        }
      ],
      "name": "couponsExpiration",
      "outputs": [
        {
          "internalType": "uint256",
          "name": "",
          "type": "uint256"
        }
      ],
      "payable": false,
      "stateMutability": "view",
      "type": "function"
    },
    {
      "constant": false,
      "inputs": [
        {
          "internalType": "address",
          "name": "candidate",
          "type": "address"
        },
        {
          "internalType": "uint256",
          "name": "period",
          "type": "uint256"
        }
      ],
      "name": "createCandidateE",
      "outputs": [],
      "payable": false,
      "stateMutability": "nonpayable",
      "type": "function"
    },
    {
      "constant": true,
      "inputs": [],
      "name": "decimals",
      "outputs": [
        {
          "internalType": "uint8",
          "name": "",
          "type": "uint8"
        }
      ],
      "payable": false,
      "stateMutability": "view",
      "type": "function"
    },
    {
      "constant": false,
      "inputs": [
        {
          "internalType": "address",
          "name": "owner",
          "type": "address"
        },
        {
          "internalType": "address",
          "name": "spender",
          "type": "address"
        },
        {
          "internalType": "uint256",
          "name": "amount",
          "type": "uint256"
        },
        {
          "internalType": "string",
          "name": "reason",
          "type": "string"
        }
      ],
      "name": "decrementAllowanceCouponsE",
      "outputs": [],
      "payable": false,
      "stateMutability": "nonpayable",
      "type": "function"
    },
    {
      "constant": false,
      "inputs": [
        {
          "internalType": "address",
          "name": "candidate",
          "type": "address"
        },
        {
          "internalType": "uint256",
          "name": "amount",
          "type": "uint256"
        },
        {
          "internalType": "string",
          "name": "reason",
          "type": "string"
        }
      ],
      "name": "decrementApproveForE",
      "outputs": [],
      "payable": false,
      "stateMutability": "nonpayable",
      "type": "function"
    },
    {
      "constant": false,
      "inputs": [
        {
          "internalType": "address",
          "name": "account",
          "type": "address"
        },
        {
          "internalType": "uint256",
          "name": "epoch",
          "type": "uint256"
        },
        {
          "internalType": "uint256",
          "name": "amount",
          "type": "uint256"
        },
        {
          "internalType": "string",
          "name": "reason",
          "type": "string"
        }
      ],
      "name": "decrementBalanceOfCouponsE",
      "outputs": [],
      "payable": false,
      "stateMutability": "nonpayable",
      "type": "function"
    },
    {
      "constant": false,
      "inputs": [
        {
          "internalType": "address",
          "name": "account",
          "type": "address"
        },
        {
          "internalType": "uint256",
          "name": "amount",
          "type": "uint256"
        },
        {
          "internalType": "string",
          "name": "reason",
          "type": "string"
        }
      ],
      "name": "decrementBalanceOfE",
      "outputs": [],
      "payable": false,
      "stateMutability": "nonpayable",
      "type": "function"
    },
    {
      "constant": false,
      "inputs": [
        {
          "internalType": "address",
          "name": "account",
          "type": "address"
        },
        {
          "internalType": "uint256",
          "name": "amount",
          "type": "uint256"
        },
        {
          "internalType": "string",
          "name": "reason",
          "type": "string"
        }
      ],
      "name": "decrementBalanceOfStagedE",
      "outputs": [],
      "payable": false,
      "stateMutability": "nonpayable",
      "type": "function"
    },
    {
      "constant": false,
      "inputs": [
        {
          "internalType": "address",
          "name": "candidate",
          "type": "address"
        },
        {
          "internalType": "uint256",
          "name": "amount",
          "type": "uint256"
        },
        {
          "internalType": "string",
          "name": "reason",
          "type": "string"
        }
      ],
      "name": "decrementRejectForE",
      "outputs": [],
      "payable": false,
      "stateMutability": "nonpayable",
      "type": "function"
    },
    {
      "constant": false,
      "inputs": [
        {
          "internalType": "uint256",
          "name": "amount",
          "type": "uint256"
        },
        {
          "internalType": "string",
          "name": "reason",
          "type": "string"
        }
      ],
      "name": "decrementTotalBondedE",
      "outputs": [],
      "payable": false,
      "stateMutability": "nonpayable",
      "type": "function"
    },
    {
      "constant": false,
      "inputs": [
        {
          "internalType": "uint256",
          "name": "amount",
          "type": "uint256"
        },
        {
          "internalType": "string",
          "name": "reason",
          "type": "string"
        }
      ],
      "name": "decrementTotalDebtE",
      "outputs": [],
      "payable": false,
      "stateMutability": "nonpayable",
      "type": "function"
    },
    {
      "constant": false,
      "inputs": [
        {
          "internalType": "uint256",
          "name": "amount",
          "type": "uint256"
        },
        {
          "internalType": "string",
          "name": "reason",
          "type": "string"
        }
      ],
      "name": "decrementTotalRedeemableE",
      "outputs": [],
      "payable": false,
      "stateMutability": "nonpayable",
      "type": "function"
    },
    {
      "constant": false,
      "inputs": [
        {
          "internalType": "uint256",
          "name": "epoch",
          "type": "uint256"
        }
      ],
      "name": "eliminateOutstandingCouponsE",
      "outputs": [],
      "payable": false,
      "stateMutability": "nonpayable",
      "type": "function"
    },
    {
      "constant": true,
      "inputs": [],
      "name": "epoch",
      "outputs": [
        {
          "internalType": "uint256",
          "name": "",
          "type": "uint256"
        }
      ],
      "payable": false,
      "stateMutability": "view",
      "type": "function"
    },
    {
      "constant": true,
      "inputs": [],
      "name": "epochTime",
      "outputs": [
        {
          "internalType": "uint256",
          "name": "",
          "type": "uint256"
        }
      ],
      "payable": false,
      "stateMutability": "view",
      "type": "function"
    },
    {
      "constant": true,
      "inputs": [],
      "name": "ethic",
      "outputs": [
        {
          "internalType": "contract IEthic",
          "name": "",
          "type": "address"
        }
      ],
      "payable": false,
      "stateMutability": "view",
      "type": "function"
    },
    {
      "constant": true,
      "inputs": [
        {
          "internalType": "uint256",
          "name": "epoch",
          "type": "uint256"
        }
      ],
      "name": "expiringCoupons",
      "outputs": [
        {
          "internalType": "uint256",
          "name": "",
          "type": "uint256"
        }
      ],
      "payable": false,
      "stateMutability": "view",
      "type": "function"
    },
    {
      "constant": true,
      "inputs": [
        {
          "internalType": "uint256",
          "name": "epoch",
          "type": "uint256"
        },
        {
          "internalType": "uint256",
          "name": "i",
          "type": "uint256"
        }
      ],
      "name": "expiringCouponsAtIndex",
      "outputs": [
        {
          "internalType": "uint256",
          "name": "",
          "type": "uint256"
        }
      ],
      "payable": false,
      "stateMutability": "view",
      "type": "function"
    },
    {
      "constant": true,
      "inputs": [
        {
          "internalType": "address",
          "name": "account",
          "type": "address"
        }
      ],
      "name": "fluidUntil",
      "outputs": [
        {
          "internalType": "uint256",
          "name": "",
          "type": "uint256"
        }
      ],
      "payable": false,
      "stateMutability": "view",
      "type": "function"
    },
    {
      "constant": true,
      "inputs": [],
      "name": "implementation",
      "outputs": [
        {
          "internalType": "address",
          "name": "impl",
          "type": "address"
        }
      ],
      "payable": false,
      "stateMutability": "view",
      "type": "function"
    },
    {
      "constant": false,
      "inputs": [
        {
          "internalType": "address",
          "name": "candidate",
          "type": "address"
        },
        {
          "internalType": "uint256",
          "name": "amount",
          "type": "uint256"
        }
      ],
      "name": "incrementApproveForE",
      "outputs": [],
      "payable": false,
      "stateMutability": "nonpayable",
      "type": "function"
    },
    {
      "constant": false,
      "inputs": [
        {
          "internalType": "address",
          "name": "account",
          "type": "address"
        },
        {
          "internalType": "uint256",
          "name": "epoch",
          "type": "uint256"
        },
        {
          "internalType": "uint256",
          "name": "amount",
          "type": "uint256"
        }
      ],
      "name": "incrementBalanceOfCouponsE",
      "outputs": [],
      "payable": false,
      "stateMutability": "nonpayable",
      "type": "function"
    },
    {
      "constant": false,
      "inputs": [
        {
          "internalType": "address",
          "name": "account",
          "type": "address"
        },
        {
          "internalType": "uint256",
          "name": "amount",
          "type": "uint256"
        }
      ],
      "name": "incrementBalanceOfE",
      "outputs": [],
      "payable": false,
      "stateMutability": "nonpayable",
      "type": "function"
    },
    {
      "constant": false,
      "inputs": [
        {
          "internalType": "address",
          "name": "account",
          "type": "address"
        },
        {
          "internalType": "uint256",
          "name": "amount",
          "type": "uint256"
        }
      ],
      "name": "incrementBalanceOfStagedE",
      "outputs": [],
      "payable": false,
      "stateMutability": "nonpayable",
      "type": "function"
    },
    {
      "constant": false,
      "inputs": [],
      "name": "incrementEpochE",
      "outputs": [],
      "payable": false,
      "stateMutability": "nonpayable",
      "type": "function"
    },
    {
      "constant": false,
      "inputs": [
        {
          "internalType": "address",
          "name": "candidate",
          "type": "address"
        },
        {
          "internalType": "uint256",
          "name": "amount",
          "type": "uint256"
        }
      ],
      "name": "incrementRejectForE",
      "outputs": [],
      "payable": false,
      "stateMutability": "nonpayable",
      "type": "function"
    },
    {
      "constant": false,
      "inputs": [
        {
          "internalType": "uint256",
          "name": "amount",
          "type": "uint256"
        }
      ],
      "name": "incrementTotalBondedE",
      "outputs": [],
      "payable": false,
      "stateMutability": "nonpayable",
      "type": "function"
    },
    {
      "constant": false,
      "inputs": [
        {
          "internalType": "uint256",
          "name": "amount",
          "type": "uint256"
        }
      ],
      "name": "incrementTotalDebtE",
      "outputs": [],
      "payable": false,
      "stateMutability": "nonpayable",
      "type": "function"
    },
    {
      "constant": false,
      "inputs": [
        {
          "internalType": "uint256",
          "name": "amount",
          "type": "uint256"
        }
      ],
      "name": "incrementTotalRedeemableE",
      "outputs": [],
      "payable": false,
      "stateMutability": "nonpayable",
      "type": "function"
    },
    {
      "constant": false,
      "inputs": [
        {
          "internalType": "uint256",
          "name": "epoch",
          "type": "uint256"
        },
        {
          "internalType": "uint256",
          "name": "expiration",
          "type": "uint256"
        }
      ],
      "name": "initializeCouponsExpirationE",
      "outputs": [],
      "payable": false,
      "stateMutability": "nonpayable",
      "type": "function"
    },
    {
      "constant": false,
      "inputs": [
        {
          "internalType": "address",
          "name": "candidate",
          "type": "address"
        }
      ],
      "name": "initializedE",
      "outputs": [],
      "payable": false,
      "stateMutability": "nonpayable",
      "type": "function"
    },
    {
      "constant": true,
      "inputs": [
        {
          "internalType": "address",
          "name": "candidate",
          "type": "address"
        }
      ],
      "name": "isInitialized",
      "outputs": [
        {
          "internalType": "bool",
          "name": "",
          "type": "bool"
        }
      ],
      "payable": false,
      "stateMutability": "view",
      "type": "function"
    },
    {
      "constant": true,
      "inputs": [
        {
          "internalType": "address",
          "name": "candidate",
          "type": "address"
        }
      ],
      "name": "isNominated",
      "outputs": [
        {
          "internalType": "bool",
          "name": "",
          "type": "bool"
        }
      ],
      "payable": false,
      "stateMutability": "view",
      "type": "function"
    },
    {
      "constant": true,
      "inputs": [
        {
          "internalType": "address",
          "name": "account",
          "type": "address"
        }
      ],
      "name": "lockedUntil",
      "outputs": [
        {
          "internalType": "uint256",
          "name": "",
          "type": "uint256"
        }
      ],
      "payable": false,
      "stateMutability": "view",
      "type": "function"
    },
    {
      "constant": true,
      "inputs": [],
      "name": "name",
      "outputs": [
        {
          "internalType": "string",
          "name": "",
          "type": "string"
        }
      ],
      "payable": false,
      "stateMutability": "view",
      "type": "function"
    },
    {
      "constant": true,
      "inputs": [],
      "name": "oracle",
      "outputs": [
        {
          "internalType": "contract IOracle",
          "name": "",
          "type": "address"
        }
      ],
      "payable": false,
      "stateMutability": "view",
      "type": "function"
    },
    {
      "constant": true,
      "inputs": [
        {
          "internalType": "uint256",
          "name": "epoch",
          "type": "uint256"
        }
      ],
      "name": "outstandingCoupons",
      "outputs": [
        {
          "internalType": "uint256",
          "name": "",
          "type": "uint256"
        }
      ],
      "payable": false,
      "stateMutability": "view",
      "type": "function"
    },
    {
      "constant": true,
      "inputs": [
        {
          "internalType": "address",
          "name": "candidate",
          "type": "address"
        }
      ],
      "name": "periodFor",
      "outputs": [
        {
          "internalType": "uint256",
          "name": "",
          "type": "uint256"
        }
      ],
      "payable": false,
      "stateMutability": "view",
      "type": "function"
    },
    {
      "constant": false,
      "inputs": [
        {
          "internalType": "address",
          "name": "account",
          "type": "address"
        },
        {
          "internalType": "address",
          "name": "candidate",
          "type": "address"
        }
      ],
      "name": "placeLockE",
      "outputs": [],
      "payable": false,
      "stateMutability": "nonpayable",
      "type": "function"
    },
    {
      "constant": true,
      "inputs": [],
      "name": "pool",
      "outputs": [
        {
          "internalType": "address",
          "name": "",
          "type": "address"
        }
      ],
      "payable": false,
      "stateMutability": "view",
      "type": "function"
    },
    {
      "constant": false,
      "inputs": [
        {
          "internalType": "address",
          "name": "account",
          "type": "address"
        },
        {
          "internalType": "address",
          "name": "candidate",
          "type": "address"
        },
        {
          "internalType": "enum Candidate.Vote",
          "name": "vote",
          "type": "uint8"
        }
      ],
      "name": "recordVoteE",
      "outputs": [],
      "payable": false,
      "stateMutability": "nonpayable",
      "type": "function"
    },
    {
      "constant": true,
      "inputs": [
        {
          "internalType": "address",
          "name": "account",
          "type": "address"
        },
        {
          "internalType": "address",
          "name": "candidate",
          "type": "address"
        }
      ],
      "name": "recordedVote",
      "outputs": [
        {
          "internalType": "enum Candidate.Vote",
          "name": "",
          "type": "uint8"
        }
      ],
      "payable": false,
      "stateMutability": "view",
      "type": "function"
    },
    {
      "constant": true,
      "inputs": [
        {
          "internalType": "address",
          "name": "candidate",
          "type": "address"
        }
      ],
      "name": "rejectFor",
      "outputs": [
        {
          "internalType": "uint256",
          "name": "",
          "type": "uint256"
        }
      ],
      "payable": false,
      "stateMutability": "view",
      "type": "function"
    },
    {
      "constant": false,
      "inputs": [
        {
          "internalType": "uint256",
          "name": "timestamp",
          "type": "uint256"
        }
      ],
      "name": "setBlockTimestamp",
      "outputs": [],
      "payable": false,
      "stateMutability": "nonpayable",
      "type": "function"
    },
    {
      "constant": false,
      "inputs": [
        {
          "internalType": "uint256",
          "name": "start",
          "type": "uint256"
        },
        {
          "internalType": "uint256",
          "name": "period",
          "type": "uint256"
        }
      ],
      "name": "setEpochParamsE",
      "outputs": [],
      "payable": false,
      "stateMutability": "nonpayable",
      "type": "function"
    },
    {
      "constant": false,
      "inputs": [],
      "name": "snapshotTotalBondedE",
      "outputs": [],
      "payable": false,
      "stateMutability": "nonpayable",
      "type": "function"
    },
    {
      "constant": true,
      "inputs": [
        {
          "internalType": "address",
          "name": "candidate",
          "type": "address"
        }
      ],
      "name": "startFor",
      "outputs": [
        {
          "internalType": "uint256",
          "name": "",
          "type": "uint256"
        }
      ],
      "payable": false,
      "stateMutability": "view",
      "type": "function"
    },
    {
      "constant": true,
      "inputs": [
        {
          "internalType": "address",
          "name": "account",
          "type": "address"
        }
      ],
      "name": "statusOf",
      "outputs": [
        {
          "internalType": "enum Account.Status",
          "name": "",
          "type": "uint8"
        }
      ],
      "payable": false,
      "stateMutability": "view",
      "type": "function"
    },
    {
      "constant": true,
      "inputs": [],
      "name": "symbol",
      "outputs": [
        {
          "internalType": "string",
          "name": "",
          "type": "string"
        }
      ],
      "payable": false,
      "stateMutability": "view",
      "type": "function"
    },
    {
      "constant": true,
      "inputs": [],
      "name": "totalBonded",
      "outputs": [
        {
          "internalType": "uint256",
          "name": "",
          "type": "uint256"
        }
      ],
      "payable": false,
      "stateMutability": "view",
      "type": "function"
    },
    {
      "constant": true,
      "inputs": [
        {
          "internalType": "uint256",
          "name": "epoch",
          "type": "uint256"
        }
      ],
      "name": "totalBondedAt",
      "outputs": [
        {
          "internalType": "uint256",
          "name": "",
          "type": "uint256"
        }
      ],
      "payable": false,
      "stateMutability": "view",
      "type": "function"
    },
    {
      "constant": true,
      "inputs": [],
      "name": "totalCoupons",
      "outputs": [
        {
          "internalType": "uint256",
          "name": "",
          "type": "uint256"
        }
      ],
      "payable": false,
      "stateMutability": "view",
      "type": "function"
    },
    {
      "constant": true,
      "inputs": [],
      "name": "totalDebt",
      "outputs": [
        {
          "internalType": "uint256",
          "name": "",
          "type": "uint256"
        }
      ],
      "payable": false,
      "stateMutability": "view",
      "type": "function"
    },
    {
      "constant": true,
      "inputs": [],
      "name": "totalNet",
      "outputs": [
        {
          "internalType": "uint256",
          "name": "",
          "type": "uint256"
        }
      ],
      "payable": false,
      "stateMutability": "view",
      "type": "function"
    },
    {
      "constant": true,
      "inputs": [],
      "name": "totalRedeemable",
      "outputs": [
        {
          "internalType": "uint256",
          "name": "",
          "type": "uint256"
        }
      ],
      "payable": false,
      "stateMutability": "view",
      "type": "function"
    },
    {
      "constant": true,
      "inputs": [],
      "name": "totalStaged",
      "outputs": [
        {
          "internalType": "uint256",
          "name": "",
          "type": "uint256"
        }
      ],
      "payable": false,
      "stateMutability": "view",
      "type": "function"
    },
    {
      "constant": true,
      "inputs": [],
      "name": "totalSupply",
      "outputs": [
        {
          "internalType": "uint256",
          "name": "",
          "type": "uint256"
        }
      ],
      "payable": false,
      "stateMutability": "view",
      "type": "function"
    },
    {
      "constant": false,
      "inputs": [
        {
          "internalType": "address",
          "name": "recipient",
          "type": "address"
        },
        {
          "internalType": "uint256",
          "name": "amount",
          "type": "uint256"
        }
      ],
      "name": "transfer",
      "outputs": [
        {
          "internalType": "bool",
          "name": "",
          "type": "bool"
        }
      ],
      "payable": false,
      "stateMutability": "nonpayable",
      "type": "function"
    },
    {
      "constant": false,
      "inputs": [
        {
          "internalType": "address",
          "name": "sender",
          "type": "address"
        },
        {
          "internalType": "address",
          "name": "recipient",
          "type": "address"
        },
        {
          "internalType": "uint256",
          "name": "amount",
          "type": "uint256"
        }
      ],
      "name": "transferFrom",
      "outputs": [
        {
          "internalType": "bool",
          "name": "",
          "type": "bool"
        }
      ],
      "payable": false,
      "stateMutability": "nonpayable",
      "type": "function"
    },
    {
      "constant": false,
      "inputs": [
        {
          "internalType": "address",
          "name": "account",
          "type": "address"
        }
      ],
      "name": "unfreezeE",
      "outputs": [],
      "payable": false,
      "stateMutability": "nonpayable",
      "type": "function"
    },
    {
      "constant": false,
      "inputs": [
        {
          "internalType": "address",
          "name": "owner",
          "type": "address"
        },
        {
          "internalType": "address",
          "name": "spender",
          "type": "address"
        },
        {
          "internalType": "uint256",
          "name": "amount",
          "type": "uint256"
        }
      ],
      "name": "updateAllowanceCouponsE",
      "outputs": [],
      "payable": false,
      "stateMutability": "nonpayable",
      "type": "function"
    },
    {
      "constant": true,
      "inputs": [
        {
          "internalType": "address",
          "name": "candidate",
          "type": "address"
        }
      ],
      "name": "votesFor",
      "outputs": [
        {
          "internalType": "uint256",
          "name": "",
          "type": "uint256"
        }
      ],
      "payable": false,
      "stateMutability": "view",
      "type": "function"
    },
    {
      "constant": false,
      "inputs": [
        {
          "internalType": "address",
          "name": "account",
          "type": "address"
        },
        {
          "internalType": "uint256",
          "name": "amount",
          "type": "uint256"
        }
      ],
      "name": "mintToAccountE",
      "outputs": [],
      "payable": false,
      "stateMutability": "nonpayable",
      "type": "function"
    },
    {
      "constant": false,
      "inputs": [
        {
          "internalType": "address",
          "name": "account",
          "type": "address"
        },
        {
          "internalType": "uint256",
          "name": "amount",
          "type": "uint256"
        }
      ],
      "name": "burnFromAccountE",
      "outputs": [],
      "payable": false,
      "stateMutability": "nonpayable",
      "type": "function"
    },
    {
      "constant": false,
      "inputs": [
        {
          "internalType": "address",
          "name": "account",
          "type": "address"
        },
        {
          "internalType": "uint256",
          "name": "amount",
          "type": "uint256"
        }
      ],
      "name": "redeemToAccountE",
      "outputs": [],
      "payable": false,
      "stateMutability": "nonpayable",
      "type": "function"
    },
    {
      "constant": false,
      "inputs": [
        {
          "internalType": "uint256",
          "name": "amount",
          "type": "uint256"
        }
      ],
      "name": "burnRedeemableE",
      "outputs": [],
      "payable": false,
      "stateMutability": "nonpayable",
      "type": "function"
    },
    {
      "constant": false,
      "inputs": [
        {
          "internalType": "uint256",
          "name": "amount",
          "type": "uint256"
        }
      ],
      "name": "increaseDebtE",
      "outputs": [],
      "payable": false,
      "stateMutability": "nonpayable",
      "type": "function"
    },
    {
      "constant": false,
      "inputs": [
        {
          "internalType": "uint256",
          "name": "amount",
          "type": "uint256"
        }
      ],
      "name": "decreaseDebtE",
      "outputs": [],
      "payable": false,
      "stateMutability": "nonpayable",
      "type": "function"
    },
    {
      "constant": false,
      "inputs": [
        {
          "internalType": "uint256",
          "name": "percent",
          "type": "uint256"
        }
      ],
      "name": "resetDebtE",
      "outputs": [],
      "payable": false,
      "stateMutability": "nonpayable",
      "type": "function"
    },
    {
      "constant": false,
      "inputs": [
        {
          "internalType": "address",
          "name": "account",
          "type": "address"
        },
        {
          "internalType": "uint256",
          "name": "amount",
          "type": "uint256"
        }
      ],
      "name": "mintToE",
      "outputs": [],
      "payable": false,
      "stateMutability": "nonpayable",
      "type": "function"
    }
  ],
  "bytecode": "0x60806040523480156200001157600080fd5b506040516200476d3803806200476d8339810160408190526200003491620000ba565b42600f55604051620000469062000099565b604051809103906000f08015801562000063573d6000803e3d6000fd5b50600980546001600160a01b039283166001600160a01b031991821617909155600b80549390921692169190911790556200010f565b611bf98062002b7483390190565b8051620000b481620000f5565b92915050565b600060208284031215620000cd57600080fd5b6000620000db8484620000a7565b949350505050565b60006001600160a01b038216620000b4565b6200010081620000e3565b81146200010c57600080fd5b50565b612a55806200011f6000396000f3fe608060405234801561001057600080fd5b50600436106104755760003560e01c80638413e52a11610257578063b16144a311610146578063d60b347f116100c3578063f1b7cf4911610087578063f1b7cf4914610996578063f35adf7e146109a9578063f7a31818146109b1578063fc7b9c18146109c4578063ffbe3b73146109cc57610475565b8063d60b347f1461093c578063d6d8816d1461094f578063d83d3ed514610962578063dd62ed3e14610975578063e0abdf661461098357610475565b8063c2aeb5fe1161010a578063c2aeb5fe146108e8578063c45a3e0a146108fb578063c9aff70c1461090e578063cc8d823c14610921578063cf0237791461093457610475565b8063b16144a314610894578063b32a2f90146108a7578063bc7513e2146108ba578063c0ec4ac5146108cd578063c1410c02146108d557610475565b80639f6e1b26116101d4578063a9059cbb11610198578063a9059cbb14610498578063a9b3cf1514610848578063adbff2be1461085b578063ae5c23811461086e578063b11ee0e31461088157610475565b80639f6e1b26146107f4578063a00e14d114610807578063a50cd8e71461081a578063a6c409f11461082d578063a6f37b531461083557610475565b806397a5d5b51161021b57806397a5d5b5146107a05780639a649edc146107b35780639b82b49b146107bb5780639bc289f1146107ce5780639be46493146107e157610475565b80638413e52a1461075757806386cf9f141461076a5780638de2e5731461077d578063900cf0cf1461079057806395d89b411461079857610475565b80633fbba9a61161037357806364668022116102f057806372924d2a116102b457806372924d2a146106f657806375d5024b146107095780637cb95a321461071c5780637dc0d1d01461072f578063825ad6071461074457610475565b806364668022146106a25780636a39e328146106b55780636b862d66146106c857806370a08231146106db57806371c511eb146106ee57610475565b80635053e461116103375780635053e4611461065957806351bf21d8146106615780635c60da1b146106745780635dbf800a1461067c5780635f14fec81461068f57610475565b80633fbba9a6146105f85780633fd4973c14610618578063438735261461062b57806344d96e951461063e5780634c7360991461064657610475565b80631fac973211610401578063313ce567116103c5578063313ce5671461059757806332347422146105ac578063353a420c146105bf5780633a3e6c81146105d25780633f7bcaf3146105e557610475565b80631fac97321461053857806320f6bc901461054b57806323b872dd1461055e578063259f7adf14610571578063277805a91461058457610475565b806315e14bf61161044857806315e14bf6146104ed57806316f0115b1461050057806318160ddd146105155780631a08e22a1461051d5780631edbcf6c1461053057610475565b806306fdde031461047a578063095ea7b3146104985780630dc6d3a3146104b857806310e95b6c146104cd575b600080fd5b6104826109df565b60405161048f91906128a1565b60405180910390f35b6104ab6104a63660046124d6565b610a0a565b60405161048f9190612877565b6104cb6104c6366004612458565b610a13565b005b6104e06104db3660046125f3565b610a5c565b60405161048f91906128d2565b6104e06104fb366004612370565b610a74565b610508610a92565b60405161048f9190612826565b6104e0610aa1565b6104cb61052b366004612685565b610aa7565b6104e0610ab5565b6104cb6105463660046125f3565b610abb565b6104cb6105593660046124d6565b610ac7565b6104ab61056c366004612415565b610ad1565b6104cb61057f3660046125f3565b610adb565b6104cb6105923660046124d6565b610ae4565b61059f610b70565b60405161048f91906128e0565b6104cb6105ba36600461262f565b610b75565b6104e06105cd366004612370565b610bb5565b6104ab6105e0366004612370565b610bd3565b6104cb6105f3366004612415565b610bf0565b61060b61060636600461238e565b610bfb565b60405161048f9190612893565b6104cb610626366004612506565b610c2e565b6104cb6106393660046125f3565b610c75565b6104e0610c7e565b6104e0610654366004612685565b610c84565b6104e0610cb4565b6104e061066f366004612370565b610cd7565b610508610cf5565b6104cb61068a3660046125f3565b610d1a565b6104cb61069d3660046124d6565b610d23565b6104e06106b0366004612370565b610d2d565b6104e06106c33660046125f3565b610d4b565b6104cb6106d636600461256e565b610d60565b6104e06106e9366004612370565b610d6b565b6104cb610d89565b6104cb61070436600461262f565b610d93565b6104ab6107173660046125f3565b610dd3565b6104cb61072a366004612506565b610de6565b610737610e27565b60405161048f9190612885565b6104e0610752366004612370565b610e36565b6104cb6107653660046123c8565b610e82565b6104e0610778366004612370565b610e8d565b6104cb61078b3660046125f3565b610ea8565b6104e0610eb1565b610482610eb7565b61060b6107ae366004612370565b610ed6565b6104e0610f3b565b6104cb6107c936600461262f565b610f41565b6104e06107dc366004612370565b610f81565b6104cb6107ef366004612370565b610f9f565b6104e061080236600461238e565b610faa565b6104cb610815366004612685565b610fd9565b6104e0610828366004612370565b610fe4565b6104e0611007565b6104cb610843366004612370565b61109d565b6104cb6108563660046125f3565b6110a6565b6104cb610869366004612506565b6110af565b6104cb61087c3660046124d6565b6110f0565b6104cb61088f3660046124d6565b6110fa565b6104cb6108a23660046125f3565b611104565b6104cb6108b5366004612506565b611117565b6104e06108c83660046124d6565b611158565b61073761119c565b6104cb6108e336600461238e565b6111ab565b6104cb6108f63660046125a0565b6111b5565b6104cb6109093660046124d6565b6111f7565b6104e061091c3660046125f3565b611201565b6104cb61092f3660046124d6565b611216565b6104e0611220565b6104ab61094a366004612370565b611226565b6104cb61095d3660046125f3565b611247565b6104cb6109703660046124d6565b611250565b6104e06104a636600461238e565b6104cb6109913660046125f3565b61125a565b6104e06109a4366004612370565b61125f565b6104cb61127a565b6104cb6109bf3660046124d6565b611282565b6104e061128c565b6104e06109da3660046125f3565b611292565b6040805180820190915260118152704574686963204d6f6e6579205374616b6560781b602082015290565b60005b92915050565b610a5585858585858080601f0160208091040260200160405190810160405280939291908181526020018383808284376000920191909152506112a492505050565b5050505050565b6000818152600d60205260409020600201545b919050565b6001600160a01b03166000908152600e602052604090206001015490565b600b546001600160a01b031690565b60035490565b610ab18282611315565b5050565b60065490565b610ac481611347565b50565b610ab1828261138e565b60005b9392505050565b610ac481611438565b610aec61119c565b6001600160a01b03166340c10f1983836040518363ffffffff1660e01b8152600401610b1992919061285c565b602060405180830381600087803b158015610b3357600080fd5b505af1158015610b47573d6000803e3d6000fd5b505050506040513d601f19601f82011682018060405250610b6b91908101906125d5565b505050565b601290565b610b6b8383838080601f01602080910402602001604051908101604052809392919081815260200183838082843760009201919091525061145192505050565b6001600160a01b03166000908152600e602052604090206003015490565b6001600160a01b03166000908152600e6020526040902054151590565b610b6b83838361146c565b6001600160a01b038082166000908152600e60209081526040808320938616835260049093019052205460ff1692915050565b610c6f848484848080601f01602080910402602001604051908101604052809392919081815260200183838082843760009201919091525061149c92505050565b50505050565b610ab1816114ed565b60045490565b6000828152600d60205260408120600301805483908110610ca157fe5b9060005260206000200154905092915050565b6000610cbe6122bc565b610cc6611534565b9050610cd181611563565b91505090565b6001600160a01b03166000908152600c602052604090206004015490565b7f360894a13ba1a3210667c828492db98dca3e2076cc3735a920a3ca505d382bbc5490565b610ac481611585565b610ab1828261160c565b6001600160a01b03166000908152600e602052604090206002015490565b6000908152600d602052604090206003015490565b610b6b83838361171d565b6001600160a01b03166000908152600c602052604090206001015490565b610d916117c4565b565b610b6b8383838080601f0160208091040260200160405190810160405280939291908181526020018383808284376000920191909152506117eb92505050565b6000610ddd611806565b90911115919050565b610c6f848484848080601f01602080910402602001604051908101604052809392919081815260200183838082843760009201919091525061180b92505050565b600a546001600160a01b031690565b600080610e41610aa1565b905080610e52576000915050610a6f565b610ad481610e76610e6286610d6b565b610e6a610c7e565b9063ffffffff61185c16565b9063ffffffff61189f16565b610b6b8383836118e1565b6001600160a01b03166000908152600c602052604090205490565b610ac48161192b565b60025490565b604080518082019091526005815264455448435360d81b602082015290565b6000610ee0610eb1565b6001600160a01b0383166000908152600c60205260409020600501541115610f0a57506002610a6f565b6001600160a01b0382166000908152600c6020526040902060040154610f2e610eb1565b1015610a0a576001610a0d565b60085490565b610b6b8383838080601f01602080910402602001604051908101604052809392919081815260200183838082843760009201919091525061194492505050565b6001600160a01b03166000908152600c602052604090206005015490565b610ac481607861195f565b6001600160a01b039182166000908152600c602090815260408083209390941682526003909201909152205490565b600091909155600155565b6000610a0d610ff283610bb5565b610ffb84610d2d565b9063ffffffff61198e16565b600061109861101461128c565b61101c61119c565b6001600160a01b03166318160ddd6040518163ffffffff1660e01b815260040160206040518083038186803b15801561105457600080fd5b505afa158015611068573d6000803e3d6000fd5b505050506040513d601f19601f8201168201806040525061108c9190810190612611565b9063ffffffff6119b316565b905090565b610ac4816119f5565b610ac481611a1c565b610c6f848484848080601f016020809104026020016040519081016040528093929190818152602001838380828437600092019190915250611a5f92505050565b610ab18282611b0a565b610ab18282611bb2565b610ab1611112826064611c0e565b611c3d565b610c6f848484848080601f016020809104026020016040519081016040528093929190818152602001838380828437600092019190915250611d1792505050565b600061116382611201565b61116f57506000610a0d565b506001600160a01b03919091166000908152600c6020908152604080832093835260029093019052205490565b6009546001600160a01b031690565b610ab18282611d76565b610a5585858585858080601f016020809104026020016040519081016040528093929190818152602001838380828437600092019190915250611dd692505050565b610ab18282611e81565b6000908152600d602052604090206001015490565b610ab18282611f2b565b60055490565b6001600160a01b03166000908152600e602052604090206005015460ff1690565b610ac481611f7a565b610ab18282611f93565b600f55565b6001600160a01b03166000908152600e602052604090205490565b610d91611fbf565b610ab18282611fd8565b60075490565b6000908152600d602052604090205490565b6001600160a01b038085166000908152600c6020908152604080832093871683526003909301905220546112df90838363ffffffff61202716565b6001600160a01b039485166000908152600c60209081526040808320969097168252600390950190945293909220929092555050565b6000828152600d6020908152604080832060020184905592825291812060030180546001810182559082529190200155565b611386816040518060400160405280601c81526020017f436f6d7074726f6c6c65723a206e6f7420656e6f7567682064656274000000008152506117eb565b610ac4612053565b61139661119c565b6001600160a01b03166340c10f1983836040518363ffffffff1660e01b81526004016113c392919061285c565b602060405180830381600087803b1580156113dd57600080fd5b505af11580156113f1573d6000803e3d6000fd5b505050506040513d601f19601f8201168201806040525061141591908101906125d5565b50611421610717610eb1565b6114305761142e816114ed565b505b610ab1612053565b60045461144b908263ffffffff61198e16565b60045550565b60065461146590838363ffffffff61202716565b6006555050565b6001600160a01b039283166000908152600c60209081526040808320949095168252600390930190925291902055565b6001600160a01b0383166000908152600e60205260409020600301546114c990838363ffffffff61202716565b6001600160a01b039093166000908152600e60205260409020600301929092555050565b60006114f88261192b565b6000611505611112612126565b905061150f612053565b82811161152b57611526838263ffffffff6119b316565b610ad4565b50600092915050565b61153c6122bc565b6040518060600160405280606a8152602001635ffb1dce8152602001610e10815250905090565b6000610a0d8260000151610ffb8460400151610e76866020015161108c612148565b61158d61119c565b6001600160a01b03166342966c68826040518263ffffffff1660e01b81526004016115b891906128d2565b600060405180830381600087803b1580156115d257600080fd5b505af11580156115e6573d6000803e3d6000fd5b50505050611386816040518060600160405280602a81526020016129e9602a9139611451565b61161461119c565b6001600160a01b03166323b872dd8330846040518463ffffffff1660e01b815260040161164393929190612834565b602060405180830381600087803b15801561165d57600080fd5b505af1158015611671573d6000803e3d6000fd5b505050506040513d601f19601f8201168201806040525061169591908101906125d5565b5061169e61119c565b6001600160a01b03166342966c68826040518263ffffffff1660e01b81526004016116c991906128d2565b600060405180830381600087803b1580156116e357600080fd5b505af11580156116f7573d6000803e3d6000fd5b50505050611430816040518060600160405280602881526020016129c1602891396117eb565b6001600160a01b0383166000908152600c60209081526040808320858452600201909152902054611754908263ffffffff61198e16565b6001600160a01b0384166000908152600c60209081526040808320868452600201825280832093909355600d90522060010154611797908263ffffffff61198e16565b6000838152600d60205260409020600101556008546117bc908263ffffffff61198e16565b600855505050565b6117cc610aa1565b600d60006117d8610eb1565b8152602081019190915260400160002055565b6007546117ff90838363ffffffff61202716565b6007555050565b605a90565b6001600160a01b0383166000908152600e602052604090206002015461183890838363ffffffff61202716565b6001600160a01b039093166000908152600e60205260409020600201929092555050565b60008261186b57506000610a0d565b8282028284828161187857fe5b0414610ad45760405162461bcd60e51b8152600401611896906128c2565b60405180910390fd5b6000610ad483836040518060400160405280601a81526020017f536166654d6174683a206469766973696f6e206279207a65726f00000000000081525061214e565b6001600160a01b038083166000908152600e6020908152604080832093871683526004909301905220805482919060ff1916600183600281111561192157fe5b0217905550505050565b60075461193e908263ffffffff61198e16565b60075550565b60045461195890838363ffffffff61202716565b6004555050565b61196b81610ffb610eb1565b6001600160a01b039092166000908152600c602052604090206004019190915550565b600082820183811015610ad45760405162461bcd60e51b8152600401611896906128b2565b6000610ad483836040518060400160405280601e81526020017f536166654d6174683a207375627472616374696f6e206f766572666c6f770000815250612027565b6001600160a01b03166000908152600e60205260409020600501805460ff19166001179055565b6000611a2782611201565b905080611a345750610ac4565b600854611a47908263ffffffff6119b316565b600855506000908152600d6020526040812060010155565b6001600160a01b0383166000908152600c6020526040902060010154611a8c90838363ffffffff61202716565b6001600160a01b0384166000908152600c6020526040902060010155600354611abc90838363ffffffff61202716565b6003556040516000906001600160a01b038516907fddf252ad1be2c89b69c2b068fc378daa952ba7f163c4a11628f55a4df523b3ef90611afd9086906128d2565b60405180910390a3505050565b6001600160a01b0382166000908152600c6020526040902060010154611b36908263ffffffff61198e16565b6001600160a01b0383166000908152600c6020526040902060010155600354611b65908263ffffffff61198e16565b6003556040516001600160a01b038316906000907fddf252ad1be2c89b69c2b068fc378daa952ba7f163c4a11628f55a4df523b3ef90611ba69085906128d2565b60405180910390a35050565b6001600160a01b0382166000908152600c6020526040902054611bdb908263ffffffff61198e16565b6001600160a01b0383166000908152600c6020526040902055600554611c07908263ffffffff61198e16565b6005555050565b611c166122dd565b6040518060200160405280611c3485670de0b6b3a764000086612185565b90529392505050565b600080611cd0611ccb611c4e61119c565b6001600160a01b03166318160ddd6040518163ffffffff1660e01b815260040160206040518083038186803b158015611c8657600080fd5b505afa158015611c9a573d6000803e3d6000fd5b505050506040513d601f19601f82011682018060405250611cbe9190810190612611565b859063ffffffff6121a316565b6121ca565b90506000611cdc61128c565b905081811115611d0d576000611cf8828463ffffffff6119b316565b9050611d0381611347565b9250610a6f915050565b5060009392505050565b6001600160a01b0383166000908152600c6020526040902054611d4190838363ffffffff61202716565b6001600160a01b0384166000908152600c6020526040902055600554611d6e90838363ffffffff61202716565b600555505050565b6001600160a01b0382166000908152600c602052604081206005015490611da8611d9f84610a74565b610ffb8561125f565b905081811115610c6f576001600160a01b0384166000908152600c6020526040902060050181905550505050565b6001600160a01b0384166000908152600c60209081526040808320868452600201909152902054611e0e90838363ffffffff61202716565b6001600160a01b0385166000908152600c60209081526040808320878452600201825280832093909355600d90522060010154611e5290838363ffffffff61202716565b6000848152600d6020526040902060010155600854611e7890838363ffffffff61202716565b60085550505050565b611e8961119c565b6001600160a01b031663a9059cbb83836040518363ffffffff1660e01b8152600401611eb692919061285c565b602060405180830381600087803b158015611ed057600080fd5b505af1158015611ee4573d6000803e3d6000fd5b505050506040513d601f19601f82011682018060405250611f0891908101906125d5565b50611430816040518060600160405280602a81526020016129e9602a9139611451565b6001600160a01b0382166000908152600e6020526040902060030154611f57908263ffffffff61198e16565b6001600160a01b039092166000908152600e602052604090206003019190915550565b600654611f8d908263ffffffff61198e16565b60065550565b611f9b610eb1565b6001600160a01b039092166000908152600e60205260409020918255600190910155565b600254611fd390600163ffffffff61198e16565b600255565b6001600160a01b0382166000908152600e6020526040902060020154612004908263ffffffff61198e16565b6001600160a01b039092166000908152600e602052604090206002019190915550565b6000818484111561204b5760405162461bcd60e51b815260040161189691906128a1565b505050900390565b610d91612074612061610ab5565b610ffb61206c611220565b610ffb610c7e565b61207c61119c565b6001600160a01b03166370a08231306040518263ffffffff1660e01b81526004016120a79190612826565b60206040518083038186803b1580156120bf57600080fd5b505afa1580156120d3573d6000803e3d6000fd5b505050506040513d601f19601f820116820180604052506120f79190810190612611565b10156a21b7b6b83a3937b63632b960a91b74496e636f6e73697374656e742062616c616e63657360581b6121e7565b61212e6122dd565b5060408051602081019091526702c68af0bb140000815290565b600f5490565b6000818361216f5760405162461bcd60e51b815260040161189691906128a1565b50600083858161217b57fe5b0495945050505050565b600061219b82610e76868663ffffffff61185c16565b949350505050565b6121ab6122dd565b604080516020810190915283518190611c34908563ffffffff61185c16565b8051600090610a0d90670de0b6b3a764000063ffffffff61189f16565b82610b6b576121f58261223c565b6101d160f51b6122048361223c565b604051602001612216939291906127f5565b60408051601f198184030181529082905262461bcd60e51b8252611896916004016128a1565b6060808260405160200161225091906127e0565b60408051601f19818403018152919052905060205b80156122a55781516000199091019082908290811061228057fe5b01602001516001600160f81b031916156122a05760010181529050610a6f565b612265565b505060408051600081526020810190915292915050565b60405180606001604052806000815260200160008152602001600081525090565b6040518060200160405280600081525090565b8035610a0d8161298d565b8051610a0d816129a1565b8035610a0d816129aa565b60008083601f84011261232357600080fd5b50813567ffffffffffffffff81111561233b57600080fd5b60208301915083600182028301111561235357600080fd5b9250929050565b8035610a0d816129b7565b8051610a0d816129b7565b60006020828403121561238257600080fd5b600061219b84846122f0565b600080604083850312156123a157600080fd5b60006123ad85856122f0565b92505060206123be858286016122f0565b9150509250929050565b6000806000606084860312156123dd57600080fd5b60006123e986866122f0565b93505060206123fa868287016122f0565b925050604061240b86828701612306565b9150509250925092565b60008060006060848603121561242a57600080fd5b600061243686866122f0565b9350506020612447868287016122f0565b925050604061240b8682870161235a565b60008060008060006080868803121561247057600080fd5b600061247c88886122f0565b955050602061248d888289016122f0565b945050604061249e8882890161235a565b935050606086013567ffffffffffffffff8111156124bb57600080fd5b6124c788828901612311565b92509250509295509295909350565b600080604083850312156124e957600080fd5b60006124f585856122f0565b92505060206123be8582860161235a565b6000806000806060858703121561251c57600080fd5b600061252887876122f0565b94505060206125398782880161235a565b935050604085013567ffffffffffffffff81111561255657600080fd5b61256287828801612311565b95989497509550505050565b60008060006060848603121561258357600080fd5b600061258f86866122f0565b93505060206124478682870161235a565b6000806000806000608086880312156125b857600080fd5b60006125c488886122f0565b955050602061248d8882890161235a565b6000602082840312156125e757600080fd5b600061219b84846122fb565b60006020828403121561260557600080fd5b600061219b848461235a565b60006020828403121561262357600080fd5b600061219b8484612365565b60008060006040848603121561264457600080fd5b6000612650868661235a565b935050602084013567ffffffffffffffff81111561266d57600080fd5b61267986828701612311565b92509250509250925092565b6000806040838503121561269857600080fd5b60006124f5858561235a565b6126ad816128fb565b82525050565b6126ad81612906565b6126ad6126c88261290b565b612918565b6126ad6126c882612918565b60006126e4826128ee565b6126ee8185610a6f565b93506126fe81856020860161294d565b9290920192915050565b6126ad81612937565b6126ad81612942565b6000612725826128ee565b61272f81856128f2565b935061273f81856020860161294d565b61274881612979565b9093019392505050565b600061275f601b836128f2565b7f536166654d6174683a206164646974696f6e206f766572666c6f770000000000815260200192915050565b60006127986021836128f2565b7f536166654d6174683a206d756c7469706c69636174696f6e206f766572666c6f8152607760f81b602082015260400192915050565b6126ad81612918565b6126ad81612931565b60006127ec82846126cd565b50602001919050565b600061280182866126d9565b915061280d82856126bc565b60028201915061281d82846126d9565b95945050505050565b60208101610a0d82846126a4565b6060810161284282866126a4565b61284f60208301856126a4565b61219b60408301846127ce565b6040810161286a82856126a4565b610ad460208301846127ce565b60208101610a0d82846126b3565b60208101610a0d8284612708565b60208101610a0d8284612711565b60208082528101610ad4818461271a565b60208082528101610a0d81612752565b60208082528101610a0d8161278b565b60208101610a0d82846127ce565b60208101610a0d82846127d7565b5190565b90815260200190565b6000610a0d82612925565b151590565b6001600160f01b03191690565b90565b80610a6f81612983565b6001600160a01b031690565b60ff1690565b6000610a0d826128fb565b6000610a0d8261291b565b60005b83811015612968578181015183820152602001612950565b83811115610c6f5750506000910152565b601f01601f191690565b60038110610ac457fe5b612996816128fb565b8114610ac457600080fd5b61299681612906565b60038110610ac457600080fd5b6129968161291856fe436f6d7074726f6c6c65723a206e6f7420656e6f756768206f75747374616e64696e672064656274436f6d7074726f6c6c65723a206e6f7420656e6f7567682072656465656d61626c652062616c616e6365a365627a7a72315820d0f9f6232f1f052f27c14be094ff3b95b309b1742eb35da2c7cfb540b84c8b316c6578706572696d656e74616cf564736f6c6343000511004060806040523480156200001157600080fd5b5060405180604001604052806005815260200164457468696360d81b815250604051806040016040528060048152602001634554484360e01b815250601262000072620000636200010d60201b60201c565b6001600160e01b036200011216565b82516200008790600190602086019062000307565b5081516200009d90600290602085019062000307565b506003805460ff191660ff9290921691909117905550620001049050620000c362000164565b604051806040016040528060018152602001603160f81b815250620000f2620001fd60201b620016341760201c565b306200020260201b620016391760201c565b6007556200045d565b335b90565b6200012d8160006200025960201b62000d7e1790919060201c565b6040516001600160a01b038216907f6ae172837ea30b801fbfcdd4108aa1d5bf8ff775444fd70256b44e6bf3dfc3f690600090a250565b60018054604080516020601f60026000196101008789161502019095169490940493840181900481028201810190925282815260609390929091830182828015620001f35780601f10620001c757610100808354040283529160200191620001f3565b820191906000526020600020905b815481529060010190602001808311620001d557829003601f168201915b5050505050905090565b602a90565b8351602094850120835193850193909320604080517f8b73c3c69bb8fe3d512ecc4cf759cc79239f7b179b0ffacaa9a75d522b39400f815295860194909452928401929092526060830152608082015260a0902090565b6200026e82826001600160e01b03620002bc16565b15620002975760405162461bcd60e51b81526004016200028e906200042a565b60405180910390fd5b6001600160a01b0316600090815260209190915260409020805460ff19166001179055565b60006001600160a01b038216620002e75760405162461bcd60e51b81526004016200028e9062000442565b506001600160a01b03166000908152602091909152604090205460ff1690565b828054600181600116156101000203166002900490600052602060002090601f016020900481019282601f106200034a57805160ff19168380011785556200037a565b828001600101855582156200037a579182015b828111156200037a5782518255916020019190600101906200035d565b50620003889291506200038c565b5090565b6200010f91905b8082111562000388576000815560010162000393565b6000620003b8601f8362000454565b7f526f6c65733a206163636f756e7420616c72656164792068617320726f6c6500815260200192915050565b6000620003f360228362000454565b7f526f6c65733a206163636f756e7420697320746865207a65726f206164647265815261737360f01b602082015260400192915050565b602080825281016200043c81620003a9565b92915050565b602080825281016200043c81620003e4565b90815260200190565b61178c806200046d6000396000f3fe608060405234801561001057600080fd5b506004361061012c5760003560e01c806395d89b41116100ad578063aa271e1a11610071578063aa271e1a14610256578063d505accf14610269578063dab400f31461027c578063dd62ed3e14610284578063e879c19f146102975761012c565b806395d89b411461020d578063983b2d56146102155780639865027514610228578063a457c2d714610230578063a9059cbb146102435761012c565b806339509351116100f457806339509351146101ac57806340c10f19146101bf57806342966c68146101d257806370a08231146101e757806379cc6790146101fa5761012c565b806306fdde0314610131578063095ea7b31461014f57806318160ddd1461016f57806323b872dd14610184578063313ce56714610197575b600080fd5b61013961029f565b60405161014691906114c6565b60405180910390f35b61016261015d366004610ffc565b610334565b604051610146919061141b565b610177610352565b6040516101469190611429565b610162610192366004610f13565b610358565b61019f6103ca565b6040516101469190611587565b6101626101ba366004610ffc565b6103d3565b6101626101cd366004610ffc565b610427565b6101e56101e036600461102c565b610463565b005b6101776101f5366004610eb3565b610477565b6101e5610208366004610ffc565b610496565b6101396104a4565b6101e5610223366004610eb3565b610502565b6101e5610532565b61016261023e366004610ffc565b610544565b610162610251366004610ffc565b6105b2565b610162610264366004610eb3565b6105c6565b6101e5610277366004610f60565b6105d8565b61017761075f565b610177610292366004610ed9565b610765565b610177610790565b60018054604080516020601f6002600019610100878916150201909516949094049384018190048102820181019092528281526060939092909183018282801561032a5780601f106102ff5761010080835404028352916020019161032a565b820191906000526020600020905b81548152906001019060200180831161030d57829003601f168201915b5050505050905090565b60006103486103416107b4565b84846107b8565b5060015b92915050565b60065490565b600061036584848461086c565b600019610374856102926107b4565b146103c0576103c0846103856107b4565b6103bb856040518060600160405280602881526020016116fd602891396103ae8a6102926107b4565b919063ffffffff61098216565b6107b8565b5060019392505050565b60035460ff1690565b60006103486103e06107b4565b846103bb85600560006103f16107b4565b6001600160a01b03908116825260208083019390935260409182016000908120918c16815292529020549063ffffffff6109ae16565b60006104346102646107b4565b6104595760405162461bcd60e51b815260040161045090611517565b60405180910390fd5b61034883836109da565b61047461046e6107b4565b82610a9a565b50565b6001600160a01b0381166000908152600460205260409020545b919050565b6104a08282610b70565b5050565b60028054604080516020601f600019610100600187161502019094168590049384018190048102820181019092528281526060939092909183018282801561032a5780601f106102ff5761010080835404028352916020019161032a565b61050d6102646107b4565b6105295760405162461bcd60e51b815260040161045090611517565b61047481610beb565b61054261053d6107b4565b610c33565b565b60006103486105516107b4565b846103bb85604051806060016040528060258152602001611725602591396005600061057b6107b4565b6001600160a01b03908116825260208083019390935260409182016000908120918d1681529252902054919063ffffffff61098216565b60006103486105bf6107b4565b848461086c565b600061034c818363ffffffff610c7b16565b6007546001600160a01b03881660009081526008602090815260408083208054600181019091559051929361065a93909261063f927f6e71edae12b1b97f4d1f60370fef10105fa2faae0126114a169c64845d6126c9928e928e928e9290918e9101611437565b60405160208183030381529060405280519060200120610cc3565b90506000600182868686604051600081526020016040526040516106819493929190611491565b6020604051602081039080840390855afa1580156106a3573d6000803e3d6000fd5b5050506020604051035190506106f0896001600160a01b0316826001600160a01b0316146a5065726d69747461626c6560a81b70496e76616c6964207369676e617475726560781b610ce2565b6107236001600160a01b03821615156a5065726d69747461626c6560a81b6b5a65726f206164647265737360a01b610ce2565b610749864211156a5065726d69747461626c6560a81b66115e1c1a5c995960ca1b610ce2565b6107548989896107b8565b505050505050505050565b60075481565b6001600160a01b03918216600090815260056020908152604080832093909416825291909152205490565b7f6e71edae12b1b97f4d1f60370fef10105fa2faae0126114a169c64845d6126c981565b3390565b6001600160a01b0383166107de5760405162461bcd60e51b815260040161045090611567565b6001600160a01b0382166108045760405162461bcd60e51b8152600401610450906114f7565b6001600160a01b0380841660008181526005602090815260408083209487168084529490915290819020849055517f8c5be1e5ebec7d5bd14f71427d1e84f3dd0314c0f7b2291e5b200ac8c7c3b9259061085f908590611429565b60405180910390a3505050565b6001600160a01b0383166108925760405162461bcd60e51b815260040161045090611557565b6001600160a01b0382166108b85760405162461bcd60e51b8152600401610450906114d7565b6108fb816040518060600160405280602681526020016116b3602691396001600160a01b038616600090815260046020526040902054919063ffffffff61098216565b6001600160a01b038085166000908152600460205260408082209390935590841681522054610930908263ffffffff6109ae16565b6001600160a01b0380841660008181526004602052604090819020939093559151908516907fddf252ad1be2c89b69c2b068fc378daa952ba7f163c4a11628f55a4df523b3ef9061085f908590611429565b600081848411156109a65760405162461bcd60e51b815260040161045091906114c6565b505050900390565b6000828201838110156109d35760405162461bcd60e51b815260040161045090611507565b9392505050565b6001600160a01b038216610a005760405162461bcd60e51b815260040161045090611577565b600654610a13908263ffffffff6109ae16565b6006556001600160a01b038216600090815260046020526040902054610a3f908263ffffffff6109ae16565b6001600160a01b0383166000818152600460205260408082209390935591519091907fddf252ad1be2c89b69c2b068fc378daa952ba7f163c4a11628f55a4df523b3ef90610a8e908590611429565b60405180910390a35050565b6001600160a01b038216610ac05760405162461bcd60e51b815260040161045090611547565b610b0381604051806060016040528060228152602001611691602291396001600160a01b038516600090815260046020526040902054919063ffffffff61098216565b6001600160a01b038316600090815260046020526040902055600654610b2f908263ffffffff610d3c16565b6006556040516000906001600160a01b038416907fddf252ad1be2c89b69c2b068fc378daa952ba7f163c4a11628f55a4df523b3ef90610a8e908590611429565b610b7a8282610a9a565b6104a082610b866107b4565b6103bb846040518060600160405280602481526020016116d9602491396001600160a01b038816600090815260056020526040812090610bc46107b4565b6001600160a01b03168152602081019190915260400160002054919063ffffffff61098216565b610bfc60008263ffffffff610d7e16565b6040516001600160a01b038216907f6ae172837ea30b801fbfcdd4108aa1d5bf8ff775444fd70256b44e6bf3dfc3f690600090a250565b610c4460008263ffffffff610dca16565b6040516001600160a01b038216907fe94479a9f7e1952cc78f2d6baab678adc1b772d936c6583def489e524cb6669290600090a250565b60006001600160a01b038216610ca35760405162461bcd60e51b815260040161045090611537565b506001600160a01b03166000908152602091909152604090205460ff1690565b60405161190160f01b8152600281019290925260228201526042902090565b82610d3757610cf082610e12565b6101d160f51b610cff83610e12565b604051602001610d11939291906113ea565b60408051601f198184030181529082905262461bcd60e51b8252610450916004016114c6565b505050565b60006109d383836040518060400160405280601e81526020017f536166654d6174683a207375627472616374696f6e206f766572666c6f770000815250610982565b610d888282610c7b565b15610da55760405162461bcd60e51b8152600401610450906114e7565b6001600160a01b0316600090815260209190915260409020805460ff19166001179055565b610dd48282610c7b565b610df05760405162461bcd60e51b815260040161045090611527565b6001600160a01b0316600090815260209190915260409020805460ff19169055565b60608082604051602001610e2691906113d5565b60408051601f19818403018152919052905060205b8015610e7b57815160001990910190829082908110610e5657fe5b01602001516001600160f81b03191615610e765760010181529050610491565b610e3b565b505060408051600081526020810190915292915050565b803561034c8161160e565b803561034c81611622565b803561034c8161162b565b600060208284031215610ec557600080fd5b6000610ed18484610e92565b949350505050565b60008060408385031215610eec57600080fd5b6000610ef88585610e92565b9250506020610f0985828601610e92565b9150509250929050565b600080600060608486031215610f2857600080fd5b6000610f348686610e92565b9350506020610f4586828701610e92565b9250506040610f5686828701610e9d565b9150509250925092565b600080600080600080600060e0888a031215610f7b57600080fd5b6000610f878a8a610e92565b9750506020610f988a828b01610e92565b9650506040610fa98a828b01610e9d565b9550506060610fba8a828b01610e9d565b9450506080610fcb8a828b01610ea8565b93505060a0610fdc8a828b01610e9d565b92505060c0610fed8a828b01610e9d565b91505092959891949750929550565b6000806040838503121561100f57600080fd5b600061101b8585610e92565b9250506020610f0985828601610e9d565b60006020828403121561103e57600080fd5b6000610ed18484610e9d565b611053816115a2565b82525050565b611053816115ad565b61105361106e826115b2565b6115bf565b611053816115bf565b61105361106e826115bf565b600061109382611595565b61109d8185610491565b93506110ad8185602086016115d4565b9290920192915050565b60006110c282611595565b6110cc8185611599565b93506110dc8185602086016115d4565b6110e581611604565b9093019392505050565b60006110fc602383611599565b7f45524332303a207472616e7366657220746f20746865207a65726f206164647281526265737360e81b602082015260400192915050565b6000611141601f83611599565b7f526f6c65733a206163636f756e7420616c72656164792068617320726f6c6500815260200192915050565b600061117a602283611599565b7f45524332303a20617070726f766520746f20746865207a65726f206164647265815261737360f01b602082015260400192915050565b60006111be601b83611599565b7f536166654d6174683a206164646974696f6e206f766572666c6f770000000000815260200192915050565b60006111f7603083611599565b7f4d696e746572526f6c653a2063616c6c657220646f6573206e6f74206861766581526f20746865204d696e74657220726f6c6560801b602082015260400192915050565b6000611249602183611599565b7f526f6c65733a206163636f756e7420646f6573206e6f74206861766520726f6c8152606560f81b602082015260400192915050565b600061128c602283611599565b7f526f6c65733a206163636f756e7420697320746865207a65726f206164647265815261737360f01b602082015260400192915050565b60006112d0602183611599565b7f45524332303a206275726e2066726f6d20746865207a65726f206164647265738152607360f81b602082015260400192915050565b6000611313602583611599565b7f45524332303a207472616e736665722066726f6d20746865207a65726f206164815264647265737360d81b602082015260400192915050565b600061135a602483611599565b7f45524332303a20617070726f76652066726f6d20746865207a65726f206164648152637265737360e01b602082015260400192915050565b60006113a0601f83611599565b7f45524332303a206d696e7420746f20746865207a65726f206164647265737300815260200192915050565b611053816115ce565b60006113e1828461107c565b50602001919050565b60006113f68286611088565b91506114028285611062565b6002820191506114128284611088565b95945050505050565b6020810161034c8284611059565b6020810161034c8284611073565b60c081016114458289611073565b611452602083018861104a565b61145f604083018761104a565b61146c6060830186611073565b6114796080830185611073565b61148660a0830184611073565b979650505050505050565b6080810161149f8287611073565b6114ac60208301866113cc565b6114b96040830185611073565b6114126060830184611073565b602080825281016109d381846110b7565b6020808252810161034c816110ef565b6020808252810161034c81611134565b6020808252810161034c8161116d565b6020808252810161034c816111b1565b6020808252810161034c816111ea565b6020808252810161034c8161123c565b6020808252810161034c8161127f565b6020808252810161034c816112c3565b6020808252810161034c81611306565b6020808252810161034c8161134d565b6020808252810161034c81611393565b6020810161034c82846113cc565b5190565b90815260200190565b600061034c826115c2565b151590565b6001600160f01b03191690565b90565b6001600160a01b031690565b60ff1690565b60005b838110156115ef5781810151838201526020016115d7565b838111156115fe576000848401525b50505050565b601f01601f191690565b611617816115a2565b811461047457600080fd5b611617816115bf565b611617816115ce565b602a90565b8351602094850120835193850193909320604080517f8b73c3c69bb8fe3d512ecc4cf759cc79239f7b179b0ffacaa9a75d522b39400f815295860194909452928401929092526060830152608082015260a090209056fe45524332303a206275726e20616d6f756e7420657863656564732062616c616e636545524332303a207472616e7366657220616d6f756e7420657863656564732062616c616e636545524332303a206275726e20616d6f756e74206578636565647320616c6c6f77616e636545746869633a207472616e7366657220616d6f756e74206578636565647320616c6c6f77616e636545524332303a2064656372656173656420616c6c6f77616e63652062656c6f77207a65726fa365627a7a72315820942211f028568291e67a5cda9d87f19b9dffdf91f3a5f72969294736db56c8846c6578706572696d656e74616cf564736f6c63430005110040",
  "source": "/*\n    Copyright 2021 Ethic Money Devs <devs@ethic.money> and Copyright 2020 Empty Set Squad <emptysetsquad@protonmail.com>\n\n    Licensed under the Apache License, Version 2.0 (the \"License\");\n    you may not use this file except in compliance with the License.\n    You may obtain a copy of the License at\n\n    http://www.apache.org/licenses/LICENSE-2.0\n\n    Unless required by applicable law or agreed to in writing, software\n    distributed under the License is distributed on an \"AS IS\" BASIS,\n    WITHOUT WARRANTIES OR CONDITIONS OF ANY KIND, either express or implied.\n    See the License for the specific language governing permissions and\n    limitations under the License.\n*/\n\npragma solidity ^0.5.17;\npragma experimental ABIEncoderV2;\n\nimport \"../dao/Comptroller.sol\";\nimport \"../token/Ethic.sol\";\nimport \"./MockState.sol\";\n\ncontract MockComptroller is Comptroller, MockState {\n    constructor(address pool) public {\n        _state.provider.ethic = new Ethic();\n        _state.provider.pool = pool;\n    }\n\n    function mintToAccountE(address account, uint256 amount) external {\n        super.mintToAccount(account, amount);\n    }\n\n    function burnFromAccountE(address account, uint256 amount) external {\n        super.burnFromAccount(account, amount);\n    }\n\n    function redeemToAccountE(address account, uint256 amount) external {\n        super.redeemToAccount(account, amount);\n    }\n\n    function burnRedeemableE(uint256 amount) external {\n        super.burnRedeemable(amount);\n    }\n\n    function increaseDebtE(uint256 amount) external {\n        super.increaseDebt(amount);\n    }\n\n    function decreaseDebtE(uint256 amount) external {\n        super.decreaseDebt(amount);\n    }\n\n    function resetDebtE(uint256 percent) external {\n        super.resetDebt(Decimal.ratio(percent, 100));\n    }\n\n    /* For testing only */\n    function mintToE(address account, uint256 amount) external {\n        ethic().mint(account, amount);\n    }\n}\n",
  "sourcePath": "/home/ville/projects/ethic/protocol/contracts/mock/MockComptroller.sol",
  "compiler": {
    "name": "solc",
    "version": "0.5.17+commit.d19bba13.Emscripten.clang"
  },
  "schemaVersion": "3.3.2",
  "updatedAt": "2021-02-04T10:39:17.420Z",
  "devdoc": {
    "methods": {}
  },
  "userdoc": {
    "methods": {
      "balanceOfStaged(address)": {
        "notice": "Account"
      },
      "createCandidateE(address,uint256)": {
        "notice": "Governance"
      },
      "epoch()": {
        "notice": "Epoch"
      },
      "ethic()": {
        "notice": "Global"
      },
      "incrementBalanceOfE(address,uint256)": {
        "notice": "Account"
      },
      "incrementTotalBondedE(uint256)": {
        "notice": "Global"
      },
      "name()": {
        "notice": "ERC20 Interface"
      },
      "recordedVote(address,address)": {
        "notice": "Governance"
      },
      "setBlockTimestamp(uint256)": {
        "notice": "Mock"
      },
      "setEpochParamsE(uint256,uint256)": {
        "notice": "Epoch"
      },
      "transfer(address,uint256)": {
        "notice": "ERC20 Interface"
      }
    }
  }
}