{
  "contractName": "MockBonding",
  "abi": [
    {
      "inputs": [],
      "payable": false,
      "stateMutability": "nonpayable",
      "type": "constructor"
    },
    {
      "anonymous": false,
      "inputs": [
        {
          "indexed": true,
          "internalType": "address",
          "name": "account",
          "type": "address"
        },
        {
          "indexed": false,
          "internalType": "uint256",
          "name": "start",
          "type": "uint256"
        },
        {
          "indexed": false,
          "internalType": "uint256",
          "name": "value",
          "type": "uint256"
        },
        {
          "indexed": false,
          "internalType": "uint256",
          "name": "valueUnderlying",
          "type": "uint256"
        }
      ],
      "name": "Bond",
      "type": "event"
    },
    {
      "anonymous": false,
      "inputs": [
        {
          "indexed": true,
          "internalType": "address",
          "name": "account",
          "type": "address"
        },
        {
          "indexed": false,
          "internalType": "uint256",
          "name": "value",
          "type": "uint256"
        }
      ],
      "name": "Deposit",
      "type": "event"
    },
    {
      "anonymous": false,
      "inputs": [
        {
          "indexed": true,
          "internalType": "address",
          "name": "from",
          "type": "address"
        },
        {
          "indexed": true,
          "internalType": "address",
          "name": "to",
          "type": "address"
        },
        {
          "indexed": false,
          "internalType": "uint256",
          "name": "value",
          "type": "uint256"
        }
      ],
      "name": "Transfer",
      "type": "event"
    },
    {
      "anonymous": false,
      "inputs": [
        {
          "indexed": true,
          "internalType": "address",
          "name": "account",
          "type": "address"
        },
        {
          "indexed": false,
          "internalType": "uint256",
          "name": "start",
          "type": "uint256"
        },
        {
          "indexed": false,
          "internalType": "uint256",
          "name": "value",
          "type": "uint256"
        },
        {
          "indexed": false,
          "internalType": "uint256",
          "name": "valueUnderlying",
          "type": "uint256"
        }
      ],
      "name": "Unbond",
      "type": "event"
    },
    {
      "anonymous": false,
      "inputs": [
        {
          "indexed": true,
          "internalType": "address",
          "name": "account",
          "type": "address"
        },
        {
          "indexed": false,
          "internalType": "uint256",
          "name": "value",
          "type": "uint256"
        }
      ],
      "name": "Withdraw",
      "type": "event"
    },
    {
      "constant": true,
      "inputs": [
        {
          "internalType": "address",
          "name": "owner",
          "type": "address"
        },
        {
          "internalType": "address",
          "name": "spender",
          "type": "address"
        }
      ],
      "name": "allowance",
      "outputs": [
        {
          "internalType": "uint256",
          "name": "",
          "type": "uint256"
        }
      ],
      "payable": false,
      "stateMutability": "view",
      "type": "function"
    },
    {
      "constant": true,
      "inputs": [
        {
          "internalType": "address",
          "name": "owner",
          "type": "address"
        },
        {
          "internalType": "address",
          "name": "spender",
          "type": "address"
        }
      ],
      "name": "allowanceCoupons",
      "outputs": [
        {
          "internalType": "uint256",
          "name": "",
          "type": "uint256"
        }
      ],
      "payable": false,
      "stateMutability": "view",
      "type": "function"
    },
    {
      "constant": false,
      "inputs": [
        {
          "internalType": "address",
          "name": "spender",
          "type": "address"
        },
        {
          "internalType": "uint256",
          "name": "amount",
          "type": "uint256"
        }
      ],
      "name": "approve",
      "outputs": [
        {
          "internalType": "bool",
          "name": "",
          "type": "bool"
        }
      ],
      "payable": false,
      "stateMutability": "nonpayable",
      "type": "function"
    },
    {
      "constant": true,
      "inputs": [
        {
          "internalType": "address",
          "name": "candidate",
          "type": "address"
        }
      ],
      "name": "approveFor",
      "outputs": [
        {
          "internalType": "uint256",
          "name": "",
          "type": "uint256"
        }
      ],
      "payable": false,
      "stateMutability": "view",
      "type": "function"
    },
    {
      "constant": true,
      "inputs": [
        {
          "internalType": "address",
          "name": "account",
          "type": "address"
        }
      ],
      "name": "balanceOf",
      "outputs": [
        {
          "internalType": "uint256",
          "name": "",
          "type": "uint256"
        }
      ],
      "payable": false,
      "stateMutability": "view",
      "type": "function"
    },
    {
      "constant": true,
      "inputs": [
        {
          "internalType": "address",
          "name": "account",
          "type": "address"
        }
      ],
      "name": "balanceOfBonded",
      "outputs": [
        {
          "internalType": "uint256",
          "name": "",
          "type": "uint256"
        }
      ],
      "payable": false,
      "stateMutability": "view",
      "type": "function"
    },
    {
      "constant": true,
      "inputs": [
        {
          "internalType": "address",
          "name": "account",
          "type": "address"
        },
        {
          "internalType": "uint256",
          "name": "epoch",
          "type": "uint256"
        }
      ],
      "name": "balanceOfCoupons",
      "outputs": [
        {
          "internalType": "uint256",
          "name": "",
          "type": "uint256"
        }
      ],
      "payable": false,
      "stateMutability": "view",
      "type": "function"
    },
    {
      "constant": true,
      "inputs": [
        {
          "internalType": "address",
          "name": "account",
          "type": "address"
        }
      ],
      "name": "balanceOfStaged",
      "outputs": [
        {
          "internalType": "uint256",
          "name": "",
          "type": "uint256"
        }
      ],
      "payable": false,
      "stateMutability": "view",
      "type": "function"
    },
    {
      "constant": false,
      "inputs": [
        {
          "internalType": "uint256",
          "name": "value",
          "type": "uint256"
        }
      ],
      "name": "bond",
      "outputs": [],
      "payable": false,
      "stateMutability": "nonpayable",
      "type": "function"
    },
    {
      "constant": true,
      "inputs": [
        {
          "internalType": "uint256",
          "name": "epoch",
          "type": "uint256"
        }
      ],
      "name": "bootstrappingAt",
      "outputs": [
        {
          "internalType": "bool",
          "name": "",
          "type": "bool"
        }
      ],
      "payable": false,
      "stateMutability": "view",
      "type": "function"
    },
    {
      "constant": false,
      "inputs": [
        {
          "internalType": "address",
          "name": "account",
          "type": "address"
        },
        {
          "internalType": "uint256",
          "name": "amount",
          "type": "uint256"
        }
      ],
      "name": "burnFromAccountE",
      "outputs": [],
      "payable": false,
      "stateMutability": "nonpayable",
      "type": "function"
    },
    {
      "constant": false,
      "inputs": [
        {
          "internalType": "uint256",
          "name": "amount",
          "type": "uint256"
        }
      ],
      "name": "burnRedeemableE",
      "outputs": [],
      "payable": false,
      "stateMutability": "nonpayable",
      "type": "function"
    },
    {
      "constant": true,
      "inputs": [
        {
          "internalType": "uint256",
          "name": "epoch",
          "type": "uint256"
        }
      ],
      "name": "couponsExpiration",
      "outputs": [
        {
          "internalType": "uint256",
          "name": "",
          "type": "uint256"
        }
      ],
      "payable": false,
      "stateMutability": "view",
      "type": "function"
    },
    {
      "constant": false,
      "inputs": [
        {
          "internalType": "address",
          "name": "candidate",
          "type": "address"
        },
        {
          "internalType": "uint256",
          "name": "period",
          "type": "uint256"
        }
      ],
      "name": "createCandidateE",
      "outputs": [],
      "payable": false,
      "stateMutability": "nonpayable",
      "type": "function"
    },
    {
      "constant": true,
      "inputs": [],
      "name": "decimals",
      "outputs": [
        {
          "internalType": "uint8",
          "name": "",
          "type": "uint8"
        }
      ],
      "payable": false,
      "stateMutability": "view",
      "type": "function"
    },
    {
      "constant": false,
      "inputs": [
        {
          "internalType": "uint256",
          "name": "amount",
          "type": "uint256"
        }
      ],
      "name": "decreaseDebtE",
      "outputs": [],
      "payable": false,
      "stateMutability": "nonpayable",
      "type": "function"
    },
    {
      "constant": false,
      "inputs": [
        {
          "internalType": "address",
          "name": "owner",
          "type": "address"
        },
        {
          "internalType": "address",
          "name": "spender",
          "type": "address"
        },
        {
          "internalType": "uint256",
          "name": "amount",
          "type": "uint256"
        },
        {
          "internalType": "string",
          "name": "reason",
          "type": "string"
        }
      ],
      "name": "decrementAllowanceCouponsE",
      "outputs": [],
      "payable": false,
      "stateMutability": "nonpayable",
      "type": "function"
    },
    {
      "constant": false,
      "inputs": [
        {
          "internalType": "address",
          "name": "candidate",
          "type": "address"
        },
        {
          "internalType": "uint256",
          "name": "amount",
          "type": "uint256"
        },
        {
          "internalType": "string",
          "name": "reason",
          "type": "string"
        }
      ],
      "name": "decrementApproveForE",
      "outputs": [],
      "payable": false,
      "stateMutability": "nonpayable",
      "type": "function"
    },
    {
      "constant": false,
      "inputs": [
        {
          "internalType": "address",
          "name": "account",
          "type": "address"
        },
        {
          "internalType": "uint256",
          "name": "epoch",
          "type": "uint256"
        },
        {
          "internalType": "uint256",
          "name": "amount",
          "type": "uint256"
        },
        {
          "internalType": "string",
          "name": "reason",
          "type": "string"
        }
      ],
      "name": "decrementBalanceOfCouponsE",
      "outputs": [],
      "payable": false,
      "stateMutability": "nonpayable",
      "type": "function"
    },
    {
      "constant": false,
      "inputs": [
        {
          "internalType": "address",
          "name": "account",
          "type": "address"
        },
        {
          "internalType": "uint256",
          "name": "amount",
          "type": "uint256"
        },
        {
          "internalType": "string",
          "name": "reason",
          "type": "string"
        }
      ],
      "name": "decrementBalanceOfE",
      "outputs": [],
      "payable": false,
      "stateMutability": "nonpayable",
      "type": "function"
    },
    {
      "constant": false,
      "inputs": [
        {
          "internalType": "address",
          "name": "account",
          "type": "address"
        },
        {
          "internalType": "uint256",
          "name": "amount",
          "type": "uint256"
        },
        {
          "internalType": "string",
          "name": "reason",
          "type": "string"
        }
      ],
      "name": "decrementBalanceOfStagedE",
      "outputs": [],
      "payable": false,
      "stateMutability": "nonpayable",
      "type": "function"
    },
    {
      "constant": false,
      "inputs": [
        {
          "internalType": "address",
          "name": "candidate",
          "type": "address"
        },
        {
          "internalType": "uint256",
          "name": "amount",
          "type": "uint256"
        },
        {
          "internalType": "string",
          "name": "reason",
          "type": "string"
        }
      ],
      "name": "decrementRejectForE",
      "outputs": [],
      "payable": false,
      "stateMutability": "nonpayable",
      "type": "function"
    },
    {
      "constant": false,
      "inputs": [
        {
          "internalType": "uint256",
          "name": "amount",
          "type": "uint256"
        },
        {
          "internalType": "string",
          "name": "reason",
          "type": "string"
        }
      ],
      "name": "decrementTotalBondedE",
      "outputs": [],
      "payable": false,
      "stateMutability": "nonpayable",
      "type": "function"
    },
    {
      "constant": false,
      "inputs": [
        {
          "internalType": "uint256",
          "name": "amount",
          "type": "uint256"
        },
        {
          "internalType": "string",
          "name": "reason",
          "type": "string"
        }
      ],
      "name": "decrementTotalDebtE",
      "outputs": [],
      "payable": false,
      "stateMutability": "nonpayable",
      "type": "function"
    },
    {
      "constant": false,
      "inputs": [
        {
          "internalType": "uint256",
          "name": "amount",
          "type": "uint256"
        },
        {
          "internalType": "string",
          "name": "reason",
          "type": "string"
        }
      ],
      "name": "decrementTotalRedeemableE",
      "outputs": [],
      "payable": false,
      "stateMutability": "nonpayable",
      "type": "function"
    },
    {
      "constant": false,
      "inputs": [
        {
          "internalType": "uint256",
          "name": "value",
          "type": "uint256"
        }
      ],
      "name": "deposit",
      "outputs": [],
      "payable": false,
      "stateMutability": "nonpayable",
      "type": "function"
    },
    {
      "constant": false,
      "inputs": [
        {
          "internalType": "uint256",
          "name": "epoch",
          "type": "uint256"
        }
      ],
      "name": "eliminateOutstandingCouponsE",
      "outputs": [],
      "payable": false,
      "stateMutability": "nonpayable",
      "type": "function"
    },
    {
      "constant": true,
      "inputs": [],
      "name": "epoch",
      "outputs": [
        {
          "internalType": "uint256",
          "name": "",
          "type": "uint256"
        }
      ],
      "payable": false,
      "stateMutability": "view",
      "type": "function"
    },
    {
      "constant": true,
      "inputs": [],
      "name": "epochTime",
      "outputs": [
        {
          "internalType": "uint256",
          "name": "",
          "type": "uint256"
        }
      ],
      "payable": false,
      "stateMutability": "view",
      "type": "function"
    },
    {
      "constant": true,
      "inputs": [],
      "name": "ethic",
      "outputs": [
        {
          "internalType": "contract IEthic",
          "name": "",
          "type": "address"
        }
      ],
      "payable": false,
      "stateMutability": "view",
      "type": "function"
    },
    {
      "constant": true,
      "inputs": [
        {
          "internalType": "uint256",
          "name": "epoch",
          "type": "uint256"
        }
      ],
      "name": "expiringCoupons",
      "outputs": [
        {
          "internalType": "uint256",
          "name": "",
          "type": "uint256"
        }
      ],
      "payable": false,
      "stateMutability": "view",
      "type": "function"
    },
    {
      "constant": true,
      "inputs": [
        {
          "internalType": "uint256",
          "name": "epoch",
          "type": "uint256"
        },
        {
          "internalType": "uint256",
          "name": "i",
          "type": "uint256"
        }
      ],
      "name": "expiringCouponsAtIndex",
      "outputs": [
        {
          "internalType": "uint256",
          "name": "",
          "type": "uint256"
        }
      ],
      "payable": false,
      "stateMutability": "view",
      "type": "function"
    },
    {
      "constant": true,
      "inputs": [
        {
          "internalType": "address",
          "name": "account",
          "type": "address"
        }
      ],
      "name": "fluidUntil",
      "outputs": [
        {
          "internalType": "uint256",
          "name": "",
          "type": "uint256"
        }
      ],
      "payable": false,
      "stateMutability": "view",
      "type": "function"
    },
    {
      "constant": true,
      "inputs": [],
      "name": "implementation",
      "outputs": [
        {
          "internalType": "address",
          "name": "impl",
          "type": "address"
        }
      ],
      "payable": false,
      "stateMutability": "view",
      "type": "function"
    },
    {
      "constant": false,
      "inputs": [
        {
          "internalType": "uint256",
          "name": "amount",
          "type": "uint256"
        }
      ],
      "name": "increaseDebtE",
      "outputs": [],
      "payable": false,
      "stateMutability": "nonpayable",
      "type": "function"
    },
    {
      "constant": false,
      "inputs": [
        {
          "internalType": "address",
          "name": "candidate",
          "type": "address"
        },
        {
          "internalType": "uint256",
          "name": "amount",
          "type": "uint256"
        }
      ],
      "name": "incrementApproveForE",
      "outputs": [],
      "payable": false,
      "stateMutability": "nonpayable",
      "type": "function"
    },
    {
      "constant": false,
      "inputs": [
        {
          "internalType": "address",
          "name": "account",
          "type": "address"
        },
        {
          "internalType": "uint256",
          "name": "epoch",
          "type": "uint256"
        },
        {
          "internalType": "uint256",
          "name": "amount",
          "type": "uint256"
        }
      ],
      "name": "incrementBalanceOfCouponsE",
      "outputs": [],
      "payable": false,
      "stateMutability": "nonpayable",
      "type": "function"
    },
    {
      "constant": false,
      "inputs": [
        {
          "internalType": "address",
          "name": "account",
          "type": "address"
        },
        {
          "internalType": "uint256",
          "name": "amount",
          "type": "uint256"
        }
      ],
      "name": "incrementBalanceOfE",
      "outputs": [],
      "payable": false,
      "stateMutability": "nonpayable",
      "type": "function"
    },
    {
      "constant": false,
      "inputs": [
        {
          "internalType": "address",
          "name": "account",
          "type": "address"
        },
        {
          "internalType": "uint256",
          "name": "amount",
          "type": "uint256"
        }
      ],
      "name": "incrementBalanceOfStagedE",
      "outputs": [],
      "payable": false,
      "stateMutability": "nonpayable",
      "type": "function"
    },
    {
      "constant": false,
      "inputs": [],
      "name": "incrementEpochE",
      "outputs": [],
      "payable": false,
      "stateMutability": "nonpayable",
      "type": "function"
    },
    {
      "constant": false,
      "inputs": [
        {
          "internalType": "address",
          "name": "candidate",
          "type": "address"
        },
        {
          "internalType": "uint256",
          "name": "amount",
          "type": "uint256"
        }
      ],
      "name": "incrementRejectForE",
      "outputs": [],
      "payable": false,
      "stateMutability": "nonpayable",
      "type": "function"
    },
    {
      "constant": false,
      "inputs": [
        {
          "internalType": "uint256",
          "name": "amount",
          "type": "uint256"
        }
      ],
      "name": "incrementTotalBondedE",
      "outputs": [],
      "payable": false,
      "stateMutability": "nonpayable",
      "type": "function"
    },
    {
      "constant": false,
      "inputs": [
        {
          "internalType": "uint256",
          "name": "amount",
          "type": "uint256"
        }
      ],
      "name": "incrementTotalDebtE",
      "outputs": [],
      "payable": false,
      "stateMutability": "nonpayable",
      "type": "function"
    },
    {
      "constant": false,
      "inputs": [
        {
          "internalType": "uint256",
          "name": "amount",
          "type": "uint256"
        }
      ],
      "name": "incrementTotalRedeemableE",
      "outputs": [],
      "payable": false,
      "stateMutability": "nonpayable",
      "type": "function"
    },
    {
      "constant": false,
      "inputs": [
        {
          "internalType": "uint256",
          "name": "epoch",
          "type": "uint256"
        },
        {
          "internalType": "uint256",
          "name": "expiration",
          "type": "uint256"
        }
      ],
      "name": "initializeCouponsExpirationE",
      "outputs": [],
      "payable": false,
      "stateMutability": "nonpayable",
      "type": "function"
    },
    {
      "constant": false,
      "inputs": [
        {
          "internalType": "address",
          "name": "candidate",
          "type": "address"
        }
      ],
      "name": "initializedE",
      "outputs": [],
      "payable": false,
      "stateMutability": "nonpayable",
      "type": "function"
    },
    {
      "constant": true,
      "inputs": [
        {
          "internalType": "address",
          "name": "candidate",
          "type": "address"
        }
      ],
      "name": "isInitialized",
      "outputs": [
        {
          "internalType": "bool",
          "name": "",
          "type": "bool"
        }
      ],
      "payable": false,
      "stateMutability": "view",
      "type": "function"
    },
    {
      "constant": true,
      "inputs": [
        {
          "internalType": "address",
          "name": "candidate",
          "type": "address"
        }
      ],
      "name": "isNominated",
      "outputs": [
        {
          "internalType": "bool",
          "name": "",
          "type": "bool"
        }
      ],
      "payable": false,
      "stateMutability": "view",
      "type": "function"
    },
    {
      "constant": true,
      "inputs": [
        {
          "internalType": "address",
          "name": "account",
          "type": "address"
        }
      ],
      "name": "lockedUntil",
      "outputs": [
        {
          "internalType": "uint256",
          "name": "",
          "type": "uint256"
        }
      ],
      "payable": false,
      "stateMutability": "view",
      "type": "function"
    },
    {
      "constant": false,
      "inputs": [
        {
          "internalType": "address",
          "name": "account",
          "type": "address"
        },
        {
          "internalType": "uint256",
          "name": "amount",
          "type": "uint256"
        }
      ],
      "name": "mintToAccountE",
      "outputs": [],
      "payable": false,
      "stateMutability": "nonpayable",
      "type": "function"
    },
    {
      "constant": false,
      "inputs": [
        {
          "internalType": "address",
          "name": "account",
          "type": "address"
        },
        {
          "internalType": "uint256",
          "name": "amount",
          "type": "uint256"
        }
      ],
      "name": "mintToE",
      "outputs": [],
      "payable": false,
      "stateMutability": "nonpayable",
      "type": "function"
    },
    {
      "constant": true,
      "inputs": [],
      "name": "name",
      "outputs": [
        {
          "internalType": "string",
          "name": "",
          "type": "string"
        }
      ],
      "payable": false,
      "stateMutability": "view",
      "type": "function"
    },
    {
      "constant": true,
      "inputs": [],
      "name": "oracle",
      "outputs": [
        {
          "internalType": "contract IOracle",
          "name": "",
          "type": "address"
        }
      ],
      "payable": false,
      "stateMutability": "view",
      "type": "function"
    },
    {
      "constant": true,
      "inputs": [
        {
          "internalType": "uint256",
          "name": "epoch",
          "type": "uint256"
        }
      ],
      "name": "outstandingCoupons",
      "outputs": [
        {
          "internalType": "uint256",
          "name": "",
          "type": "uint256"
        }
      ],
      "payable": false,
      "stateMutability": "view",
      "type": "function"
    },
    {
      "constant": true,
      "inputs": [
        {
          "internalType": "address",
          "name": "candidate",
          "type": "address"
        }
      ],
      "name": "periodFor",
      "outputs": [
        {
          "internalType": "uint256",
          "name": "",
          "type": "uint256"
        }
      ],
      "payable": false,
      "stateMutability": "view",
      "type": "function"
    },
    {
      "constant": false,
      "inputs": [
        {
          "internalType": "address",
          "name": "account",
          "type": "address"
        },
        {
          "internalType": "address",
          "name": "candidate",
          "type": "address"
        }
      ],
      "name": "placeLockE",
      "outputs": [],
      "payable": false,
      "stateMutability": "nonpayable",
      "type": "function"
    },
    {
      "constant": true,
      "inputs": [],
      "name": "pool",
      "outputs": [
        {
          "internalType": "address",
          "name": "",
          "type": "address"
        }
      ],
      "payable": false,
      "stateMutability": "view",
      "type": "function"
    },
    {
      "constant": false,
      "inputs": [
        {
          "internalType": "address",
          "name": "account",
          "type": "address"
        },
        {
          "internalType": "address",
          "name": "candidate",
          "type": "address"
        },
        {
          "internalType": "enum Candidate.Vote",
          "name": "vote",
          "type": "uint8"
        }
      ],
      "name": "recordVoteE",
      "outputs": [],
      "payable": false,
      "stateMutability": "nonpayable",
      "type": "function"
    },
    {
      "constant": true,
      "inputs": [
        {
          "internalType": "address",
          "name": "account",
          "type": "address"
        },
        {
          "internalType": "address",
          "name": "candidate",
          "type": "address"
        }
      ],
      "name": "recordedVote",
      "outputs": [
        {
          "internalType": "enum Candidate.Vote",
          "name": "",
          "type": "uint8"
        }
      ],
      "payable": false,
      "stateMutability": "view",
      "type": "function"
    },
    {
      "constant": false,
      "inputs": [
        {
          "internalType": "address",
          "name": "account",
          "type": "address"
        },
        {
          "internalType": "uint256",
          "name": "amount",
          "type": "uint256"
        }
      ],
      "name": "redeemToAccountE",
      "outputs": [],
      "payable": false,
      "stateMutability": "nonpayable",
      "type": "function"
    },
    {
      "constant": true,
      "inputs": [
        {
          "internalType": "address",
          "name": "candidate",
          "type": "address"
        }
      ],
      "name": "rejectFor",
      "outputs": [
        {
          "internalType": "uint256",
          "name": "",
          "type": "uint256"
        }
      ],
      "payable": false,
      "stateMutability": "view",
      "type": "function"
    },
    {
      "constant": false,
      "inputs": [
        {
          "internalType": "uint256",
          "name": "percent",
          "type": "uint256"
        }
      ],
      "name": "resetDebtE",
      "outputs": [],
      "payable": false,
      "stateMutability": "nonpayable",
      "type": "function"
    },
    {
      "constant": false,
      "inputs": [
        {
          "internalType": "uint256",
          "name": "timestamp",
          "type": "uint256"
        }
      ],
      "name": "setBlockTimestamp",
      "outputs": [],
      "payable": false,
      "stateMutability": "nonpayable",
      "type": "function"
    },
    {
      "constant": false,
      "inputs": [
        {
          "internalType": "uint256",
          "name": "start",
          "type": "uint256"
        },
        {
          "internalType": "uint256",
          "name": "period",
          "type": "uint256"
        }
      ],
      "name": "setEpochParamsE",
      "outputs": [],
      "payable": false,
      "stateMutability": "nonpayable",
      "type": "function"
    },
    {
      "constant": false,
      "inputs": [],
      "name": "snapshotTotalBondedE",
      "outputs": [],
      "payable": false,
      "stateMutability": "nonpayable",
      "type": "function"
    },
    {
      "constant": true,
      "inputs": [
        {
          "internalType": "address",
          "name": "candidate",
          "type": "address"
        }
      ],
      "name": "startFor",
      "outputs": [
        {
          "internalType": "uint256",
          "name": "",
          "type": "uint256"
        }
      ],
      "payable": false,
      "stateMutability": "view",
      "type": "function"
    },
    {
      "constant": true,
      "inputs": [
        {
          "internalType": "address",
          "name": "account",
          "type": "address"
        }
      ],
      "name": "statusOf",
      "outputs": [
        {
          "internalType": "enum Account.Status",
          "name": "",
          "type": "uint8"
        }
      ],
      "payable": false,
      "stateMutability": "view",
      "type": "function"
    },
    {
      "constant": true,
      "inputs": [],
      "name": "symbol",
      "outputs": [
        {
          "internalType": "string",
          "name": "",
          "type": "string"
        }
      ],
      "payable": false,
      "stateMutability": "view",
      "type": "function"
    },
    {
      "constant": true,
      "inputs": [],
      "name": "totalBonded",
      "outputs": [
        {
          "internalType": "uint256",
          "name": "",
          "type": "uint256"
        }
      ],
      "payable": false,
      "stateMutability": "view",
      "type": "function"
    },
    {
      "constant": true,
      "inputs": [
        {
          "internalType": "uint256",
          "name": "epoch",
          "type": "uint256"
        }
      ],
      "name": "totalBondedAt",
      "outputs": [
        {
          "internalType": "uint256",
          "name": "",
          "type": "uint256"
        }
      ],
      "payable": false,
      "stateMutability": "view",
      "type": "function"
    },
    {
      "constant": true,
      "inputs": [],
      "name": "totalCoupons",
      "outputs": [
        {
          "internalType": "uint256",
          "name": "",
          "type": "uint256"
        }
      ],
      "payable": false,
      "stateMutability": "view",
      "type": "function"
    },
    {
      "constant": true,
      "inputs": [],
      "name": "totalDebt",
      "outputs": [
        {
          "internalType": "uint256",
          "name": "",
          "type": "uint256"
        }
      ],
      "payable": false,
      "stateMutability": "view",
      "type": "function"
    },
    {
      "constant": true,
      "inputs": [],
      "name": "totalNet",
      "outputs": [
        {
          "internalType": "uint256",
          "name": "",
          "type": "uint256"
        }
      ],
      "payable": false,
      "stateMutability": "view",
      "type": "function"
    },
    {
      "constant": true,
      "inputs": [],
      "name": "totalRedeemable",
      "outputs": [
        {
          "internalType": "uint256",
          "name": "",
          "type": "uint256"
        }
      ],
      "payable": false,
      "stateMutability": "view",
      "type": "function"
    },
    {
      "constant": true,
      "inputs": [],
      "name": "totalStaged",
      "outputs": [
        {
          "internalType": "uint256",
          "name": "",
          "type": "uint256"
        }
      ],
      "payable": false,
      "stateMutability": "view",
      "type": "function"
    },
    {
      "constant": true,
      "inputs": [],
      "name": "totalSupply",
      "outputs": [
        {
          "internalType": "uint256",
          "name": "",
          "type": "uint256"
        }
      ],
      "payable": false,
      "stateMutability": "view",
      "type": "function"
    },
    {
      "constant": false,
      "inputs": [
        {
          "internalType": "address",
          "name": "recipient",
          "type": "address"
        },
        {
          "internalType": "uint256",
          "name": "amount",
          "type": "uint256"
        }
      ],
      "name": "transfer",
      "outputs": [
        {
          "internalType": "bool",
          "name": "",
          "type": "bool"
        }
      ],
      "payable": false,
      "stateMutability": "nonpayable",
      "type": "function"
    },
    {
      "constant": false,
      "inputs": [
        {
          "internalType": "address",
          "name": "sender",
          "type": "address"
        },
        {
          "internalType": "address",
          "name": "recipient",
          "type": "address"
        },
        {
          "internalType": "uint256",
          "name": "amount",
          "type": "uint256"
        }
      ],
      "name": "transferFrom",
      "outputs": [
        {
          "internalType": "bool",
          "name": "",
          "type": "bool"
        }
      ],
      "payable": false,
      "stateMutability": "nonpayable",
      "type": "function"
    },
    {
      "constant": false,
      "inputs": [
        {
          "internalType": "uint256",
          "name": "value",
          "type": "uint256"
        }
      ],
      "name": "unbond",
      "outputs": [],
      "payable": false,
      "stateMutability": "nonpayable",
      "type": "function"
    },
    {
      "constant": false,
      "inputs": [
        {
          "internalType": "uint256",
          "name": "value",
          "type": "uint256"
        }
      ],
      "name": "unbondUnderlying",
      "outputs": [],
      "payable": false,
      "stateMutability": "nonpayable",
      "type": "function"
    },
    {
      "constant": false,
      "inputs": [
        {
          "internalType": "address",
          "name": "account",
          "type": "address"
        }
      ],
      "name": "unfreezeE",
      "outputs": [],
      "payable": false,
      "stateMutability": "nonpayable",
      "type": "function"
    },
    {
      "constant": false,
      "inputs": [
        {
          "internalType": "address",
          "name": "owner",
          "type": "address"
        },
        {
          "internalType": "address",
          "name": "spender",
          "type": "address"
        },
        {
          "internalType": "uint256",
          "name": "amount",
          "type": "uint256"
        }
      ],
      "name": "updateAllowanceCouponsE",
      "outputs": [],
      "payable": false,
      "stateMutability": "nonpayable",
      "type": "function"
    },
    {
      "constant": true,
      "inputs": [
        {
          "internalType": "address",
          "name": "candidate",
          "type": "address"
        }
      ],
      "name": "votesFor",
      "outputs": [
        {
          "internalType": "uint256",
          "name": "",
          "type": "uint256"
        }
      ],
      "payable": false,
      "stateMutability": "view",
      "type": "function"
    },
    {
      "constant": false,
      "inputs": [
        {
          "internalType": "uint256",
          "name": "value",
          "type": "uint256"
        }
      ],
      "name": "withdraw",
      "outputs": [],
      "payable": false,
      "stateMutability": "nonpayable",
      "type": "function"
    },
    {
      "constant": false,
      "inputs": [],
      "name": "stepE",
      "outputs": [],
      "payable": false,
      "stateMutability": "nonpayable",
      "type": "function"
    }
  ],
  "bytecode": "0x60806040523480156200001157600080fd5b5042600f5560405160009062000027906200007a565b604051809103906000f08015801562000044573d6000803e3d6000fd5b50600980546001600160a01b039283166001600160a01b031991821617909155600b805493909216921691909117905562000088565b611bf9806200315b83390190565b6130c380620000986000396000f3fe608060405234801561001057600080fd5b50600436106104b75760003560e01c80638413e52a11610278578063b16144a31161015c578063d60b347f116100ce578063e0abdf6611610092578063e0abdf6614610a2c578063f1b7cf4914610a3f578063f35adf7e14610a52578063f7a3181814610a5a578063fc7b9c1814610a6d578063ffbe3b7314610a75576104b7565b8063d60b347f146109d2578063d6d8816d146109e5578063d83d3ed5146109f8578063dd62ed3e14610a0b578063df9a2b1c14610a19576104b7565b8063c1410c0211610120578063c1410c021461096b578063c2aeb5fe1461097e578063c45a3e0a14610991578063c9aff70c146109a4578063cc8d823c146109b7578063cf023779146109ca576104b7565b8063b16144a314610917578063b32a2f901461092a578063b6b55f251461093d578063bc7513e214610950578063c0ec4ac514610963576104b7565b80639be46493116101f5578063a6f37b53116101b9578063a6f37b53146108b8578063a9059cbb146104da578063a9b3cf15146108cb578063adbff2be146108de578063ae5c2381146108f1578063b11ee0e314610904576104b7565b80639be46493146108645780639f6e1b2614610877578063a00e14d11461088a578063a50cd8e71461089d578063a6c409f1146108b0576104b7565b806397a5d5b51161023c57806397a5d5b5146108105780639940686e146108235780639a649edc146108365780639b82b49b1461083e5780639bc289f114610851576104b7565b80638413e52a146107c757806386cf9f14146107da5780638de2e573146107ed578063900cf0cf1461080057806395d89b4114610808576104b7565b80633fbba9a61161039f5780635f14fec81161031c57806371c511eb116102e057806371c511eb1461075e57806372924d2a1461076657806375d5024b146107795780637cb95a321461078c5780637dc0d1d01461079f578063825ad607146107b4576104b7565b80635f14fec8146106ff57806364668022146107125780636a39e328146107255780636b862d661461073857806370a082311461074b576104b7565b80634c736099116103635780634c736099146106b65780635053e461146106c957806351bf21d8146106d15780635c60da1b146106e45780635dbf800a146106ec576104b7565b80633fbba9a6146106605780633fd4973c14610680578063416a23cc14610693578063438735261461069b57806344d96e95146106ae576104b7565b806320f6bc90116104385780632e1a7d4d116103fc5780632e1a7d4d146105ec578063313ce567146105ff5780633234742214610614578063353a420c146106275780633a3e6c811461063a5780633f7bcaf31461064d576104b7565b806320f6bc901461058d57806323b872dd146105a0578063259f7adf146105b3578063277805a9146105c657806327de9e32146105d9576104b7565b806316f0115b1161047f57806316f0115b1461054257806318160ddd146105575780631a08e22a1461055f5780631edbcf6c146105725780631fac97321461057a576104b7565b806306fdde03146104bc578063095ea7b3146104da5780630dc6d3a3146104fa57806310e95b6c1461050f57806315e14bf61461052f575b600080fd5b6104c4610a88565b6040516104d19190612ea7565b60405180910390f35b6104ed6104e8366004612ab7565b610ab3565b6040516104d19190612e7d565b61050d610508366004612a39565b610abc565b005b61052261051d366004612bd4565b610b05565b6040516104d19190612ed8565b61052261053d366004612951565b610b1d565b61054a610b3b565b6040516104d19190612e10565b610522610b4a565b61050d61056d366004612c66565b610b50565b610522610b5e565b61050d610588366004612bd4565b610b64565b61050d61059b366004612ab7565b610b70565b6104ed6105ae3660046129f6565b610b7a565b61050d6105c1366004612bd4565b610b84565b61050d6105d4366004612ab7565b610b8d565b61050d6105e7366004612bd4565b610c19565b61050d6105fa366004612bd4565b610d6b565b610607610ea3565b6040516104d19190612f01565b61050d610622366004612c10565b610ea8565b610522610635366004612951565b610ee8565b6104ed610648366004612951565b610f06565b61050d61065b3660046129f6565b610f23565b61067361066e36600461296f565b610f2e565b6040516104d19190612e99565b61050d61068e366004612ae7565b610f61565b61050d610fa8565b61050d6106a9366004612bd4565b610fb2565b610522610fbb565b6105226106c4366004612c66565b610fc1565b610522610ff1565b6105226106df366004612951565b611014565b61054a611032565b61050d6106fa366004612bd4565b611057565b61050d61070d366004612ab7565b611060565b610522610720366004612951565b61106a565b610522610733366004612bd4565b611088565b61050d610746366004612b4f565b61109d565b610522610759366004612951565b6110a8565b61050d6110c6565b61050d610774366004612c10565b6110ce565b6104ed610787366004612bd4565b61110e565b61050d61079a366004612ae7565b611121565b6107a7611162565b6040516104d19190612e8b565b6105226107c2366004612951565b611171565b61050d6107d53660046129a9565b6111b1565b6105226107e8366004612951565b6111bc565b61050d6107fb366004612bd4565b6111d7565b6105226111e0565b6104c46111e6565b61067361081e366004612951565b611205565b61050d610831366004612bd4565b61126a565b61052261133b565b61050d61084c366004612c10565b611341565b61052261085f366004612951565b611381565b61050d610872366004612951565b61139f565b61052261088536600461296f565b6113aa565b61050d610898366004612c66565b6113d9565b6105226108ab366004612951565b6113e4565b6105226113fb565b61050d6108c6366004612951565b611491565b61050d6108d9366004612bd4565b61149a565b61050d6108ec366004612ae7565b6114a3565b61050d6108ff366004612ab7565b6114e4565b61050d610912366004612ab7565b6114ee565b61050d610925366004612bd4565b6114f8565b61050d610938366004612ae7565b61150b565b61050d61094b366004612bd4565b61154c565b61052261095e366004612ab7565b611624565b6107a7611668565b61050d61097936600461296f565b611677565b61050d61098c366004612b81565b611681565b61050d61099f366004612ab7565b6116c3565b6105226109b2366004612bd4565b6116cd565b61050d6109c5366004612ab7565b6116e2565b6105226116ec565b6104ed6109e0366004612951565b6116f2565b61050d6109f3366004612bd4565b611713565b61050d610a06366004612ab7565b61171c565b6105226104e836600461296f565b61050d610a27366004612bd4565b611726565b61050d610a3a366004612bd4565b6117e7565b610522610a4d366004612951565b6117ec565b61050d611807565b61050d610a68366004612ab7565b61180f565b610522611819565b610522610a83366004612bd4565b61181f565b6040805180820190915260118152704574686963204d6f6e6579205374616b6560781b602082015290565b60005b92915050565b610afe85858585858080601f01602080910402602001604051908101604052809392919081815260200183838082843760009201919091525061183192505050565b5050505050565b6000818152600d60205260409020600201545b919050565b6001600160a01b03166000908152600e602052604090206001015490565b600b546001600160a01b031690565b60035490565b610b5a82826118a2565b5050565b60065490565b610b6d816118d4565b50565b610b5a828261191b565b60005b9392505050565b610b6d816119c5565b610b95611668565b6001600160a01b03166340c10f1983836040518363ffffffff1660e01b8152600401610bc2929190612e6f565b602060405180830381600087803b158015610bdc57600080fd5b505af1158015610bf0573d6000803e3d6000fd5b505050506040513d601f19601f82011682018060405250610c149190810190612bb6565b505050565b33610c6060025b610c2983611205565b6002811115610c3457fe5b1415692832b936b4b9b9b4b7b760b11b72139bdd08199c9bde995b881bdc88199b1d5a59606a1b6119de565b610c7133610c6c611a3c565b611a41565b6000610ca4610c7f336110a8565b610c98610c8b33611171565b869063ffffffff611a7016565b9063ffffffff611aaa16565b9050610cb03382611aec565b610cd28160405180606001604052806022815260200161300d60229139611b48565b610d1233846040518060400160405280601d81526020017f426f6e64696e673a20696e73756666696369656e742062616c616e6365000000815250611b63565b337f93530ac0ee8c50e696e13c5ac62355d0c0ba4bd943620d5bda1eb08b64ae7512610d4d6001610d416111e0565b9063ffffffff611c0e16565b8584604051610d5e93929190612ee6565b60405180910390a2505050565b33610db360015b610d7b83611205565b6002811115610d8657fe5b1415692832b936b4b9b9b4b7b760b11b73139bdd08199c9bde995b881bdc881b1bd8dad95960621b6119de565b610dbb611668565b6001600160a01b031663a9059cbb33846040518363ffffffff1660e01b8152600401610de8929190612e46565b602060405180830381600087803b158015610e0257600080fd5b505af1158015610e16573d6000803e3d6000fd5b505050506040513d601f19601f82011682018060405250610e3a9190810190612bb6565b50610e5e3383604051806060016040528060248152602001612fe960249139611c33565b336001600160a01b03167f884edad9ce6fa2440d8a54cc123490eb96d2768479d49ff9c7366125a942436483604051610e979190612ed8565b60405180910390a25050565b601290565b610c148383838080601f016020809104026020016040519081016040528093929190818152602001838380828437600092019190915250611c9292505050565b6001600160a01b03166000908152600e602052604090206003015490565b6001600160a01b03166000908152600e6020526040902054151590565b610c14838383611cad565b6001600160a01b038082166000908152600e60209081526040808320938616835260049093019052205460ff1692915050565b610fa2848484848080601f016020809104026020016040519081016040528093929190818152602001838380828437600092019190915250611cdd92505050565b50505050565b610fb0611d2e565b565b610b5a81611d71565b60045490565b6000828152600d60205260408120600301805483908110610fde57fe5b9060005260206000200154905092915050565b6000610ffb61289d565b611003611db8565b905061100e81611de7565b91505090565b6001600160a01b03166000908152600c602052604090206004015490565b7f360894a13ba1a3210667c828492db98dca3e2076cc3735a920a3ca505d382bbc5490565b610b6d81611e09565b610b5a8282611e90565b6001600160a01b03166000908152600e602052604090206002015490565b6000908152600d602052604090206003015490565b610c14838383611fa1565b6001600160a01b03166000908152600c602052604090206001015490565b610fb0612048565b610c148383838080601f01602080910402602001604051908101604052809392919081815260200183838082843760009201919091525061206f92505050565b600061111861208a565b90911115919050565b610fa2848484848080601f01602080910402602001604051908101604052809392919081815260200183838082843760009201919091525061208f92505050565b600a546001600160a01b031690565b60008061117c610b4a565b90508061118d576000915050610b18565b610b7d81610c9861119d866110a8565b6111a5610fbb565b9063ffffffff611a7016565b610c148383836120e0565b6001600160a01b03166000908152600c602052604090205490565b610b6d8161212a565b60025490565b604080518082019091526005815264455448435360d81b602082015290565b600061120f6111e0565b6001600160a01b0383166000908152600c6020526040902060050154111561123957506002610b18565b6001600160a01b0382166000908152600c602052604090206004015461125d6111e0565b1015610ab3576001610ab6565b336112756002610c20565b61128133610c6c612143565b600061128b610fbb565b156112ab576112a661129b610fbb565b610c98610c8b610b4a565b6112c3565b6112c36112b6612148565b849063ffffffff611a7016565b90506112cf338261214f565b6112d8836119c5565b6112fb3384604051806060016040528060248152602001612fe960249139611c33565b337f44002fdef5a0c2d2e4e05572e9780b95aef97e0e93ffd7cc076b09fa78ff2b4661132a6001610d416111e0565b8386604051610d5e93929190612ee6565b60085490565b610c148383838080601f016020809104026020016040519081016040528093929190818152602001838380828437600092019190915250611b4892505050565b6001600160a01b03166000908152600c602052604090206005015490565b610b6d816078611a41565b6001600160a01b039182166000908152600c602090815260408083209390941682526003909201909152205490565b600091909155600155565b6000610ab66113f283610ee8565b610d418461106a565b600061148c611408611819565b611410611668565b6001600160a01b03166318160ddd6040518163ffffffff1660e01b815260040160206040518083038186803b15801561144857600080fd5b505afa15801561145c573d6000803e3d6000fd5b505050506040513d601f19601f820116820180604052506114809190810190612bf2565b9063ffffffff6121f716565b905090565b610b6d81612239565b610b6d81612260565b610fa2848484848080601f016020809104026020016040519081016040528093929190818152602001838380828437600092019190915250611b6392505050565b610b5a828261214f565b610b5a8282611aec565b610b5a6115068260646122a3565b6122d2565b610fa2848484848080601f016020809104026020016040519081016040528093929190818152602001838380828437600092019190915250611c3392505050565b336115576001610d72565b61155f611668565b6001600160a01b03166323b872dd3330856040518463ffffffff1660e01b815260040161158e93929190612e1e565b602060405180830381600087803b1580156115a857600080fd5b505af11580156115bc573d6000803e3d6000fd5b505050506040513d601f19601f820116820180604052506115e09190810190612bb6565b506115eb3383611aec565b336001600160a01b03167fe1fffcc4923d04b559f4d29a8bfc6cda04eb5b0d3c460751c2402c5c5cc9109c83604051610e979190612ed8565b600061162f826116cd565b61163b57506000610ab6565b506001600160a01b03919091166000908152600c6020908152604080832093835260029093019052205490565b6009546001600160a01b031690565b610b5a82826123ac565b610afe85858585858080601f01602080910402602001604051908101604052809392919081815260200183838082843760009201919091525061240c92505050565b610b5a82826124b7565b6000908152600d602052604090206001015490565b610b5a8282612561565b60055490565b6001600160a01b03166000908152600e602052604090206005015460ff1690565b610b6d816125b0565b610b5a82826125c9565b336117316002610c20565b61173d33610c6c611a3c565b600061174a61129b610fbb565b90506117563384611aec565b6117788360405180606001604052806022815260200161300d60229139611b48565b6117b833826040518060400160405280601d81526020017f426f6e64696e673a20696e73756666696369656e742062616c616e6365000000815250611b63565b337f93530ac0ee8c50e696e13c5ac62355d0c0ba4bd943620d5bda1eb08b64ae751261132a6001610d416111e0565b600f55565b6001600160a01b03166000908152600e602052604090205490565b610fb06125f5565b610b5a828261260e565b60075490565b6000908152600d602052604090205490565b6001600160a01b038085166000908152600c60209081526040808320938716835260039093019052205461186c90838363ffffffff61265d16565b6001600160a01b039485166000908152600c60209081526040808320969097168252600390950190945293909220929092555050565b6000828152600d6020908152604080832060020184905592825291812060030180546001810182559082529190200155565b611913816040518060400160405280601c81526020017f436f6d7074726f6c6c65723a206e6f7420656e6f75676820646562740000000081525061206f565b610b6d612689565b611923611668565b6001600160a01b03166340c10f1983836040518363ffffffff1660e01b8152600401611950929190612e6f565b602060405180830381600087803b15801561196a57600080fd5b505af115801561197e573d6000803e3d6000fd5b505050506040513d601f19601f820116820180604052506119a29190810190612bb6565b506119ae6107876111e0565b6119bd576119bb81611d71565b505b610b5a612689565b6004546119d8908263ffffffff611c0e16565b60045550565b82610c14576119ec8261275c565b6101d160f51b6119fb8361275c565b604051602001611a0d93929190612ddf565b60408051601f198184030181529082905262461bcd60e51b8252611a3391600401612ea7565b60405180910390fd5b60a890565b611a4d81610d416111e0565b6001600160a01b039092166000908152600c602052604090206004019190915550565b600082611a7f57506000610ab6565b82820282848281611a8c57fe5b0414610b7d5760405162461bcd60e51b8152600401611a3390612ec8565b6000610b7d83836040518060400160405280601a81526020017f536166654d6174683a206469766973696f6e206279207a65726f0000000000008152506127dc565b6001600160a01b0382166000908152600c6020526040902054611b15908263ffffffff611c0e16565b6001600160a01b0383166000908152600c6020526040902055600554611b41908263ffffffff611c0e16565b6005555050565b600454611b5c90838363ffffffff61265d16565b6004555050565b6001600160a01b0383166000908152600c6020526040902060010154611b9090838363ffffffff61265d16565b6001600160a01b0384166000908152600c6020526040902060010155600354611bc090838363ffffffff61265d16565b6003556040516000906001600160a01b038516907fddf252ad1be2c89b69c2b068fc378daa952ba7f163c4a11628f55a4df523b3ef90611c01908690612ed8565b60405180910390a3505050565b600082820183811015610b7d5760405162461bcd60e51b8152600401611a3390612eb8565b6001600160a01b0383166000908152600c6020526040902054611c5d90838363ffffffff61265d16565b6001600160a01b0384166000908152600c6020526040902055600554611c8a90838363ffffffff61265d16565b600555505050565b600654611ca690838363ffffffff61265d16565b6006555050565b6001600160a01b039283166000908152600c60209081526040808320949095168252600390930190925291902055565b6001600160a01b0383166000908152600e6020526040902060030154611d0a90838363ffffffff61265d16565b6001600160a01b039093166000908152600e60205260409020600301929092555050565b611d69611d396111e0565b611d41610ff1565b1166426f6e64696e6760c81b720a6e8d2d8d840c6eae4e4cadce840cae0dec6d606b1b6119de565b611807612048565b6000611d7c8261212a565b6000611d89611506612813565b9050611d93612689565b828111611daf57611daa838263ffffffff6121f716565b610b7d565b50600092915050565b611dc061289d565b6040518060600160405280606a8152602001635ffb1dce8152602001610e10815250905090565b6000610ab68260000151610d418460400151610c988660200151611480612835565b611e11611668565b6001600160a01b03166342966c68826040518263ffffffff1660e01b8152600401611e3c9190612ed8565b600060405180830381600087803b158015611e5657600080fd5b505af1158015611e6a573d6000803e3d6000fd5b50505050611913816040518060600160405280602a8152602001613057602a9139611c92565b611e98611668565b6001600160a01b03166323b872dd8330846040518463ffffffff1660e01b8152600401611ec793929190612e61565b602060405180830381600087803b158015611ee157600080fd5b505af1158015611ef5573d6000803e3d6000fd5b505050506040513d601f19601f82011682018060405250611f199190810190612bb6565b50611f22611668565b6001600160a01b03166342966c68826040518263ffffffff1660e01b8152600401611f4d9190612ed8565b600060405180830381600087803b158015611f6757600080fd5b505af1158015611f7b573d6000803e3d6000fd5b505050506119bd8160405180606001604052806028815260200161302f6028913961206f565b6001600160a01b0383166000908152600c60209081526040808320858452600201909152902054611fd8908263ffffffff611c0e16565b6001600160a01b0384166000908152600c60209081526040808320868452600201825280832093909355600d9052206001015461201b908263ffffffff611c0e16565b6000838152600d6020526040902060010155600854612040908263ffffffff611c0e16565b600855505050565b612050610b4a565b600d600061205c6111e0565b8152602081019190915260400160002055565b60075461208390838363ffffffff61265d16565b6007555050565b605a90565b6001600160a01b0383166000908152600e60205260409020600201546120bc90838363ffffffff61265d16565b6001600160a01b039093166000908152600e60205260409020600201929092555050565b6001600160a01b038083166000908152600e6020908152604080832093871683526004909301905220805482919060ff1916600183600281111561212057fe5b0217905550505050565b60075461213d908263ffffffff611c0e16565b60075550565b606090565b620f424090565b6001600160a01b0382166000908152600c602052604090206001015461217b908263ffffffff611c0e16565b6001600160a01b0383166000908152600c60205260409020600101556003546121aa908263ffffffff611c0e16565b6003556040516001600160a01b038316906000907fddf252ad1be2c89b69c2b068fc378daa952ba7f163c4a11628f55a4df523b3ef906121eb908590612ed8565b60405180910390a35050565b6000610b7d83836040518060400160405280601e81526020017f536166654d6174683a207375627472616374696f6e206f766572666c6f77000081525061265d565b6001600160a01b03166000908152600e60205260409020600501805460ff19166001179055565b600061226b826116cd565b9050806122785750610b6d565b60085461228b908263ffffffff6121f716565b600855506000908152600d6020526040812060010155565b6122ab6128be565b60405180602001604052806122c985670de0b6b3a76400008661283b565b90529392505050565b6000806123656123606122e3611668565b6001600160a01b03166318160ddd6040518163ffffffff1660e01b815260040160206040518083038186803b15801561231b57600080fd5b505afa15801561232f573d6000803e3d6000fd5b505050506040513d601f19601f820116820180604052506123539190810190612bf2565b859063ffffffff61285916565b612880565b90506000612371611819565b9050818111156123a257600061238d828463ffffffff6121f716565b9050612398816118d4565b9250610b18915050565b5060009392505050565b6001600160a01b0382166000908152600c6020526040812060050154906123de6123d584610b1d565b610d41856117ec565b905081811115610fa2576001600160a01b0384166000908152600c6020526040902060050181905550505050565b6001600160a01b0384166000908152600c6020908152604080832086845260020190915290205461244490838363ffffffff61265d16565b6001600160a01b0385166000908152600c60209081526040808320878452600201825280832093909355600d9052206001015461248890838363ffffffff61265d16565b6000848152600d60205260409020600101556008546124ae90838363ffffffff61265d16565b60085550505050565b6124bf611668565b6001600160a01b031663a9059cbb83836040518363ffffffff1660e01b81526004016124ec929190612e6f565b602060405180830381600087803b15801561250657600080fd5b505af115801561251a573d6000803e3d6000fd5b505050506040513d601f19601f8201168201806040525061253e9190810190612bb6565b506119bd816040518060600160405280602a8152602001613057602a9139611c92565b6001600160a01b0382166000908152600e602052604090206003015461258d908263ffffffff611c0e16565b6001600160a01b039092166000908152600e602052604090206003019190915550565b6006546125c3908263ffffffff611c0e16565b60065550565b6125d16111e0565b6001600160a01b039092166000908152600e60205260409020918255600190910155565b60025461260990600163ffffffff611c0e16565b600255565b6001600160a01b0382166000908152600e602052604090206002015461263a908263ffffffff611c0e16565b6001600160a01b039092166000908152600e602052604090206002019190915550565b600081848411156126815760405162461bcd60e51b8152600401611a339190612ea7565b505050900390565b610fb06126aa612697610b5e565b610d416126a26116ec565b610d41610fbb565b6126b2611668565b6001600160a01b03166370a08231306040518263ffffffff1660e01b81526004016126dd9190612e10565b60206040518083038186803b1580156126f557600080fd5b505afa158015612709573d6000803e3d6000fd5b505050506040513d601f19601f8201168201806040525061272d9190810190612bf2565b10156a21b7b6b83a3937b63632b960a91b74496e636f6e73697374656e742062616c616e63657360581b6119de565b606080826040516020016127709190612dca565b60408051601f19818403018152919052905060205b80156127c5578151600019909101908290829081106127a057fe5b01602001516001600160f81b031916156127c05760010181529050610b18565b612785565b505060408051600081526020810190915292915050565b600081836127fd5760405162461bcd60e51b8152600401611a339190612ea7565b50600083858161280957fe5b0495945050505050565b61281b6128be565b5060408051602081019091526702c68af0bb140000815290565b600f5490565b600061285182610c98868663ffffffff611a7016565b949350505050565b6128616128be565b6040805160208101909152835181906122c9908563ffffffff611a7016565b8051600090610ab690670de0b6b3a764000063ffffffff611aaa16565b60405180606001604052806000815260200160008152602001600081525090565b6040518060200160405280600081525090565b8035610ab681612fb5565b8051610ab681612fc9565b8035610ab681612fd2565b60008083601f84011261290457600080fd5b50813567ffffffffffffffff81111561291c57600080fd5b60208301915083600182028301111561293457600080fd5b9250929050565b8035610ab681612fdf565b8051610ab681612fdf565b60006020828403121561296357600080fd5b600061285184846128d1565b6000806040838503121561298257600080fd5b600061298e85856128d1565b925050602061299f858286016128d1565b9150509250929050565b6000806000606084860312156129be57600080fd5b60006129ca86866128d1565b93505060206129db868287016128d1565b92505060406129ec868287016128e7565b9150509250925092565b600080600060608486031215612a0b57600080fd5b6000612a1786866128d1565b9350506020612a28868287016128d1565b92505060406129ec8682870161293b565b600080600080600060808688031215612a5157600080fd5b6000612a5d88886128d1565b9550506020612a6e888289016128d1565b9450506040612a7f8882890161293b565b935050606086013567ffffffffffffffff811115612a9c57600080fd5b612aa8888289016128f2565b92509250509295509295909350565b60008060408385031215612aca57600080fd5b6000612ad685856128d1565b925050602061299f8582860161293b565b60008060008060608587031215612afd57600080fd5b6000612b0987876128d1565b9450506020612b1a8782880161293b565b935050604085013567ffffffffffffffff811115612b3757600080fd5b612b43878288016128f2565b95989497509550505050565b600080600060608486031215612b6457600080fd5b6000612b7086866128d1565b9350506020612a288682870161293b565b600080600080600060808688031215612b9957600080fd5b6000612ba588886128d1565b9550506020612a6e8882890161293b565b600060208284031215612bc857600080fd5b600061285184846128dc565b600060208284031215612be657600080fd5b6000612851848461293b565b600060208284031215612c0457600080fd5b60006128518484612946565b600080600060408486031215612c2557600080fd5b6000612c31868661293b565b935050602084013567ffffffffffffffff811115612c4e57600080fd5b612c5a868287016128f2565b92509250509250925092565b60008060408385031215612c7957600080fd5b6000612ad6858561293b565b612c8e81612f58565b82525050565b612c8e81612f1c565b612c8e81612f27565b612c8e612cb282612f2c565b612f39565b612c8e612cb282612f39565b6000612cce82612f0f565b612cd88185610b18565b9350612ce8818560208601612f75565b9290920192915050565b612c8e81612f5f565b612c8e81612f6a565b6000612d0f82612f0f565b612d198185612f13565b9350612d29818560208601612f75565b612d3281612fa1565b9093019392505050565b6000612d49601b83612f13565b7f536166654d6174683a206164646974696f6e206f766572666c6f770000000000815260200192915050565b6000612d82602183612f13565b7f536166654d6174683a206d756c7469706c69636174696f6e206f766572666c6f8152607760f81b602082015260400192915050565b612c8e81612f39565b612c8e81612f52565b6000612dd68284612cb7565b50602001919050565b6000612deb8286612cc3565b9150612df78285612ca6565b600282019150612e078284612cc3565b95945050505050565b60208101610ab68284612c94565b60608101612e2c8286612c85565b612e396020830185612c94565b6128516040830184612db8565b60408101612e548285612c85565b610b7d6020830184612db8565b60608101612e2c8286612c94565b60408101612e548285612c94565b60208101610ab68284612c9d565b60208101610ab68284612cf2565b60208101610ab68284612cfb565b60208082528101610b7d8184612d04565b60208082528101610ab681612d3c565b60208082528101610ab681612d75565b60208101610ab68284612db8565b60608101612ef48286612db8565b612e396020830185612db8565b60208101610ab68284612dc1565b5190565b90815260200190565b6000610ab682612f46565b151590565b6001600160f01b03191690565b90565b80610b1881612fab565b6001600160a01b031690565b60ff1690565b6000610ab6825b6000610ab682612f1c565b6000610ab682612f3c565b60005b83811015612f90578181015183820152602001612f78565b83811115610fa25750506000910152565b601f01601f191690565b60038110610b6d57fe5b612fbe81612f1c565b8114610b6d57600080fd5b612fbe81612f27565b60038110610b6d57600080fd5b612fbe81612f3956fe426f6e64696e673a20696e73756666696369656e74207374616765642062616c616e6365426f6e64696e673a20696e73756666696369656e7420746f74616c20626f6e646564436f6d7074726f6c6c65723a206e6f7420656e6f756768206f75747374616e64696e672064656274436f6d7074726f6c6c65723a206e6f7420656e6f7567682072656465656d61626c652062616c616e6365a365627a7a72315820a873b0148049a0e84b2c733488271b79398de7095134038249c5eff3508f19d56c6578706572696d656e74616cf564736f6c6343000511004060806040523480156200001157600080fd5b5060405180604001604052806005815260200164457468696360d81b815250604051806040016040528060048152602001634554484360e01b815250601262000072620000636200010d60201b60201c565b6001600160e01b036200011216565b82516200008790600190602086019062000307565b5081516200009d90600290602085019062000307565b506003805460ff191660ff9290921691909117905550620001049050620000c362000164565b604051806040016040528060018152602001603160f81b815250620000f2620001fd60201b620016341760201c565b306200020260201b620016391760201c565b6007556200045d565b335b90565b6200012d8160006200025960201b62000d7e1790919060201c565b6040516001600160a01b038216907f6ae172837ea30b801fbfcdd4108aa1d5bf8ff775444fd70256b44e6bf3dfc3f690600090a250565b60018054604080516020601f60026000196101008789161502019095169490940493840181900481028201810190925282815260609390929091830182828015620001f35780601f10620001c757610100808354040283529160200191620001f3565b820191906000526020600020905b815481529060010190602001808311620001d557829003601f168201915b5050505050905090565b602a90565b8351602094850120835193850193909320604080517f8b73c3c69bb8fe3d512ecc4cf759cc79239f7b179b0ffacaa9a75d522b39400f815295860194909452928401929092526060830152608082015260a0902090565b6200026e82826001600160e01b03620002bc16565b15620002975760405162461bcd60e51b81526004016200028e906200042a565b60405180910390fd5b6001600160a01b0316600090815260209190915260409020805460ff19166001179055565b60006001600160a01b038216620002e75760405162461bcd60e51b81526004016200028e9062000442565b506001600160a01b03166000908152602091909152604090205460ff1690565b828054600181600116156101000203166002900490600052602060002090601f016020900481019282601f106200034a57805160ff19168380011785556200037a565b828001600101855582156200037a579182015b828111156200037a5782518255916020019190600101906200035d565b50620003889291506200038c565b5090565b6200010f91905b8082111562000388576000815560010162000393565b6000620003b8601f8362000454565b7f526f6c65733a206163636f756e7420616c72656164792068617320726f6c6500815260200192915050565b6000620003f360228362000454565b7f526f6c65733a206163636f756e7420697320746865207a65726f206164647265815261737360f01b602082015260400192915050565b602080825281016200043c81620003a9565b92915050565b602080825281016200043c81620003e4565b90815260200190565b61178c806200046d6000396000f3fe608060405234801561001057600080fd5b506004361061012c5760003560e01c806395d89b41116100ad578063aa271e1a11610071578063aa271e1a14610256578063d505accf14610269578063dab400f31461027c578063dd62ed3e14610284578063e879c19f146102975761012c565b806395d89b411461020d578063983b2d56146102155780639865027514610228578063a457c2d714610230578063a9059cbb146102435761012c565b806339509351116100f457806339509351146101ac57806340c10f19146101bf57806342966c68146101d257806370a08231146101e757806379cc6790146101fa5761012c565b806306fdde0314610131578063095ea7b31461014f57806318160ddd1461016f57806323b872dd14610184578063313ce56714610197575b600080fd5b61013961029f565b60405161014691906114c6565b60405180910390f35b61016261015d366004610ffc565b610334565b604051610146919061141b565b610177610352565b6040516101469190611429565b610162610192366004610f13565b610358565b61019f6103ca565b6040516101469190611587565b6101626101ba366004610ffc565b6103d3565b6101626101cd366004610ffc565b610427565b6101e56101e036600461102c565b610463565b005b6101776101f5366004610eb3565b610477565b6101e5610208366004610ffc565b610496565b6101396104a4565b6101e5610223366004610eb3565b610502565b6101e5610532565b61016261023e366004610ffc565b610544565b610162610251366004610ffc565b6105b2565b610162610264366004610eb3565b6105c6565b6101e5610277366004610f60565b6105d8565b61017761075f565b610177610292366004610ed9565b610765565b610177610790565b60018054604080516020601f6002600019610100878916150201909516949094049384018190048102820181019092528281526060939092909183018282801561032a5780601f106102ff5761010080835404028352916020019161032a565b820191906000526020600020905b81548152906001019060200180831161030d57829003601f168201915b5050505050905090565b60006103486103416107b4565b84846107b8565b5060015b92915050565b60065490565b600061036584848461086c565b600019610374856102926107b4565b146103c0576103c0846103856107b4565b6103bb856040518060600160405280602881526020016116fd602891396103ae8a6102926107b4565b919063ffffffff61098216565b6107b8565b5060019392505050565b60035460ff1690565b60006103486103e06107b4565b846103bb85600560006103f16107b4565b6001600160a01b03908116825260208083019390935260409182016000908120918c16815292529020549063ffffffff6109ae16565b60006104346102646107b4565b6104595760405162461bcd60e51b815260040161045090611517565b60405180910390fd5b61034883836109da565b61047461046e6107b4565b82610a9a565b50565b6001600160a01b0381166000908152600460205260409020545b919050565b6104a08282610b70565b5050565b60028054604080516020601f600019610100600187161502019094168590049384018190048102820181019092528281526060939092909183018282801561032a5780601f106102ff5761010080835404028352916020019161032a565b61050d6102646107b4565b6105295760405162461bcd60e51b815260040161045090611517565b61047481610beb565b61054261053d6107b4565b610c33565b565b60006103486105516107b4565b846103bb85604051806060016040528060258152602001611725602591396005600061057b6107b4565b6001600160a01b03908116825260208083019390935260409182016000908120918d1681529252902054919063ffffffff61098216565b60006103486105bf6107b4565b848461086c565b600061034c818363ffffffff610c7b16565b6007546001600160a01b03881660009081526008602090815260408083208054600181019091559051929361065a93909261063f927f6e71edae12b1b97f4d1f60370fef10105fa2faae0126114a169c64845d6126c9928e928e928e9290918e9101611437565b60405160208183030381529060405280519060200120610cc3565b90506000600182868686604051600081526020016040526040516106819493929190611491565b6020604051602081039080840390855afa1580156106a3573d6000803e3d6000fd5b5050506020604051035190506106f0896001600160a01b0316826001600160a01b0316146a5065726d69747461626c6560a81b70496e76616c6964207369676e617475726560781b610ce2565b6107236001600160a01b03821615156a5065726d69747461626c6560a81b6b5a65726f206164647265737360a01b610ce2565b610749864211156a5065726d69747461626c6560a81b66115e1c1a5c995960ca1b610ce2565b6107548989896107b8565b505050505050505050565b60075481565b6001600160a01b03918216600090815260056020908152604080832093909416825291909152205490565b7f6e71edae12b1b97f4d1f60370fef10105fa2faae0126114a169c64845d6126c981565b3390565b6001600160a01b0383166107de5760405162461bcd60e51b815260040161045090611567565b6001600160a01b0382166108045760405162461bcd60e51b8152600401610450906114f7565b6001600160a01b0380841660008181526005602090815260408083209487168084529490915290819020849055517f8c5be1e5ebec7d5bd14f71427d1e84f3dd0314c0f7b2291e5b200ac8c7c3b9259061085f908590611429565b60405180910390a3505050565b6001600160a01b0383166108925760405162461bcd60e51b815260040161045090611557565b6001600160a01b0382166108b85760405162461bcd60e51b8152600401610450906114d7565b6108fb816040518060600160405280602681526020016116b3602691396001600160a01b038616600090815260046020526040902054919063ffffffff61098216565b6001600160a01b038085166000908152600460205260408082209390935590841681522054610930908263ffffffff6109ae16565b6001600160a01b0380841660008181526004602052604090819020939093559151908516907fddf252ad1be2c89b69c2b068fc378daa952ba7f163c4a11628f55a4df523b3ef9061085f908590611429565b600081848411156109a65760405162461bcd60e51b815260040161045091906114c6565b505050900390565b6000828201838110156109d35760405162461bcd60e51b815260040161045090611507565b9392505050565b6001600160a01b038216610a005760405162461bcd60e51b815260040161045090611577565b600654610a13908263ffffffff6109ae16565b6006556001600160a01b038216600090815260046020526040902054610a3f908263ffffffff6109ae16565b6001600160a01b0383166000818152600460205260408082209390935591519091907fddf252ad1be2c89b69c2b068fc378daa952ba7f163c4a11628f55a4df523b3ef90610a8e908590611429565b60405180910390a35050565b6001600160a01b038216610ac05760405162461bcd60e51b815260040161045090611547565b610b0381604051806060016040528060228152602001611691602291396001600160a01b038516600090815260046020526040902054919063ffffffff61098216565b6001600160a01b038316600090815260046020526040902055600654610b2f908263ffffffff610d3c16565b6006556040516000906001600160a01b038416907fddf252ad1be2c89b69c2b068fc378daa952ba7f163c4a11628f55a4df523b3ef90610a8e908590611429565b610b7a8282610a9a565b6104a082610b866107b4565b6103bb846040518060600160405280602481526020016116d9602491396001600160a01b038816600090815260056020526040812090610bc46107b4565b6001600160a01b03168152602081019190915260400160002054919063ffffffff61098216565b610bfc60008263ffffffff610d7e16565b6040516001600160a01b038216907f6ae172837ea30b801fbfcdd4108aa1d5bf8ff775444fd70256b44e6bf3dfc3f690600090a250565b610c4460008263ffffffff610dca16565b6040516001600160a01b038216907fe94479a9f7e1952cc78f2d6baab678adc1b772d936c6583def489e524cb6669290600090a250565b60006001600160a01b038216610ca35760405162461bcd60e51b815260040161045090611537565b506001600160a01b03166000908152602091909152604090205460ff1690565b60405161190160f01b8152600281019290925260228201526042902090565b82610d3757610cf082610e12565b6101d160f51b610cff83610e12565b604051602001610d11939291906113ea565b60408051601f198184030181529082905262461bcd60e51b8252610450916004016114c6565b505050565b60006109d383836040518060400160405280601e81526020017f536166654d6174683a207375627472616374696f6e206f766572666c6f770000815250610982565b610d888282610c7b565b15610da55760405162461bcd60e51b8152600401610450906114e7565b6001600160a01b0316600090815260209190915260409020805460ff19166001179055565b610dd48282610c7b565b610df05760405162461bcd60e51b815260040161045090611527565b6001600160a01b0316600090815260209190915260409020805460ff19169055565b60608082604051602001610e2691906113d5565b60408051601f19818403018152919052905060205b8015610e7b57815160001990910190829082908110610e5657fe5b01602001516001600160f81b03191615610e765760010181529050610491565b610e3b565b505060408051600081526020810190915292915050565b803561034c8161160e565b803561034c81611622565b803561034c8161162b565b600060208284031215610ec557600080fd5b6000610ed18484610e92565b949350505050565b60008060408385031215610eec57600080fd5b6000610ef88585610e92565b9250506020610f0985828601610e92565b9150509250929050565b600080600060608486031215610f2857600080fd5b6000610f348686610e92565b9350506020610f4586828701610e92565b9250506040610f5686828701610e9d565b9150509250925092565b600080600080600080600060e0888a031215610f7b57600080fd5b6000610f878a8a610e92565b9750506020610f988a828b01610e92565b9650506040610fa98a828b01610e9d565b9550506060610fba8a828b01610e9d565b9450506080610fcb8a828b01610ea8565b93505060a0610fdc8a828b01610e9d565b92505060c0610fed8a828b01610e9d565b91505092959891949750929550565b6000806040838503121561100f57600080fd5b600061101b8585610e92565b9250506020610f0985828601610e9d565b60006020828403121561103e57600080fd5b6000610ed18484610e9d565b611053816115a2565b82525050565b611053816115ad565b61105361106e826115b2565b6115bf565b611053816115bf565b61105361106e826115bf565b600061109382611595565b61109d8185610491565b93506110ad8185602086016115d4565b9290920192915050565b60006110c282611595565b6110cc8185611599565b93506110dc8185602086016115d4565b6110e581611604565b9093019392505050565b60006110fc602383611599565b7f45524332303a207472616e7366657220746f20746865207a65726f206164647281526265737360e81b602082015260400192915050565b6000611141601f83611599565b7f526f6c65733a206163636f756e7420616c72656164792068617320726f6c6500815260200192915050565b600061117a602283611599565b7f45524332303a20617070726f766520746f20746865207a65726f206164647265815261737360f01b602082015260400192915050565b60006111be601b83611599565b7f536166654d6174683a206164646974696f6e206f766572666c6f770000000000815260200192915050565b60006111f7603083611599565b7f4d696e746572526f6c653a2063616c6c657220646f6573206e6f74206861766581526f20746865204d696e74657220726f6c6560801b602082015260400192915050565b6000611249602183611599565b7f526f6c65733a206163636f756e7420646f6573206e6f74206861766520726f6c8152606560f81b602082015260400192915050565b600061128c602283611599565b7f526f6c65733a206163636f756e7420697320746865207a65726f206164647265815261737360f01b602082015260400192915050565b60006112d0602183611599565b7f45524332303a206275726e2066726f6d20746865207a65726f206164647265738152607360f81b602082015260400192915050565b6000611313602583611599565b7f45524332303a207472616e736665722066726f6d20746865207a65726f206164815264647265737360d81b602082015260400192915050565b600061135a602483611599565b7f45524332303a20617070726f76652066726f6d20746865207a65726f206164648152637265737360e01b602082015260400192915050565b60006113a0601f83611599565b7f45524332303a206d696e7420746f20746865207a65726f206164647265737300815260200192915050565b611053816115ce565b60006113e1828461107c565b50602001919050565b60006113f68286611088565b91506114028285611062565b6002820191506114128284611088565b95945050505050565b6020810161034c8284611059565b6020810161034c8284611073565b60c081016114458289611073565b611452602083018861104a565b61145f604083018761104a565b61146c6060830186611073565b6114796080830185611073565b61148660a0830184611073565b979650505050505050565b6080810161149f8287611073565b6114ac60208301866113cc565b6114b96040830185611073565b6114126060830184611073565b602080825281016109d381846110b7565b6020808252810161034c816110ef565b6020808252810161034c81611134565b6020808252810161034c8161116d565b6020808252810161034c816111b1565b6020808252810161034c816111ea565b6020808252810161034c8161123c565b6020808252810161034c8161127f565b6020808252810161034c816112c3565b6020808252810161034c81611306565b6020808252810161034c8161134d565b6020808252810161034c81611393565b6020810161034c82846113cc565b5190565b90815260200190565b600061034c826115c2565b151590565b6001600160f01b03191690565b90565b6001600160a01b031690565b60ff1690565b60005b838110156115ef5781810151838201526020016115d7565b838111156115fe576000848401525b50505050565b601f01601f191690565b611617816115a2565b811461047457600080fd5b611617816115bf565b611617816115ce565b602a90565b8351602094850120835193850193909320604080517f8b73c3c69bb8fe3d512ecc4cf759cc79239f7b179b0ffacaa9a75d522b39400f815295860194909452928401929092526060830152608082015260a090209056fe45524332303a206275726e20616d6f756e7420657863656564732062616c616e636545524332303a207472616e7366657220616d6f756e7420657863656564732062616c616e636545524332303a206275726e20616d6f756e74206578636565647320616c6c6f77616e636545746869633a207472616e7366657220616d6f756e74206578636565647320616c6c6f77616e636545524332303a2064656372656173656420616c6c6f77616e63652062656c6f77207a65726fa365627a7a72315820942211f028568291e67a5cda9d87f19b9dffdf91f3a5f72969294736db56c8846c6578706572696d656e74616cf564736f6c63430005110040",
  "source": "/*\n    Copyright 2021 Ethic Money Devs <devs@ethic.money> and Copyright 2020 Empty Set Squad <emptysetsquad@protonmail.com>\n\n    Licensed under the Apache License, Version 2.0 (the \"License\");\n    you may not use this file except in compliance with the License.\n    You may obtain a copy of the License at\n\n    http://www.apache.org/licenses/LICENSE-2.0\n\n    Unless required by applicable law or agreed to in writing, software\n    distributed under the License is distributed on an \"AS IS\" BASIS,\n    WITHOUT WARRANTIES OR CONDITIONS OF ANY KIND, either express or implied.\n    See the License for the specific language governing permissions and\n    limitations under the License.\n*/\n\npragma solidity ^0.5.17;\npragma experimental ABIEncoderV2;\n\nimport \"./MockState.sol\";\nimport \"../dao/Bonding.sol\";\nimport \"./MockComptroller.sol\";\n\ncontract MockBonding is MockComptroller, Bonding {\n    constructor() MockComptroller(address(0)) public { }\n\n    function stepE() external {\n        Bonding.step();\n    }\n}\n",
  "sourcePath": "/home/ville/projects/ethic/protocol/contracts/mock/MockBonding.sol",
  "compiler": {
    "name": "solc",
    "version": "0.5.17+commit.d19bba13.Emscripten.clang"
  },
  "schemaVersion": "3.3.2",
  "updatedAt": "2021-02-04T10:39:17.418Z",
  "devdoc": {
    "methods": {}
  },
  "userdoc": {
    "methods": {
      "balanceOfStaged(address)": {
        "notice": "Account"
      },
      "createCandidateE(address,uint256)": {
        "notice": "Governance"
      },
      "epoch()": {
        "notice": "Epoch"
      },
      "ethic()": {
        "notice": "Global"
      },
      "incrementBalanceOfE(address,uint256)": {
        "notice": "Account"
      },
      "incrementTotalBondedE(uint256)": {
        "notice": "Global"
      },
      "name()": {
        "notice": "ERC20 Interface"
      },
      "recordedVote(address,address)": {
        "notice": "Governance"
      },
      "setBlockTimestamp(uint256)": {
        "notice": "Mock"
      },
      "setEpochParamsE(uint256,uint256)": {
        "notice": "Epoch"
      },
      "transfer(address,uint256)": {
        "notice": "ERC20 Interface"
      }
    }
  }
}