{
  "contractName": "Pool",
  "abi": [
    {
      "inputs": [
        {
          "internalType": "address",
          "name": "ethic",
          "type": "address"
        },
        {
          "internalType": "address",
          "name": "univ2",
          "type": "address"
        }
      ],
      "payable": false,
      "stateMutability": "nonpayable",
      "type": "constructor"
    },
    {
      "anonymous": false,
      "inputs": [
        {
          "indexed": true,
          "internalType": "address",
          "name": "account",
          "type": "address"
        },
        {
          "indexed": false,
          "internalType": "uint256",
          "name": "start",
          "type": "uint256"
        },
        {
          "indexed": false,
          "internalType": "uint256",
          "name": "value",
          "type": "uint256"
        }
      ],
      "name": "Bond",
      "type": "event"
    },
    {
      "anonymous": false,
      "inputs": [
        {
          "indexed": true,
          "internalType": "address",
          "name": "account",
          "type": "address"
        },
        {
          "indexed": false,
          "internalType": "uint256",
          "name": "value",
          "type": "uint256"
        }
      ],
      "name": "Claim",
      "type": "event"
    },
    {
      "anonymous": false,
      "inputs": [
        {
          "indexed": true,
          "internalType": "address",
          "name": "account",
          "type": "address"
        },
        {
          "indexed": false,
          "internalType": "uint256",
          "name": "value",
          "type": "uint256"
        }
      ],
      "name": "Deposit",
      "type": "event"
    },
    {
      "anonymous": false,
      "inputs": [
        {
          "indexed": true,
          "internalType": "address",
          "name": "account",
          "type": "address"
        },
        {
          "indexed": false,
          "internalType": "uint256",
          "name": "value",
          "type": "uint256"
        },
        {
          "indexed": false,
          "internalType": "uint256",
          "name": "lessDai",
          "type": "uint256"
        },
        {
          "indexed": false,
          "internalType": "uint256",
          "name": "newUniv2",
          "type": "uint256"
        }
      ],
      "name": "Provide",
      "type": "event"
    },
    {
      "anonymous": false,
      "inputs": [
        {
          "indexed": true,
          "internalType": "address",
          "name": "account",
          "type": "address"
        },
        {
          "indexed": false,
          "internalType": "uint256",
          "name": "start",
          "type": "uint256"
        },
        {
          "indexed": false,
          "internalType": "uint256",
          "name": "value",
          "type": "uint256"
        },
        {
          "indexed": false,
          "internalType": "uint256",
          "name": "newClaimable",
          "type": "uint256"
        }
      ],
      "name": "Unbond",
      "type": "event"
    },
    {
      "anonymous": false,
      "inputs": [
        {
          "indexed": true,
          "internalType": "address",
          "name": "account",
          "type": "address"
        },
        {
          "indexed": false,
          "internalType": "uint256",
          "name": "value",
          "type": "uint256"
        }
      ],
      "name": "Withdraw",
      "type": "event"
    },
    {
      "constant": true,
      "inputs": [
        {
          "internalType": "address",
          "name": "account",
          "type": "address"
        }
      ],
      "name": "balanceOfBonded",
      "outputs": [
        {
          "internalType": "uint256",
          "name": "",
          "type": "uint256"
        }
      ],
      "payable": false,
      "stateMutability": "view",
      "type": "function"
    },
    {
      "constant": true,
      "inputs": [
        {
          "internalType": "address",
          "name": "account",
          "type": "address"
        }
      ],
      "name": "balanceOfClaimable",
      "outputs": [
        {
          "internalType": "uint256",
          "name": "",
          "type": "uint256"
        }
      ],
      "payable": false,
      "stateMutability": "view",
      "type": "function"
    },
    {
      "constant": true,
      "inputs": [
        {
          "internalType": "address",
          "name": "account",
          "type": "address"
        }
      ],
      "name": "balanceOfPhantom",
      "outputs": [
        {
          "internalType": "uint256",
          "name": "",
          "type": "uint256"
        }
      ],
      "payable": false,
      "stateMutability": "view",
      "type": "function"
    },
    {
      "constant": true,
      "inputs": [
        {
          "internalType": "address",
          "name": "account",
          "type": "address"
        }
      ],
      "name": "balanceOfRewarded",
      "outputs": [
        {
          "internalType": "uint256",
          "name": "",
          "type": "uint256"
        }
      ],
      "payable": false,
      "stateMutability": "view",
      "type": "function"
    },
    {
      "constant": true,
      "inputs": [
        {
          "internalType": "address",
          "name": "account",
          "type": "address"
        }
      ],
      "name": "balanceOfStaged",
      "outputs": [
        {
          "internalType": "uint256",
          "name": "",
          "type": "uint256"
        }
      ],
      "payable": false,
      "stateMutability": "view",
      "type": "function"
    },
    {
      "constant": true,
      "inputs": [],
      "name": "dai",
      "outputs": [
        {
          "internalType": "address",
          "name": "",
          "type": "address"
        }
      ],
      "payable": false,
      "stateMutability": "view",
      "type": "function"
    },
    {
      "constant": true,
      "inputs": [],
      "name": "dao",
      "outputs": [
        {
          "internalType": "contract IDAO",
          "name": "",
          "type": "address"
        }
      ],
      "payable": false,
      "stateMutability": "view",
      "type": "function"
    },
    {
      "constant": true,
      "inputs": [],
      "name": "ethic",
      "outputs": [
        {
          "internalType": "contract IEthic",
          "name": "",
          "type": "address"
        }
      ],
      "payable": false,
      "stateMutability": "view",
      "type": "function"
    },
    {
      "constant": true,
      "inputs": [],
      "name": "paused",
      "outputs": [
        {
          "internalType": "bool",
          "name": "",
          "type": "bool"
        }
      ],
      "payable": false,
      "stateMutability": "view",
      "type": "function"
    },
    {
      "constant": true,
      "inputs": [
        {
          "internalType": "address",
          "name": "account",
          "type": "address"
        }
      ],
      "name": "statusOf",
      "outputs": [
        {
          "internalType": "enum PoolAccount.Status",
          "name": "",
          "type": "uint8"
        }
      ],
      "payable": false,
      "stateMutability": "view",
      "type": "function"
    },
    {
      "constant": true,
      "inputs": [],
      "name": "totalBonded",
      "outputs": [
        {
          "internalType": "uint256",
          "name": "",
          "type": "uint256"
        }
      ],
      "payable": false,
      "stateMutability": "view",
      "type": "function"
    },
    {
      "constant": true,
      "inputs": [],
      "name": "totalClaimable",
      "outputs": [
        {
          "internalType": "uint256",
          "name": "",
          "type": "uint256"
        }
      ],
      "payable": false,
      "stateMutability": "view",
      "type": "function"
    },
    {
      "constant": true,
      "inputs": [],
      "name": "totalPhantom",
      "outputs": [
        {
          "internalType": "uint256",
          "name": "",
          "type": "uint256"
        }
      ],
      "payable": false,
      "stateMutability": "view",
      "type": "function"
    },
    {
      "constant": true,
      "inputs": [],
      "name": "totalRewarded",
      "outputs": [
        {
          "internalType": "uint256",
          "name": "",
          "type": "uint256"
        }
      ],
      "payable": false,
      "stateMutability": "view",
      "type": "function"
    },
    {
      "constant": true,
      "inputs": [],
      "name": "totalStaged",
      "outputs": [
        {
          "internalType": "uint256",
          "name": "",
          "type": "uint256"
        }
      ],
      "payable": false,
      "stateMutability": "view",
      "type": "function"
    },
    {
      "constant": true,
      "inputs": [],
      "name": "univ2",
      "outputs": [
        {
          "internalType": "contract IERC20",
          "name": "",
          "type": "address"
        }
      ],
      "payable": false,
      "stateMutability": "view",
      "type": "function"
    },
    {
      "constant": false,
      "inputs": [
        {
          "internalType": "uint256",
          "name": "value",
          "type": "uint256"
        }
      ],
      "name": "deposit",
      "outputs": [],
      "payable": false,
      "stateMutability": "nonpayable",
      "type": "function"
    },
    {
      "constant": false,
      "inputs": [
        {
          "internalType": "uint256",
          "name": "value",
          "type": "uint256"
        }
      ],
      "name": "withdraw",
      "outputs": [],
      "payable": false,
      "stateMutability": "nonpayable",
      "type": "function"
    },
    {
      "constant": false,
      "inputs": [
        {
          "internalType": "uint256",
          "name": "value",
          "type": "uint256"
        }
      ],
      "name": "claim",
      "outputs": [],
      "payable": false,
      "stateMutability": "nonpayable",
      "type": "function"
    },
    {
      "constant": false,
      "inputs": [
        {
          "internalType": "uint256",
          "name": "value",
          "type": "uint256"
        }
      ],
      "name": "bond",
      "outputs": [],
      "payable": false,
      "stateMutability": "nonpayable",
      "type": "function"
    },
    {
      "constant": false,
      "inputs": [
        {
          "internalType": "uint256",
          "name": "value",
          "type": "uint256"
        }
      ],
      "name": "unbond",
      "outputs": [],
      "payable": false,
      "stateMutability": "nonpayable",
      "type": "function"
    },
    {
      "constant": false,
      "inputs": [
        {
          "internalType": "uint256",
          "name": "value",
          "type": "uint256"
        }
      ],
      "name": "provide",
      "outputs": [],
      "payable": false,
      "stateMutability": "nonpayable",
      "type": "function"
    },
    {
      "constant": false,
      "inputs": [
        {
          "internalType": "address",
          "name": "token",
          "type": "address"
        },
        {
          "internalType": "uint256",
          "name": "value",
          "type": "uint256"
        }
      ],
      "name": "emergencyWithdraw",
      "outputs": [],
      "payable": false,
      "stateMutability": "nonpayable",
      "type": "function"
    },
    {
      "constant": false,
      "inputs": [],
      "name": "emergencyPause",
      "outputs": [],
      "payable": false,
      "stateMutability": "nonpayable",
      "type": "function"
    }
  ],
  "bytecode": "0x60806040523480156200001157600080fd5b50604051620020d8380380620020d8833981016040819052620000349162000084565b600480546001600160a01b03199081163317909155600580546001600160a01b0394851690831617905560068054929093169116179055620000ef565b80516200007e81620000d5565b92915050565b600080604083850312156200009857600080fd5b6000620000a6858562000071565b9250506020620000b98582860162000071565b9150509250929050565b60006001600160a01b0382166200007e565b620000e081620000c3565b8114620000ec57600080fd5b50565b611fd980620000ff6000396000f3fe608060405234801561001057600080fd5b50600436106101585760003560e01c8063825ad607116100c3578063b6b55f251161007c578063b6b55f25146102a5578063c0d7a94f146102b8578063c0ec4ac5146102cb578063cf023779146102d3578063e0cf7285146102db578063f4b9fa75146102e357610158565b8063825ad6071461023157806386cf9f141461024457806395ccea671461025757806397a5d5b51461026a5780639940686e1461028a578063aed29d071461029d57610158565b80634162169f116101155780634162169f146101e757806344d96e95146101fc5780634838ed191461020457806351858e271461020c5780635c975abb146102145780637298d36e1461022957610158565b80631667eb171461015d57806327de9e321461018657806329f32ed41461019b5780632e1a7d4d146101ae5780632e2ebe06146101c1578063379607f5146101d4575b600080fd5b61017061016b366004611871565b6102f8565b60405161017d9190611dcc565b60405180910390f35b61019961019436600461193c565b61031a565b005b6101706101a9366004611871565b610463565b6101996101bc36600461193c565b610481565b6101996101cf36600461193c565b6105b0565b6101996101e236600461193c565b610755565b6101ef61084c565b60405161017d9190611d3f565b61017061085b565b610170610861565b610199610867565b61021c6108a8565b60405161017d9190611d31565b6101ef6108b1565b61017061023f366004611871565b6108c0565b610170610252366004611871565b6108de565b610199610265366004611897565b6108f9565b61027d610278366004611871565b610990565b60405161017d9190611d4d565b61019961029836600461193c565b6109ca565b610170610ab8565b6101996102b336600461193c565b610b59565b6101706102c6366004611871565b610c44565b6101ef610ccc565b610170610cdb565b610170610ce1565b6102eb610ce7565b60405161017d9190611cd2565b6001600160a01b0381166000908152600860205260409020600101545b919050565b61032333610cf1565b600061032e336108c0565b90506103656000821163141bdbdb60e21b7f696e73756666696369656e7420626f6e6465642062616c616e63650000000000610d23565b6000610390826103848561037833610c44565b9063ffffffff610d8116565b9063ffffffff610dc216565b905060006103a5836103848661037833610463565b90506103b13385610e04565b6103bb3383610e61565b6103de3385604051806060016040528060218152602001611f7660219139610ec6565b6104013382604051806060016040528060228152602001611f3360229139610f2e565b610409610f96565b337f93530ac0ee8c50e696e13c5ac62355d0c0ba4bd943620d5bda1eb08b64ae7512610444600161043861105f565b9063ffffffff6110d916565b868560405161045593929190611de8565b60405180910390a250505050565b6001600160a01b031660009081526008602052604090206003015490565b336104b860005b61049183610990565b600281111561049c57fe5b1463141bdbdb60e21b692737ba10333937bd32b760b11b610d23565b6104c06108b1565b6001600160a01b031663a9059cbb33846040518363ffffffff1660e01b81526004016104ed929190611d08565b602060405180830381600087803b15801561050757600080fd5b505af115801561051b573d6000803e3d6000fd5b505050506040513d601f19601f8201168201806040525061053f91908101906118d1565b506105633383604051806060016040528060218152602001611f55602191396110fe565b61056b610f96565b336001600160a01b03167f884edad9ce6fa2440d8a54cc123490eb96d2768479d49ff9c7366125a9424364836040516105a49190611dcc565b60405180910390a25050565b336105bb6000610488565b6105de6105c66108a8565b1563141bdbdb60e21b6514185d5cd95960d21b610d23565b61061a60006105eb61085b565b1163141bdbdb60e21b7f696e73756666696369656e7420746f74616c20626f6e64656400000000000000610d23565b6106566000610627610ab8565b1163141bdbdb60e21b7f696e73756666696369656e7420746f74616c2072657761726465640000000000610d23565b6106938261066333610c44565b101563141bdbdb60e21b7f696e73756666696369656e742072657761726465642062616c616e6365000000610d23565b60008061069f8461115e565b9150915060006106bc856104386106b4610ce1565b610438610ab8565b905060006106db6106cb61085b565b610384848663ffffffff610d8116565b90506106e73384611351565b610700336106fb888463ffffffff6110d916565b6113b6565b610708610f96565b336001600160a01b03167fbe9d8078818a53534ce225882a00e0c6f709b5296c8a08c3a1f23f9ffd44838087868660405161074593929190611de8565b60405180910390a2505050505050565b336107606000610488565b610768610ccc565b6001600160a01b031663a9059cbb33846040518363ffffffff1660e01b8152600401610795929190611d08565b602060405180830381600087803b1580156107af57600080fd5b505af11580156107c3573d6000803e3d6000fd5b505050506040513d601f19601f820116820180604052506107e791908101906118d1565b5061080b3383604051806060016040528060248152602001611f0f6024913961141b565b610813610f96565b336001600160a01b03167f47cee97cb7acd717b3c0aa1435d004cd5b3c8c57d70dbceb4e4458bbd60e39d4836040516105a49190611dcc565b6004546001600160a01b031690565b60025490565b60015490565b61089e61087261084c565b6001600160a01b0316336001600160a01b03161463141bdbdb60e21b664e6f742064616f60c81b610d23565b6108a6611483565b565b60075460ff1690565b6006546001600160a01b031690565b6001600160a01b031660009081526008602052604090206002015490565b6001600160a01b031660009081526008602052604090205490565b61090461087261084c565b816001600160a01b031663a9059cbb61091b61084c565b836040518363ffffffff1660e01b8152600401610939929190611d23565b602060405180830381600087803b15801561095357600080fd5b505af1158015610967573d6000803e3d6000fd5b505050506040513d601f19601f8201168201806040525061098b91908101906118d1565b505050565b6001600160a01b0381166000908152600860205260408120600401546109b461105f565b10156109c15760016109c4565b60005b92915050565b6109d56105c66108a8565b6109de33610cf1565b60006109eb6106b4610ce1565b905060006109f761085b565b15610a0c57610a076106cb61085b565b610a2c565b610a14610ab8565b15610a20576000610a2c565b610a2c83610378611492565b9050610a383384611351565b610a4233826113b6565b610a653384604051806060016040528060218152602001611f55602191396110fe565b610a6d610f96565b337f3ae9ad26d7d47616d306d7757b947fe7b0f9a7c61a5f0dc784b0ddb6c7c40b5a610a9c600161043861105f565b85604051610aab929190611dda565b60405180910390a2505050565b6000610b54610ac5610861565b610acd610ccc565b6001600160a01b03166370a08231306040518263ffffffff1660e01b8152600401610af89190611cd2565b60206040518083038186803b158015610b1057600080fd5b505afa158015610b24573d6000803e3d6000fd5b505050506040513d601f19601f82011682018060405250610b48919081019061195a565b9063ffffffff61149916565b905090565b33610b646000610488565b610b6f6105c66108a8565b610b776108b1565b6001600160a01b03166323b872dd3330856040518463ffffffff1660e01b8152600401610ba693929190611ce0565b602060405180830381600087803b158015610bc057600080fd5b505af1158015610bd4573d6000803e3d6000fd5b505050506040513d601f19601f82011682018060405250610bf891908101906118d1565b50610c033383610e04565b610c0b610f96565b336001600160a01b03167fe1fffcc4923d04b559f4d29a8bfc6cda04eb5b0d3c460751c2402c5c5cc9109c836040516105a49190611dcc565b600080610c4f61085b565b905080610c60576000915050610315565b6000610c6d6106b4610ce1565b90506000610c8e83610384610c81886108c0565b859063ffffffff610d8116565b90506000610c9b86610463565b905080821115610cc057610cb5828263ffffffff61149916565b945050505050610315565b50600095945050505050565b6005546001600160a01b031690565b60005490565b60035490565b6000610b546114db565b610d04610cfc6114f3565b61043861105f565b6001600160a01b03909116600090815260086020526040902060040155565b8261098b57610d31826114f8565b6101d160f51b610d40836114f8565b604051602001610d5293929190611c6b565b60408051601f198184030181529082905262461bcd60e51b8252610d7891600401611d5b565b60405180910390fd5b600082610d90575060006109c4565b82820282848281610d9d57fe5b0414610dbb5760405162461bcd60e51b8152600401610d7890611d9c565b9392505050565b6000610dbb83836040518060400160405280601a81526020017f536166654d6174683a206469766973696f6e206279207a65726f000000000000815250611578565b6001600160a01b038216600090815260086020526040902054610e2d908263ffffffff6110d916565b6001600160a01b03831660009081526008602052604081209190915554610e5a908263ffffffff6110d916565b6000555050565b6001600160a01b038216600090815260086020526040902060010154610e8d908263ffffffff6110d916565b6001600160a01b038316600090815260086020526040902060019081019190915554610ebf908263ffffffff6110d916565b6001555050565b6001600160a01b038316600090815260086020526040902060020154610ef390838363ffffffff6115af16565b6001600160a01b038416600090815260086020526040902060029081019190915554610f2690838363ffffffff6115af16565b600255505050565b6001600160a01b038316600090815260086020526040902060030154610f5b90838363ffffffff6115af16565b6001600160a01b038416600090815260086020526040902060039081019190915554610f8e90838363ffffffff6115af16565b600355505050565b6108a6610fac610fa461085b565b610438610cdb565b610fb46108b1565b6001600160a01b03166370a08231306040518263ffffffff1660e01b8152600401610fdf9190611cd2565b60206040518083038186803b158015610ff757600080fd5b505afa15801561100b573d6000803e3d6000fd5b505050506040513d601f19601f8201168201806040525061102f919081019061195a565b101563141bdbdb60e21b7f496e636f6e73697374656e7420554e492d56322062616c616e63657300000000610d23565b600061106961084c565b6001600160a01b031663900cf0cf6040518163ffffffff1660e01b815260040160206040518083038186803b1580156110a157600080fd5b505afa1580156110b5573d6000803e3d6000fd5b505050506040513d601f19601f82011682018060405250610b54919081019061195a565b600082820183811015610dbb5760405162461bcd60e51b8152600401610d7890611d6c565b6001600160a01b03831660009081526008602052604090205461112890838363ffffffff6115af16565b6001600160a01b0384166000908152600860205260408120919091555461115690838363ffffffff6115af16565b600055505050565b60008060008061116c610ccc565b611174610ce7565b9150915060008061118584846115db565b915091506000826000148015611199575081155b6111ad576111a88884846116c7565b6111af565b875b905060006111bb6108b1565b60405163a9059cbb60e01b81529091506001600160a01b0387169063a9059cbb906111ec9084908d90600401611d23565b602060405180830381600087803b15801561120657600080fd5b505af115801561121a573d6000803e3d6000fd5b505050506040513d601f19601f8201168201806040525061123e91908101906118d1565b506040516323b872dd60e01b81526001600160a01b038616906323b872dd9061126f90339085908790600401611ce0565b602060405180830381600087803b15801561128957600080fd5b505af115801561129d573d6000803e3d6000fd5b505050506040513d601f19601f820116820180604052506112c191908101906118d1565b506040516335313c2160e11b815282906001600160a01b03831690636a627842906112f0903090600401611cd2565b602060405180830381600087803b15801561130a57600080fd5b505af115801561131e573d6000803e3d6000fd5b505050506040513d601f19601f82011682018060405250611342919081019061195a565b97509750505050505050915091565b6001600160a01b03821660009081526008602052604090206002015461137d908263ffffffff6110d916565b6001600160a01b0383166000908152600860205260409020600290810191909155546113af908263ffffffff6110d916565b6002555050565b6001600160a01b0382166000908152600860205260409020600301546113e2908263ffffffff6110d916565b6001600160a01b038316600090815260086020526040902060039081019190915554611414908263ffffffff6110d916565b6003555050565b6001600160a01b03831660009081526008602052604090206001015461144890838363ffffffff6115af16565b6001600160a01b03841660009081526008602052604090206001908101919091555461147b90838363ffffffff6115af16565b600155505050565b6007805460ff19166001179055565b620f424090565b6000610dbb83836040518060400160405280601e81526020017f536166654d6174683a207375627472616374696f6e206f766572666c6f7700008152506115af565b734f96fe3b7a6cf9725f59d353f723c1bdb64ca6aa90565b606090565b6060808260405160200161150c9190611c56565b60408051601f19818403018152919052905060205b80156115615781516000199091019082908290811061153c57fe5b01602001516001600160f81b0319161561155c5760010181529050610315565b611521565b505060408051600081526020810190915292915050565b600081836115995760405162461bcd60e51b8152600401610d789190611d5b565b5060008385816115a557fe5b0495945050505050565b600081848411156115d35760405162461bcd60e51b8152600401610d789190611d5b565b505050900390565b60008060006115ea8585611735565b50905060008061160f735c69bee701ef814a2b6a3edd4b1652cb9cc5aa6f88886117bf565b6001600160a01b0316630902f1ac6040518163ffffffff1660e01b815260040160606040518083038186803b15801561164757600080fd5b505afa15801561165b573d6000803e3d6000fd5b505050506040513d601f19601f8201168201806040525061167f91908101906118ef565b506001600160701b031691506001600160701b03169150826001600160a01b0316876001600160a01b0316146116b65780826116b9565b81815b909890975095505050505050565b60008084116116e85760405162461bcd60e51b8152600401610d7890611dac565b6000831180156116f85750600082115b6117145760405162461bcd60e51b8152600401610d7890611d8c565b82611725858463ffffffff610d8116565b8161172c57fe5b04949350505050565b600080826001600160a01b0316846001600160a01b0316141561176a5760405162461bcd60e51b8152600401610d7890611d7c565b826001600160a01b0316846001600160a01b03161061178a57828461178d565b83835b90925090506001600160a01b0382166117b85760405162461bcd60e51b8152600401610d7890611dbc565b9250929050565b60008060006117ce8585611735565b915091508582826040516020016117e6929190611c30565b6040516020818303038152906040528051906020012060405160200161180d929190611c9c565b60408051601f1981840301815291905280516020909101209695505050505050565b80356109c481611ed6565b80516109c481611eea565b80516109c481611ef3565b80356109c481611efc565b80516109c481611efc565b80516109c481611f05565b60006020828403121561188357600080fd5b600061188f848461182f565b949350505050565b600080604083850312156118aa57600080fd5b60006118b6858561182f565b92505060206118c785828601611850565b9150509250929050565b6000602082840312156118e357600080fd5b600061188f848461183a565b60008060006060848603121561190457600080fd5b60006119108686611845565b935050602061192186828701611845565b925050604061193286828701611866565b9150509250925092565b60006020828403121561194e57600080fd5b600061188f8484611850565b60006020828403121561196c57600080fd5b600061188f848461185b565b61198181611e5b565b82525050565b61198181611e10565b61198161199c82611e10565b611ea8565b61198181611e1b565b6119816119b682611e20565b611e2d565b6119816119b682611e2d565b60006119d282611e03565b6119dc8185610315565b93506119ec818560208601611e78565b9290920192915050565b61198181611e62565b61198181611e6d565b6000611a1382611e03565b611a1d8185611e07565b9350611a2d818560208601611e78565b611a3681611eb9565b9093019392505050565b6000611a4d601b83611e07565b7f536166654d6174683a206164646974696f6e206f766572666c6f770000000000815260200192915050565b6000611a86602583611e07565b7f556e697377617056324c6962726172793a204944454e544943414c5f41444452815264455353455360d81b602082015260400192915050565b6000611acd602083610315565b7f96e8ac4277198ff8b6f785478aa9a39f403cb768dd02cbee326c3e7da348845f815260200192915050565b6000611b06602883611e07565b7f556e697377617056324c6962726172793a20494e53554646494349454e545f4c815267495155494449545960c01b602082015260400192915050565b6000611b50600183610315565b6001600160f81b0319815260010192915050565b6000611b71602183611e07565b7f536166654d6174683a206d756c7469706c69636174696f6e206f766572666c6f8152607760f81b602082015260400192915050565b6000611bb4602583611e07565b7f556e697377617056324c6962726172793a20494e53554646494349454e545f418152641353d5539560da1b602082015260400192915050565b6000611bfb601e83611e07565b7f556e697377617056324c6962726172793a205a45524f5f414444524553530000815260200192915050565b61198181611e2d565b6000611c3c8285611990565b601482019150611c4c8284611990565b5060140192915050565b6000611c6282846119bb565b50602001919050565b6000611c7782866119c7565b9150611c8382856119aa565b600282019150611c9382846119c7565b95945050505050565b6000611ca782611b43565b9150611cb38285611990565b601482019150611cc382846119bb565b60208201915061188f82611ac0565b602081016109c48284611987565b60608101611cee8286611978565b611cfb6020830185611987565b61188f6040830184611c27565b60408101611d168285611978565b610dbb6020830184611c27565b60408101611d168285611987565b602081016109c482846119a1565b602081016109c482846119f6565b602081016109c482846119ff565b60208082528101610dbb8184611a08565b602080825281016109c481611a40565b602080825281016109c481611a79565b602080825281016109c481611af9565b602080825281016109c481611b64565b602080825281016109c481611ba7565b602080825281016109c481611bee565b602081016109c48284611c27565b60408101611d168285611c27565b60608101611df68286611c27565b611cfb6020830185611c27565b5190565b90815260200190565b60006109c482611e46565b151590565b6001600160f01b03191690565b90565b8061031581611ec9565b6001600160701b031690565b6001600160a01b031690565b63ffffffff1690565b60006109c4825b60006109c482611e10565b60006109c482611e30565b60005b83811015611e93578181015183820152602001611e7b565b83811115611ea2576000848401525b50505050565b60006109c48260006109c482611ec3565b601f01601f191690565b60601b90565b60038110611ed357fe5b50565b611edf81611e10565b8114611ed357600080fd5b611edf81611e1b565b611edf81611e3a565b611edf81611e2d565b611edf81611e5256fe506f6f6c3a20696e73756666696369656e7420636c61696d61626c652062616c616e6365506f6f6c3a20696e73756666696369656e74207068616e746f6d2062616c616e6365506f6f6c3a20696e73756666696369656e74207374616765642062616c616e6365506f6f6c3a20696e73756666696369656e7420626f6e6465642062616c616e6365a365627a7a72315820565127070f60997832251037d938b3f82e727e0b63320d5784ad038ecdb2a1326c6578706572696d656e74616cf564736f6c63430005110040",
  "source": "/*\n    Copyright 2021 Ethic Money Devs <devs@ethic.money> and Copyright 2020 Empty Set Squad <emptysetsquad@protonmail.com>\n\n    Licensed under the Apache License, Version 2.0 (the \"License\");\n    you may not use this file except in compliance with the License.\n    You may obtain a copy of the License at\n\n    http://www.apache.org/licenses/LICENSE-2.0\n\n    Unless required by applicable law or agreed to in writing, software\n    distributed under the License is distributed on an \"AS IS\" BASIS,\n    WITHOUT WARRANTIES OR CONDITIONS OF ANY KIND, either express or implied.\n    See the License for the specific language governing permissions and\n    limitations under the License.\n*/\n\npragma solidity ^0.5.17;\npragma experimental ABIEncoderV2;\n\nimport \"@openzeppelin/contracts/math/SafeMath.sol\";\nimport \"@openzeppelin/contracts/token/ERC20/IERC20.sol\";\nimport \"../external/Require.sol\";\nimport \"../Constants.sol\";\nimport \"./PoolSetters.sol\";\nimport \"./Liquidity.sol\";\n\ncontract Pool is PoolSetters, Liquidity {\n    using SafeMath for uint256;\n\n    constructor(address ethic, address univ2) public {\n        _state.provider.dao = IDAO(msg.sender);\n        _state.provider.ethic = IEthic(ethic);\n        _state.provider.univ2 = IERC20(univ2);\n    }\n\n    bytes32 private constant FILE = \"Pool\";\n\n    event Deposit(address indexed account, uint256 value);\n    event Withdraw(address indexed account, uint256 value);\n    event Claim(address indexed account, uint256 value);\n    event Bond(address indexed account, uint256 start, uint256 value);\n    event Unbond(address indexed account, uint256 start, uint256 value, uint256 newClaimable);\n    event Provide(address indexed account, uint256 value, uint256 lessDai, uint256 newUniv2);\n\n    function deposit(uint256 value) external onlyFrozen(msg.sender) notPaused {\n        univ2().transferFrom(msg.sender, address(this), value);\n        incrementBalanceOfStaged(msg.sender, value);\n\n        balanceCheck();\n\n        emit Deposit(msg.sender, value);\n    }\n\n    function withdraw(uint256 value) external onlyFrozen(msg.sender) {\n        univ2().transfer(msg.sender, value);\n        decrementBalanceOfStaged(msg.sender, value, \"Pool: insufficient staged balance\");\n\n        balanceCheck();\n\n        emit Withdraw(msg.sender, value);\n    }\n\n    function claim(uint256 value) external onlyFrozen(msg.sender) {\n        ethic().transfer(msg.sender, value);\n        decrementBalanceOfClaimable(msg.sender, value, \"Pool: insufficient claimable balance\");\n\n        balanceCheck();\n\n        emit Claim(msg.sender, value);\n    }\n\n    function bond(uint256 value) external notPaused {\n        unfreeze(msg.sender);\n\n        uint256 totalRewardedWithPhantom = totalRewarded().add(totalPhantom());\n        uint256 newPhantom = totalBonded() == 0 ?\n            totalRewarded() == 0 ? Constants.getInitialStakeMultiple().mul(value) : 0 :\n            totalRewardedWithPhantom.mul(value).div(totalBonded());\n\n        incrementBalanceOfBonded(msg.sender, value);\n        incrementBalanceOfPhantom(msg.sender, newPhantom);\n        decrementBalanceOfStaged(msg.sender, value, \"Pool: insufficient staged balance\");\n\n        balanceCheck();\n\n        emit Bond(msg.sender, epoch().add(1), value);\n    }\n\n    function unbond(uint256 value) external {\n        unfreeze(msg.sender);\n\n        uint256 balanceOfBonded = balanceOfBonded(msg.sender);\n        Require.that(\n            balanceOfBonded > 0,\n            FILE,\n            \"insufficient bonded balance\"\n        );\n\n        uint256 newClaimable = balanceOfRewarded(msg.sender).mul(value).div(balanceOfBonded);\n        uint256 lessPhantom = balanceOfPhantom(msg.sender).mul(value).div(balanceOfBonded);\n\n        incrementBalanceOfStaged(msg.sender, value);\n        incrementBalanceOfClaimable(msg.sender, newClaimable);\n        decrementBalanceOfBonded(msg.sender, value, \"Pool: insufficient bonded balance\");\n        decrementBalanceOfPhantom(msg.sender, lessPhantom, \"Pool: insufficient phantom balance\");\n\n        balanceCheck();\n\n        emit Unbond(msg.sender, epoch().add(1), value, newClaimable);\n    }\n\n    function provide(uint256 value) external onlyFrozen(msg.sender) notPaused {\n        Require.that(\n            totalBonded() > 0,\n            FILE,\n            \"insufficient total bonded\"\n        );\n\n        Require.that(\n            totalRewarded() > 0,\n            FILE,\n            \"insufficient total rewarded\"\n        );\n\n        Require.that(\n            balanceOfRewarded(msg.sender) >= value,\n            FILE,\n            \"insufficient rewarded balance\"\n        );\n\n        (uint256 lessDai, uint256 newUniv2) = addLiquidity(value);\n\n        uint256 totalRewardedWithPhantom = totalRewarded().add(totalPhantom()).add(value);\n        uint256 newPhantomFromBonded = totalRewardedWithPhantom.mul(newUniv2).div(totalBonded());\n\n        incrementBalanceOfBonded(msg.sender, newUniv2);\n        incrementBalanceOfPhantom(msg.sender, value.add(newPhantomFromBonded));\n\n\n        balanceCheck();\n\n        emit Provide(msg.sender, value, lessDai, newUniv2);\n    }\n\n    function emergencyWithdraw(address token, uint256 value) external onlyDao {\n        IERC20(token).transfer(address(dao()), value);\n    }\n\n    function emergencyPause() external onlyDao {\n        pause();\n    }\n\n    function balanceCheck() private {\n        Require.that(\n            univ2().balanceOf(address(this)) >= totalStaged().add(totalBonded()),\n            FILE,\n            \"Inconsistent UNI-V2 balances\"\n        );\n    }\n\n    modifier onlyFrozen(address account) {\n        Require.that(\n            statusOf(account) == PoolAccount.Status.Frozen,\n            FILE,\n            \"Not frozen\"\n        );\n\n        _;\n    }\n\n    modifier onlyDao() {\n        Require.that(\n            msg.sender == address(dao()),\n            FILE,\n            \"Not dao\"\n        );\n\n        _;\n    }\n\n    modifier notPaused() {\n        Require.that(\n            !paused(),\n            FILE,\n            \"Paused\"\n        );\n\n        _;\n    }\n}\n",
  "sourcePath": "/home/ville/projects/ethic/protocol/contracts/oracle/Pool.sol",
  "compiler": {
    "name": "solc",
    "version": "0.5.17+commit.d19bba13.Emscripten.clang"
  },
  "schemaVersion": "3.3.2",
  "updatedAt": "2021-02-04T14:35:44.003Z",
  "devdoc": {
    "methods": {}
  },
  "userdoc": {
    "methods": {
      "balanceOfStaged(address)": {
        "notice": "Account"
      },
      "dai()": {
        "notice": "Global"
      }
    }
  }
}